{"contracts/Supply.sol":{"Supply":{"abi":[{"inputs":[],"stateMutability":"nonpayable","type":"constructor"},{"anonymous":false,"inputs":[{"indexed":false,"internalType":"string","name":"msg","type":"string"}],"name":"success","type":"event"},{"inputs":[{"internalType":"string","name":"_name","type":"string"},{"internalType":"address","name":"_senderAddress","type":"address"}],"name":"addProduct","outputs":[],"stateMutability":"nonpayable","type":"function"},{"inputs":[{"internalType":"address","name":"_senderAddress","type":"address"},{"internalType":"uint256","name":"_healthPerc","type":"uint256"},{"internalType":"string","name":"_place","type":"string"},{"internalType":"string","name":"_time","type":"string"},{"internalType":"uint256","name":"_productId","type":"uint256"}],"name":"addProductTInfo","outputs":[],"stateMutability":"nonpayable","type":"function"},{"inputs":[],"name":"adminCount","outputs":[{"internalType":"uint256","name":"","type":"uint256"}],"stateMutability":"view","type":"function"},{"inputs":[{"internalType":"uint256","name":"","type":"uint256"}],"name":"adminSt","outputs":[{"internalType":"uint256","name":"adminId","type":"uint256"},{"internalType":"address","name":"adminAdd","type":"address"},{"internalType":"string","name":"name","type":"string"},{"internalType":"string","name":"company_name","type":"string"}],"stateMutability":"view","type":"function"},{"inputs":[{"internalType":"address","name":"","type":"address"}],"name":"adminsM","outputs":[{"internalType":"uint256","name":"adminId","type":"uint256"},{"internalType":"address","name":"adminAdd","type":"address"},{"internalType":"string","name":"name","type":"string"},{"internalType":"string","name":"company_name","type":"string"}],"stateMutability":"view","type":"function"},{"inputs":[{"internalType":"address","name":"senderAddress","type":"address"}],"name":"checkIfCompAdmin","outputs":[{"internalType":"string","name":"","type":"string"}],"stateMutability":"view","type":"function"},{"inputs":[],"name":"checkIfOwner","outputs":[{"internalType":"string","name":"","type":"string"}],"stateMutability":"view","type":"function"},{"inputs":[{"internalType":"address","name":"senderAddress","type":"address"}],"name":"checkIfSupplier","outputs":[{"internalType":"string","name":"","type":"string"}],"stateMutability":"view","type":"function"},{"inputs":[{"internalType":"uint256","name":"_index","type":"uint256"}],"name":"getAdminByindex","outputs":[{"components":[{"internalType":"uint256","name":"adminId","type":"uint256"},{"internalType":"address","name":"adminAdd","type":"address"},{"internalType":"string","name":"name","type":"string"},{"internalType":"string","name":"company_name","type":"string"}],"internalType":"struct Supply.AdminI","name":"","type":"tuple"}],"stateMutability":"view","type":"function"},{"inputs":[],"name":"getAdminCount","outputs":[{"internalType":"uint256","name":"","type":"uint256"}],"stateMutability":"view","type":"function"},{"inputs":[],"name":"getAllProducts","outputs":[{"components":[{"internalType":"uint256","name":"productId","type":"uint256"},{"internalType":"string","name":"name","type":"string"},{"internalType":"address","name":"supplierAddress","type":"address"}],"internalType":"struct Supply.ProductInfo[]","name":"","type":"tuple[]"}],"stateMutability":"view","type":"function"},{"inputs":[{"internalType":"uint256","name":"_index","type":"uint256"}],"name":"getProductByindex","outputs":[{"components":[{"internalType":"uint256","name":"productId","type":"uint256"},{"internalType":"string","name":"name","type":"string"},{"internalType":"address","name":"supplierAddress","type":"address"}],"internalType":"struct Supply.ProductInfo","name":"","type":"tuple"}],"stateMutability":"view","type":"function"},{"inputs":[],"name":"getProductCount","outputs":[{"internalType":"uint256","name":"","type":"uint256"}],"stateMutability":"view","type":"function"},{"inputs":[{"internalType":"uint256","name":"_productId","type":"uint256"}],"name":"getProductHist","outputs":[{"components":[{"internalType":"uint256","name":"healthPerc","type":"uint256"},{"internalType":"address","name":"workerA","type":"address"},{"internalType":"string","name":"place","type":"string"},{"internalType":"string","name":"time","type":"string"},{"internalType":"uint256","name":"productId","type":"uint256"}],"internalType":"struct Supply.ProductIT[]","name":"","type":"tuple[]"}],"stateMutability":"view","type":"function"},{"inputs":[{"internalType":"uint256","name":"_productId","type":"uint256"},{"internalType":"uint256","name":"_index","type":"uint256"}],"name":"getProductHistoryByIndex","outputs":[{"components":[{"internalType":"uint256","name":"healthPerc","type":"uint256"},{"internalType":"address","name":"workerA","type":"address"},{"internalType":"string","name":"place","type":"string"},{"internalType":"string","name":"time","type":"string"},{"internalType":"uint256","name":"productId","type":"uint256"}],"internalType":"struct Supply.ProductIT","name":"","type":"tuple"}],"stateMutability":"view","type":"function"},{"inputs":[{"internalType":"uint256","name":"_productId","type":"uint256"}],"name":"getProductHistoryCount","outputs":[{"internalType":"uint256","name":"","type":"uint256"}],"stateMutability":"view","type":"function"},{"inputs":[{"internalType":"uint256","name":"_index","type":"uint256"}],"name":"getSupplierByindex","outputs":[{"components":[{"internalType":"uint256","name":"supplierId","type":"uint256"},{"internalType":"address","name":"supplierDD","type":"address"},{"internalType":"string","name":"name","type":"string"},{"internalType":"address","name":"adminAdd","type":"address"}],"internalType":"struct Supply.SupplierI","name":"","type":"tuple"}],"stateMutability":"view","type":"function"},{"inputs":[],"name":"getSupplierCount","outputs":[{"internalType":"uint256","name":"","type":"uint256"}],"stateMutability":"view","type":"function"},{"inputs":[],"name":"owner","outputs":[{"internalType":"address","name":"","type":"address"}],"stateMutability":"view","type":"function"},{"inputs":[],"name":"productCount","outputs":[{"internalType":"uint256","name":"","type":"uint256"}],"stateMutability":"view","type":"function"},{"inputs":[{"internalType":"uint256","name":"","type":"uint256"},{"internalType":"uint256","name":"","type":"uint256"}],"name":"productIM","outputs":[{"internalType":"uint256","name":"healthPerc","type":"uint256"},{"internalType":"address","name":"workerA","type":"address"},{"internalType":"string","name":"place","type":"string"},{"internalType":"string","name":"time","type":"string"},{"internalType":"uint256","name":"productId","type":"uint256"}],"stateMutability":"view","type":"function"},{"inputs":[{"internalType":"uint256","name":"","type":"uint256"}],"name":"productSt","outputs":[{"internalType":"uint256","name":"productId","type":"uint256"},{"internalType":"string","name":"name","type":"string"},{"internalType":"address","name":"supplierAddress","type":"address"}],"stateMutability":"view","type":"function"},{"inputs":[{"internalType":"string","name":"_name","type":"string"},{"internalType":"string","name":"_company_name","type":"string"},{"internalType":"address","name":"_new_user","type":"address"}],"name":"registerNewAdmin","outputs":[],"stateMutability":"nonpayable","type":"function"},{"inputs":[{"internalType":"address","name":"senderAddress","type":"address"},{"internalType":"address","name":"_adminAddress","type":"address"},{"internalType":"string","name":"_name","type":"string"}],"name":"registerNewSupplier","outputs":[],"stateMutability":"nonpayable","type":"function"},{"inputs":[],"name":"supplierCount","outputs":[{"internalType":"uint256","name":"","type":"uint256"}],"stateMutability":"view","type":"function"},{"inputs":[{"internalType":"address","name":"","type":"address"},{"internalType":"address","name":"","type":"address"}],"name":"supplierM","outputs":[{"internalType":"uint256","name":"supplierId","type":"uint256"},{"internalType":"address","name":"supplierDD","type":"address"},{"internalType":"string","name":"name","type":"string"},{"internalType":"address","name":"adminAdd","type":"address"}],"stateMutability":"view","type":"function"},{"inputs":[{"internalType":"uint256","name":"","type":"uint256"}],"name":"supplierSt","outputs":[{"internalType":"uint256","name":"supplierId","type":"uint256"},{"internalType":"address","name":"supplierDD","type":"address"},{"internalType":"string","name":"name","type":"string"},{"internalType":"address","name":"adminAdd","type":"address"}],"stateMutability":"view","type":"function"},{"inputs":[{"internalType":"address","name":"","type":"address"}],"name":"supplierToAdmin","outputs":[{"internalType":"address","name":"","type":"address"}],"stateMutability":"view","type":"function"},{"inputs":[],"name":"viewAllAdmins","outputs":[{"components":[{"internalType":"uint256","name":"adminId","type":"uint256"},{"internalType":"address","name":"adminAdd","type":"address"},{"internalType":"string","name":"name","type":"string"},{"internalType":"string","name":"company_name","type":"string"}],"internalType":"struct Supply.AdminI[]","name":"","type":"tuple[]"}],"stateMutability":"view","type":"function"},{"inputs":[],"name":"viewAllSuppliers","outputs":[{"components":[{"internalType":"uint256","name":"supplierId","type":"uint256"},{"internalType":"address","name":"supplierDD","type":"address"},{"internalType":"string","name":"name","type":"string"},{"internalType":"address","name":"adminAdd","type":"address"}],"internalType":"struct Supply.SupplierI[]","name":"","type":"tuple[]"}],"stateMutability":"view","type":"function"},{"inputs":[{"internalType":"address","name":"","type":"address"},{"internalType":"uint256","name":"","type":"uint256"}],"name":"workerM","outputs":[{"internalType":"uint256","name":"workerId","type":"uint256"},{"internalType":"address","name":"workerDD","type":"address"},{"internalType":"string","name":"name","type":"string"},{"internalType":"address","name":"supplierAdd","type":"address"}],"stateMutability":"view","type":"function"},{"inputs":[{"internalType":"uint256","name":"","type":"uint256"}],"name":"workerSt","outputs":[{"internalType":"uint256","name":"workerId","type":"uint256"},{"internalType":"address","name":"workerDD","type":"address"},{"internalType":"string","name":"name","type":"string"},{"internalType":"address","name":"supplierAdd","type":"address"}],"stateMutability":"view","type":"function"}],"devdoc":{"kind":"dev","methods":{},"version":1},"evm":{"bytecode":{"linkReferences":{},"object":"608060405234801561001057600080fd5b50336000806101000a81548173ffffffffffffffffffffffffffffffffffffffff021916908373ffffffffffffffffffffffffffffffffffffffff160217905550600060018190555060006002819055506000600381905550613f69806100786000396000f3fe608060405234801561001057600080fd5b50600436106101f05760003560e01c8063898de7731161010f578063c44b5c55116100a2578063e0f6ef8711610071578063e0f6ef871461065d578063e9064fe91461067b578063eb130f3d14610697578063f0b00bbb146106c7576101f0565b8063c44b5c55146105ad578063cca5822f146105dd578063dde9c1961461060d578063dfa8ba8a1461063f576101f0565b80638da5cb5b116100de5780638da5cb5b146104f65780639acc36b514610514578063a59ec47014610547578063ae4225991461057a576101f0565b8063898de7731461045757806389ca5b68146104755780638b207dd8146104a55780638b7bf3eb146104d8576101f0565b80632b7832b311610187578063562294651161015657806356229465146103a8578063618dbb20146103c45780636f703bc8146103f45780637834771214610427576101f0565b80632b7832b314610332578063330de0f9146103505780634a348da91461036c5780635083f4b31461038a576101f0565b80630ea69718116101c35780630ea6971814610293578063140c6b91146102c357806323218e5f146102e15780632af673a3146102ff576101f0565b806301fdfcff146101f557806302ee3a52146102115780630bdd2ec01461022f5780630e4e60d71461025f575b600080fd5b61020f600480360381019061020a9190612d2d565b6106f7565b005b610219610845565b6040516102269190612f8f565b60405180910390f35b61024960048036038101906102449190612fb1565b610a06565b6040516102569190612fed565b60405180910390f35b61027960048036038101906102749190613008565b610a39565b60405161028a9594939291906130a1565b60405180910390f35b6102ad60048036038101906102a89190613102565b610bbc565b6040516102ba919061326e565b60405180910390f35b6102cb610dbc565b6040516102d89190613290565b60405180910390f35b6102e9610dc2565b6040516102f69190613290565b60405180910390f35b61031960048036038101906103149190612fb1565b610dcc565b60405161032994939291906132ab565b60405180910390f35b61033a610f2c565b6040516103479190613290565b60405180910390f35b61036a600480360381019061036591906132fe565b610f32565b005b610374611141565b6040516103819190613290565b60405180910390f35b61039261114b565b60405161039f91906134b5565b60405180910390f35b6103c260048036038101906103bd91906134d7565b6113aa565b005b6103de60048036038101906103d99190613102565b6114d2565b6040516103eb9190613583565b60405180910390f35b61040e600480360381019061040991906135a5565b611600565b60405161041e94939291906135e5565b60405180910390f35b610441600480360381019061043c9190613102565b611705565b60405161044e9190613290565b60405180910390f35b61045f611725565b60405161046c9190613631565b60405180910390f35b61048f600480360381019061048a9190612fb1565b6117f0565b60405161049c9190613631565b60405180910390f35b6104bf60048036038101906104ba9190613102565b611956565b6040516104cf94939291906132ab565b60405180910390f35b6104e0611ac6565b6040516104ed9190613290565b60405180910390f35b6104fe611ad0565b60405161050b9190612fed565b60405180910390f35b61052e60048036038101906105299190613102565b611af4565b60405161053e94939291906135e5565b60405180910390f35b610561600480360381019061055c9190613653565b611bfc565b60405161057194939291906135e5565b60405180910390f35b610594600480360381019061058f9190613102565b611d11565b6040516105a494939291906135e5565b60405180910390f35b6105c760048036038101906105c29190613102565b611e19565b6040516105d491906136fd565b60405180910390f35b6105f760048036038101906105f29190612fb1565b611fd9565b6040516106049190613631565b60405180910390f35b61062760048036038101906106229190613102565b61209d565b6040516106369392919061371f565b60405180910390f35b61064761217f565b6040516106549190613882565b60405180910390f35b610665612396565b6040516106729190613290565b60405180910390f35b610695600480360381019061069091906138a4565b61239c565b005b6106b160048036038101906106ac9190613102565b6126d1565b6040516106be9190613976565b60405180910390f35b6106e160048036038101906106dc9190613008565b612855565b6040516106ee9190613a15565b60405180910390f35b610700856117f0565b5060006040518060a001604052808681526020018773ffffffffffffffffffffffffffffffffffffffff168152602001858152602001848152602001838152509050600860008381526020019081526020016000208190806001815401808255809150506001900390600052602060002090600502016000909190919091506000820151816000015560208201518160010160006101000a81548173ffffffffffffffffffffffffffffffffffffffff021916908373ffffffffffffffffffffffffffffffffffffffff16021790555060408201518160020190816107e59190613c43565b5060608201518160030190816107fb9190613c43565b506080820151816004015550507f68f068b2f0d02fca99bc8285b62fce8668fe16b7c6a810351ea25bff358c0dd860405161083590613d61565b60405180910390a1505050505050565b60606000600c8054905067ffffffffffffffff81111561086857610867612c02565b5b6040519080825280602002602001820160405280156108a157816020015b61088e612a31565b8152602001906001900390816108865790505b50905060005b600c805490508110156109fe57600c81815481106108c8576108c7613d81565b5b9060005260206000209060030201604051806060016040529081600082015481526020016001820180546108fb90613a66565b80601f016020809104026020016040519081016040528092919081815260200182805461092790613a66565b80156109745780601f1061094957610100808354040283529160200191610974565b820191906000526020600020905b81548152906001019060200180831161095757829003601f168201915b505050505081526020016002820160009054906101000a900473ffffffffffffffffffffffffffffffffffffffff1673ffffffffffffffffffffffffffffffffffffffff1673ffffffffffffffffffffffffffffffffffffffff16815250508282815181106109e6576109e5613d81565b5b602002602001018190525080806001019150506108a7565b508091505090565b60066020528060005260406000206000915054906101000a900473ffffffffffffffffffffffffffffffffffffffff1681565b60086020528160005260406000208181548110610a5557600080fd5b9060005260206000209060050201600091509150508060000154908060010160009054906101000a900473ffffffffffffffffffffffffffffffffffffffff1690806002018054610aa590613a66565b80601f0160208091040260200160405190810160405280929190818152602001828054610ad190613a66565b8015610b1e5780601f10610af357610100808354040283529160200191610b1e565b820191906000526020600020905b815481529060010190602001808311610b0157829003601f168201915b505050505090806003018054610b3390613a66565b80601f0160208091040260200160405190810160405280929190818152602001828054610b5f90613a66565b8015610bac5780601f10610b8157610100808354040283529160200191610bac565b820191906000526020600020905b815481529060010190602001808311610b8f57829003601f168201915b5050505050908060040154905085565b606060086000838152602001908152602001600020805480602002602001604051908101604052809291908181526020016000905b82821015610db157838290600052602060002090600502016040518060a0016040529081600082015481526020016001820160009054906101000a900473ffffffffffffffffffffffffffffffffffffffff1673ffffffffffffffffffffffffffffffffffffffff1673ffffffffffffffffffffffffffffffffffffffff168152602001600282018054610c8490613a66565b80601f0160208091040260200160405190810160405280929190818152602001828054610cb090613a66565b8015610cfd5780601f10610cd257610100808354040283529160200191610cfd565b820191906000526020600020905b815481529060010190602001808311610ce057829003601f168201915b50505050508152602001600382018054610d1690613a66565b80601f0160208091040260200160405190810160405280929190818152602001828054610d4290613a66565b8015610d8f5780601f10610d6457610100808354040283529160200191610d8f565b820191906000526020600020905b815481529060010190602001808311610d7257829003601f168201915b5050505050815260200160048201548152505081526020019060010190610bf1565b505050509050919050565b60025481565b6000600254905090565b60046020528060005260406000206000915090508060000154908060010160009054906101000a900473ffffffffffffffffffffffffffffffffffffffff1690806002018054610e1b90613a66565b80601f0160208091040260200160405190810160405280929190818152602001828054610e4790613a66565b8015610e945780601f10610e6957610100808354040283529160200191610e94565b820191906000526020600020905b815481529060010190602001808311610e7757829003601f168201915b505050505090806003018054610ea990613a66565b80601f0160208091040260200160405190810160405280929190818152602001828054610ed590613a66565b8015610f225780601f10610ef757610100808354040283529160200191610f22565b820191906000526020600020905b815481529060010190602001808311610f0557829003601f168201915b5050505050905084565b60015481565b610f3a611725565b506000604051806080016040528060018054610f569190613ddf565b81526020018373ffffffffffffffffffffffffffffffffffffffff16815260200185815260200184815250905080600460008473ffffffffffffffffffffffffffffffffffffffff1673ffffffffffffffffffffffffffffffffffffffff1681526020019081526020016000206000820151816000015560208201518160010160006101000a81548173ffffffffffffffffffffffffffffffffffffffff021916908373ffffffffffffffffffffffffffffffffffffffff16021790555060408201518160020190816110299190613c43565b50606082015181600301908161103f9190613c43565b5090505060098190806001815401808255809150506001900390600052602060002090600402016000909190919091506000820151816000015560208201518160010160006101000a81548173ffffffffffffffffffffffffffffffffffffffff021916908373ffffffffffffffffffffffffffffffffffffffff16021790555060408201518160020190816110d59190613c43565b5060608201518160030190816110eb9190613c43565b5050506001600081548092919061110190613e13565b91905055507f68f068b2f0d02fca99bc8285b62fce8668fe16b7c6a810351ea25bff358c0dd860405161113390613ea7565b60405180910390a150505050565b6000600354905090565b6060600060098054905067ffffffffffffffff81111561116e5761116d612c02565b5b6040519080825280602002602001820160405280156111a757816020015b611194612a68565b81526020019060019003908161118c5790505b50905060005b6009805490508110156113a257600981815481106111ce576111cd613d81565b5b9060005260206000209060040201604051806080016040529081600082015481526020016001820160009054906101000a900473ffffffffffffffffffffffffffffffffffffffff1673ffffffffffffffffffffffffffffffffffffffff1673ffffffffffffffffffffffffffffffffffffffff16815260200160028201805461125790613a66565b80601f016020809104026020016040519081016040528092919081815260200182805461128390613a66565b80156112d05780601f106112a5576101008083540402835291602001916112d0565b820191906000526020600020905b8154815290600101906020018083116112b357829003601f168201915b505050505081526020016003820180546112e990613a66565b80601f016020809104026020016040519081016040528092919081815260200182805461131590613a66565b80156113625780601f1061133757610100808354040283529160200191611362565b820191906000526020600020905b81548152906001019060200180831161134557829003601f168201915b505050505081525050826001836113799190613ddf565b8151811061138a57611389613d81565b5b602002602001018190525080806001019150506111ad565b508091505090565b6113b3816117f0565b5060006040518060600160405280600c8054905081526020018481526020018373ffffffffffffffffffffffffffffffffffffffff168152509050600c8190806001815401808255809150506001900390600052602060002090600302016000909190919091506000820151816000015560208201518160010190816114399190613c43565b5060408201518160020160006101000a81548173ffffffffffffffffffffffffffffffffffffffff021916908373ffffffffffffffffffffffffffffffffffffffff160217905550505060016003546114929190613ddf565b6003819055507f68f068b2f0d02fca99bc8285b62fce8668fe16b7c6a810351ea25bff358c0dd86040516114c590613d61565b60405180910390a1505050565b6114da612a31565b600c82815481106114ee576114ed613d81565b5b90600052602060002090600302016040518060600160405290816000820154815260200160018201805461152190613a66565b80601f016020809104026020016040519081016040528092919081815260200182805461154d90613a66565b801561159a5780601f1061156f5761010080835404028352916020019161159a565b820191906000526020600020905b81548152906001019060200180831161157d57829003601f168201915b505050505081526020016002820160009054906101000a900473ffffffffffffffffffffffffffffffffffffffff1673ffffffffffffffffffffffffffffffffffffffff1673ffffffffffffffffffffffffffffffffffffffff16815250509050919050565b6005602052816000526040600020602052806000526040600020600091509150508060000154908060010160009054906101000a900473ffffffffffffffffffffffffffffffffffffffff169080600201805461165c90613a66565b80601f016020809104026020016040519081016040528092919081815260200182805461168890613a66565b80156116d55780601f106116aa576101008083540402835291602001916116d5565b820191906000526020600020905b8154815290600101906020018083116116b857829003601f168201915b5050505050908060030160009054906101000a900473ffffffffffffffffffffffffffffffffffffffff16905084565b600060086000838152602001908152602001600020805490509050919050565b606060008054906101000a900473ffffffffffffffffffffffffffffffffffffffff1673ffffffffffffffffffffffffffffffffffffffff163373ffffffffffffffffffffffffffffffffffffffff16146117b5576040517f08c379a00000000000000000000000000000000000000000000000000000000081526004016117ac90613f13565b60405180910390fd5b6040518060400160405280600481526020017f7472756500000000000000000000000000000000000000000000000000000000815250905090565b60606000600660008473ffffffffffffffffffffffffffffffffffffffff1673ffffffffffffffffffffffffffffffffffffffff16815260200190815260200160002060009054906101000a900473ffffffffffffffffffffffffffffffffffffffff1690506000600560008373ffffffffffffffffffffffffffffffffffffffff1673ffffffffffffffffffffffffffffffffffffffff16815260200190815260200160002060008573ffffffffffffffffffffffffffffffffffffffff1673ffffffffffffffffffffffffffffffffffffffff1681526020019081526020016000206000015403611918576040517f08c379a000000000000000000000000000000000000000000000000000000000815260040161190f90613f13565b60405180910390fd5b6040518060400160405280600481526020017f7472756500000000000000000000000000000000000000000000000000000000815250915050919050565b6009818154811061196657600080fd5b90600052602060002090600402016000915090508060000154908060010160009054906101000a900473ffffffffffffffffffffffffffffffffffffffff16908060020180546119b590613a66565b80601f01602080910402602001604051908101604052809291908181526020018280546119e190613a66565b8015611a2e5780601f10611a0357610100808354040283529160200191611a2e565b820191906000526020600020905b815481529060010190602001808311611a1157829003601f168201915b505050505090806003018054611a4390613a66565b80601f0160208091040260200160405190810160405280929190818152602001828054611a6f90613a66565b8015611abc5780601f10611a9157610100808354040283529160200191611abc565b820191906000526020600020905b815481529060010190602001808311611a9f57829003601f168201915b5050505050905084565b6000600154905090565b60008054906101000a900473ffffffffffffffffffffffffffffffffffffffff1681565b600a8181548110611b0457600080fd5b90600052602060002090600402016000915090508060000154908060010160009054906101000a900473ffffffffffffffffffffffffffffffffffffffff1690806002018054611b5390613a66565b80601f0160208091040260200160405190810160405280929190818152602001828054611b7f90613a66565b8015611bcc5780601f10611ba157610100808354040283529160200191611bcc565b820191906000526020600020905b815481529060010190602001808311611baf57829003601f168201915b5050505050908060030160009054906101000a900473ffffffffffffffffffffffffffffffffffffffff16905084565b60076020528160005260406000208181548110611c1857600080fd5b9060005260206000209060040201600091509150508060000154908060010160009054906101000a900473ffffffffffffffffffffffffffffffffffffffff1690806002018054611c6890613a66565b80601f0160208091040260200160405190810160405280929190818152602001828054611c9490613a66565b8015611ce15780601f10611cb657610100808354040283529160200191611ce1565b820191906000526020600020905b815481529060010190602001808311611cc457829003601f168201915b5050505050908060030160009054906101000a900473ffffffffffffffffffffffffffffffffffffffff16905084565b600b8181548110611d2157600080fd5b90600052602060002090600402016000915090508060000154908060010160009054906101000a900473ffffffffffffffffffffffffffffffffffffffff1690806002018054611d7090613a66565b80601f0160208091040260200160405190810160405280929190818152602001828054611d9c90613a66565b8015611de95780601f10611dbe57610100808354040283529160200191611de9565b820191906000526020600020905b815481529060010190602001808311611dcc57829003601f168201915b5050505050908060030160009054906101000a900473ffffffffffffffffffffffffffffffffffffffff16905084565b611e21612a68565b60098281548110611e3557611e34613d81565b5b9060005260206000209060040201604051806080016040529081600082015481526020016001820160009054906101000a900473ffffffffffffffffffffffffffffffffffffffff1673ffffffffffffffffffffffffffffffffffffffff1673ffffffffffffffffffffffffffffffffffffffff168152602001600282018054611ebe90613a66565b80601f0160208091040260200160405190810160405280929190818152602001828054611eea90613a66565b8015611f375780601f10611f0c57610100808354040283529160200191611f37565b820191906000526020600020905b815481529060010190602001808311611f1a57829003601f168201915b50505050508152602001600382018054611f5090613a66565b80601f0160208091040260200160405190810160405280929190818152602001828054611f7c90613a66565b8015611fc95780601f10611f9e57610100808354040283529160200191611fc9565b820191906000526020600020905b815481529060010190602001808311611fac57829003601f168201915b5050505050815250509050919050565b60606000600460008473ffffffffffffffffffffffffffffffffffffffff1673ffffffffffffffffffffffffffffffffffffffff1681526020019081526020016000206000015403612060576040517f08c379a000000000000000000000000000000000000000000000000000000000815260040161205790613f13565b60405180910390fd5b6040518060400160405280600481526020017f74727565000000000000000000000000000000000000000000000000000000008152509050919050565b600c81815481106120ad57600080fd5b90600052602060002090600302016000915090508060000154908060010180546120d690613a66565b80601f016020809104026020016040519081016040528092919081815260200182805461210290613a66565b801561214f5780601f106121245761010080835404028352916020019161214f565b820191906000526020600020905b81548152906001019060200180831161213257829003601f168201915b5050505050908060020160009054906101000a900473ffffffffffffffffffffffffffffffffffffffff16905083565b60606000600a8054905067ffffffffffffffff8111156121a2576121a1612c02565b5b6040519080825280602002602001820160405280156121db57816020015b6121c8612aa6565b8152602001906001900390816121c05790505b50905060005b600a8054905081101561238e57600a818154811061220257612201613d81565b5b9060005260206000209060040201604051806080016040529081600082015481526020016001820160009054906101000a900473ffffffffffffffffffffffffffffffffffffffff1673ffffffffffffffffffffffffffffffffffffffff1673ffffffffffffffffffffffffffffffffffffffff16815260200160028201805461228b90613a66565b80601f01602080910402602001604051908101604052809291908181526020018280546122b790613a66565b80156123045780601f106122d957610100808354040283529160200191612304565b820191906000526020600020905b8154815290600101906020018083116122e757829003601f168201915b505050505081526020016003820160009054906101000a900473ffffffffffffffffffffffffffffffffffffffff1673ffffffffffffffffffffffffffffffffffffffff1673ffffffffffffffffffffffffffffffffffffffff168152505082828151811061237657612375613d81565b5b602002602001018190525080806001019150506121e1565b508091505090565b60035481565b6123a582611fd9565b5081600660008573ffffffffffffffffffffffffffffffffffffffff1673ffffffffffffffffffffffffffffffffffffffff16815260200190815260200160002060006101000a81548173ffffffffffffffffffffffffffffffffffffffff021916908373ffffffffffffffffffffffffffffffffffffffff16021790555060016002546124339190613ddf565b6002819055506000604051806080016040528060025481526020018573ffffffffffffffffffffffffffffffffffffffff1681526020018381526020018473ffffffffffffffffffffffffffffffffffffffff16815250905080600560008573ffffffffffffffffffffffffffffffffffffffff1673ffffffffffffffffffffffffffffffffffffffff16815260200190815260200160002060008673ffffffffffffffffffffffffffffffffffffffff1673ffffffffffffffffffffffffffffffffffffffff1681526020019081526020016000206000820151816000015560208201518160010160006101000a81548173ffffffffffffffffffffffffffffffffffffffff021916908373ffffffffffffffffffffffffffffffffffffffff160217905550604082015181600201908161256f9190613c43565b5060608201518160030160006101000a81548173ffffffffffffffffffffffffffffffffffffffff021916908373ffffffffffffffffffffffffffffffffffffffff160217905550905050600a8190806001815401808255809150506001900390600052602060002090600402016000909190919091506000820151816000015560208201518160010160006101000a81548173ffffffffffffffffffffffffffffffffffffffff021916908373ffffffffffffffffffffffffffffffffffffffff160217905550604082015181600201908161264c9190613c43565b5060608201518160030160006101000a81548173ffffffffffffffffffffffffffffffffffffffff021916908373ffffffffffffffffffffffffffffffffffffffff16021790555050507f68f068b2f0d02fca99bc8285b62fce8668fe16b7c6a810351ea25bff358c0dd86040516126c390613d61565b60405180910390a150505050565b6126d9612aa6565b600a82815481106126ed576126ec613d81565b5b9060005260206000209060040201604051806080016040529081600082015481526020016001820160009054906101000a900473ffffffffffffffffffffffffffffffffffffffff1673ffffffffffffffffffffffffffffffffffffffff1673ffffffffffffffffffffffffffffffffffffffff16815260200160028201805461277690613a66565b80601f01602080910402602001604051908101604052809291908181526020018280546127a290613a66565b80156127ef5780601f106127c4576101008083540402835291602001916127ef565b820191906000526020600020905b8154815290600101906020018083116127d257829003601f168201915b505050505081526020016003820160009054906101000a900473ffffffffffffffffffffffffffffffffffffffff1673ffffffffffffffffffffffffffffffffffffffff1673ffffffffffffffffffffffffffffffffffffffff16815250509050919050565b61285d612afa565b60086000848152602001908152602001600020828154811061288257612881613d81565b5b90600052602060002090600502016040518060a0016040529081600082015481526020016001820160009054906101000a900473ffffffffffffffffffffffffffffffffffffffff1673ffffffffffffffffffffffffffffffffffffffff1673ffffffffffffffffffffffffffffffffffffffff16815260200160028201805461290b90613a66565b80601f016020809104026020016040519081016040528092919081815260200182805461293790613a66565b80156129845780601f1061295957610100808354040283529160200191612984565b820191906000526020600020905b81548152906001019060200180831161296757829003601f168201915b5050505050815260200160038201805461299d90613a66565b80601f01602080910402602001604051908101604052809291908181526020018280546129c990613a66565b8015612a165780601f106129eb57610100808354040283529160200191612a16565b820191906000526020600020905b8154815290600101906020018083116129f957829003601f168201915b50505050508152602001600482015481525050905092915050565b60405180606001604052806000815260200160608152602001600073ffffffffffffffffffffffffffffffffffffffff1681525090565b604051806080016040528060008152602001600073ffffffffffffffffffffffffffffffffffffffff16815260200160608152602001606081525090565b604051806080016040528060008152602001600073ffffffffffffffffffffffffffffffffffffffff16815260200160608152602001600073ffffffffffffffffffffffffffffffffffffffff1681525090565b6040518060a0016040528060008152602001600073ffffffffffffffffffffffffffffffffffffffff1681526020016060815260200160608152602001600081525090565b6000604051905090565b600080fd5b600080fd5b600073ffffffffffffffffffffffffffffffffffffffff82169050919050565b6000612b7e82612b53565b9050919050565b612b8e81612b73565b8114612b9957600080fd5b50565b600081359050612bab81612b85565b92915050565b6000819050919050565b612bc481612bb1565b8114612bcf57600080fd5b50565b600081359050612be181612bbb565b92915050565b600080fd5b600080fd5b6000601f19601f8301169050919050565b7f4e487b7100000000000000000000000000000000000000000000000000000000600052604160045260246000fd5b612c3a82612bf1565b810181811067ffffffffffffffff82111715612c5957612c58612c02565b5b80604052505050565b6000612c6c612b3f565b9050612c788282612c31565b919050565b600067ffffffffffffffff821115612c9857612c97612c02565b5b612ca182612bf1565b9050602081019050919050565b82818337600083830152505050565b6000612cd0612ccb84612c7d565b612c62565b905082815260208101848484011115612cec57612ceb612bec565b5b612cf7848285612cae565b509392505050565b600082601f830112612d1457612d13612be7565b5b8135612d24848260208601612cbd565b91505092915050565b600080600080600060a08688031215612d4957612d48612b49565b5b6000612d5788828901612b9c565b9550506020612d6888828901612bd2565b945050604086013567ffffffffffffffff811115612d8957612d88612b4e565b5b612d9588828901612cff565b935050606086013567ffffffffffffffff811115612db657612db5612b4e565b5b612dc288828901612cff565b9250506080612dd388828901612bd2565b9150509295509295909350565b600081519050919050565b600082825260208201905092915050565b6000819050602082019050919050565b612e1581612bb1565b82525050565b600081519050919050565b600082825260208201905092915050565b60005b83811015612e55578082015181840152602081019050612e3a565b60008484015250505050565b6000612e6c82612e1b565b612e768185612e26565b9350612e86818560208601612e37565b612e8f81612bf1565b840191505092915050565b612ea381612b73565b82525050565b6000606083016000830151612ec16000860182612e0c565b5060208301518482036020860152612ed98282612e61565b9150506040830151612eee6040860182612e9a565b508091505092915050565b6000612f058383612ea9565b905092915050565b6000602082019050919050565b6000612f2582612de0565b612f2f8185612deb565b935083602082028501612f4185612dfc565b8060005b85811015612f7d5784840389528151612f5e8582612ef9565b9450612f6983612f0d565b925060208a01995050600181019050612f45565b50829750879550505050505092915050565b60006020820190508181036000830152612fa98184612f1a565b905092915050565b600060208284031215612fc757612fc6612b49565b5b6000612fd584828501612b9c565b91505092915050565b612fe781612b73565b82525050565b60006020820190506130026000830184612fde565b92915050565b6000806040838503121561301f5761301e612b49565b5b600061302d85828601612bd2565b925050602061303e85828601612bd2565b9150509250929050565b61305181612bb1565b82525050565b600082825260208201905092915050565b600061307382612e1b565b61307d8185613057565b935061308d818560208601612e37565b61309681612bf1565b840191505092915050565b600060a0820190506130b66000830188613048565b6130c36020830187612fde565b81810360408301526130d58186613068565b905081810360608301526130e98185613068565b90506130f86080830184613048565b9695505050505050565b60006020828403121561311857613117612b49565b5b600061312684828501612bd2565b91505092915050565b600081519050919050565b600082825260208201905092915050565b6000819050602082019050919050565b600060a0830160008301516131736000860182612e0c565b5060208301516131866020860182612e9a565b506040830151848203604086015261319e8282612e61565b915050606083015184820360608601526131b88282612e61565b91505060808301516131cd6080860182612e0c565b508091505092915050565b60006131e4838361315b565b905092915050565b6000602082019050919050565b60006132048261312f565b61320e818561313a565b9350836020820285016132208561314b565b8060005b8581101561325c578484038952815161323d85826131d8565b9450613248836131ec565b925060208a01995050600181019050613224565b50829750879550505050505092915050565b6000602082019050818103600083015261328881846131f9565b905092915050565b60006020820190506132a56000830184613048565b92915050565b60006080820190506132c06000830187613048565b6132cd6020830186612fde565b81810360408301526132df8185613068565b905081810360608301526132f38184613068565b905095945050505050565b60008060006060848603121561331757613316612b49565b5b600084013567ffffffffffffffff81111561333557613334612b4e565b5b61334186828701612cff565b935050602084013567ffffffffffffffff81111561336257613361612b4e565b5b61336e86828701612cff565b925050604061337f86828701612b9c565b9150509250925092565b600081519050919050565b600082825260208201905092915050565b6000819050602082019050919050565b60006080830160008301516133cd6000860182612e0c565b5060208301516133e06020860182612e9a565b50604083015184820360408601526133f88282612e61565b915050606083015184820360608601526134128282612e61565b9150508091505092915050565b600061342b83836133b5565b905092915050565b6000602082019050919050565b600061344b82613389565b6134558185613394565b935083602082028501613467856133a5565b8060005b858110156134a35784840389528151613484858261341f565b945061348f83613433565b925060208a0199505060018101905061346b565b50829750879550505050505092915050565b600060208201905081810360008301526134cf8184613440565b905092915050565b600080604083850312156134ee576134ed612b49565b5b600083013567ffffffffffffffff81111561350c5761350b612b4e565b5b61351885828601612cff565b925050602061352985828601612b9c565b9150509250929050565b600060608301600083015161354b6000860182612e0c565b50602083015184820360208601526135638282612e61565b91505060408301516135786040860182612e9a565b508091505092915050565b6000602082019050818103600083015261359d8184613533565b905092915050565b600080604083850312156135bc576135bb612b49565b5b60006135ca85828601612b9c565b92505060206135db85828601612b9c565b9150509250929050565b60006080820190506135fa6000830187613048565b6136076020830186612fde565b81810360408301526136198185613068565b90506136286060830184612fde565b95945050505050565b6000602082019050818103600083015261364b8184613068565b905092915050565b6000806040838503121561366a57613669612b49565b5b600061367885828601612b9c565b925050602061368985828601612bd2565b9150509250929050565b60006080830160008301516136ab6000860182612e0c565b5060208301516136be6020860182612e9a565b50604083015184820360408601526136d68282612e61565b915050606083015184820360608601526136f08282612e61565b9150508091505092915050565b600060208201905081810360008301526137178184613693565b905092915050565b60006060820190506137346000830186613048565b81810360208301526137468185613068565b90506137556040830184612fde565b949350505050565b600081519050919050565b600082825260208201905092915050565b6000819050602082019050919050565b60006080830160008301516137a16000860182612e0c565b5060208301516137b46020860182612e9a565b50604083015184820360408601526137cc8282612e61565b91505060608301516137e16060860182612e9a565b508091505092915050565b60006137f88383613789565b905092915050565b6000602082019050919050565b60006138188261375d565b6138228185613768565b93508360208202850161383485613779565b8060005b85811015613870578484038952815161385185826137ec565b945061385c83613800565b925060208a01995050600181019050613838565b50829750879550505050505092915050565b6000602082019050818103600083015261389c818461380d565b905092915050565b6000806000606084860312156138bd576138bc612b49565b5b60006138cb86828701612b9c565b93505060206138dc86828701612b9c565b925050604084013567ffffffffffffffff8111156138fd576138fc612b4e565b5b61390986828701612cff565b9150509250925092565b600060808301600083015161392b6000860182612e0c565b50602083015161393e6020860182612e9a565b50604083015184820360408601526139568282612e61565b915050606083015161396b6060860182612e9a565b508091505092915050565b600060208201905081810360008301526139908184613913565b905092915050565b600060a0830160008301516139b06000860182612e0c565b5060208301516139c36020860182612e9a565b50604083015184820360408601526139db8282612e61565b915050606083015184820360608601526139f58282612e61565b9150506080830151613a0a6080860182612e0c565b508091505092915050565b60006020820190508181036000830152613a2f8184613998565b905092915050565b7f4e487b7100000000000000000000000000000000000000000000000000000000600052602260045260246000fd5b60006002820490506001821680613a7e57607f821691505b602082108103613a9157613a90613a37565b5b50919050565b60008190508160005260206000209050919050565b60006020601f8301049050919050565b600082821b905092915050565b600060088302613af97fffffffffffffffffffffffffffffffffffffffffffffffffffffffffffffffff82613abc565b613b038683613abc565b95508019841693508086168417925050509392505050565b6000819050919050565b6000613b40613b3b613b3684612bb1565b613b1b565b612bb1565b9050919050565b6000819050919050565b613b5a83613b25565b613b6e613b6682613b47565b848454613ac9565b825550505050565b600090565b613b83613b76565b613b8e818484613b51565b505050565b5b81811015613bb257613ba7600082613b7b565b600181019050613b94565b5050565b601f821115613bf757613bc881613a97565b613bd184613aac565b81016020851015613be0578190505b613bf4613bec85613aac565b830182613b93565b50505b505050565b600082821c905092915050565b6000613c1a60001984600802613bfc565b1980831691505092915050565b6000613c338383613c09565b9150826002028217905092915050565b613c4c82612e1b565b67ffffffffffffffff811115613c6557613c64612c02565b5b613c6f8254613a66565b613c7a828285613bb6565b600060209050601f831160018114613cad5760008415613c9b578287015190505b613ca58582613c27565b865550613d0d565b601f198416613cbb86613a97565b60005b82811015613ce357848901518255600182019150602085019450602081019050613cbe565b86831015613d005784890151613cfc601f891682613c09565b8355505b6001600288020188555050505b505050505050565b7f537570706c792072656769737465726564212100000000000000000000000000600082015250565b6000613d4b601383613057565b9150613d5682613d15565b602082019050919050565b60006020820190508181036000830152613d7a81613d3e565b9050919050565b7f4e487b7100000000000000000000000000000000000000000000000000000000600052603260045260246000fd5b7f4e487b7100000000000000000000000000000000000000000000000000000000600052601160045260246000fd5b6000613dea82612bb1565b9150613df583612bb1565b9250828201905080821115613e0d57613e0c613db0565b5b92915050565b6000613e1e82612bb1565b91507fffffffffffffffffffffffffffffffffffffffffffffffffffffffffffffffff8203613e5057613e4f613db0565b5b600182019050919050565b7f41646d696e207265676973746572656421210000000000000000000000000000600082015250565b6000613e91601283613057565b9150613e9c82613e5b565b602082019050919050565b60006020820190508181036000830152613ec081613e84565b9050919050565b7f66616c7365000000000000000000000000000000000000000000000000000000600082015250565b6000613efd600583613057565b9150613f0882613ec7565b602082019050919050565b60006020820190508181036000830152613f2c81613ef0565b905091905056fea26469706673582212208b681399cc6b46c9346c84dbdd6eea319c851c82d6e57ca675bb33b80c35806564736f6c63430008180033","opcodes":"PUSH1 0x80 PUSH1 0x40 MSTORE CALLVALUE DUP1 ISZERO PUSH2 0x10 JUMPI PUSH1 0x0 DUP1 REVERT JUMPDEST POP CALLER PUSH1 0x0 DUP1 PUSH2 0x100 EXP DUP2 SLOAD DUP2 PUSH20 0xFFFFFFFFFFFFFFFFFFFFFFFFFFFFFFFFFFFFFFFF MUL NOT AND SWAP1 DUP4 PUSH20 0xFFFFFFFFFFFFFFFFFFFFFFFFFFFFFFFFFFFFFFFF AND MUL OR SWAP1 SSTORE POP PUSH1 0x0 PUSH1 0x1 DUP2 SWAP1 SSTORE POP PUSH1 0x0 PUSH1 0x2 DUP2 SWAP1 SSTORE POP PUSH1 0x0 PUSH1 0x3 DUP2 SWAP1 SSTORE POP PUSH2 0x3F69 DUP1 PUSH2 0x78 PUSH1 0x0 CODECOPY PUSH1 0x0 RETURN INVALID PUSH1 0x80 PUSH1 0x40 MSTORE CALLVALUE DUP1 ISZERO PUSH2 0x10 JUMPI PUSH1 0x0 DUP1 REVERT JUMPDEST POP PUSH1 0x4 CALLDATASIZE LT PUSH2 0x1F0 JUMPI PUSH1 0x0 CALLDATALOAD PUSH1 0xE0 SHR DUP1 PUSH4 0x898DE773 GT PUSH2 0x10F JUMPI DUP1 PUSH4 0xC44B5C55 GT PUSH2 0xA2 JUMPI DUP1 PUSH4 0xE0F6EF87 GT PUSH2 0x71 JUMPI DUP1 PUSH4 0xE0F6EF87 EQ PUSH2 0x65D JUMPI DUP1 PUSH4 0xE9064FE9 EQ PUSH2 0x67B JUMPI DUP1 PUSH4 0xEB130F3D EQ PUSH2 0x697 JUMPI DUP1 PUSH4 0xF0B00BBB EQ PUSH2 0x6C7 JUMPI PUSH2 0x1F0 JUMP JUMPDEST DUP1 PUSH4 0xC44B5C55 EQ PUSH2 0x5AD JUMPI DUP1 PUSH4 0xCCA5822F EQ PUSH2 0x5DD JUMPI DUP1 PUSH4 0xDDE9C196 EQ PUSH2 0x60D JUMPI DUP1 PUSH4 0xDFA8BA8A EQ PUSH2 0x63F JUMPI PUSH2 0x1F0 JUMP JUMPDEST DUP1 PUSH4 0x8DA5CB5B GT PUSH2 0xDE JUMPI DUP1 PUSH4 0x8DA5CB5B EQ PUSH2 0x4F6 JUMPI DUP1 PUSH4 0x9ACC36B5 EQ PUSH2 0x514 JUMPI DUP1 PUSH4 0xA59EC470 EQ PUSH2 0x547 JUMPI DUP1 PUSH4 0xAE422599 EQ PUSH2 0x57A JUMPI PUSH2 0x1F0 JUMP JUMPDEST DUP1 PUSH4 0x898DE773 EQ PUSH2 0x457 JUMPI DUP1 PUSH4 0x89CA5B68 EQ PUSH2 0x475 JUMPI DUP1 PUSH4 0x8B207DD8 EQ PUSH2 0x4A5 JUMPI DUP1 PUSH4 0x8B7BF3EB EQ PUSH2 0x4D8 JUMPI PUSH2 0x1F0 JUMP JUMPDEST DUP1 PUSH4 0x2B7832B3 GT PUSH2 0x187 JUMPI DUP1 PUSH4 0x56229465 GT PUSH2 0x156 JUMPI DUP1 PUSH4 0x56229465 EQ PUSH2 0x3A8 JUMPI DUP1 PUSH4 0x618DBB20 EQ PUSH2 0x3C4 JUMPI DUP1 PUSH4 0x6F703BC8 EQ PUSH2 0x3F4 JUMPI DUP1 PUSH4 0x78347712 EQ PUSH2 0x427 JUMPI PUSH2 0x1F0 JUMP JUMPDEST DUP1 PUSH4 0x2B7832B3 EQ PUSH2 0x332 JUMPI DUP1 PUSH4 0x330DE0F9 EQ PUSH2 0x350 JUMPI DUP1 PUSH4 0x4A348DA9 EQ PUSH2 0x36C JUMPI DUP1 PUSH4 0x5083F4B3 EQ PUSH2 0x38A JUMPI PUSH2 0x1F0 JUMP JUMPDEST DUP1 PUSH4 0xEA69718 GT PUSH2 0x1C3 JUMPI DUP1 PUSH4 0xEA69718 EQ PUSH2 0x293 JUMPI DUP1 PUSH4 0x140C6B91 EQ PUSH2 0x2C3 JUMPI DUP1 PUSH4 0x23218E5F EQ PUSH2 0x2E1 JUMPI DUP1 PUSH4 0x2AF673A3 EQ PUSH2 0x2FF JUMPI PUSH2 0x1F0 JUMP JUMPDEST DUP1 PUSH4 0x1FDFCFF EQ PUSH2 0x1F5 JUMPI DUP1 PUSH4 0x2EE3A52 EQ PUSH2 0x211 JUMPI DUP1 PUSH4 0xBDD2EC0 EQ PUSH2 0x22F JUMPI DUP1 PUSH4 0xE4E60D7 EQ PUSH2 0x25F JUMPI JUMPDEST PUSH1 0x0 DUP1 REVERT JUMPDEST PUSH2 0x20F PUSH1 0x4 DUP1 CALLDATASIZE SUB DUP2 ADD SWAP1 PUSH2 0x20A SWAP2 SWAP1 PUSH2 0x2D2D JUMP JUMPDEST PUSH2 0x6F7 JUMP JUMPDEST STOP JUMPDEST PUSH2 0x219 PUSH2 0x845 JUMP JUMPDEST PUSH1 0x40 MLOAD PUSH2 0x226 SWAP2 SWAP1 PUSH2 0x2F8F JUMP JUMPDEST PUSH1 0x40 MLOAD DUP1 SWAP2 SUB SWAP1 RETURN JUMPDEST PUSH2 0x249 PUSH1 0x4 DUP1 CALLDATASIZE SUB DUP2 ADD SWAP1 PUSH2 0x244 SWAP2 SWAP1 PUSH2 0x2FB1 JUMP JUMPDEST PUSH2 0xA06 JUMP JUMPDEST PUSH1 0x40 MLOAD PUSH2 0x256 SWAP2 SWAP1 PUSH2 0x2FED JUMP JUMPDEST PUSH1 0x40 MLOAD DUP1 SWAP2 SUB SWAP1 RETURN JUMPDEST PUSH2 0x279 PUSH1 0x4 DUP1 CALLDATASIZE SUB DUP2 ADD SWAP1 PUSH2 0x274 SWAP2 SWAP1 PUSH2 0x3008 JUMP JUMPDEST PUSH2 0xA39 JUMP JUMPDEST PUSH1 0x40 MLOAD PUSH2 0x28A SWAP6 SWAP5 SWAP4 SWAP3 SWAP2 SWAP1 PUSH2 0x30A1 JUMP JUMPDEST PUSH1 0x40 MLOAD DUP1 SWAP2 SUB SWAP1 RETURN JUMPDEST PUSH2 0x2AD PUSH1 0x4 DUP1 CALLDATASIZE SUB DUP2 ADD SWAP1 PUSH2 0x2A8 SWAP2 SWAP1 PUSH2 0x3102 JUMP JUMPDEST PUSH2 0xBBC JUMP JUMPDEST PUSH1 0x40 MLOAD PUSH2 0x2BA SWAP2 SWAP1 PUSH2 0x326E JUMP JUMPDEST PUSH1 0x40 MLOAD DUP1 SWAP2 SUB SWAP1 RETURN JUMPDEST PUSH2 0x2CB PUSH2 0xDBC JUMP JUMPDEST PUSH1 0x40 MLOAD PUSH2 0x2D8 SWAP2 SWAP1 PUSH2 0x3290 JUMP JUMPDEST PUSH1 0x40 MLOAD DUP1 SWAP2 SUB SWAP1 RETURN JUMPDEST PUSH2 0x2E9 PUSH2 0xDC2 JUMP JUMPDEST PUSH1 0x40 MLOAD PUSH2 0x2F6 SWAP2 SWAP1 PUSH2 0x3290 JUMP JUMPDEST PUSH1 0x40 MLOAD DUP1 SWAP2 SUB SWAP1 RETURN JUMPDEST PUSH2 0x319 PUSH1 0x4 DUP1 CALLDATASIZE SUB DUP2 ADD SWAP1 PUSH2 0x314 SWAP2 SWAP1 PUSH2 0x2FB1 JUMP JUMPDEST PUSH2 0xDCC JUMP JUMPDEST PUSH1 0x40 MLOAD PUSH2 0x329 SWAP5 SWAP4 SWAP3 SWAP2 SWAP1 PUSH2 0x32AB JUMP JUMPDEST PUSH1 0x40 MLOAD DUP1 SWAP2 SUB SWAP1 RETURN JUMPDEST PUSH2 0x33A PUSH2 0xF2C JUMP JUMPDEST PUSH1 0x40 MLOAD PUSH2 0x347 SWAP2 SWAP1 PUSH2 0x3290 JUMP JUMPDEST PUSH1 0x40 MLOAD DUP1 SWAP2 SUB SWAP1 RETURN JUMPDEST PUSH2 0x36A PUSH1 0x4 DUP1 CALLDATASIZE SUB DUP2 ADD SWAP1 PUSH2 0x365 SWAP2 SWAP1 PUSH2 0x32FE JUMP JUMPDEST PUSH2 0xF32 JUMP JUMPDEST STOP JUMPDEST PUSH2 0x374 PUSH2 0x1141 JUMP JUMPDEST PUSH1 0x40 MLOAD PUSH2 0x381 SWAP2 SWAP1 PUSH2 0x3290 JUMP JUMPDEST PUSH1 0x40 MLOAD DUP1 SWAP2 SUB SWAP1 RETURN JUMPDEST PUSH2 0x392 PUSH2 0x114B JUMP JUMPDEST PUSH1 0x40 MLOAD PUSH2 0x39F SWAP2 SWAP1 PUSH2 0x34B5 JUMP JUMPDEST PUSH1 0x40 MLOAD DUP1 SWAP2 SUB SWAP1 RETURN JUMPDEST PUSH2 0x3C2 PUSH1 0x4 DUP1 CALLDATASIZE SUB DUP2 ADD SWAP1 PUSH2 0x3BD SWAP2 SWAP1 PUSH2 0x34D7 JUMP JUMPDEST PUSH2 0x13AA JUMP JUMPDEST STOP JUMPDEST PUSH2 0x3DE PUSH1 0x4 DUP1 CALLDATASIZE SUB DUP2 ADD SWAP1 PUSH2 0x3D9 SWAP2 SWAP1 PUSH2 0x3102 JUMP JUMPDEST PUSH2 0x14D2 JUMP JUMPDEST PUSH1 0x40 MLOAD PUSH2 0x3EB SWAP2 SWAP1 PUSH2 0x3583 JUMP JUMPDEST PUSH1 0x40 MLOAD DUP1 SWAP2 SUB SWAP1 RETURN JUMPDEST PUSH2 0x40E PUSH1 0x4 DUP1 CALLDATASIZE SUB DUP2 ADD SWAP1 PUSH2 0x409 SWAP2 SWAP1 PUSH2 0x35A5 JUMP JUMPDEST PUSH2 0x1600 JUMP JUMPDEST PUSH1 0x40 MLOAD PUSH2 0x41E SWAP5 SWAP4 SWAP3 SWAP2 SWAP1 PUSH2 0x35E5 JUMP JUMPDEST PUSH1 0x40 MLOAD DUP1 SWAP2 SUB SWAP1 RETURN JUMPDEST PUSH2 0x441 PUSH1 0x4 DUP1 CALLDATASIZE SUB DUP2 ADD SWAP1 PUSH2 0x43C SWAP2 SWAP1 PUSH2 0x3102 JUMP JUMPDEST PUSH2 0x1705 JUMP JUMPDEST PUSH1 0x40 MLOAD PUSH2 0x44E SWAP2 SWAP1 PUSH2 0x3290 JUMP JUMPDEST PUSH1 0x40 MLOAD DUP1 SWAP2 SUB SWAP1 RETURN JUMPDEST PUSH2 0x45F PUSH2 0x1725 JUMP JUMPDEST PUSH1 0x40 MLOAD PUSH2 0x46C SWAP2 SWAP1 PUSH2 0x3631 JUMP JUMPDEST PUSH1 0x40 MLOAD DUP1 SWAP2 SUB SWAP1 RETURN JUMPDEST PUSH2 0x48F PUSH1 0x4 DUP1 CALLDATASIZE SUB DUP2 ADD SWAP1 PUSH2 0x48A SWAP2 SWAP1 PUSH2 0x2FB1 JUMP JUMPDEST PUSH2 0x17F0 JUMP JUMPDEST PUSH1 0x40 MLOAD PUSH2 0x49C SWAP2 SWAP1 PUSH2 0x3631 JUMP JUMPDEST PUSH1 0x40 MLOAD DUP1 SWAP2 SUB SWAP1 RETURN JUMPDEST PUSH2 0x4BF PUSH1 0x4 DUP1 CALLDATASIZE SUB DUP2 ADD SWAP1 PUSH2 0x4BA SWAP2 SWAP1 PUSH2 0x3102 JUMP JUMPDEST PUSH2 0x1956 JUMP JUMPDEST PUSH1 0x40 MLOAD PUSH2 0x4CF SWAP5 SWAP4 SWAP3 SWAP2 SWAP1 PUSH2 0x32AB JUMP JUMPDEST PUSH1 0x40 MLOAD DUP1 SWAP2 SUB SWAP1 RETURN JUMPDEST PUSH2 0x4E0 PUSH2 0x1AC6 JUMP JUMPDEST PUSH1 0x40 MLOAD PUSH2 0x4ED SWAP2 SWAP1 PUSH2 0x3290 JUMP JUMPDEST PUSH1 0x40 MLOAD DUP1 SWAP2 SUB SWAP1 RETURN JUMPDEST PUSH2 0x4FE PUSH2 0x1AD0 JUMP JUMPDEST PUSH1 0x40 MLOAD PUSH2 0x50B SWAP2 SWAP1 PUSH2 0x2FED JUMP JUMPDEST PUSH1 0x40 MLOAD DUP1 SWAP2 SUB SWAP1 RETURN JUMPDEST PUSH2 0x52E PUSH1 0x4 DUP1 CALLDATASIZE SUB DUP2 ADD SWAP1 PUSH2 0x529 SWAP2 SWAP1 PUSH2 0x3102 JUMP JUMPDEST PUSH2 0x1AF4 JUMP JUMPDEST PUSH1 0x40 MLOAD PUSH2 0x53E SWAP5 SWAP4 SWAP3 SWAP2 SWAP1 PUSH2 0x35E5 JUMP JUMPDEST PUSH1 0x40 MLOAD DUP1 SWAP2 SUB SWAP1 RETURN JUMPDEST PUSH2 0x561 PUSH1 0x4 DUP1 CALLDATASIZE SUB DUP2 ADD SWAP1 PUSH2 0x55C SWAP2 SWAP1 PUSH2 0x3653 JUMP JUMPDEST PUSH2 0x1BFC JUMP JUMPDEST PUSH1 0x40 MLOAD PUSH2 0x571 SWAP5 SWAP4 SWAP3 SWAP2 SWAP1 PUSH2 0x35E5 JUMP JUMPDEST PUSH1 0x40 MLOAD DUP1 SWAP2 SUB SWAP1 RETURN JUMPDEST PUSH2 0x594 PUSH1 0x4 DUP1 CALLDATASIZE SUB DUP2 ADD SWAP1 PUSH2 0x58F SWAP2 SWAP1 PUSH2 0x3102 JUMP JUMPDEST PUSH2 0x1D11 JUMP JUMPDEST PUSH1 0x40 MLOAD PUSH2 0x5A4 SWAP5 SWAP4 SWAP3 SWAP2 SWAP1 PUSH2 0x35E5 JUMP JUMPDEST PUSH1 0x40 MLOAD DUP1 SWAP2 SUB SWAP1 RETURN JUMPDEST PUSH2 0x5C7 PUSH1 0x4 DUP1 CALLDATASIZE SUB DUP2 ADD SWAP1 PUSH2 0x5C2 SWAP2 SWAP1 PUSH2 0x3102 JUMP JUMPDEST PUSH2 0x1E19 JUMP JUMPDEST PUSH1 0x40 MLOAD PUSH2 0x5D4 SWAP2 SWAP1 PUSH2 0x36FD JUMP JUMPDEST PUSH1 0x40 MLOAD DUP1 SWAP2 SUB SWAP1 RETURN JUMPDEST PUSH2 0x5F7 PUSH1 0x4 DUP1 CALLDATASIZE SUB DUP2 ADD SWAP1 PUSH2 0x5F2 SWAP2 SWAP1 PUSH2 0x2FB1 JUMP JUMPDEST PUSH2 0x1FD9 JUMP JUMPDEST PUSH1 0x40 MLOAD PUSH2 0x604 SWAP2 SWAP1 PUSH2 0x3631 JUMP JUMPDEST PUSH1 0x40 MLOAD DUP1 SWAP2 SUB SWAP1 RETURN JUMPDEST PUSH2 0x627 PUSH1 0x4 DUP1 CALLDATASIZE SUB DUP2 ADD SWAP1 PUSH2 0x622 SWAP2 SWAP1 PUSH2 0x3102 JUMP JUMPDEST PUSH2 0x209D JUMP JUMPDEST PUSH1 0x40 MLOAD PUSH2 0x636 SWAP4 SWAP3 SWAP2 SWAP1 PUSH2 0x371F JUMP JUMPDEST PUSH1 0x40 MLOAD DUP1 SWAP2 SUB SWAP1 RETURN JUMPDEST PUSH2 0x647 PUSH2 0x217F JUMP JUMPDEST PUSH1 0x40 MLOAD PUSH2 0x654 SWAP2 SWAP1 PUSH2 0x3882 JUMP JUMPDEST PUSH1 0x40 MLOAD DUP1 SWAP2 SUB SWAP1 RETURN JUMPDEST PUSH2 0x665 PUSH2 0x2396 JUMP JUMPDEST PUSH1 0x40 MLOAD PUSH2 0x672 SWAP2 SWAP1 PUSH2 0x3290 JUMP JUMPDEST PUSH1 0x40 MLOAD DUP1 SWAP2 SUB SWAP1 RETURN JUMPDEST PUSH2 0x695 PUSH1 0x4 DUP1 CALLDATASIZE SUB DUP2 ADD SWAP1 PUSH2 0x690 SWAP2 SWAP1 PUSH2 0x38A4 JUMP JUMPDEST PUSH2 0x239C JUMP JUMPDEST STOP JUMPDEST PUSH2 0x6B1 PUSH1 0x4 DUP1 CALLDATASIZE SUB DUP2 ADD SWAP1 PUSH2 0x6AC SWAP2 SWAP1 PUSH2 0x3102 JUMP JUMPDEST PUSH2 0x26D1 JUMP JUMPDEST PUSH1 0x40 MLOAD PUSH2 0x6BE SWAP2 SWAP1 PUSH2 0x3976 JUMP JUMPDEST PUSH1 0x40 MLOAD DUP1 SWAP2 SUB SWAP1 RETURN JUMPDEST PUSH2 0x6E1 PUSH1 0x4 DUP1 CALLDATASIZE SUB DUP2 ADD SWAP1 PUSH2 0x6DC SWAP2 SWAP1 PUSH2 0x3008 JUMP JUMPDEST PUSH2 0x2855 JUMP JUMPDEST PUSH1 0x40 MLOAD PUSH2 0x6EE SWAP2 SWAP1 PUSH2 0x3A15 JUMP JUMPDEST PUSH1 0x40 MLOAD DUP1 SWAP2 SUB SWAP1 RETURN JUMPDEST PUSH2 0x700 DUP6 PUSH2 0x17F0 JUMP JUMPDEST POP PUSH1 0x0 PUSH1 0x40 MLOAD DUP1 PUSH1 0xA0 ADD PUSH1 0x40 MSTORE DUP1 DUP7 DUP2 MSTORE PUSH1 0x20 ADD DUP8 PUSH20 0xFFFFFFFFFFFFFFFFFFFFFFFFFFFFFFFFFFFFFFFF AND DUP2 MSTORE PUSH1 0x20 ADD DUP6 DUP2 MSTORE PUSH1 0x20 ADD DUP5 DUP2 MSTORE PUSH1 0x20 ADD DUP4 DUP2 MSTORE POP SWAP1 POP PUSH1 0x8 PUSH1 0x0 DUP4 DUP2 MSTORE PUSH1 0x20 ADD SWAP1 DUP2 MSTORE PUSH1 0x20 ADD PUSH1 0x0 KECCAK256 DUP2 SWAP1 DUP1 PUSH1 0x1 DUP2 SLOAD ADD DUP1 DUP3 SSTORE DUP1 SWAP2 POP POP PUSH1 0x1 SWAP1 SUB SWAP1 PUSH1 0x0 MSTORE PUSH1 0x20 PUSH1 0x0 KECCAK256 SWAP1 PUSH1 0x5 MUL ADD PUSH1 0x0 SWAP1 SWAP2 SWAP1 SWAP2 SWAP1 SWAP2 POP PUSH1 0x0 DUP3 ADD MLOAD DUP2 PUSH1 0x0 ADD SSTORE PUSH1 0x20 DUP3 ADD MLOAD DUP2 PUSH1 0x1 ADD PUSH1 0x0 PUSH2 0x100 EXP DUP2 SLOAD DUP2 PUSH20 0xFFFFFFFFFFFFFFFFFFFFFFFFFFFFFFFFFFFFFFFF MUL NOT AND SWAP1 DUP4 PUSH20 0xFFFFFFFFFFFFFFFFFFFFFFFFFFFFFFFFFFFFFFFF AND MUL OR SWAP1 SSTORE POP PUSH1 0x40 DUP3 ADD MLOAD DUP2 PUSH1 0x2 ADD SWAP1 DUP2 PUSH2 0x7E5 SWAP2 SWAP1 PUSH2 0x3C43 JUMP JUMPDEST POP PUSH1 0x60 DUP3 ADD MLOAD DUP2 PUSH1 0x3 ADD SWAP1 DUP2 PUSH2 0x7FB SWAP2 SWAP1 PUSH2 0x3C43 JUMP JUMPDEST POP PUSH1 0x80 DUP3 ADD MLOAD DUP2 PUSH1 0x4 ADD SSTORE POP POP PUSH32 0x68F068B2F0D02FCA99BC8285B62FCE8668FE16B7C6A810351EA25BFF358C0DD8 PUSH1 0x40 MLOAD PUSH2 0x835 SWAP1 PUSH2 0x3D61 JUMP JUMPDEST PUSH1 0x40 MLOAD DUP1 SWAP2 SUB SWAP1 LOG1 POP POP POP POP POP POP JUMP JUMPDEST PUSH1 0x60 PUSH1 0x0 PUSH1 0xC DUP1 SLOAD SWAP1 POP PUSH8 0xFFFFFFFFFFFFFFFF DUP2 GT ISZERO PUSH2 0x868 JUMPI PUSH2 0x867 PUSH2 0x2C02 JUMP JUMPDEST JUMPDEST PUSH1 0x40 MLOAD SWAP1 DUP1 DUP3 MSTORE DUP1 PUSH1 0x20 MUL PUSH1 0x20 ADD DUP3 ADD PUSH1 0x40 MSTORE DUP1 ISZERO PUSH2 0x8A1 JUMPI DUP2 PUSH1 0x20 ADD JUMPDEST PUSH2 0x88E PUSH2 0x2A31 JUMP JUMPDEST DUP2 MSTORE PUSH1 0x20 ADD SWAP1 PUSH1 0x1 SWAP1 SUB SWAP1 DUP2 PUSH2 0x886 JUMPI SWAP1 POP JUMPDEST POP SWAP1 POP PUSH1 0x0 JUMPDEST PUSH1 0xC DUP1 SLOAD SWAP1 POP DUP2 LT ISZERO PUSH2 0x9FE JUMPI PUSH1 0xC DUP2 DUP2 SLOAD DUP2 LT PUSH2 0x8C8 JUMPI PUSH2 0x8C7 PUSH2 0x3D81 JUMP JUMPDEST JUMPDEST SWAP1 PUSH1 0x0 MSTORE PUSH1 0x20 PUSH1 0x0 KECCAK256 SWAP1 PUSH1 0x3 MUL ADD PUSH1 0x40 MLOAD DUP1 PUSH1 0x60 ADD PUSH1 0x40 MSTORE SWAP1 DUP2 PUSH1 0x0 DUP3 ADD SLOAD DUP2 MSTORE PUSH1 0x20 ADD PUSH1 0x1 DUP3 ADD DUP1 SLOAD PUSH2 0x8FB SWAP1 PUSH2 0x3A66 JUMP JUMPDEST DUP1 PUSH1 0x1F ADD PUSH1 0x20 DUP1 SWAP2 DIV MUL PUSH1 0x20 ADD PUSH1 0x40 MLOAD SWAP1 DUP2 ADD PUSH1 0x40 MSTORE DUP1 SWAP3 SWAP2 SWAP1 DUP2 DUP2 MSTORE PUSH1 0x20 ADD DUP3 DUP1 SLOAD PUSH2 0x927 SWAP1 PUSH2 0x3A66 JUMP JUMPDEST DUP1 ISZERO PUSH2 0x974 JUMPI DUP1 PUSH1 0x1F LT PUSH2 0x949 JUMPI PUSH2 0x100 DUP1 DUP4 SLOAD DIV MUL DUP4 MSTORE SWAP2 PUSH1 0x20 ADD SWAP2 PUSH2 0x974 JUMP JUMPDEST DUP3 ADD SWAP2 SWAP1 PUSH1 0x0 MSTORE PUSH1 0x20 PUSH1 0x0 KECCAK256 SWAP1 JUMPDEST DUP2 SLOAD DUP2 MSTORE SWAP1 PUSH1 0x1 ADD SWAP1 PUSH1 0x20 ADD DUP1 DUP4 GT PUSH2 0x957 JUMPI DUP3 SWAP1 SUB PUSH1 0x1F AND DUP3 ADD SWAP2 JUMPDEST POP POP POP POP POP DUP2 MSTORE PUSH1 0x20 ADD PUSH1 0x2 DUP3 ADD PUSH1 0x0 SWAP1 SLOAD SWAP1 PUSH2 0x100 EXP SWAP1 DIV PUSH20 0xFFFFFFFFFFFFFFFFFFFFFFFFFFFFFFFFFFFFFFFF AND PUSH20 0xFFFFFFFFFFFFFFFFFFFFFFFFFFFFFFFFFFFFFFFF AND PUSH20 0xFFFFFFFFFFFFFFFFFFFFFFFFFFFFFFFFFFFFFFFF AND DUP2 MSTORE POP POP DUP3 DUP3 DUP2 MLOAD DUP2 LT PUSH2 0x9E6 JUMPI PUSH2 0x9E5 PUSH2 0x3D81 JUMP JUMPDEST JUMPDEST PUSH1 0x20 MUL PUSH1 0x20 ADD ADD DUP2 SWAP1 MSTORE POP DUP1 DUP1 PUSH1 0x1 ADD SWAP2 POP POP PUSH2 0x8A7 JUMP JUMPDEST POP DUP1 SWAP2 POP POP SWAP1 JUMP JUMPDEST PUSH1 0x6 PUSH1 0x20 MSTORE DUP1 PUSH1 0x0 MSTORE PUSH1 0x40 PUSH1 0x0 KECCAK256 PUSH1 0x0 SWAP2 POP SLOAD SWAP1 PUSH2 0x100 EXP SWAP1 DIV PUSH20 0xFFFFFFFFFFFFFFFFFFFFFFFFFFFFFFFFFFFFFFFF AND DUP2 JUMP JUMPDEST PUSH1 0x8 PUSH1 0x20 MSTORE DUP2 PUSH1 0x0 MSTORE PUSH1 0x40 PUSH1 0x0 KECCAK256 DUP2 DUP2 SLOAD DUP2 LT PUSH2 0xA55 JUMPI PUSH1 0x0 DUP1 REVERT JUMPDEST SWAP1 PUSH1 0x0 MSTORE PUSH1 0x20 PUSH1 0x0 KECCAK256 SWAP1 PUSH1 0x5 MUL ADD PUSH1 0x0 SWAP2 POP SWAP2 POP POP DUP1 PUSH1 0x0 ADD SLOAD SWAP1 DUP1 PUSH1 0x1 ADD PUSH1 0x0 SWAP1 SLOAD SWAP1 PUSH2 0x100 EXP SWAP1 DIV PUSH20 0xFFFFFFFFFFFFFFFFFFFFFFFFFFFFFFFFFFFFFFFF AND SWAP1 DUP1 PUSH1 0x2 ADD DUP1 SLOAD PUSH2 0xAA5 SWAP1 PUSH2 0x3A66 JUMP JUMPDEST DUP1 PUSH1 0x1F ADD PUSH1 0x20 DUP1 SWAP2 DIV MUL PUSH1 0x20 ADD PUSH1 0x40 MLOAD SWAP1 DUP2 ADD PUSH1 0x40 MSTORE DUP1 SWAP3 SWAP2 SWAP1 DUP2 DUP2 MSTORE PUSH1 0x20 ADD DUP3 DUP1 SLOAD PUSH2 0xAD1 SWAP1 PUSH2 0x3A66 JUMP JUMPDEST DUP1 ISZERO PUSH2 0xB1E JUMPI DUP1 PUSH1 0x1F LT PUSH2 0xAF3 JUMPI PUSH2 0x100 DUP1 DUP4 SLOAD DIV MUL DUP4 MSTORE SWAP2 PUSH1 0x20 ADD SWAP2 PUSH2 0xB1E JUMP JUMPDEST DUP3 ADD SWAP2 SWAP1 PUSH1 0x0 MSTORE PUSH1 0x20 PUSH1 0x0 KECCAK256 SWAP1 JUMPDEST DUP2 SLOAD DUP2 MSTORE SWAP1 PUSH1 0x1 ADD SWAP1 PUSH1 0x20 ADD DUP1 DUP4 GT PUSH2 0xB01 JUMPI DUP3 SWAP1 SUB PUSH1 0x1F AND DUP3 ADD SWAP2 JUMPDEST POP POP POP POP POP SWAP1 DUP1 PUSH1 0x3 ADD DUP1 SLOAD PUSH2 0xB33 SWAP1 PUSH2 0x3A66 JUMP JUMPDEST DUP1 PUSH1 0x1F ADD PUSH1 0x20 DUP1 SWAP2 DIV MUL PUSH1 0x20 ADD PUSH1 0x40 MLOAD SWAP1 DUP2 ADD PUSH1 0x40 MSTORE DUP1 SWAP3 SWAP2 SWAP1 DUP2 DUP2 MSTORE PUSH1 0x20 ADD DUP3 DUP1 SLOAD PUSH2 0xB5F SWAP1 PUSH2 0x3A66 JUMP JUMPDEST DUP1 ISZERO PUSH2 0xBAC JUMPI DUP1 PUSH1 0x1F LT PUSH2 0xB81 JUMPI PUSH2 0x100 DUP1 DUP4 SLOAD DIV MUL DUP4 MSTORE SWAP2 PUSH1 0x20 ADD SWAP2 PUSH2 0xBAC JUMP JUMPDEST DUP3 ADD SWAP2 SWAP1 PUSH1 0x0 MSTORE PUSH1 0x20 PUSH1 0x0 KECCAK256 SWAP1 JUMPDEST DUP2 SLOAD DUP2 MSTORE SWAP1 PUSH1 0x1 ADD SWAP1 PUSH1 0x20 ADD DUP1 DUP4 GT PUSH2 0xB8F JUMPI DUP3 SWAP1 SUB PUSH1 0x1F AND DUP3 ADD SWAP2 JUMPDEST POP POP POP POP POP SWAP1 DUP1 PUSH1 0x4 ADD SLOAD SWAP1 POP DUP6 JUMP JUMPDEST PUSH1 0x60 PUSH1 0x8 PUSH1 0x0 DUP4 DUP2 MSTORE PUSH1 0x20 ADD SWAP1 DUP2 MSTORE PUSH1 0x20 ADD PUSH1 0x0 KECCAK256 DUP1 SLOAD DUP1 PUSH1 0x20 MUL PUSH1 0x20 ADD PUSH1 0x40 MLOAD SWAP1 DUP2 ADD PUSH1 0x40 MSTORE DUP1 SWAP3 SWAP2 SWAP1 DUP2 DUP2 MSTORE PUSH1 0x20 ADD PUSH1 0x0 SWAP1 JUMPDEST DUP3 DUP3 LT ISZERO PUSH2 0xDB1 JUMPI DUP4 DUP3 SWAP1 PUSH1 0x0 MSTORE PUSH1 0x20 PUSH1 0x0 KECCAK256 SWAP1 PUSH1 0x5 MUL ADD PUSH1 0x40 MLOAD DUP1 PUSH1 0xA0 ADD PUSH1 0x40 MSTORE SWAP1 DUP2 PUSH1 0x0 DUP3 ADD SLOAD DUP2 MSTORE PUSH1 0x20 ADD PUSH1 0x1 DUP3 ADD PUSH1 0x0 SWAP1 SLOAD SWAP1 PUSH2 0x100 EXP SWAP1 DIV PUSH20 0xFFFFFFFFFFFFFFFFFFFFFFFFFFFFFFFFFFFFFFFF AND PUSH20 0xFFFFFFFFFFFFFFFFFFFFFFFFFFFFFFFFFFFFFFFF AND PUSH20 0xFFFFFFFFFFFFFFFFFFFFFFFFFFFFFFFFFFFFFFFF AND DUP2 MSTORE PUSH1 0x20 ADD PUSH1 0x2 DUP3 ADD DUP1 SLOAD PUSH2 0xC84 SWAP1 PUSH2 0x3A66 JUMP JUMPDEST DUP1 PUSH1 0x1F ADD PUSH1 0x20 DUP1 SWAP2 DIV MUL PUSH1 0x20 ADD PUSH1 0x40 MLOAD SWAP1 DUP2 ADD PUSH1 0x40 MSTORE DUP1 SWAP3 SWAP2 SWAP1 DUP2 DUP2 MSTORE PUSH1 0x20 ADD DUP3 DUP1 SLOAD PUSH2 0xCB0 SWAP1 PUSH2 0x3A66 JUMP JUMPDEST DUP1 ISZERO PUSH2 0xCFD JUMPI DUP1 PUSH1 0x1F LT PUSH2 0xCD2 JUMPI PUSH2 0x100 DUP1 DUP4 SLOAD DIV MUL DUP4 MSTORE SWAP2 PUSH1 0x20 ADD SWAP2 PUSH2 0xCFD JUMP JUMPDEST DUP3 ADD SWAP2 SWAP1 PUSH1 0x0 MSTORE PUSH1 0x20 PUSH1 0x0 KECCAK256 SWAP1 JUMPDEST DUP2 SLOAD DUP2 MSTORE SWAP1 PUSH1 0x1 ADD SWAP1 PUSH1 0x20 ADD DUP1 DUP4 GT PUSH2 0xCE0 JUMPI DUP3 SWAP1 SUB PUSH1 0x1F AND DUP3 ADD SWAP2 JUMPDEST POP POP POP POP POP DUP2 MSTORE PUSH1 0x20 ADD PUSH1 0x3 DUP3 ADD DUP1 SLOAD PUSH2 0xD16 SWAP1 PUSH2 0x3A66 JUMP JUMPDEST DUP1 PUSH1 0x1F ADD PUSH1 0x20 DUP1 SWAP2 DIV MUL PUSH1 0x20 ADD PUSH1 0x40 MLOAD SWAP1 DUP2 ADD PUSH1 0x40 MSTORE DUP1 SWAP3 SWAP2 SWAP1 DUP2 DUP2 MSTORE PUSH1 0x20 ADD DUP3 DUP1 SLOAD PUSH2 0xD42 SWAP1 PUSH2 0x3A66 JUMP JUMPDEST DUP1 ISZERO PUSH2 0xD8F JUMPI DUP1 PUSH1 0x1F LT PUSH2 0xD64 JUMPI PUSH2 0x100 DUP1 DUP4 SLOAD DIV MUL DUP4 MSTORE SWAP2 PUSH1 0x20 ADD SWAP2 PUSH2 0xD8F JUMP JUMPDEST DUP3 ADD SWAP2 SWAP1 PUSH1 0x0 MSTORE PUSH1 0x20 PUSH1 0x0 KECCAK256 SWAP1 JUMPDEST DUP2 SLOAD DUP2 MSTORE SWAP1 PUSH1 0x1 ADD SWAP1 PUSH1 0x20 ADD DUP1 DUP4 GT PUSH2 0xD72 JUMPI DUP3 SWAP1 SUB PUSH1 0x1F AND DUP3 ADD SWAP2 JUMPDEST POP POP POP POP POP DUP2 MSTORE PUSH1 0x20 ADD PUSH1 0x4 DUP3 ADD SLOAD DUP2 MSTORE POP POP DUP2 MSTORE PUSH1 0x20 ADD SWAP1 PUSH1 0x1 ADD SWAP1 PUSH2 0xBF1 JUMP JUMPDEST POP POP POP POP SWAP1 POP SWAP2 SWAP1 POP JUMP JUMPDEST PUSH1 0x2 SLOAD DUP2 JUMP JUMPDEST PUSH1 0x0 PUSH1 0x2 SLOAD SWAP1 POP SWAP1 JUMP JUMPDEST PUSH1 0x4 PUSH1 0x20 MSTORE DUP1 PUSH1 0x0 MSTORE PUSH1 0x40 PUSH1 0x0 KECCAK256 PUSH1 0x0 SWAP2 POP SWAP1 POP DUP1 PUSH1 0x0 ADD SLOAD SWAP1 DUP1 PUSH1 0x1 ADD PUSH1 0x0 SWAP1 SLOAD SWAP1 PUSH2 0x100 EXP SWAP1 DIV PUSH20 0xFFFFFFFFFFFFFFFFFFFFFFFFFFFFFFFFFFFFFFFF AND SWAP1 DUP1 PUSH1 0x2 ADD DUP1 SLOAD PUSH2 0xE1B SWAP1 PUSH2 0x3A66 JUMP JUMPDEST DUP1 PUSH1 0x1F ADD PUSH1 0x20 DUP1 SWAP2 DIV MUL PUSH1 0x20 ADD PUSH1 0x40 MLOAD SWAP1 DUP2 ADD PUSH1 0x40 MSTORE DUP1 SWAP3 SWAP2 SWAP1 DUP2 DUP2 MSTORE PUSH1 0x20 ADD DUP3 DUP1 SLOAD PUSH2 0xE47 SWAP1 PUSH2 0x3A66 JUMP JUMPDEST DUP1 ISZERO PUSH2 0xE94 JUMPI DUP1 PUSH1 0x1F LT PUSH2 0xE69 JUMPI PUSH2 0x100 DUP1 DUP4 SLOAD DIV MUL DUP4 MSTORE SWAP2 PUSH1 0x20 ADD SWAP2 PUSH2 0xE94 JUMP JUMPDEST DUP3 ADD SWAP2 SWAP1 PUSH1 0x0 MSTORE PUSH1 0x20 PUSH1 0x0 KECCAK256 SWAP1 JUMPDEST DUP2 SLOAD DUP2 MSTORE SWAP1 PUSH1 0x1 ADD SWAP1 PUSH1 0x20 ADD DUP1 DUP4 GT PUSH2 0xE77 JUMPI DUP3 SWAP1 SUB PUSH1 0x1F AND DUP3 ADD SWAP2 JUMPDEST POP POP POP POP POP SWAP1 DUP1 PUSH1 0x3 ADD DUP1 SLOAD PUSH2 0xEA9 SWAP1 PUSH2 0x3A66 JUMP JUMPDEST DUP1 PUSH1 0x1F ADD PUSH1 0x20 DUP1 SWAP2 DIV MUL PUSH1 0x20 ADD PUSH1 0x40 MLOAD SWAP1 DUP2 ADD PUSH1 0x40 MSTORE DUP1 SWAP3 SWAP2 SWAP1 DUP2 DUP2 MSTORE PUSH1 0x20 ADD DUP3 DUP1 SLOAD PUSH2 0xED5 SWAP1 PUSH2 0x3A66 JUMP JUMPDEST DUP1 ISZERO PUSH2 0xF22 JUMPI DUP1 PUSH1 0x1F LT PUSH2 0xEF7 JUMPI PUSH2 0x100 DUP1 DUP4 SLOAD DIV MUL DUP4 MSTORE SWAP2 PUSH1 0x20 ADD SWAP2 PUSH2 0xF22 JUMP JUMPDEST DUP3 ADD SWAP2 SWAP1 PUSH1 0x0 MSTORE PUSH1 0x20 PUSH1 0x0 KECCAK256 SWAP1 JUMPDEST DUP2 SLOAD DUP2 MSTORE SWAP1 PUSH1 0x1 ADD SWAP1 PUSH1 0x20 ADD DUP1 DUP4 GT PUSH2 0xF05 JUMPI DUP3 SWAP1 SUB PUSH1 0x1F AND DUP3 ADD SWAP2 JUMPDEST POP POP POP POP POP SWAP1 POP DUP5 JUMP JUMPDEST PUSH1 0x1 SLOAD DUP2 JUMP JUMPDEST PUSH2 0xF3A PUSH2 0x1725 JUMP JUMPDEST POP PUSH1 0x0 PUSH1 0x40 MLOAD DUP1 PUSH1 0x80 ADD PUSH1 0x40 MSTORE DUP1 PUSH1 0x1 DUP1 SLOAD PUSH2 0xF56 SWAP2 SWAP1 PUSH2 0x3DDF JUMP JUMPDEST DUP2 MSTORE PUSH1 0x20 ADD DUP4 PUSH20 0xFFFFFFFFFFFFFFFFFFFFFFFFFFFFFFFFFFFFFFFF AND DUP2 MSTORE PUSH1 0x20 ADD DUP6 DUP2 MSTORE PUSH1 0x20 ADD DUP5 DUP2 MSTORE POP SWAP1 POP DUP1 PUSH1 0x4 PUSH1 0x0 DUP5 PUSH20 0xFFFFFFFFFFFFFFFFFFFFFFFFFFFFFFFFFFFFFFFF AND PUSH20 0xFFFFFFFFFFFFFFFFFFFFFFFFFFFFFFFFFFFFFFFF AND DUP2 MSTORE PUSH1 0x20 ADD SWAP1 DUP2 MSTORE PUSH1 0x20 ADD PUSH1 0x0 KECCAK256 PUSH1 0x0 DUP3 ADD MLOAD DUP2 PUSH1 0x0 ADD SSTORE PUSH1 0x20 DUP3 ADD MLOAD DUP2 PUSH1 0x1 ADD PUSH1 0x0 PUSH2 0x100 EXP DUP2 SLOAD DUP2 PUSH20 0xFFFFFFFFFFFFFFFFFFFFFFFFFFFFFFFFFFFFFFFF MUL NOT AND SWAP1 DUP4 PUSH20 0xFFFFFFFFFFFFFFFFFFFFFFFFFFFFFFFFFFFFFFFF AND MUL OR SWAP1 SSTORE POP PUSH1 0x40 DUP3 ADD MLOAD DUP2 PUSH1 0x2 ADD SWAP1 DUP2 PUSH2 0x1029 SWAP2 SWAP1 PUSH2 0x3C43 JUMP JUMPDEST POP PUSH1 0x60 DUP3 ADD MLOAD DUP2 PUSH1 0x3 ADD SWAP1 DUP2 PUSH2 0x103F SWAP2 SWAP1 PUSH2 0x3C43 JUMP JUMPDEST POP SWAP1 POP POP PUSH1 0x9 DUP2 SWAP1 DUP1 PUSH1 0x1 DUP2 SLOAD ADD DUP1 DUP3 SSTORE DUP1 SWAP2 POP POP PUSH1 0x1 SWAP1 SUB SWAP1 PUSH1 0x0 MSTORE PUSH1 0x20 PUSH1 0x0 KECCAK256 SWAP1 PUSH1 0x4 MUL ADD PUSH1 0x0 SWAP1 SWAP2 SWAP1 SWAP2 SWAP1 SWAP2 POP PUSH1 0x0 DUP3 ADD MLOAD DUP2 PUSH1 0x0 ADD SSTORE PUSH1 0x20 DUP3 ADD MLOAD DUP2 PUSH1 0x1 ADD PUSH1 0x0 PUSH2 0x100 EXP DUP2 SLOAD DUP2 PUSH20 0xFFFFFFFFFFFFFFFFFFFFFFFFFFFFFFFFFFFFFFFF MUL NOT AND SWAP1 DUP4 PUSH20 0xFFFFFFFFFFFFFFFFFFFFFFFFFFFFFFFFFFFFFFFF AND MUL OR SWAP1 SSTORE POP PUSH1 0x40 DUP3 ADD MLOAD DUP2 PUSH1 0x2 ADD SWAP1 DUP2 PUSH2 0x10D5 SWAP2 SWAP1 PUSH2 0x3C43 JUMP JUMPDEST POP PUSH1 0x60 DUP3 ADD MLOAD DUP2 PUSH1 0x3 ADD SWAP1 DUP2 PUSH2 0x10EB SWAP2 SWAP1 PUSH2 0x3C43 JUMP JUMPDEST POP POP POP PUSH1 0x1 PUSH1 0x0 DUP2 SLOAD DUP1 SWAP3 SWAP2 SWAP1 PUSH2 0x1101 SWAP1 PUSH2 0x3E13 JUMP JUMPDEST SWAP2 SWAP1 POP SSTORE POP PUSH32 0x68F068B2F0D02FCA99BC8285B62FCE8668FE16B7C6A810351EA25BFF358C0DD8 PUSH1 0x40 MLOAD PUSH2 0x1133 SWAP1 PUSH2 0x3EA7 JUMP JUMPDEST PUSH1 0x40 MLOAD DUP1 SWAP2 SUB SWAP1 LOG1 POP POP POP POP JUMP JUMPDEST PUSH1 0x0 PUSH1 0x3 SLOAD SWAP1 POP SWAP1 JUMP JUMPDEST PUSH1 0x60 PUSH1 0x0 PUSH1 0x9 DUP1 SLOAD SWAP1 POP PUSH8 0xFFFFFFFFFFFFFFFF DUP2 GT ISZERO PUSH2 0x116E JUMPI PUSH2 0x116D PUSH2 0x2C02 JUMP JUMPDEST JUMPDEST PUSH1 0x40 MLOAD SWAP1 DUP1 DUP3 MSTORE DUP1 PUSH1 0x20 MUL PUSH1 0x20 ADD DUP3 ADD PUSH1 0x40 MSTORE DUP1 ISZERO PUSH2 0x11A7 JUMPI DUP2 PUSH1 0x20 ADD JUMPDEST PUSH2 0x1194 PUSH2 0x2A68 JUMP JUMPDEST DUP2 MSTORE PUSH1 0x20 ADD SWAP1 PUSH1 0x1 SWAP1 SUB SWAP1 DUP2 PUSH2 0x118C JUMPI SWAP1 POP JUMPDEST POP SWAP1 POP PUSH1 0x0 JUMPDEST PUSH1 0x9 DUP1 SLOAD SWAP1 POP DUP2 LT ISZERO PUSH2 0x13A2 JUMPI PUSH1 0x9 DUP2 DUP2 SLOAD DUP2 LT PUSH2 0x11CE JUMPI PUSH2 0x11CD PUSH2 0x3D81 JUMP JUMPDEST JUMPDEST SWAP1 PUSH1 0x0 MSTORE PUSH1 0x20 PUSH1 0x0 KECCAK256 SWAP1 PUSH1 0x4 MUL ADD PUSH1 0x40 MLOAD DUP1 PUSH1 0x80 ADD PUSH1 0x40 MSTORE SWAP1 DUP2 PUSH1 0x0 DUP3 ADD SLOAD DUP2 MSTORE PUSH1 0x20 ADD PUSH1 0x1 DUP3 ADD PUSH1 0x0 SWAP1 SLOAD SWAP1 PUSH2 0x100 EXP SWAP1 DIV PUSH20 0xFFFFFFFFFFFFFFFFFFFFFFFFFFFFFFFFFFFFFFFF AND PUSH20 0xFFFFFFFFFFFFFFFFFFFFFFFFFFFFFFFFFFFFFFFF AND PUSH20 0xFFFFFFFFFFFFFFFFFFFFFFFFFFFFFFFFFFFFFFFF AND DUP2 MSTORE PUSH1 0x20 ADD PUSH1 0x2 DUP3 ADD DUP1 SLOAD PUSH2 0x1257 SWAP1 PUSH2 0x3A66 JUMP JUMPDEST DUP1 PUSH1 0x1F ADD PUSH1 0x20 DUP1 SWAP2 DIV MUL PUSH1 0x20 ADD PUSH1 0x40 MLOAD SWAP1 DUP2 ADD PUSH1 0x40 MSTORE DUP1 SWAP3 SWAP2 SWAP1 DUP2 DUP2 MSTORE PUSH1 0x20 ADD DUP3 DUP1 SLOAD PUSH2 0x1283 SWAP1 PUSH2 0x3A66 JUMP JUMPDEST DUP1 ISZERO PUSH2 0x12D0 JUMPI DUP1 PUSH1 0x1F LT PUSH2 0x12A5 JUMPI PUSH2 0x100 DUP1 DUP4 SLOAD DIV MUL DUP4 MSTORE SWAP2 PUSH1 0x20 ADD SWAP2 PUSH2 0x12D0 JUMP JUMPDEST DUP3 ADD SWAP2 SWAP1 PUSH1 0x0 MSTORE PUSH1 0x20 PUSH1 0x0 KECCAK256 SWAP1 JUMPDEST DUP2 SLOAD DUP2 MSTORE SWAP1 PUSH1 0x1 ADD SWAP1 PUSH1 0x20 ADD DUP1 DUP4 GT PUSH2 0x12B3 JUMPI DUP3 SWAP1 SUB PUSH1 0x1F AND DUP3 ADD SWAP2 JUMPDEST POP POP POP POP POP DUP2 MSTORE PUSH1 0x20 ADD PUSH1 0x3 DUP3 ADD DUP1 SLOAD PUSH2 0x12E9 SWAP1 PUSH2 0x3A66 JUMP JUMPDEST DUP1 PUSH1 0x1F ADD PUSH1 0x20 DUP1 SWAP2 DIV MUL PUSH1 0x20 ADD PUSH1 0x40 MLOAD SWAP1 DUP2 ADD PUSH1 0x40 MSTORE DUP1 SWAP3 SWAP2 SWAP1 DUP2 DUP2 MSTORE PUSH1 0x20 ADD DUP3 DUP1 SLOAD PUSH2 0x1315 SWAP1 PUSH2 0x3A66 JUMP JUMPDEST DUP1 ISZERO PUSH2 0x1362 JUMPI DUP1 PUSH1 0x1F LT PUSH2 0x1337 JUMPI PUSH2 0x100 DUP1 DUP4 SLOAD DIV MUL DUP4 MSTORE SWAP2 PUSH1 0x20 ADD SWAP2 PUSH2 0x1362 JUMP JUMPDEST DUP3 ADD SWAP2 SWAP1 PUSH1 0x0 MSTORE PUSH1 0x20 PUSH1 0x0 KECCAK256 SWAP1 JUMPDEST DUP2 SLOAD DUP2 MSTORE SWAP1 PUSH1 0x1 ADD SWAP1 PUSH1 0x20 ADD DUP1 DUP4 GT PUSH2 0x1345 JUMPI DUP3 SWAP1 SUB PUSH1 0x1F AND DUP3 ADD SWAP2 JUMPDEST POP POP POP POP POP DUP2 MSTORE POP POP DUP3 PUSH1 0x1 DUP4 PUSH2 0x1379 SWAP2 SWAP1 PUSH2 0x3DDF JUMP JUMPDEST DUP2 MLOAD DUP2 LT PUSH2 0x138A JUMPI PUSH2 0x1389 PUSH2 0x3D81 JUMP JUMPDEST JUMPDEST PUSH1 0x20 MUL PUSH1 0x20 ADD ADD DUP2 SWAP1 MSTORE POP DUP1 DUP1 PUSH1 0x1 ADD SWAP2 POP POP PUSH2 0x11AD JUMP JUMPDEST POP DUP1 SWAP2 POP POP SWAP1 JUMP JUMPDEST PUSH2 0x13B3 DUP2 PUSH2 0x17F0 JUMP JUMPDEST POP PUSH1 0x0 PUSH1 0x40 MLOAD DUP1 PUSH1 0x60 ADD PUSH1 0x40 MSTORE DUP1 PUSH1 0xC DUP1 SLOAD SWAP1 POP DUP2 MSTORE PUSH1 0x20 ADD DUP5 DUP2 MSTORE PUSH1 0x20 ADD DUP4 PUSH20 0xFFFFFFFFFFFFFFFFFFFFFFFFFFFFFFFFFFFFFFFF AND DUP2 MSTORE POP SWAP1 POP PUSH1 0xC DUP2 SWAP1 DUP1 PUSH1 0x1 DUP2 SLOAD ADD DUP1 DUP3 SSTORE DUP1 SWAP2 POP POP PUSH1 0x1 SWAP1 SUB SWAP1 PUSH1 0x0 MSTORE PUSH1 0x20 PUSH1 0x0 KECCAK256 SWAP1 PUSH1 0x3 MUL ADD PUSH1 0x0 SWAP1 SWAP2 SWAP1 SWAP2 SWAP1 SWAP2 POP PUSH1 0x0 DUP3 ADD MLOAD DUP2 PUSH1 0x0 ADD SSTORE PUSH1 0x20 DUP3 ADD MLOAD DUP2 PUSH1 0x1 ADD SWAP1 DUP2 PUSH2 0x1439 SWAP2 SWAP1 PUSH2 0x3C43 JUMP JUMPDEST POP PUSH1 0x40 DUP3 ADD MLOAD DUP2 PUSH1 0x2 ADD PUSH1 0x0 PUSH2 0x100 EXP DUP2 SLOAD DUP2 PUSH20 0xFFFFFFFFFFFFFFFFFFFFFFFFFFFFFFFFFFFFFFFF MUL NOT AND SWAP1 DUP4 PUSH20 0xFFFFFFFFFFFFFFFFFFFFFFFFFFFFFFFFFFFFFFFF AND MUL OR SWAP1 SSTORE POP POP POP PUSH1 0x1 PUSH1 0x3 SLOAD PUSH2 0x1492 SWAP2 SWAP1 PUSH2 0x3DDF JUMP JUMPDEST PUSH1 0x3 DUP2 SWAP1 SSTORE POP PUSH32 0x68F068B2F0D02FCA99BC8285B62FCE8668FE16B7C6A810351EA25BFF358C0DD8 PUSH1 0x40 MLOAD PUSH2 0x14C5 SWAP1 PUSH2 0x3D61 JUMP JUMPDEST PUSH1 0x40 MLOAD DUP1 SWAP2 SUB SWAP1 LOG1 POP POP POP JUMP JUMPDEST PUSH2 0x14DA PUSH2 0x2A31 JUMP JUMPDEST PUSH1 0xC DUP3 DUP2 SLOAD DUP2 LT PUSH2 0x14EE JUMPI PUSH2 0x14ED PUSH2 0x3D81 JUMP JUMPDEST JUMPDEST SWAP1 PUSH1 0x0 MSTORE PUSH1 0x20 PUSH1 0x0 KECCAK256 SWAP1 PUSH1 0x3 MUL ADD PUSH1 0x40 MLOAD DUP1 PUSH1 0x60 ADD PUSH1 0x40 MSTORE SWAP1 DUP2 PUSH1 0x0 DUP3 ADD SLOAD DUP2 MSTORE PUSH1 0x20 ADD PUSH1 0x1 DUP3 ADD DUP1 SLOAD PUSH2 0x1521 SWAP1 PUSH2 0x3A66 JUMP JUMPDEST DUP1 PUSH1 0x1F ADD PUSH1 0x20 DUP1 SWAP2 DIV MUL PUSH1 0x20 ADD PUSH1 0x40 MLOAD SWAP1 DUP2 ADD PUSH1 0x40 MSTORE DUP1 SWAP3 SWAP2 SWAP1 DUP2 DUP2 MSTORE PUSH1 0x20 ADD DUP3 DUP1 SLOAD PUSH2 0x154D SWAP1 PUSH2 0x3A66 JUMP JUMPDEST DUP1 ISZERO PUSH2 0x159A JUMPI DUP1 PUSH1 0x1F LT PUSH2 0x156F JUMPI PUSH2 0x100 DUP1 DUP4 SLOAD DIV MUL DUP4 MSTORE SWAP2 PUSH1 0x20 ADD SWAP2 PUSH2 0x159A JUMP JUMPDEST DUP3 ADD SWAP2 SWAP1 PUSH1 0x0 MSTORE PUSH1 0x20 PUSH1 0x0 KECCAK256 SWAP1 JUMPDEST DUP2 SLOAD DUP2 MSTORE SWAP1 PUSH1 0x1 ADD SWAP1 PUSH1 0x20 ADD DUP1 DUP4 GT PUSH2 0x157D JUMPI DUP3 SWAP1 SUB PUSH1 0x1F AND DUP3 ADD SWAP2 JUMPDEST POP POP POP POP POP DUP2 MSTORE PUSH1 0x20 ADD PUSH1 0x2 DUP3 ADD PUSH1 0x0 SWAP1 SLOAD SWAP1 PUSH2 0x100 EXP SWAP1 DIV PUSH20 0xFFFFFFFFFFFFFFFFFFFFFFFFFFFFFFFFFFFFFFFF AND PUSH20 0xFFFFFFFFFFFFFFFFFFFFFFFFFFFFFFFFFFFFFFFF AND PUSH20 0xFFFFFFFFFFFFFFFFFFFFFFFFFFFFFFFFFFFFFFFF AND DUP2 MSTORE POP POP SWAP1 POP SWAP2 SWAP1 POP JUMP JUMPDEST PUSH1 0x5 PUSH1 0x20 MSTORE DUP2 PUSH1 0x0 MSTORE PUSH1 0x40 PUSH1 0x0 KECCAK256 PUSH1 0x20 MSTORE DUP1 PUSH1 0x0 MSTORE PUSH1 0x40 PUSH1 0x0 KECCAK256 PUSH1 0x0 SWAP2 POP SWAP2 POP POP DUP1 PUSH1 0x0 ADD SLOAD SWAP1 DUP1 PUSH1 0x1 ADD PUSH1 0x0 SWAP1 SLOAD SWAP1 PUSH2 0x100 EXP SWAP1 DIV PUSH20 0xFFFFFFFFFFFFFFFFFFFFFFFFFFFFFFFFFFFFFFFF AND SWAP1 DUP1 PUSH1 0x2 ADD DUP1 SLOAD PUSH2 0x165C SWAP1 PUSH2 0x3A66 JUMP JUMPDEST DUP1 PUSH1 0x1F ADD PUSH1 0x20 DUP1 SWAP2 DIV MUL PUSH1 0x20 ADD PUSH1 0x40 MLOAD SWAP1 DUP2 ADD PUSH1 0x40 MSTORE DUP1 SWAP3 SWAP2 SWAP1 DUP2 DUP2 MSTORE PUSH1 0x20 ADD DUP3 DUP1 SLOAD PUSH2 0x1688 SWAP1 PUSH2 0x3A66 JUMP JUMPDEST DUP1 ISZERO PUSH2 0x16D5 JUMPI DUP1 PUSH1 0x1F LT PUSH2 0x16AA JUMPI PUSH2 0x100 DUP1 DUP4 SLOAD DIV MUL DUP4 MSTORE SWAP2 PUSH1 0x20 ADD SWAP2 PUSH2 0x16D5 JUMP JUMPDEST DUP3 ADD SWAP2 SWAP1 PUSH1 0x0 MSTORE PUSH1 0x20 PUSH1 0x0 KECCAK256 SWAP1 JUMPDEST DUP2 SLOAD DUP2 MSTORE SWAP1 PUSH1 0x1 ADD SWAP1 PUSH1 0x20 ADD DUP1 DUP4 GT PUSH2 0x16B8 JUMPI DUP3 SWAP1 SUB PUSH1 0x1F AND DUP3 ADD SWAP2 JUMPDEST POP POP POP POP POP SWAP1 DUP1 PUSH1 0x3 ADD PUSH1 0x0 SWAP1 SLOAD SWAP1 PUSH2 0x100 EXP SWAP1 DIV PUSH20 0xFFFFFFFFFFFFFFFFFFFFFFFFFFFFFFFFFFFFFFFF AND SWAP1 POP DUP5 JUMP JUMPDEST PUSH1 0x0 PUSH1 0x8 PUSH1 0x0 DUP4 DUP2 MSTORE PUSH1 0x20 ADD SWAP1 DUP2 MSTORE PUSH1 0x20 ADD PUSH1 0x0 KECCAK256 DUP1 SLOAD SWAP1 POP SWAP1 POP SWAP2 SWAP1 POP JUMP JUMPDEST PUSH1 0x60 PUSH1 0x0 DUP1 SLOAD SWAP1 PUSH2 0x100 EXP SWAP1 DIV PUSH20 0xFFFFFFFFFFFFFFFFFFFFFFFFFFFFFFFFFFFFFFFF AND PUSH20 0xFFFFFFFFFFFFFFFFFFFFFFFFFFFFFFFFFFFFFFFF AND CALLER PUSH20 0xFFFFFFFFFFFFFFFFFFFFFFFFFFFFFFFFFFFFFFFF AND EQ PUSH2 0x17B5 JUMPI PUSH1 0x40 MLOAD PUSH32 0x8C379A000000000000000000000000000000000000000000000000000000000 DUP2 MSTORE PUSH1 0x4 ADD PUSH2 0x17AC SWAP1 PUSH2 0x3F13 JUMP JUMPDEST PUSH1 0x40 MLOAD DUP1 SWAP2 SUB SWAP1 REVERT JUMPDEST PUSH1 0x40 MLOAD DUP1 PUSH1 0x40 ADD PUSH1 0x40 MSTORE DUP1 PUSH1 0x4 DUP2 MSTORE PUSH1 0x20 ADD PUSH32 0x7472756500000000000000000000000000000000000000000000000000000000 DUP2 MSTORE POP SWAP1 POP SWAP1 JUMP JUMPDEST PUSH1 0x60 PUSH1 0x0 PUSH1 0x6 PUSH1 0x0 DUP5 PUSH20 0xFFFFFFFFFFFFFFFFFFFFFFFFFFFFFFFFFFFFFFFF AND PUSH20 0xFFFFFFFFFFFFFFFFFFFFFFFFFFFFFFFFFFFFFFFF AND DUP2 MSTORE PUSH1 0x20 ADD SWAP1 DUP2 MSTORE PUSH1 0x20 ADD PUSH1 0x0 KECCAK256 PUSH1 0x0 SWAP1 SLOAD SWAP1 PUSH2 0x100 EXP SWAP1 DIV PUSH20 0xFFFFFFFFFFFFFFFFFFFFFFFFFFFFFFFFFFFFFFFF AND SWAP1 POP PUSH1 0x0 PUSH1 0x5 PUSH1 0x0 DUP4 PUSH20 0xFFFFFFFFFFFFFFFFFFFFFFFFFFFFFFFFFFFFFFFF AND PUSH20 0xFFFFFFFFFFFFFFFFFFFFFFFFFFFFFFFFFFFFFFFF AND DUP2 MSTORE PUSH1 0x20 ADD SWAP1 DUP2 MSTORE PUSH1 0x20 ADD PUSH1 0x0 KECCAK256 PUSH1 0x0 DUP6 PUSH20 0xFFFFFFFFFFFFFFFFFFFFFFFFFFFFFFFFFFFFFFFF AND PUSH20 0xFFFFFFFFFFFFFFFFFFFFFFFFFFFFFFFFFFFFFFFF AND DUP2 MSTORE PUSH1 0x20 ADD SWAP1 DUP2 MSTORE PUSH1 0x20 ADD PUSH1 0x0 KECCAK256 PUSH1 0x0 ADD SLOAD SUB PUSH2 0x1918 JUMPI PUSH1 0x40 MLOAD PUSH32 0x8C379A000000000000000000000000000000000000000000000000000000000 DUP2 MSTORE PUSH1 0x4 ADD PUSH2 0x190F SWAP1 PUSH2 0x3F13 JUMP JUMPDEST PUSH1 0x40 MLOAD DUP1 SWAP2 SUB SWAP1 REVERT JUMPDEST PUSH1 0x40 MLOAD DUP1 PUSH1 0x40 ADD PUSH1 0x40 MSTORE DUP1 PUSH1 0x4 DUP2 MSTORE PUSH1 0x20 ADD PUSH32 0x7472756500000000000000000000000000000000000000000000000000000000 DUP2 MSTORE POP SWAP2 POP POP SWAP2 SWAP1 POP JUMP JUMPDEST PUSH1 0x9 DUP2 DUP2 SLOAD DUP2 LT PUSH2 0x1966 JUMPI PUSH1 0x0 DUP1 REVERT JUMPDEST SWAP1 PUSH1 0x0 MSTORE PUSH1 0x20 PUSH1 0x0 KECCAK256 SWAP1 PUSH1 0x4 MUL ADD PUSH1 0x0 SWAP2 POP SWAP1 POP DUP1 PUSH1 0x0 ADD SLOAD SWAP1 DUP1 PUSH1 0x1 ADD PUSH1 0x0 SWAP1 SLOAD SWAP1 PUSH2 0x100 EXP SWAP1 DIV PUSH20 0xFFFFFFFFFFFFFFFFFFFFFFFFFFFFFFFFFFFFFFFF AND SWAP1 DUP1 PUSH1 0x2 ADD DUP1 SLOAD PUSH2 0x19B5 SWAP1 PUSH2 0x3A66 JUMP JUMPDEST DUP1 PUSH1 0x1F ADD PUSH1 0x20 DUP1 SWAP2 DIV MUL PUSH1 0x20 ADD PUSH1 0x40 MLOAD SWAP1 DUP2 ADD PUSH1 0x40 MSTORE DUP1 SWAP3 SWAP2 SWAP1 DUP2 DUP2 MSTORE PUSH1 0x20 ADD DUP3 DUP1 SLOAD PUSH2 0x19E1 SWAP1 PUSH2 0x3A66 JUMP JUMPDEST DUP1 ISZERO PUSH2 0x1A2E JUMPI DUP1 PUSH1 0x1F LT PUSH2 0x1A03 JUMPI PUSH2 0x100 DUP1 DUP4 SLOAD DIV MUL DUP4 MSTORE SWAP2 PUSH1 0x20 ADD SWAP2 PUSH2 0x1A2E JUMP JUMPDEST DUP3 ADD SWAP2 SWAP1 PUSH1 0x0 MSTORE PUSH1 0x20 PUSH1 0x0 KECCAK256 SWAP1 JUMPDEST DUP2 SLOAD DUP2 MSTORE SWAP1 PUSH1 0x1 ADD SWAP1 PUSH1 0x20 ADD DUP1 DUP4 GT PUSH2 0x1A11 JUMPI DUP3 SWAP1 SUB PUSH1 0x1F AND DUP3 ADD SWAP2 JUMPDEST POP POP POP POP POP SWAP1 DUP1 PUSH1 0x3 ADD DUP1 SLOAD PUSH2 0x1A43 SWAP1 PUSH2 0x3A66 JUMP JUMPDEST DUP1 PUSH1 0x1F ADD PUSH1 0x20 DUP1 SWAP2 DIV MUL PUSH1 0x20 ADD PUSH1 0x40 MLOAD SWAP1 DUP2 ADD PUSH1 0x40 MSTORE DUP1 SWAP3 SWAP2 SWAP1 DUP2 DUP2 MSTORE PUSH1 0x20 ADD DUP3 DUP1 SLOAD PUSH2 0x1A6F SWAP1 PUSH2 0x3A66 JUMP JUMPDEST DUP1 ISZERO PUSH2 0x1ABC JUMPI DUP1 PUSH1 0x1F LT PUSH2 0x1A91 JUMPI PUSH2 0x100 DUP1 DUP4 SLOAD DIV MUL DUP4 MSTORE SWAP2 PUSH1 0x20 ADD SWAP2 PUSH2 0x1ABC JUMP JUMPDEST DUP3 ADD SWAP2 SWAP1 PUSH1 0x0 MSTORE PUSH1 0x20 PUSH1 0x0 KECCAK256 SWAP1 JUMPDEST DUP2 SLOAD DUP2 MSTORE SWAP1 PUSH1 0x1 ADD SWAP1 PUSH1 0x20 ADD DUP1 DUP4 GT PUSH2 0x1A9F JUMPI DUP3 SWAP1 SUB PUSH1 0x1F AND DUP3 ADD SWAP2 JUMPDEST POP POP POP POP POP SWAP1 POP DUP5 JUMP JUMPDEST PUSH1 0x0 PUSH1 0x1 SLOAD SWAP1 POP SWAP1 JUMP JUMPDEST PUSH1 0x0 DUP1 SLOAD SWAP1 PUSH2 0x100 EXP SWAP1 DIV PUSH20 0xFFFFFFFFFFFFFFFFFFFFFFFFFFFFFFFFFFFFFFFF AND DUP2 JUMP JUMPDEST PUSH1 0xA DUP2 DUP2 SLOAD DUP2 LT PUSH2 0x1B04 JUMPI PUSH1 0x0 DUP1 REVERT JUMPDEST SWAP1 PUSH1 0x0 MSTORE PUSH1 0x20 PUSH1 0x0 KECCAK256 SWAP1 PUSH1 0x4 MUL ADD PUSH1 0x0 SWAP2 POP SWAP1 POP DUP1 PUSH1 0x0 ADD SLOAD SWAP1 DUP1 PUSH1 0x1 ADD PUSH1 0x0 SWAP1 SLOAD SWAP1 PUSH2 0x100 EXP SWAP1 DIV PUSH20 0xFFFFFFFFFFFFFFFFFFFFFFFFFFFFFFFFFFFFFFFF AND SWAP1 DUP1 PUSH1 0x2 ADD DUP1 SLOAD PUSH2 0x1B53 SWAP1 PUSH2 0x3A66 JUMP JUMPDEST DUP1 PUSH1 0x1F ADD PUSH1 0x20 DUP1 SWAP2 DIV MUL PUSH1 0x20 ADD PUSH1 0x40 MLOAD SWAP1 DUP2 ADD PUSH1 0x40 MSTORE DUP1 SWAP3 SWAP2 SWAP1 DUP2 DUP2 MSTORE PUSH1 0x20 ADD DUP3 DUP1 SLOAD PUSH2 0x1B7F SWAP1 PUSH2 0x3A66 JUMP JUMPDEST DUP1 ISZERO PUSH2 0x1BCC JUMPI DUP1 PUSH1 0x1F LT PUSH2 0x1BA1 JUMPI PUSH2 0x100 DUP1 DUP4 SLOAD DIV MUL DUP4 MSTORE SWAP2 PUSH1 0x20 ADD SWAP2 PUSH2 0x1BCC JUMP JUMPDEST DUP3 ADD SWAP2 SWAP1 PUSH1 0x0 MSTORE PUSH1 0x20 PUSH1 0x0 KECCAK256 SWAP1 JUMPDEST DUP2 SLOAD DUP2 MSTORE SWAP1 PUSH1 0x1 ADD SWAP1 PUSH1 0x20 ADD DUP1 DUP4 GT PUSH2 0x1BAF JUMPI DUP3 SWAP1 SUB PUSH1 0x1F AND DUP3 ADD SWAP2 JUMPDEST POP POP POP POP POP SWAP1 DUP1 PUSH1 0x3 ADD PUSH1 0x0 SWAP1 SLOAD SWAP1 PUSH2 0x100 EXP SWAP1 DIV PUSH20 0xFFFFFFFFFFFFFFFFFFFFFFFFFFFFFFFFFFFFFFFF AND SWAP1 POP DUP5 JUMP JUMPDEST PUSH1 0x7 PUSH1 0x20 MSTORE DUP2 PUSH1 0x0 MSTORE PUSH1 0x40 PUSH1 0x0 KECCAK256 DUP2 DUP2 SLOAD DUP2 LT PUSH2 0x1C18 JUMPI PUSH1 0x0 DUP1 REVERT JUMPDEST SWAP1 PUSH1 0x0 MSTORE PUSH1 0x20 PUSH1 0x0 KECCAK256 SWAP1 PUSH1 0x4 MUL ADD PUSH1 0x0 SWAP2 POP SWAP2 POP POP DUP1 PUSH1 0x0 ADD SLOAD SWAP1 DUP1 PUSH1 0x1 ADD PUSH1 0x0 SWAP1 SLOAD SWAP1 PUSH2 0x100 EXP SWAP1 DIV PUSH20 0xFFFFFFFFFFFFFFFFFFFFFFFFFFFFFFFFFFFFFFFF AND SWAP1 DUP1 PUSH1 0x2 ADD DUP1 SLOAD PUSH2 0x1C68 SWAP1 PUSH2 0x3A66 JUMP JUMPDEST DUP1 PUSH1 0x1F ADD PUSH1 0x20 DUP1 SWAP2 DIV MUL PUSH1 0x20 ADD PUSH1 0x40 MLOAD SWAP1 DUP2 ADD PUSH1 0x40 MSTORE DUP1 SWAP3 SWAP2 SWAP1 DUP2 DUP2 MSTORE PUSH1 0x20 ADD DUP3 DUP1 SLOAD PUSH2 0x1C94 SWAP1 PUSH2 0x3A66 JUMP JUMPDEST DUP1 ISZERO PUSH2 0x1CE1 JUMPI DUP1 PUSH1 0x1F LT PUSH2 0x1CB6 JUMPI PUSH2 0x100 DUP1 DUP4 SLOAD DIV MUL DUP4 MSTORE SWAP2 PUSH1 0x20 ADD SWAP2 PUSH2 0x1CE1 JUMP JUMPDEST DUP3 ADD SWAP2 SWAP1 PUSH1 0x0 MSTORE PUSH1 0x20 PUSH1 0x0 KECCAK256 SWAP1 JUMPDEST DUP2 SLOAD DUP2 MSTORE SWAP1 PUSH1 0x1 ADD SWAP1 PUSH1 0x20 ADD DUP1 DUP4 GT PUSH2 0x1CC4 JUMPI DUP3 SWAP1 SUB PUSH1 0x1F AND DUP3 ADD SWAP2 JUMPDEST POP POP POP POP POP SWAP1 DUP1 PUSH1 0x3 ADD PUSH1 0x0 SWAP1 SLOAD SWAP1 PUSH2 0x100 EXP SWAP1 DIV PUSH20 0xFFFFFFFFFFFFFFFFFFFFFFFFFFFFFFFFFFFFFFFF AND SWAP1 POP DUP5 JUMP JUMPDEST PUSH1 0xB DUP2 DUP2 SLOAD DUP2 LT PUSH2 0x1D21 JUMPI PUSH1 0x0 DUP1 REVERT JUMPDEST SWAP1 PUSH1 0x0 MSTORE PUSH1 0x20 PUSH1 0x0 KECCAK256 SWAP1 PUSH1 0x4 MUL ADD PUSH1 0x0 SWAP2 POP SWAP1 POP DUP1 PUSH1 0x0 ADD SLOAD SWAP1 DUP1 PUSH1 0x1 ADD PUSH1 0x0 SWAP1 SLOAD SWAP1 PUSH2 0x100 EXP SWAP1 DIV PUSH20 0xFFFFFFFFFFFFFFFFFFFFFFFFFFFFFFFFFFFFFFFF AND SWAP1 DUP1 PUSH1 0x2 ADD DUP1 SLOAD PUSH2 0x1D70 SWAP1 PUSH2 0x3A66 JUMP JUMPDEST DUP1 PUSH1 0x1F ADD PUSH1 0x20 DUP1 SWAP2 DIV MUL PUSH1 0x20 ADD PUSH1 0x40 MLOAD SWAP1 DUP2 ADD PUSH1 0x40 MSTORE DUP1 SWAP3 SWAP2 SWAP1 DUP2 DUP2 MSTORE PUSH1 0x20 ADD DUP3 DUP1 SLOAD PUSH2 0x1D9C SWAP1 PUSH2 0x3A66 JUMP JUMPDEST DUP1 ISZERO PUSH2 0x1DE9 JUMPI DUP1 PUSH1 0x1F LT PUSH2 0x1DBE JUMPI PUSH2 0x100 DUP1 DUP4 SLOAD DIV MUL DUP4 MSTORE SWAP2 PUSH1 0x20 ADD SWAP2 PUSH2 0x1DE9 JUMP JUMPDEST DUP3 ADD SWAP2 SWAP1 PUSH1 0x0 MSTORE PUSH1 0x20 PUSH1 0x0 KECCAK256 SWAP1 JUMPDEST DUP2 SLOAD DUP2 MSTORE SWAP1 PUSH1 0x1 ADD SWAP1 PUSH1 0x20 ADD DUP1 DUP4 GT PUSH2 0x1DCC JUMPI DUP3 SWAP1 SUB PUSH1 0x1F AND DUP3 ADD SWAP2 JUMPDEST POP POP POP POP POP SWAP1 DUP1 PUSH1 0x3 ADD PUSH1 0x0 SWAP1 SLOAD SWAP1 PUSH2 0x100 EXP SWAP1 DIV PUSH20 0xFFFFFFFFFFFFFFFFFFFFFFFFFFFFFFFFFFFFFFFF AND SWAP1 POP DUP5 JUMP JUMPDEST PUSH2 0x1E21 PUSH2 0x2A68 JUMP JUMPDEST PUSH1 0x9 DUP3 DUP2 SLOAD DUP2 LT PUSH2 0x1E35 JUMPI PUSH2 0x1E34 PUSH2 0x3D81 JUMP JUMPDEST JUMPDEST SWAP1 PUSH1 0x0 MSTORE PUSH1 0x20 PUSH1 0x0 KECCAK256 SWAP1 PUSH1 0x4 MUL ADD PUSH1 0x40 MLOAD DUP1 PUSH1 0x80 ADD PUSH1 0x40 MSTORE SWAP1 DUP2 PUSH1 0x0 DUP3 ADD SLOAD DUP2 MSTORE PUSH1 0x20 ADD PUSH1 0x1 DUP3 ADD PUSH1 0x0 SWAP1 SLOAD SWAP1 PUSH2 0x100 EXP SWAP1 DIV PUSH20 0xFFFFFFFFFFFFFFFFFFFFFFFFFFFFFFFFFFFFFFFF AND PUSH20 0xFFFFFFFFFFFFFFFFFFFFFFFFFFFFFFFFFFFFFFFF AND PUSH20 0xFFFFFFFFFFFFFFFFFFFFFFFFFFFFFFFFFFFFFFFF AND DUP2 MSTORE PUSH1 0x20 ADD PUSH1 0x2 DUP3 ADD DUP1 SLOAD PUSH2 0x1EBE SWAP1 PUSH2 0x3A66 JUMP JUMPDEST DUP1 PUSH1 0x1F ADD PUSH1 0x20 DUP1 SWAP2 DIV MUL PUSH1 0x20 ADD PUSH1 0x40 MLOAD SWAP1 DUP2 ADD PUSH1 0x40 MSTORE DUP1 SWAP3 SWAP2 SWAP1 DUP2 DUP2 MSTORE PUSH1 0x20 ADD DUP3 DUP1 SLOAD PUSH2 0x1EEA SWAP1 PUSH2 0x3A66 JUMP JUMPDEST DUP1 ISZERO PUSH2 0x1F37 JUMPI DUP1 PUSH1 0x1F LT PUSH2 0x1F0C JUMPI PUSH2 0x100 DUP1 DUP4 SLOAD DIV MUL DUP4 MSTORE SWAP2 PUSH1 0x20 ADD SWAP2 PUSH2 0x1F37 JUMP JUMPDEST DUP3 ADD SWAP2 SWAP1 PUSH1 0x0 MSTORE PUSH1 0x20 PUSH1 0x0 KECCAK256 SWAP1 JUMPDEST DUP2 SLOAD DUP2 MSTORE SWAP1 PUSH1 0x1 ADD SWAP1 PUSH1 0x20 ADD DUP1 DUP4 GT PUSH2 0x1F1A JUMPI DUP3 SWAP1 SUB PUSH1 0x1F AND DUP3 ADD SWAP2 JUMPDEST POP POP POP POP POP DUP2 MSTORE PUSH1 0x20 ADD PUSH1 0x3 DUP3 ADD DUP1 SLOAD PUSH2 0x1F50 SWAP1 PUSH2 0x3A66 JUMP JUMPDEST DUP1 PUSH1 0x1F ADD PUSH1 0x20 DUP1 SWAP2 DIV MUL PUSH1 0x20 ADD PUSH1 0x40 MLOAD SWAP1 DUP2 ADD PUSH1 0x40 MSTORE DUP1 SWAP3 SWAP2 SWAP1 DUP2 DUP2 MSTORE PUSH1 0x20 ADD DUP3 DUP1 SLOAD PUSH2 0x1F7C SWAP1 PUSH2 0x3A66 JUMP JUMPDEST DUP1 ISZERO PUSH2 0x1FC9 JUMPI DUP1 PUSH1 0x1F LT PUSH2 0x1F9E JUMPI PUSH2 0x100 DUP1 DUP4 SLOAD DIV MUL DUP4 MSTORE SWAP2 PUSH1 0x20 ADD SWAP2 PUSH2 0x1FC9 JUMP JUMPDEST DUP3 ADD SWAP2 SWAP1 PUSH1 0x0 MSTORE PUSH1 0x20 PUSH1 0x0 KECCAK256 SWAP1 JUMPDEST DUP2 SLOAD DUP2 MSTORE SWAP1 PUSH1 0x1 ADD SWAP1 PUSH1 0x20 ADD DUP1 DUP4 GT PUSH2 0x1FAC JUMPI DUP3 SWAP1 SUB PUSH1 0x1F AND DUP3 ADD SWAP2 JUMPDEST POP POP POP POP POP DUP2 MSTORE POP POP SWAP1 POP SWAP2 SWAP1 POP JUMP JUMPDEST PUSH1 0x60 PUSH1 0x0 PUSH1 0x4 PUSH1 0x0 DUP5 PUSH20 0xFFFFFFFFFFFFFFFFFFFFFFFFFFFFFFFFFFFFFFFF AND PUSH20 0xFFFFFFFFFFFFFFFFFFFFFFFFFFFFFFFFFFFFFFFF AND DUP2 MSTORE PUSH1 0x20 ADD SWAP1 DUP2 MSTORE PUSH1 0x20 ADD PUSH1 0x0 KECCAK256 PUSH1 0x0 ADD SLOAD SUB PUSH2 0x2060 JUMPI PUSH1 0x40 MLOAD PUSH32 0x8C379A000000000000000000000000000000000000000000000000000000000 DUP2 MSTORE PUSH1 0x4 ADD PUSH2 0x2057 SWAP1 PUSH2 0x3F13 JUMP JUMPDEST PUSH1 0x40 MLOAD DUP1 SWAP2 SUB SWAP1 REVERT JUMPDEST PUSH1 0x40 MLOAD DUP1 PUSH1 0x40 ADD PUSH1 0x40 MSTORE DUP1 PUSH1 0x4 DUP2 MSTORE PUSH1 0x20 ADD PUSH32 0x7472756500000000000000000000000000000000000000000000000000000000 DUP2 MSTORE POP SWAP1 POP SWAP2 SWAP1 POP JUMP JUMPDEST PUSH1 0xC DUP2 DUP2 SLOAD DUP2 LT PUSH2 0x20AD JUMPI PUSH1 0x0 DUP1 REVERT JUMPDEST SWAP1 PUSH1 0x0 MSTORE PUSH1 0x20 PUSH1 0x0 KECCAK256 SWAP1 PUSH1 0x3 MUL ADD PUSH1 0x0 SWAP2 POP SWAP1 POP DUP1 PUSH1 0x0 ADD SLOAD SWAP1 DUP1 PUSH1 0x1 ADD DUP1 SLOAD PUSH2 0x20D6 SWAP1 PUSH2 0x3A66 JUMP JUMPDEST DUP1 PUSH1 0x1F ADD PUSH1 0x20 DUP1 SWAP2 DIV MUL PUSH1 0x20 ADD PUSH1 0x40 MLOAD SWAP1 DUP2 ADD PUSH1 0x40 MSTORE DUP1 SWAP3 SWAP2 SWAP1 DUP2 DUP2 MSTORE PUSH1 0x20 ADD DUP3 DUP1 SLOAD PUSH2 0x2102 SWAP1 PUSH2 0x3A66 JUMP JUMPDEST DUP1 ISZERO PUSH2 0x214F JUMPI DUP1 PUSH1 0x1F LT PUSH2 0x2124 JUMPI PUSH2 0x100 DUP1 DUP4 SLOAD DIV MUL DUP4 MSTORE SWAP2 PUSH1 0x20 ADD SWAP2 PUSH2 0x214F JUMP JUMPDEST DUP3 ADD SWAP2 SWAP1 PUSH1 0x0 MSTORE PUSH1 0x20 PUSH1 0x0 KECCAK256 SWAP1 JUMPDEST DUP2 SLOAD DUP2 MSTORE SWAP1 PUSH1 0x1 ADD SWAP1 PUSH1 0x20 ADD DUP1 DUP4 GT PUSH2 0x2132 JUMPI DUP3 SWAP1 SUB PUSH1 0x1F AND DUP3 ADD SWAP2 JUMPDEST POP POP POP POP POP SWAP1 DUP1 PUSH1 0x2 ADD PUSH1 0x0 SWAP1 SLOAD SWAP1 PUSH2 0x100 EXP SWAP1 DIV PUSH20 0xFFFFFFFFFFFFFFFFFFFFFFFFFFFFFFFFFFFFFFFF AND SWAP1 POP DUP4 JUMP JUMPDEST PUSH1 0x60 PUSH1 0x0 PUSH1 0xA DUP1 SLOAD SWAP1 POP PUSH8 0xFFFFFFFFFFFFFFFF DUP2 GT ISZERO PUSH2 0x21A2 JUMPI PUSH2 0x21A1 PUSH2 0x2C02 JUMP JUMPDEST JUMPDEST PUSH1 0x40 MLOAD SWAP1 DUP1 DUP3 MSTORE DUP1 PUSH1 0x20 MUL PUSH1 0x20 ADD DUP3 ADD PUSH1 0x40 MSTORE DUP1 ISZERO PUSH2 0x21DB JUMPI DUP2 PUSH1 0x20 ADD JUMPDEST PUSH2 0x21C8 PUSH2 0x2AA6 JUMP JUMPDEST DUP2 MSTORE PUSH1 0x20 ADD SWAP1 PUSH1 0x1 SWAP1 SUB SWAP1 DUP2 PUSH2 0x21C0 JUMPI SWAP1 POP JUMPDEST POP SWAP1 POP PUSH1 0x0 JUMPDEST PUSH1 0xA DUP1 SLOAD SWAP1 POP DUP2 LT ISZERO PUSH2 0x238E JUMPI PUSH1 0xA DUP2 DUP2 SLOAD DUP2 LT PUSH2 0x2202 JUMPI PUSH2 0x2201 PUSH2 0x3D81 JUMP JUMPDEST JUMPDEST SWAP1 PUSH1 0x0 MSTORE PUSH1 0x20 PUSH1 0x0 KECCAK256 SWAP1 PUSH1 0x4 MUL ADD PUSH1 0x40 MLOAD DUP1 PUSH1 0x80 ADD PUSH1 0x40 MSTORE SWAP1 DUP2 PUSH1 0x0 DUP3 ADD SLOAD DUP2 MSTORE PUSH1 0x20 ADD PUSH1 0x1 DUP3 ADD PUSH1 0x0 SWAP1 SLOAD SWAP1 PUSH2 0x100 EXP SWAP1 DIV PUSH20 0xFFFFFFFFFFFFFFFFFFFFFFFFFFFFFFFFFFFFFFFF AND PUSH20 0xFFFFFFFFFFFFFFFFFFFFFFFFFFFFFFFFFFFFFFFF AND PUSH20 0xFFFFFFFFFFFFFFFFFFFFFFFFFFFFFFFFFFFFFFFF AND DUP2 MSTORE PUSH1 0x20 ADD PUSH1 0x2 DUP3 ADD DUP1 SLOAD PUSH2 0x228B SWAP1 PUSH2 0x3A66 JUMP JUMPDEST DUP1 PUSH1 0x1F ADD PUSH1 0x20 DUP1 SWAP2 DIV MUL PUSH1 0x20 ADD PUSH1 0x40 MLOAD SWAP1 DUP2 ADD PUSH1 0x40 MSTORE DUP1 SWAP3 SWAP2 SWAP1 DUP2 DUP2 MSTORE PUSH1 0x20 ADD DUP3 DUP1 SLOAD PUSH2 0x22B7 SWAP1 PUSH2 0x3A66 JUMP JUMPDEST DUP1 ISZERO PUSH2 0x2304 JUMPI DUP1 PUSH1 0x1F LT PUSH2 0x22D9 JUMPI PUSH2 0x100 DUP1 DUP4 SLOAD DIV MUL DUP4 MSTORE SWAP2 PUSH1 0x20 ADD SWAP2 PUSH2 0x2304 JUMP JUMPDEST DUP3 ADD SWAP2 SWAP1 PUSH1 0x0 MSTORE PUSH1 0x20 PUSH1 0x0 KECCAK256 SWAP1 JUMPDEST DUP2 SLOAD DUP2 MSTORE SWAP1 PUSH1 0x1 ADD SWAP1 PUSH1 0x20 ADD DUP1 DUP4 GT PUSH2 0x22E7 JUMPI DUP3 SWAP1 SUB PUSH1 0x1F AND DUP3 ADD SWAP2 JUMPDEST POP POP POP POP POP DUP2 MSTORE PUSH1 0x20 ADD PUSH1 0x3 DUP3 ADD PUSH1 0x0 SWAP1 SLOAD SWAP1 PUSH2 0x100 EXP SWAP1 DIV PUSH20 0xFFFFFFFFFFFFFFFFFFFFFFFFFFFFFFFFFFFFFFFF AND PUSH20 0xFFFFFFFFFFFFFFFFFFFFFFFFFFFFFFFFFFFFFFFF AND PUSH20 0xFFFFFFFFFFFFFFFFFFFFFFFFFFFFFFFFFFFFFFFF AND DUP2 MSTORE POP POP DUP3 DUP3 DUP2 MLOAD DUP2 LT PUSH2 0x2376 JUMPI PUSH2 0x2375 PUSH2 0x3D81 JUMP JUMPDEST JUMPDEST PUSH1 0x20 MUL PUSH1 0x20 ADD ADD DUP2 SWAP1 MSTORE POP DUP1 DUP1 PUSH1 0x1 ADD SWAP2 POP POP PUSH2 0x21E1 JUMP JUMPDEST POP DUP1 SWAP2 POP POP SWAP1 JUMP JUMPDEST PUSH1 0x3 SLOAD DUP2 JUMP JUMPDEST PUSH2 0x23A5 DUP3 PUSH2 0x1FD9 JUMP JUMPDEST POP DUP2 PUSH1 0x6 PUSH1 0x0 DUP6 PUSH20 0xFFFFFFFFFFFFFFFFFFFFFFFFFFFFFFFFFFFFFFFF AND PUSH20 0xFFFFFFFFFFFFFFFFFFFFFFFFFFFFFFFFFFFFFFFF AND DUP2 MSTORE PUSH1 0x20 ADD SWAP1 DUP2 MSTORE PUSH1 0x20 ADD PUSH1 0x0 KECCAK256 PUSH1 0x0 PUSH2 0x100 EXP DUP2 SLOAD DUP2 PUSH20 0xFFFFFFFFFFFFFFFFFFFFFFFFFFFFFFFFFFFFFFFF MUL NOT AND SWAP1 DUP4 PUSH20 0xFFFFFFFFFFFFFFFFFFFFFFFFFFFFFFFFFFFFFFFF AND MUL OR SWAP1 SSTORE POP PUSH1 0x1 PUSH1 0x2 SLOAD PUSH2 0x2433 SWAP2 SWAP1 PUSH2 0x3DDF JUMP JUMPDEST PUSH1 0x2 DUP2 SWAP1 SSTORE POP PUSH1 0x0 PUSH1 0x40 MLOAD DUP1 PUSH1 0x80 ADD PUSH1 0x40 MSTORE DUP1 PUSH1 0x2 SLOAD DUP2 MSTORE PUSH1 0x20 ADD DUP6 PUSH20 0xFFFFFFFFFFFFFFFFFFFFFFFFFFFFFFFFFFFFFFFF AND DUP2 MSTORE PUSH1 0x20 ADD DUP4 DUP2 MSTORE PUSH1 0x20 ADD DUP5 PUSH20 0xFFFFFFFFFFFFFFFFFFFFFFFFFFFFFFFFFFFFFFFF AND DUP2 MSTORE POP SWAP1 POP DUP1 PUSH1 0x5 PUSH1 0x0 DUP6 PUSH20 0xFFFFFFFFFFFFFFFFFFFFFFFFFFFFFFFFFFFFFFFF AND PUSH20 0xFFFFFFFFFFFFFFFFFFFFFFFFFFFFFFFFFFFFFFFF AND DUP2 MSTORE PUSH1 0x20 ADD SWAP1 DUP2 MSTORE PUSH1 0x20 ADD PUSH1 0x0 KECCAK256 PUSH1 0x0 DUP7 PUSH20 0xFFFFFFFFFFFFFFFFFFFFFFFFFFFFFFFFFFFFFFFF AND PUSH20 0xFFFFFFFFFFFFFFFFFFFFFFFFFFFFFFFFFFFFFFFF AND DUP2 MSTORE PUSH1 0x20 ADD SWAP1 DUP2 MSTORE PUSH1 0x20 ADD PUSH1 0x0 KECCAK256 PUSH1 0x0 DUP3 ADD MLOAD DUP2 PUSH1 0x0 ADD SSTORE PUSH1 0x20 DUP3 ADD MLOAD DUP2 PUSH1 0x1 ADD PUSH1 0x0 PUSH2 0x100 EXP DUP2 SLOAD DUP2 PUSH20 0xFFFFFFFFFFFFFFFFFFFFFFFFFFFFFFFFFFFFFFFF MUL NOT AND SWAP1 DUP4 PUSH20 0xFFFFFFFFFFFFFFFFFFFFFFFFFFFFFFFFFFFFFFFF AND MUL OR SWAP1 SSTORE POP PUSH1 0x40 DUP3 ADD MLOAD DUP2 PUSH1 0x2 ADD SWAP1 DUP2 PUSH2 0x256F SWAP2 SWAP1 PUSH2 0x3C43 JUMP JUMPDEST POP PUSH1 0x60 DUP3 ADD MLOAD DUP2 PUSH1 0x3 ADD PUSH1 0x0 PUSH2 0x100 EXP DUP2 SLOAD DUP2 PUSH20 0xFFFFFFFFFFFFFFFFFFFFFFFFFFFFFFFFFFFFFFFF MUL NOT AND SWAP1 DUP4 PUSH20 0xFFFFFFFFFFFFFFFFFFFFFFFFFFFFFFFFFFFFFFFF AND MUL OR SWAP1 SSTORE POP SWAP1 POP POP PUSH1 0xA DUP2 SWAP1 DUP1 PUSH1 0x1 DUP2 SLOAD ADD DUP1 DUP3 SSTORE DUP1 SWAP2 POP POP PUSH1 0x1 SWAP1 SUB SWAP1 PUSH1 0x0 MSTORE PUSH1 0x20 PUSH1 0x0 KECCAK256 SWAP1 PUSH1 0x4 MUL ADD PUSH1 0x0 SWAP1 SWAP2 SWAP1 SWAP2 SWAP1 SWAP2 POP PUSH1 0x0 DUP3 ADD MLOAD DUP2 PUSH1 0x0 ADD SSTORE PUSH1 0x20 DUP3 ADD MLOAD DUP2 PUSH1 0x1 ADD PUSH1 0x0 PUSH2 0x100 EXP DUP2 SLOAD DUP2 PUSH20 0xFFFFFFFFFFFFFFFFFFFFFFFFFFFFFFFFFFFFFFFF MUL NOT AND SWAP1 DUP4 PUSH20 0xFFFFFFFFFFFFFFFFFFFFFFFFFFFFFFFFFFFFFFFF AND MUL OR SWAP1 SSTORE POP PUSH1 0x40 DUP3 ADD MLOAD DUP2 PUSH1 0x2 ADD SWAP1 DUP2 PUSH2 0x264C SWAP2 SWAP1 PUSH2 0x3C43 JUMP JUMPDEST POP PUSH1 0x60 DUP3 ADD MLOAD DUP2 PUSH1 0x3 ADD PUSH1 0x0 PUSH2 0x100 EXP DUP2 SLOAD DUP2 PUSH20 0xFFFFFFFFFFFFFFFFFFFFFFFFFFFFFFFFFFFFFFFF MUL NOT AND SWAP1 DUP4 PUSH20 0xFFFFFFFFFFFFFFFFFFFFFFFFFFFFFFFFFFFFFFFF AND MUL OR SWAP1 SSTORE POP POP POP PUSH32 0x68F068B2F0D02FCA99BC8285B62FCE8668FE16B7C6A810351EA25BFF358C0DD8 PUSH1 0x40 MLOAD PUSH2 0x26C3 SWAP1 PUSH2 0x3D61 JUMP JUMPDEST PUSH1 0x40 MLOAD DUP1 SWAP2 SUB SWAP1 LOG1 POP POP POP POP JUMP JUMPDEST PUSH2 0x26D9 PUSH2 0x2AA6 JUMP JUMPDEST PUSH1 0xA DUP3 DUP2 SLOAD DUP2 LT PUSH2 0x26ED JUMPI PUSH2 0x26EC PUSH2 0x3D81 JUMP JUMPDEST JUMPDEST SWAP1 PUSH1 0x0 MSTORE PUSH1 0x20 PUSH1 0x0 KECCAK256 SWAP1 PUSH1 0x4 MUL ADD PUSH1 0x40 MLOAD DUP1 PUSH1 0x80 ADD PUSH1 0x40 MSTORE SWAP1 DUP2 PUSH1 0x0 DUP3 ADD SLOAD DUP2 MSTORE PUSH1 0x20 ADD PUSH1 0x1 DUP3 ADD PUSH1 0x0 SWAP1 SLOAD SWAP1 PUSH2 0x100 EXP SWAP1 DIV PUSH20 0xFFFFFFFFFFFFFFFFFFFFFFFFFFFFFFFFFFFFFFFF AND PUSH20 0xFFFFFFFFFFFFFFFFFFFFFFFFFFFFFFFFFFFFFFFF AND PUSH20 0xFFFFFFFFFFFFFFFFFFFFFFFFFFFFFFFFFFFFFFFF AND DUP2 MSTORE PUSH1 0x20 ADD PUSH1 0x2 DUP3 ADD DUP1 SLOAD PUSH2 0x2776 SWAP1 PUSH2 0x3A66 JUMP JUMPDEST DUP1 PUSH1 0x1F ADD PUSH1 0x20 DUP1 SWAP2 DIV MUL PUSH1 0x20 ADD PUSH1 0x40 MLOAD SWAP1 DUP2 ADD PUSH1 0x40 MSTORE DUP1 SWAP3 SWAP2 SWAP1 DUP2 DUP2 MSTORE PUSH1 0x20 ADD DUP3 DUP1 SLOAD PUSH2 0x27A2 SWAP1 PUSH2 0x3A66 JUMP JUMPDEST DUP1 ISZERO PUSH2 0x27EF JUMPI DUP1 PUSH1 0x1F LT PUSH2 0x27C4 JUMPI PUSH2 0x100 DUP1 DUP4 SLOAD DIV MUL DUP4 MSTORE SWAP2 PUSH1 0x20 ADD SWAP2 PUSH2 0x27EF JUMP JUMPDEST DUP3 ADD SWAP2 SWAP1 PUSH1 0x0 MSTORE PUSH1 0x20 PUSH1 0x0 KECCAK256 SWAP1 JUMPDEST DUP2 SLOAD DUP2 MSTORE SWAP1 PUSH1 0x1 ADD SWAP1 PUSH1 0x20 ADD DUP1 DUP4 GT PUSH2 0x27D2 JUMPI DUP3 SWAP1 SUB PUSH1 0x1F AND DUP3 ADD SWAP2 JUMPDEST POP POP POP POP POP DUP2 MSTORE PUSH1 0x20 ADD PUSH1 0x3 DUP3 ADD PUSH1 0x0 SWAP1 SLOAD SWAP1 PUSH2 0x100 EXP SWAP1 DIV PUSH20 0xFFFFFFFFFFFFFFFFFFFFFFFFFFFFFFFFFFFFFFFF AND PUSH20 0xFFFFFFFFFFFFFFFFFFFFFFFFFFFFFFFFFFFFFFFF AND PUSH20 0xFFFFFFFFFFFFFFFFFFFFFFFFFFFFFFFFFFFFFFFF AND DUP2 MSTORE POP POP SWAP1 POP SWAP2 SWAP1 POP JUMP JUMPDEST PUSH2 0x285D PUSH2 0x2AFA JUMP JUMPDEST PUSH1 0x8 PUSH1 0x0 DUP5 DUP2 MSTORE PUSH1 0x20 ADD SWAP1 DUP2 MSTORE PUSH1 0x20 ADD PUSH1 0x0 KECCAK256 DUP3 DUP2 SLOAD DUP2 LT PUSH2 0x2882 JUMPI PUSH2 0x2881 PUSH2 0x3D81 JUMP JUMPDEST JUMPDEST SWAP1 PUSH1 0x0 MSTORE PUSH1 0x20 PUSH1 0x0 KECCAK256 SWAP1 PUSH1 0x5 MUL ADD PUSH1 0x40 MLOAD DUP1 PUSH1 0xA0 ADD PUSH1 0x40 MSTORE SWAP1 DUP2 PUSH1 0x0 DUP3 ADD SLOAD DUP2 MSTORE PUSH1 0x20 ADD PUSH1 0x1 DUP3 ADD PUSH1 0x0 SWAP1 SLOAD SWAP1 PUSH2 0x100 EXP SWAP1 DIV PUSH20 0xFFFFFFFFFFFFFFFFFFFFFFFFFFFFFFFFFFFFFFFF AND PUSH20 0xFFFFFFFFFFFFFFFFFFFFFFFFFFFFFFFFFFFFFFFF AND PUSH20 0xFFFFFFFFFFFFFFFFFFFFFFFFFFFFFFFFFFFFFFFF AND DUP2 MSTORE PUSH1 0x20 ADD PUSH1 0x2 DUP3 ADD DUP1 SLOAD PUSH2 0x290B SWAP1 PUSH2 0x3A66 JUMP JUMPDEST DUP1 PUSH1 0x1F ADD PUSH1 0x20 DUP1 SWAP2 DIV MUL PUSH1 0x20 ADD PUSH1 0x40 MLOAD SWAP1 DUP2 ADD PUSH1 0x40 MSTORE DUP1 SWAP3 SWAP2 SWAP1 DUP2 DUP2 MSTORE PUSH1 0x20 ADD DUP3 DUP1 SLOAD PUSH2 0x2937 SWAP1 PUSH2 0x3A66 JUMP JUMPDEST DUP1 ISZERO PUSH2 0x2984 JUMPI DUP1 PUSH1 0x1F LT PUSH2 0x2959 JUMPI PUSH2 0x100 DUP1 DUP4 SLOAD DIV MUL DUP4 MSTORE SWAP2 PUSH1 0x20 ADD SWAP2 PUSH2 0x2984 JUMP JUMPDEST DUP3 ADD SWAP2 SWAP1 PUSH1 0x0 MSTORE PUSH1 0x20 PUSH1 0x0 KECCAK256 SWAP1 JUMPDEST DUP2 SLOAD DUP2 MSTORE SWAP1 PUSH1 0x1 ADD SWAP1 PUSH1 0x20 ADD DUP1 DUP4 GT PUSH2 0x2967 JUMPI DUP3 SWAP1 SUB PUSH1 0x1F AND DUP3 ADD SWAP2 JUMPDEST POP POP POP POP POP DUP2 MSTORE PUSH1 0x20 ADD PUSH1 0x3 DUP3 ADD DUP1 SLOAD PUSH2 0x299D SWAP1 PUSH2 0x3A66 JUMP JUMPDEST DUP1 PUSH1 0x1F ADD PUSH1 0x20 DUP1 SWAP2 DIV MUL PUSH1 0x20 ADD PUSH1 0x40 MLOAD SWAP1 DUP2 ADD PUSH1 0x40 MSTORE DUP1 SWAP3 SWAP2 SWAP1 DUP2 DUP2 MSTORE PUSH1 0x20 ADD DUP3 DUP1 SLOAD PUSH2 0x29C9 SWAP1 PUSH2 0x3A66 JUMP JUMPDEST DUP1 ISZERO PUSH2 0x2A16 JUMPI DUP1 PUSH1 0x1F LT PUSH2 0x29EB JUMPI PUSH2 0x100 DUP1 DUP4 SLOAD DIV MUL DUP4 MSTORE SWAP2 PUSH1 0x20 ADD SWAP2 PUSH2 0x2A16 JUMP JUMPDEST DUP3 ADD SWAP2 SWAP1 PUSH1 0x0 MSTORE PUSH1 0x20 PUSH1 0x0 KECCAK256 SWAP1 JUMPDEST DUP2 SLOAD DUP2 MSTORE SWAP1 PUSH1 0x1 ADD SWAP1 PUSH1 0x20 ADD DUP1 DUP4 GT PUSH2 0x29F9 JUMPI DUP3 SWAP1 SUB PUSH1 0x1F AND DUP3 ADD SWAP2 JUMPDEST POP POP POP POP POP DUP2 MSTORE PUSH1 0x20 ADD PUSH1 0x4 DUP3 ADD SLOAD DUP2 MSTORE POP POP SWAP1 POP SWAP3 SWAP2 POP POP JUMP JUMPDEST PUSH1 0x40 MLOAD DUP1 PUSH1 0x60 ADD PUSH1 0x40 MSTORE DUP1 PUSH1 0x0 DUP2 MSTORE PUSH1 0x20 ADD PUSH1 0x60 DUP2 MSTORE PUSH1 0x20 ADD PUSH1 0x0 PUSH20 0xFFFFFFFFFFFFFFFFFFFFFFFFFFFFFFFFFFFFFFFF AND DUP2 MSTORE POP SWAP1 JUMP JUMPDEST PUSH1 0x40 MLOAD DUP1 PUSH1 0x80 ADD PUSH1 0x40 MSTORE DUP1 PUSH1 0x0 DUP2 MSTORE PUSH1 0x20 ADD PUSH1 0x0 PUSH20 0xFFFFFFFFFFFFFFFFFFFFFFFFFFFFFFFFFFFFFFFF AND DUP2 MSTORE PUSH1 0x20 ADD PUSH1 0x60 DUP2 MSTORE PUSH1 0x20 ADD PUSH1 0x60 DUP2 MSTORE POP SWAP1 JUMP JUMPDEST PUSH1 0x40 MLOAD DUP1 PUSH1 0x80 ADD PUSH1 0x40 MSTORE DUP1 PUSH1 0x0 DUP2 MSTORE PUSH1 0x20 ADD PUSH1 0x0 PUSH20 0xFFFFFFFFFFFFFFFFFFFFFFFFFFFFFFFFFFFFFFFF AND DUP2 MSTORE PUSH1 0x20 ADD PUSH1 0x60 DUP2 MSTORE PUSH1 0x20 ADD PUSH1 0x0 PUSH20 0xFFFFFFFFFFFFFFFFFFFFFFFFFFFFFFFFFFFFFFFF AND DUP2 MSTORE POP SWAP1 JUMP JUMPDEST PUSH1 0x40 MLOAD DUP1 PUSH1 0xA0 ADD PUSH1 0x40 MSTORE DUP1 PUSH1 0x0 DUP2 MSTORE PUSH1 0x20 ADD PUSH1 0x0 PUSH20 0xFFFFFFFFFFFFFFFFFFFFFFFFFFFFFFFFFFFFFFFF AND DUP2 MSTORE PUSH1 0x20 ADD PUSH1 0x60 DUP2 MSTORE PUSH1 0x20 ADD PUSH1 0x60 DUP2 MSTORE PUSH1 0x20 ADD PUSH1 0x0 DUP2 MSTORE POP SWAP1 JUMP JUMPDEST PUSH1 0x0 PUSH1 0x40 MLOAD SWAP1 POP SWAP1 JUMP JUMPDEST PUSH1 0x0 DUP1 REVERT JUMPDEST PUSH1 0x0 DUP1 REVERT JUMPDEST PUSH1 0x0 PUSH20 0xFFFFFFFFFFFFFFFFFFFFFFFFFFFFFFFFFFFFFFFF DUP3 AND SWAP1 POP SWAP2 SWAP1 POP JUMP JUMPDEST PUSH1 0x0 PUSH2 0x2B7E DUP3 PUSH2 0x2B53 JUMP JUMPDEST SWAP1 POP SWAP2 SWAP1 POP JUMP JUMPDEST PUSH2 0x2B8E DUP2 PUSH2 0x2B73 JUMP JUMPDEST DUP2 EQ PUSH2 0x2B99 JUMPI PUSH1 0x0 DUP1 REVERT JUMPDEST POP JUMP JUMPDEST PUSH1 0x0 DUP2 CALLDATALOAD SWAP1 POP PUSH2 0x2BAB DUP2 PUSH2 0x2B85 JUMP JUMPDEST SWAP3 SWAP2 POP POP JUMP JUMPDEST PUSH1 0x0 DUP2 SWAP1 POP SWAP2 SWAP1 POP JUMP JUMPDEST PUSH2 0x2BC4 DUP2 PUSH2 0x2BB1 JUMP JUMPDEST DUP2 EQ PUSH2 0x2BCF JUMPI PUSH1 0x0 DUP1 REVERT JUMPDEST POP JUMP JUMPDEST PUSH1 0x0 DUP2 CALLDATALOAD SWAP1 POP PUSH2 0x2BE1 DUP2 PUSH2 0x2BBB JUMP JUMPDEST SWAP3 SWAP2 POP POP JUMP JUMPDEST PUSH1 0x0 DUP1 REVERT JUMPDEST PUSH1 0x0 DUP1 REVERT JUMPDEST PUSH1 0x0 PUSH1 0x1F NOT PUSH1 0x1F DUP4 ADD AND SWAP1 POP SWAP2 SWAP1 POP JUMP JUMPDEST PUSH32 0x4E487B7100000000000000000000000000000000000000000000000000000000 PUSH1 0x0 MSTORE PUSH1 0x41 PUSH1 0x4 MSTORE PUSH1 0x24 PUSH1 0x0 REVERT JUMPDEST PUSH2 0x2C3A DUP3 PUSH2 0x2BF1 JUMP JUMPDEST DUP2 ADD DUP2 DUP2 LT PUSH8 0xFFFFFFFFFFFFFFFF DUP3 GT OR ISZERO PUSH2 0x2C59 JUMPI PUSH2 0x2C58 PUSH2 0x2C02 JUMP JUMPDEST JUMPDEST DUP1 PUSH1 0x40 MSTORE POP POP POP JUMP JUMPDEST PUSH1 0x0 PUSH2 0x2C6C PUSH2 0x2B3F JUMP JUMPDEST SWAP1 POP PUSH2 0x2C78 DUP3 DUP3 PUSH2 0x2C31 JUMP JUMPDEST SWAP2 SWAP1 POP JUMP JUMPDEST PUSH1 0x0 PUSH8 0xFFFFFFFFFFFFFFFF DUP3 GT ISZERO PUSH2 0x2C98 JUMPI PUSH2 0x2C97 PUSH2 0x2C02 JUMP JUMPDEST JUMPDEST PUSH2 0x2CA1 DUP3 PUSH2 0x2BF1 JUMP JUMPDEST SWAP1 POP PUSH1 0x20 DUP2 ADD SWAP1 POP SWAP2 SWAP1 POP JUMP JUMPDEST DUP3 DUP2 DUP4 CALLDATACOPY PUSH1 0x0 DUP4 DUP4 ADD MSTORE POP POP POP JUMP JUMPDEST PUSH1 0x0 PUSH2 0x2CD0 PUSH2 0x2CCB DUP5 PUSH2 0x2C7D JUMP JUMPDEST PUSH2 0x2C62 JUMP JUMPDEST SWAP1 POP DUP3 DUP2 MSTORE PUSH1 0x20 DUP2 ADD DUP5 DUP5 DUP5 ADD GT ISZERO PUSH2 0x2CEC JUMPI PUSH2 0x2CEB PUSH2 0x2BEC JUMP JUMPDEST JUMPDEST PUSH2 0x2CF7 DUP5 DUP3 DUP6 PUSH2 0x2CAE JUMP JUMPDEST POP SWAP4 SWAP3 POP POP POP JUMP JUMPDEST PUSH1 0x0 DUP3 PUSH1 0x1F DUP4 ADD SLT PUSH2 0x2D14 JUMPI PUSH2 0x2D13 PUSH2 0x2BE7 JUMP JUMPDEST JUMPDEST DUP2 CALLDATALOAD PUSH2 0x2D24 DUP5 DUP3 PUSH1 0x20 DUP7 ADD PUSH2 0x2CBD JUMP JUMPDEST SWAP2 POP POP SWAP3 SWAP2 POP POP JUMP JUMPDEST PUSH1 0x0 DUP1 PUSH1 0x0 DUP1 PUSH1 0x0 PUSH1 0xA0 DUP7 DUP9 SUB SLT ISZERO PUSH2 0x2D49 JUMPI PUSH2 0x2D48 PUSH2 0x2B49 JUMP JUMPDEST JUMPDEST PUSH1 0x0 PUSH2 0x2D57 DUP9 DUP3 DUP10 ADD PUSH2 0x2B9C JUMP JUMPDEST SWAP6 POP POP PUSH1 0x20 PUSH2 0x2D68 DUP9 DUP3 DUP10 ADD PUSH2 0x2BD2 JUMP JUMPDEST SWAP5 POP POP PUSH1 0x40 DUP7 ADD CALLDATALOAD PUSH8 0xFFFFFFFFFFFFFFFF DUP2 GT ISZERO PUSH2 0x2D89 JUMPI PUSH2 0x2D88 PUSH2 0x2B4E JUMP JUMPDEST JUMPDEST PUSH2 0x2D95 DUP9 DUP3 DUP10 ADD PUSH2 0x2CFF JUMP JUMPDEST SWAP4 POP POP PUSH1 0x60 DUP7 ADD CALLDATALOAD PUSH8 0xFFFFFFFFFFFFFFFF DUP2 GT ISZERO PUSH2 0x2DB6 JUMPI PUSH2 0x2DB5 PUSH2 0x2B4E JUMP JUMPDEST JUMPDEST PUSH2 0x2DC2 DUP9 DUP3 DUP10 ADD PUSH2 0x2CFF JUMP JUMPDEST SWAP3 POP POP PUSH1 0x80 PUSH2 0x2DD3 DUP9 DUP3 DUP10 ADD PUSH2 0x2BD2 JUMP JUMPDEST SWAP2 POP POP SWAP3 SWAP6 POP SWAP3 SWAP6 SWAP1 SWAP4 POP JUMP JUMPDEST PUSH1 0x0 DUP2 MLOAD SWAP1 POP SWAP2 SWAP1 POP JUMP JUMPDEST PUSH1 0x0 DUP3 DUP3 MSTORE PUSH1 0x20 DUP3 ADD SWAP1 POP SWAP3 SWAP2 POP POP JUMP JUMPDEST PUSH1 0x0 DUP2 SWAP1 POP PUSH1 0x20 DUP3 ADD SWAP1 POP SWAP2 SWAP1 POP JUMP JUMPDEST PUSH2 0x2E15 DUP2 PUSH2 0x2BB1 JUMP JUMPDEST DUP3 MSTORE POP POP JUMP JUMPDEST PUSH1 0x0 DUP2 MLOAD SWAP1 POP SWAP2 SWAP1 POP JUMP JUMPDEST PUSH1 0x0 DUP3 DUP3 MSTORE PUSH1 0x20 DUP3 ADD SWAP1 POP SWAP3 SWAP2 POP POP JUMP JUMPDEST PUSH1 0x0 JUMPDEST DUP4 DUP2 LT ISZERO PUSH2 0x2E55 JUMPI DUP1 DUP3 ADD MLOAD DUP2 DUP5 ADD MSTORE PUSH1 0x20 DUP2 ADD SWAP1 POP PUSH2 0x2E3A JUMP JUMPDEST PUSH1 0x0 DUP5 DUP5 ADD MSTORE POP POP POP POP JUMP JUMPDEST PUSH1 0x0 PUSH2 0x2E6C DUP3 PUSH2 0x2E1B JUMP JUMPDEST PUSH2 0x2E76 DUP2 DUP6 PUSH2 0x2E26 JUMP JUMPDEST SWAP4 POP PUSH2 0x2E86 DUP2 DUP6 PUSH1 0x20 DUP7 ADD PUSH2 0x2E37 JUMP JUMPDEST PUSH2 0x2E8F DUP2 PUSH2 0x2BF1 JUMP JUMPDEST DUP5 ADD SWAP2 POP POP SWAP3 SWAP2 POP POP JUMP JUMPDEST PUSH2 0x2EA3 DUP2 PUSH2 0x2B73 JUMP JUMPDEST DUP3 MSTORE POP POP JUMP JUMPDEST PUSH1 0x0 PUSH1 0x60 DUP4 ADD PUSH1 0x0 DUP4 ADD MLOAD PUSH2 0x2EC1 PUSH1 0x0 DUP7 ADD DUP3 PUSH2 0x2E0C JUMP JUMPDEST POP PUSH1 0x20 DUP4 ADD MLOAD DUP5 DUP3 SUB PUSH1 0x20 DUP7 ADD MSTORE PUSH2 0x2ED9 DUP3 DUP3 PUSH2 0x2E61 JUMP JUMPDEST SWAP2 POP POP PUSH1 0x40 DUP4 ADD MLOAD PUSH2 0x2EEE PUSH1 0x40 DUP7 ADD DUP3 PUSH2 0x2E9A JUMP JUMPDEST POP DUP1 SWAP2 POP POP SWAP3 SWAP2 POP POP JUMP JUMPDEST PUSH1 0x0 PUSH2 0x2F05 DUP4 DUP4 PUSH2 0x2EA9 JUMP JUMPDEST SWAP1 POP SWAP3 SWAP2 POP POP JUMP JUMPDEST PUSH1 0x0 PUSH1 0x20 DUP3 ADD SWAP1 POP SWAP2 SWAP1 POP JUMP JUMPDEST PUSH1 0x0 PUSH2 0x2F25 DUP3 PUSH2 0x2DE0 JUMP JUMPDEST PUSH2 0x2F2F DUP2 DUP6 PUSH2 0x2DEB JUMP JUMPDEST SWAP4 POP DUP4 PUSH1 0x20 DUP3 MUL DUP6 ADD PUSH2 0x2F41 DUP6 PUSH2 0x2DFC JUMP JUMPDEST DUP1 PUSH1 0x0 JUMPDEST DUP6 DUP2 LT ISZERO PUSH2 0x2F7D JUMPI DUP5 DUP5 SUB DUP10 MSTORE DUP2 MLOAD PUSH2 0x2F5E DUP6 DUP3 PUSH2 0x2EF9 JUMP JUMPDEST SWAP5 POP PUSH2 0x2F69 DUP4 PUSH2 0x2F0D JUMP JUMPDEST SWAP3 POP PUSH1 0x20 DUP11 ADD SWAP10 POP POP PUSH1 0x1 DUP2 ADD SWAP1 POP PUSH2 0x2F45 JUMP JUMPDEST POP DUP3 SWAP8 POP DUP8 SWAP6 POP POP POP POP POP POP SWAP3 SWAP2 POP POP JUMP JUMPDEST PUSH1 0x0 PUSH1 0x20 DUP3 ADD SWAP1 POP DUP2 DUP2 SUB PUSH1 0x0 DUP4 ADD MSTORE PUSH2 0x2FA9 DUP2 DUP5 PUSH2 0x2F1A JUMP JUMPDEST SWAP1 POP SWAP3 SWAP2 POP POP JUMP JUMPDEST PUSH1 0x0 PUSH1 0x20 DUP3 DUP5 SUB SLT ISZERO PUSH2 0x2FC7 JUMPI PUSH2 0x2FC6 PUSH2 0x2B49 JUMP JUMPDEST JUMPDEST PUSH1 0x0 PUSH2 0x2FD5 DUP5 DUP3 DUP6 ADD PUSH2 0x2B9C JUMP JUMPDEST SWAP2 POP POP SWAP3 SWAP2 POP POP JUMP JUMPDEST PUSH2 0x2FE7 DUP2 PUSH2 0x2B73 JUMP JUMPDEST DUP3 MSTORE POP POP JUMP JUMPDEST PUSH1 0x0 PUSH1 0x20 DUP3 ADD SWAP1 POP PUSH2 0x3002 PUSH1 0x0 DUP4 ADD DUP5 PUSH2 0x2FDE JUMP JUMPDEST SWAP3 SWAP2 POP POP JUMP JUMPDEST PUSH1 0x0 DUP1 PUSH1 0x40 DUP4 DUP6 SUB SLT ISZERO PUSH2 0x301F JUMPI PUSH2 0x301E PUSH2 0x2B49 JUMP JUMPDEST JUMPDEST PUSH1 0x0 PUSH2 0x302D DUP6 DUP3 DUP7 ADD PUSH2 0x2BD2 JUMP JUMPDEST SWAP3 POP POP PUSH1 0x20 PUSH2 0x303E DUP6 DUP3 DUP7 ADD PUSH2 0x2BD2 JUMP JUMPDEST SWAP2 POP POP SWAP3 POP SWAP3 SWAP1 POP JUMP JUMPDEST PUSH2 0x3051 DUP2 PUSH2 0x2BB1 JUMP JUMPDEST DUP3 MSTORE POP POP JUMP JUMPDEST PUSH1 0x0 DUP3 DUP3 MSTORE PUSH1 0x20 DUP3 ADD SWAP1 POP SWAP3 SWAP2 POP POP JUMP JUMPDEST PUSH1 0x0 PUSH2 0x3073 DUP3 PUSH2 0x2E1B JUMP JUMPDEST PUSH2 0x307D DUP2 DUP6 PUSH2 0x3057 JUMP JUMPDEST SWAP4 POP PUSH2 0x308D DUP2 DUP6 PUSH1 0x20 DUP7 ADD PUSH2 0x2E37 JUMP JUMPDEST PUSH2 0x3096 DUP2 PUSH2 0x2BF1 JUMP JUMPDEST DUP5 ADD SWAP2 POP POP SWAP3 SWAP2 POP POP JUMP JUMPDEST PUSH1 0x0 PUSH1 0xA0 DUP3 ADD SWAP1 POP PUSH2 0x30B6 PUSH1 0x0 DUP4 ADD DUP9 PUSH2 0x3048 JUMP JUMPDEST PUSH2 0x30C3 PUSH1 0x20 DUP4 ADD DUP8 PUSH2 0x2FDE JUMP JUMPDEST DUP2 DUP2 SUB PUSH1 0x40 DUP4 ADD MSTORE PUSH2 0x30D5 DUP2 DUP7 PUSH2 0x3068 JUMP JUMPDEST SWAP1 POP DUP2 DUP2 SUB PUSH1 0x60 DUP4 ADD MSTORE PUSH2 0x30E9 DUP2 DUP6 PUSH2 0x3068 JUMP JUMPDEST SWAP1 POP PUSH2 0x30F8 PUSH1 0x80 DUP4 ADD DUP5 PUSH2 0x3048 JUMP JUMPDEST SWAP7 SWAP6 POP POP POP POP POP POP JUMP JUMPDEST PUSH1 0x0 PUSH1 0x20 DUP3 DUP5 SUB SLT ISZERO PUSH2 0x3118 JUMPI PUSH2 0x3117 PUSH2 0x2B49 JUMP JUMPDEST JUMPDEST PUSH1 0x0 PUSH2 0x3126 DUP5 DUP3 DUP6 ADD PUSH2 0x2BD2 JUMP JUMPDEST SWAP2 POP POP SWAP3 SWAP2 POP POP JUMP JUMPDEST PUSH1 0x0 DUP2 MLOAD SWAP1 POP SWAP2 SWAP1 POP JUMP JUMPDEST PUSH1 0x0 DUP3 DUP3 MSTORE PUSH1 0x20 DUP3 ADD SWAP1 POP SWAP3 SWAP2 POP POP JUMP JUMPDEST PUSH1 0x0 DUP2 SWAP1 POP PUSH1 0x20 DUP3 ADD SWAP1 POP SWAP2 SWAP1 POP JUMP JUMPDEST PUSH1 0x0 PUSH1 0xA0 DUP4 ADD PUSH1 0x0 DUP4 ADD MLOAD PUSH2 0x3173 PUSH1 0x0 DUP7 ADD DUP3 PUSH2 0x2E0C JUMP JUMPDEST POP PUSH1 0x20 DUP4 ADD MLOAD PUSH2 0x3186 PUSH1 0x20 DUP7 ADD DUP3 PUSH2 0x2E9A JUMP JUMPDEST POP PUSH1 0x40 DUP4 ADD MLOAD DUP5 DUP3 SUB PUSH1 0x40 DUP7 ADD MSTORE PUSH2 0x319E DUP3 DUP3 PUSH2 0x2E61 JUMP JUMPDEST SWAP2 POP POP PUSH1 0x60 DUP4 ADD MLOAD DUP5 DUP3 SUB PUSH1 0x60 DUP7 ADD MSTORE PUSH2 0x31B8 DUP3 DUP3 PUSH2 0x2E61 JUMP JUMPDEST SWAP2 POP POP PUSH1 0x80 DUP4 ADD MLOAD PUSH2 0x31CD PUSH1 0x80 DUP7 ADD DUP3 PUSH2 0x2E0C JUMP JUMPDEST POP DUP1 SWAP2 POP POP SWAP3 SWAP2 POP POP JUMP JUMPDEST PUSH1 0x0 PUSH2 0x31E4 DUP4 DUP4 PUSH2 0x315B JUMP JUMPDEST SWAP1 POP SWAP3 SWAP2 POP POP JUMP JUMPDEST PUSH1 0x0 PUSH1 0x20 DUP3 ADD SWAP1 POP SWAP2 SWAP1 POP JUMP JUMPDEST PUSH1 0x0 PUSH2 0x3204 DUP3 PUSH2 0x312F JUMP JUMPDEST PUSH2 0x320E DUP2 DUP6 PUSH2 0x313A JUMP JUMPDEST SWAP4 POP DUP4 PUSH1 0x20 DUP3 MUL DUP6 ADD PUSH2 0x3220 DUP6 PUSH2 0x314B JUMP JUMPDEST DUP1 PUSH1 0x0 JUMPDEST DUP6 DUP2 LT ISZERO PUSH2 0x325C JUMPI DUP5 DUP5 SUB DUP10 MSTORE DUP2 MLOAD PUSH2 0x323D DUP6 DUP3 PUSH2 0x31D8 JUMP JUMPDEST SWAP5 POP PUSH2 0x3248 DUP4 PUSH2 0x31EC JUMP JUMPDEST SWAP3 POP PUSH1 0x20 DUP11 ADD SWAP10 POP POP PUSH1 0x1 DUP2 ADD SWAP1 POP PUSH2 0x3224 JUMP JUMPDEST POP DUP3 SWAP8 POP DUP8 SWAP6 POP POP POP POP POP POP SWAP3 SWAP2 POP POP JUMP JUMPDEST PUSH1 0x0 PUSH1 0x20 DUP3 ADD SWAP1 POP DUP2 DUP2 SUB PUSH1 0x0 DUP4 ADD MSTORE PUSH2 0x3288 DUP2 DUP5 PUSH2 0x31F9 JUMP JUMPDEST SWAP1 POP SWAP3 SWAP2 POP POP JUMP JUMPDEST PUSH1 0x0 PUSH1 0x20 DUP3 ADD SWAP1 POP PUSH2 0x32A5 PUSH1 0x0 DUP4 ADD DUP5 PUSH2 0x3048 JUMP JUMPDEST SWAP3 SWAP2 POP POP JUMP JUMPDEST PUSH1 0x0 PUSH1 0x80 DUP3 ADD SWAP1 POP PUSH2 0x32C0 PUSH1 0x0 DUP4 ADD DUP8 PUSH2 0x3048 JUMP JUMPDEST PUSH2 0x32CD PUSH1 0x20 DUP4 ADD DUP7 PUSH2 0x2FDE JUMP JUMPDEST DUP2 DUP2 SUB PUSH1 0x40 DUP4 ADD MSTORE PUSH2 0x32DF DUP2 DUP6 PUSH2 0x3068 JUMP JUMPDEST SWAP1 POP DUP2 DUP2 SUB PUSH1 0x60 DUP4 ADD MSTORE PUSH2 0x32F3 DUP2 DUP5 PUSH2 0x3068 JUMP JUMPDEST SWAP1 POP SWAP6 SWAP5 POP POP POP POP POP JUMP JUMPDEST PUSH1 0x0 DUP1 PUSH1 0x0 PUSH1 0x60 DUP5 DUP7 SUB SLT ISZERO PUSH2 0x3317 JUMPI PUSH2 0x3316 PUSH2 0x2B49 JUMP JUMPDEST JUMPDEST PUSH1 0x0 DUP5 ADD CALLDATALOAD PUSH8 0xFFFFFFFFFFFFFFFF DUP2 GT ISZERO PUSH2 0x3335 JUMPI PUSH2 0x3334 PUSH2 0x2B4E JUMP JUMPDEST JUMPDEST PUSH2 0x3341 DUP7 DUP3 DUP8 ADD PUSH2 0x2CFF JUMP JUMPDEST SWAP4 POP POP PUSH1 0x20 DUP5 ADD CALLDATALOAD PUSH8 0xFFFFFFFFFFFFFFFF DUP2 GT ISZERO PUSH2 0x3362 JUMPI PUSH2 0x3361 PUSH2 0x2B4E JUMP JUMPDEST JUMPDEST PUSH2 0x336E DUP7 DUP3 DUP8 ADD PUSH2 0x2CFF JUMP JUMPDEST SWAP3 POP POP PUSH1 0x40 PUSH2 0x337F DUP7 DUP3 DUP8 ADD PUSH2 0x2B9C JUMP JUMPDEST SWAP2 POP POP SWAP3 POP SWAP3 POP SWAP3 JUMP JUMPDEST PUSH1 0x0 DUP2 MLOAD SWAP1 POP SWAP2 SWAP1 POP JUMP JUMPDEST PUSH1 0x0 DUP3 DUP3 MSTORE PUSH1 0x20 DUP3 ADD SWAP1 POP SWAP3 SWAP2 POP POP JUMP JUMPDEST PUSH1 0x0 DUP2 SWAP1 POP PUSH1 0x20 DUP3 ADD SWAP1 POP SWAP2 SWAP1 POP JUMP JUMPDEST PUSH1 0x0 PUSH1 0x80 DUP4 ADD PUSH1 0x0 DUP4 ADD MLOAD PUSH2 0x33CD PUSH1 0x0 DUP7 ADD DUP3 PUSH2 0x2E0C JUMP JUMPDEST POP PUSH1 0x20 DUP4 ADD MLOAD PUSH2 0x33E0 PUSH1 0x20 DUP7 ADD DUP3 PUSH2 0x2E9A JUMP JUMPDEST POP PUSH1 0x40 DUP4 ADD MLOAD DUP5 DUP3 SUB PUSH1 0x40 DUP7 ADD MSTORE PUSH2 0x33F8 DUP3 DUP3 PUSH2 0x2E61 JUMP JUMPDEST SWAP2 POP POP PUSH1 0x60 DUP4 ADD MLOAD DUP5 DUP3 SUB PUSH1 0x60 DUP7 ADD MSTORE PUSH2 0x3412 DUP3 DUP3 PUSH2 0x2E61 JUMP JUMPDEST SWAP2 POP POP DUP1 SWAP2 POP POP SWAP3 SWAP2 POP POP JUMP JUMPDEST PUSH1 0x0 PUSH2 0x342B DUP4 DUP4 PUSH2 0x33B5 JUMP JUMPDEST SWAP1 POP SWAP3 SWAP2 POP POP JUMP JUMPDEST PUSH1 0x0 PUSH1 0x20 DUP3 ADD SWAP1 POP SWAP2 SWAP1 POP JUMP JUMPDEST PUSH1 0x0 PUSH2 0x344B DUP3 PUSH2 0x3389 JUMP JUMPDEST PUSH2 0x3455 DUP2 DUP6 PUSH2 0x3394 JUMP JUMPDEST SWAP4 POP DUP4 PUSH1 0x20 DUP3 MUL DUP6 ADD PUSH2 0x3467 DUP6 PUSH2 0x33A5 JUMP JUMPDEST DUP1 PUSH1 0x0 JUMPDEST DUP6 DUP2 LT ISZERO PUSH2 0x34A3 JUMPI DUP5 DUP5 SUB DUP10 MSTORE DUP2 MLOAD PUSH2 0x3484 DUP6 DUP3 PUSH2 0x341F JUMP JUMPDEST SWAP5 POP PUSH2 0x348F DUP4 PUSH2 0x3433 JUMP JUMPDEST SWAP3 POP PUSH1 0x20 DUP11 ADD SWAP10 POP POP PUSH1 0x1 DUP2 ADD SWAP1 POP PUSH2 0x346B JUMP JUMPDEST POP DUP3 SWAP8 POP DUP8 SWAP6 POP POP POP POP POP POP SWAP3 SWAP2 POP POP JUMP JUMPDEST PUSH1 0x0 PUSH1 0x20 DUP3 ADD SWAP1 POP DUP2 DUP2 SUB PUSH1 0x0 DUP4 ADD MSTORE PUSH2 0x34CF DUP2 DUP5 PUSH2 0x3440 JUMP JUMPDEST SWAP1 POP SWAP3 SWAP2 POP POP JUMP JUMPDEST PUSH1 0x0 DUP1 PUSH1 0x40 DUP4 DUP6 SUB SLT ISZERO PUSH2 0x34EE JUMPI PUSH2 0x34ED PUSH2 0x2B49 JUMP JUMPDEST JUMPDEST PUSH1 0x0 DUP4 ADD CALLDATALOAD PUSH8 0xFFFFFFFFFFFFFFFF DUP2 GT ISZERO PUSH2 0x350C JUMPI PUSH2 0x350B PUSH2 0x2B4E JUMP JUMPDEST JUMPDEST PUSH2 0x3518 DUP6 DUP3 DUP7 ADD PUSH2 0x2CFF JUMP JUMPDEST SWAP3 POP POP PUSH1 0x20 PUSH2 0x3529 DUP6 DUP3 DUP7 ADD PUSH2 0x2B9C JUMP JUMPDEST SWAP2 POP POP SWAP3 POP SWAP3 SWAP1 POP JUMP JUMPDEST PUSH1 0x0 PUSH1 0x60 DUP4 ADD PUSH1 0x0 DUP4 ADD MLOAD PUSH2 0x354B PUSH1 0x0 DUP7 ADD DUP3 PUSH2 0x2E0C JUMP JUMPDEST POP PUSH1 0x20 DUP4 ADD MLOAD DUP5 DUP3 SUB PUSH1 0x20 DUP7 ADD MSTORE PUSH2 0x3563 DUP3 DUP3 PUSH2 0x2E61 JUMP JUMPDEST SWAP2 POP POP PUSH1 0x40 DUP4 ADD MLOAD PUSH2 0x3578 PUSH1 0x40 DUP7 ADD DUP3 PUSH2 0x2E9A JUMP JUMPDEST POP DUP1 SWAP2 POP POP SWAP3 SWAP2 POP POP JUMP JUMPDEST PUSH1 0x0 PUSH1 0x20 DUP3 ADD SWAP1 POP DUP2 DUP2 SUB PUSH1 0x0 DUP4 ADD MSTORE PUSH2 0x359D DUP2 DUP5 PUSH2 0x3533 JUMP JUMPDEST SWAP1 POP SWAP3 SWAP2 POP POP JUMP JUMPDEST PUSH1 0x0 DUP1 PUSH1 0x40 DUP4 DUP6 SUB SLT ISZERO PUSH2 0x35BC JUMPI PUSH2 0x35BB PUSH2 0x2B49 JUMP JUMPDEST JUMPDEST PUSH1 0x0 PUSH2 0x35CA DUP6 DUP3 DUP7 ADD PUSH2 0x2B9C JUMP JUMPDEST SWAP3 POP POP PUSH1 0x20 PUSH2 0x35DB DUP6 DUP3 DUP7 ADD PUSH2 0x2B9C JUMP JUMPDEST SWAP2 POP POP SWAP3 POP SWAP3 SWAP1 POP JUMP JUMPDEST PUSH1 0x0 PUSH1 0x80 DUP3 ADD SWAP1 POP PUSH2 0x35FA PUSH1 0x0 DUP4 ADD DUP8 PUSH2 0x3048 JUMP JUMPDEST PUSH2 0x3607 PUSH1 0x20 DUP4 ADD DUP7 PUSH2 0x2FDE JUMP JUMPDEST DUP2 DUP2 SUB PUSH1 0x40 DUP4 ADD MSTORE PUSH2 0x3619 DUP2 DUP6 PUSH2 0x3068 JUMP JUMPDEST SWAP1 POP PUSH2 0x3628 PUSH1 0x60 DUP4 ADD DUP5 PUSH2 0x2FDE JUMP JUMPDEST SWAP6 SWAP5 POP POP POP POP POP JUMP JUMPDEST PUSH1 0x0 PUSH1 0x20 DUP3 ADD SWAP1 POP DUP2 DUP2 SUB PUSH1 0x0 DUP4 ADD MSTORE PUSH2 0x364B DUP2 DUP5 PUSH2 0x3068 JUMP JUMPDEST SWAP1 POP SWAP3 SWAP2 POP POP JUMP JUMPDEST PUSH1 0x0 DUP1 PUSH1 0x40 DUP4 DUP6 SUB SLT ISZERO PUSH2 0x366A JUMPI PUSH2 0x3669 PUSH2 0x2B49 JUMP JUMPDEST JUMPDEST PUSH1 0x0 PUSH2 0x3678 DUP6 DUP3 DUP7 ADD PUSH2 0x2B9C JUMP JUMPDEST SWAP3 POP POP PUSH1 0x20 PUSH2 0x3689 DUP6 DUP3 DUP7 ADD PUSH2 0x2BD2 JUMP JUMPDEST SWAP2 POP POP SWAP3 POP SWAP3 SWAP1 POP JUMP JUMPDEST PUSH1 0x0 PUSH1 0x80 DUP4 ADD PUSH1 0x0 DUP4 ADD MLOAD PUSH2 0x36AB PUSH1 0x0 DUP7 ADD DUP3 PUSH2 0x2E0C JUMP JUMPDEST POP PUSH1 0x20 DUP4 ADD MLOAD PUSH2 0x36BE PUSH1 0x20 DUP7 ADD DUP3 PUSH2 0x2E9A JUMP JUMPDEST POP PUSH1 0x40 DUP4 ADD MLOAD DUP5 DUP3 SUB PUSH1 0x40 DUP7 ADD MSTORE PUSH2 0x36D6 DUP3 DUP3 PUSH2 0x2E61 JUMP JUMPDEST SWAP2 POP POP PUSH1 0x60 DUP4 ADD MLOAD DUP5 DUP3 SUB PUSH1 0x60 DUP7 ADD MSTORE PUSH2 0x36F0 DUP3 DUP3 PUSH2 0x2E61 JUMP JUMPDEST SWAP2 POP POP DUP1 SWAP2 POP POP SWAP3 SWAP2 POP POP JUMP JUMPDEST PUSH1 0x0 PUSH1 0x20 DUP3 ADD SWAP1 POP DUP2 DUP2 SUB PUSH1 0x0 DUP4 ADD MSTORE PUSH2 0x3717 DUP2 DUP5 PUSH2 0x3693 JUMP JUMPDEST SWAP1 POP SWAP3 SWAP2 POP POP JUMP JUMPDEST PUSH1 0x0 PUSH1 0x60 DUP3 ADD SWAP1 POP PUSH2 0x3734 PUSH1 0x0 DUP4 ADD DUP7 PUSH2 0x3048 JUMP JUMPDEST DUP2 DUP2 SUB PUSH1 0x20 DUP4 ADD MSTORE PUSH2 0x3746 DUP2 DUP6 PUSH2 0x3068 JUMP JUMPDEST SWAP1 POP PUSH2 0x3755 PUSH1 0x40 DUP4 ADD DUP5 PUSH2 0x2FDE JUMP JUMPDEST SWAP5 SWAP4 POP POP POP POP JUMP JUMPDEST PUSH1 0x0 DUP2 MLOAD SWAP1 POP SWAP2 SWAP1 POP JUMP JUMPDEST PUSH1 0x0 DUP3 DUP3 MSTORE PUSH1 0x20 DUP3 ADD SWAP1 POP SWAP3 SWAP2 POP POP JUMP JUMPDEST PUSH1 0x0 DUP2 SWAP1 POP PUSH1 0x20 DUP3 ADD SWAP1 POP SWAP2 SWAP1 POP JUMP JUMPDEST PUSH1 0x0 PUSH1 0x80 DUP4 ADD PUSH1 0x0 DUP4 ADD MLOAD PUSH2 0x37A1 PUSH1 0x0 DUP7 ADD DUP3 PUSH2 0x2E0C JUMP JUMPDEST POP PUSH1 0x20 DUP4 ADD MLOAD PUSH2 0x37B4 PUSH1 0x20 DUP7 ADD DUP3 PUSH2 0x2E9A JUMP JUMPDEST POP PUSH1 0x40 DUP4 ADD MLOAD DUP5 DUP3 SUB PUSH1 0x40 DUP7 ADD MSTORE PUSH2 0x37CC DUP3 DUP3 PUSH2 0x2E61 JUMP JUMPDEST SWAP2 POP POP PUSH1 0x60 DUP4 ADD MLOAD PUSH2 0x37E1 PUSH1 0x60 DUP7 ADD DUP3 PUSH2 0x2E9A JUMP JUMPDEST POP DUP1 SWAP2 POP POP SWAP3 SWAP2 POP POP JUMP JUMPDEST PUSH1 0x0 PUSH2 0x37F8 DUP4 DUP4 PUSH2 0x3789 JUMP JUMPDEST SWAP1 POP SWAP3 SWAP2 POP POP JUMP JUMPDEST PUSH1 0x0 PUSH1 0x20 DUP3 ADD SWAP1 POP SWAP2 SWAP1 POP JUMP JUMPDEST PUSH1 0x0 PUSH2 0x3818 DUP3 PUSH2 0x375D JUMP JUMPDEST PUSH2 0x3822 DUP2 DUP6 PUSH2 0x3768 JUMP JUMPDEST SWAP4 POP DUP4 PUSH1 0x20 DUP3 MUL DUP6 ADD PUSH2 0x3834 DUP6 PUSH2 0x3779 JUMP JUMPDEST DUP1 PUSH1 0x0 JUMPDEST DUP6 DUP2 LT ISZERO PUSH2 0x3870 JUMPI DUP5 DUP5 SUB DUP10 MSTORE DUP2 MLOAD PUSH2 0x3851 DUP6 DUP3 PUSH2 0x37EC JUMP JUMPDEST SWAP5 POP PUSH2 0x385C DUP4 PUSH2 0x3800 JUMP JUMPDEST SWAP3 POP PUSH1 0x20 DUP11 ADD SWAP10 POP POP PUSH1 0x1 DUP2 ADD SWAP1 POP PUSH2 0x3838 JUMP JUMPDEST POP DUP3 SWAP8 POP DUP8 SWAP6 POP POP POP POP POP POP SWAP3 SWAP2 POP POP JUMP JUMPDEST PUSH1 0x0 PUSH1 0x20 DUP3 ADD SWAP1 POP DUP2 DUP2 SUB PUSH1 0x0 DUP4 ADD MSTORE PUSH2 0x389C DUP2 DUP5 PUSH2 0x380D JUMP JUMPDEST SWAP1 POP SWAP3 SWAP2 POP POP JUMP JUMPDEST PUSH1 0x0 DUP1 PUSH1 0x0 PUSH1 0x60 DUP5 DUP7 SUB SLT ISZERO PUSH2 0x38BD JUMPI PUSH2 0x38BC PUSH2 0x2B49 JUMP JUMPDEST JUMPDEST PUSH1 0x0 PUSH2 0x38CB DUP7 DUP3 DUP8 ADD PUSH2 0x2B9C JUMP JUMPDEST SWAP4 POP POP PUSH1 0x20 PUSH2 0x38DC DUP7 DUP3 DUP8 ADD PUSH2 0x2B9C JUMP JUMPDEST SWAP3 POP POP PUSH1 0x40 DUP5 ADD CALLDATALOAD PUSH8 0xFFFFFFFFFFFFFFFF DUP2 GT ISZERO PUSH2 0x38FD JUMPI PUSH2 0x38FC PUSH2 0x2B4E JUMP JUMPDEST JUMPDEST PUSH2 0x3909 DUP7 DUP3 DUP8 ADD PUSH2 0x2CFF JUMP JUMPDEST SWAP2 POP POP SWAP3 POP SWAP3 POP SWAP3 JUMP JUMPDEST PUSH1 0x0 PUSH1 0x80 DUP4 ADD PUSH1 0x0 DUP4 ADD MLOAD PUSH2 0x392B PUSH1 0x0 DUP7 ADD DUP3 PUSH2 0x2E0C JUMP JUMPDEST POP PUSH1 0x20 DUP4 ADD MLOAD PUSH2 0x393E PUSH1 0x20 DUP7 ADD DUP3 PUSH2 0x2E9A JUMP JUMPDEST POP PUSH1 0x40 DUP4 ADD MLOAD DUP5 DUP3 SUB PUSH1 0x40 DUP7 ADD MSTORE PUSH2 0x3956 DUP3 DUP3 PUSH2 0x2E61 JUMP JUMPDEST SWAP2 POP POP PUSH1 0x60 DUP4 ADD MLOAD PUSH2 0x396B PUSH1 0x60 DUP7 ADD DUP3 PUSH2 0x2E9A JUMP JUMPDEST POP DUP1 SWAP2 POP POP SWAP3 SWAP2 POP POP JUMP JUMPDEST PUSH1 0x0 PUSH1 0x20 DUP3 ADD SWAP1 POP DUP2 DUP2 SUB PUSH1 0x0 DUP4 ADD MSTORE PUSH2 0x3990 DUP2 DUP5 PUSH2 0x3913 JUMP JUMPDEST SWAP1 POP SWAP3 SWAP2 POP POP JUMP JUMPDEST PUSH1 0x0 PUSH1 0xA0 DUP4 ADD PUSH1 0x0 DUP4 ADD MLOAD PUSH2 0x39B0 PUSH1 0x0 DUP7 ADD DUP3 PUSH2 0x2E0C JUMP JUMPDEST POP PUSH1 0x20 DUP4 ADD MLOAD PUSH2 0x39C3 PUSH1 0x20 DUP7 ADD DUP3 PUSH2 0x2E9A JUMP JUMPDEST POP PUSH1 0x40 DUP4 ADD MLOAD DUP5 DUP3 SUB PUSH1 0x40 DUP7 ADD MSTORE PUSH2 0x39DB DUP3 DUP3 PUSH2 0x2E61 JUMP JUMPDEST SWAP2 POP POP PUSH1 0x60 DUP4 ADD MLOAD DUP5 DUP3 SUB PUSH1 0x60 DUP7 ADD MSTORE PUSH2 0x39F5 DUP3 DUP3 PUSH2 0x2E61 JUMP JUMPDEST SWAP2 POP POP PUSH1 0x80 DUP4 ADD MLOAD PUSH2 0x3A0A PUSH1 0x80 DUP7 ADD DUP3 PUSH2 0x2E0C JUMP JUMPDEST POP DUP1 SWAP2 POP POP SWAP3 SWAP2 POP POP JUMP JUMPDEST PUSH1 0x0 PUSH1 0x20 DUP3 ADD SWAP1 POP DUP2 DUP2 SUB PUSH1 0x0 DUP4 ADD MSTORE PUSH2 0x3A2F DUP2 DUP5 PUSH2 0x3998 JUMP JUMPDEST SWAP1 POP SWAP3 SWAP2 POP POP JUMP JUMPDEST PUSH32 0x4E487B7100000000000000000000000000000000000000000000000000000000 PUSH1 0x0 MSTORE PUSH1 0x22 PUSH1 0x4 MSTORE PUSH1 0x24 PUSH1 0x0 REVERT JUMPDEST PUSH1 0x0 PUSH1 0x2 DUP3 DIV SWAP1 POP PUSH1 0x1 DUP3 AND DUP1 PUSH2 0x3A7E JUMPI PUSH1 0x7F DUP3 AND SWAP2 POP JUMPDEST PUSH1 0x20 DUP3 LT DUP2 SUB PUSH2 0x3A91 JUMPI PUSH2 0x3A90 PUSH2 0x3A37 JUMP JUMPDEST JUMPDEST POP SWAP2 SWAP1 POP JUMP JUMPDEST PUSH1 0x0 DUP2 SWAP1 POP DUP2 PUSH1 0x0 MSTORE PUSH1 0x20 PUSH1 0x0 KECCAK256 SWAP1 POP SWAP2 SWAP1 POP JUMP JUMPDEST PUSH1 0x0 PUSH1 0x20 PUSH1 0x1F DUP4 ADD DIV SWAP1 POP SWAP2 SWAP1 POP JUMP JUMPDEST PUSH1 0x0 DUP3 DUP3 SHL SWAP1 POP SWAP3 SWAP2 POP POP JUMP JUMPDEST PUSH1 0x0 PUSH1 0x8 DUP4 MUL PUSH2 0x3AF9 PUSH32 0xFFFFFFFFFFFFFFFFFFFFFFFFFFFFFFFFFFFFFFFFFFFFFFFFFFFFFFFFFFFFFFFF DUP3 PUSH2 0x3ABC JUMP JUMPDEST PUSH2 0x3B03 DUP7 DUP4 PUSH2 0x3ABC JUMP JUMPDEST SWAP6 POP DUP1 NOT DUP5 AND SWAP4 POP DUP1 DUP7 AND DUP5 OR SWAP3 POP POP POP SWAP4 SWAP3 POP POP POP JUMP JUMPDEST PUSH1 0x0 DUP2 SWAP1 POP SWAP2 SWAP1 POP JUMP JUMPDEST PUSH1 0x0 PUSH2 0x3B40 PUSH2 0x3B3B PUSH2 0x3B36 DUP5 PUSH2 0x2BB1 JUMP JUMPDEST PUSH2 0x3B1B JUMP JUMPDEST PUSH2 0x2BB1 JUMP JUMPDEST SWAP1 POP SWAP2 SWAP1 POP JUMP JUMPDEST PUSH1 0x0 DUP2 SWAP1 POP SWAP2 SWAP1 POP JUMP JUMPDEST PUSH2 0x3B5A DUP4 PUSH2 0x3B25 JUMP JUMPDEST PUSH2 0x3B6E PUSH2 0x3B66 DUP3 PUSH2 0x3B47 JUMP JUMPDEST DUP5 DUP5 SLOAD PUSH2 0x3AC9 JUMP JUMPDEST DUP3 SSTORE POP POP POP POP JUMP JUMPDEST PUSH1 0x0 SWAP1 JUMP JUMPDEST PUSH2 0x3B83 PUSH2 0x3B76 JUMP JUMPDEST PUSH2 0x3B8E DUP2 DUP5 DUP5 PUSH2 0x3B51 JUMP JUMPDEST POP POP POP JUMP JUMPDEST JUMPDEST DUP2 DUP2 LT ISZERO PUSH2 0x3BB2 JUMPI PUSH2 0x3BA7 PUSH1 0x0 DUP3 PUSH2 0x3B7B JUMP JUMPDEST PUSH1 0x1 DUP2 ADD SWAP1 POP PUSH2 0x3B94 JUMP JUMPDEST POP POP JUMP JUMPDEST PUSH1 0x1F DUP3 GT ISZERO PUSH2 0x3BF7 JUMPI PUSH2 0x3BC8 DUP2 PUSH2 0x3A97 JUMP JUMPDEST PUSH2 0x3BD1 DUP5 PUSH2 0x3AAC JUMP JUMPDEST DUP2 ADD PUSH1 0x20 DUP6 LT ISZERO PUSH2 0x3BE0 JUMPI DUP2 SWAP1 POP JUMPDEST PUSH2 0x3BF4 PUSH2 0x3BEC DUP6 PUSH2 0x3AAC JUMP JUMPDEST DUP4 ADD DUP3 PUSH2 0x3B93 JUMP JUMPDEST POP POP JUMPDEST POP POP POP JUMP JUMPDEST PUSH1 0x0 DUP3 DUP3 SHR SWAP1 POP SWAP3 SWAP2 POP POP JUMP JUMPDEST PUSH1 0x0 PUSH2 0x3C1A PUSH1 0x0 NOT DUP5 PUSH1 0x8 MUL PUSH2 0x3BFC JUMP JUMPDEST NOT DUP1 DUP4 AND SWAP2 POP POP SWAP3 SWAP2 POP POP JUMP JUMPDEST PUSH1 0x0 PUSH2 0x3C33 DUP4 DUP4 PUSH2 0x3C09 JUMP JUMPDEST SWAP2 POP DUP3 PUSH1 0x2 MUL DUP3 OR SWAP1 POP SWAP3 SWAP2 POP POP JUMP JUMPDEST PUSH2 0x3C4C DUP3 PUSH2 0x2E1B JUMP JUMPDEST PUSH8 0xFFFFFFFFFFFFFFFF DUP2 GT ISZERO PUSH2 0x3C65 JUMPI PUSH2 0x3C64 PUSH2 0x2C02 JUMP JUMPDEST JUMPDEST PUSH2 0x3C6F DUP3 SLOAD PUSH2 0x3A66 JUMP JUMPDEST PUSH2 0x3C7A DUP3 DUP3 DUP6 PUSH2 0x3BB6 JUMP JUMPDEST PUSH1 0x0 PUSH1 0x20 SWAP1 POP PUSH1 0x1F DUP4 GT PUSH1 0x1 DUP2 EQ PUSH2 0x3CAD JUMPI PUSH1 0x0 DUP5 ISZERO PUSH2 0x3C9B JUMPI DUP3 DUP8 ADD MLOAD SWAP1 POP JUMPDEST PUSH2 0x3CA5 DUP6 DUP3 PUSH2 0x3C27 JUMP JUMPDEST DUP7 SSTORE POP PUSH2 0x3D0D JUMP JUMPDEST PUSH1 0x1F NOT DUP5 AND PUSH2 0x3CBB DUP7 PUSH2 0x3A97 JUMP JUMPDEST PUSH1 0x0 JUMPDEST DUP3 DUP2 LT ISZERO PUSH2 0x3CE3 JUMPI DUP5 DUP10 ADD MLOAD DUP3 SSTORE PUSH1 0x1 DUP3 ADD SWAP2 POP PUSH1 0x20 DUP6 ADD SWAP5 POP PUSH1 0x20 DUP2 ADD SWAP1 POP PUSH2 0x3CBE JUMP JUMPDEST DUP7 DUP4 LT ISZERO PUSH2 0x3D00 JUMPI DUP5 DUP10 ADD MLOAD PUSH2 0x3CFC PUSH1 0x1F DUP10 AND DUP3 PUSH2 0x3C09 JUMP JUMPDEST DUP4 SSTORE POP JUMPDEST PUSH1 0x1 PUSH1 0x2 DUP9 MUL ADD DUP9 SSTORE POP POP POP JUMPDEST POP POP POP POP POP POP JUMP JUMPDEST PUSH32 0x537570706C792072656769737465726564212100000000000000000000000000 PUSH1 0x0 DUP3 ADD MSTORE POP JUMP JUMPDEST PUSH1 0x0 PUSH2 0x3D4B PUSH1 0x13 DUP4 PUSH2 0x3057 JUMP JUMPDEST SWAP2 POP PUSH2 0x3D56 DUP3 PUSH2 0x3D15 JUMP JUMPDEST PUSH1 0x20 DUP3 ADD SWAP1 POP SWAP2 SWAP1 POP JUMP JUMPDEST PUSH1 0x0 PUSH1 0x20 DUP3 ADD SWAP1 POP DUP2 DUP2 SUB PUSH1 0x0 DUP4 ADD MSTORE PUSH2 0x3D7A DUP2 PUSH2 0x3D3E JUMP JUMPDEST SWAP1 POP SWAP2 SWAP1 POP JUMP JUMPDEST PUSH32 0x4E487B7100000000000000000000000000000000000000000000000000000000 PUSH1 0x0 MSTORE PUSH1 0x32 PUSH1 0x4 MSTORE PUSH1 0x24 PUSH1 0x0 REVERT JUMPDEST PUSH32 0x4E487B7100000000000000000000000000000000000000000000000000000000 PUSH1 0x0 MSTORE PUSH1 0x11 PUSH1 0x4 MSTORE PUSH1 0x24 PUSH1 0x0 REVERT JUMPDEST PUSH1 0x0 PUSH2 0x3DEA DUP3 PUSH2 0x2BB1 JUMP JUMPDEST SWAP2 POP PUSH2 0x3DF5 DUP4 PUSH2 0x2BB1 JUMP JUMPDEST SWAP3 POP DUP3 DUP3 ADD SWAP1 POP DUP1 DUP3 GT ISZERO PUSH2 0x3E0D JUMPI PUSH2 0x3E0C PUSH2 0x3DB0 JUMP JUMPDEST JUMPDEST SWAP3 SWAP2 POP POP JUMP JUMPDEST PUSH1 0x0 PUSH2 0x3E1E DUP3 PUSH2 0x2BB1 JUMP JUMPDEST SWAP2 POP PUSH32 0xFFFFFFFFFFFFFFFFFFFFFFFFFFFFFFFFFFFFFFFFFFFFFFFFFFFFFFFFFFFFFFFF DUP3 SUB PUSH2 0x3E50 JUMPI PUSH2 0x3E4F PUSH2 0x3DB0 JUMP JUMPDEST JUMPDEST PUSH1 0x1 DUP3 ADD SWAP1 POP SWAP2 SWAP1 POP JUMP JUMPDEST PUSH32 0x41646D696E207265676973746572656421210000000000000000000000000000 PUSH1 0x0 DUP3 ADD MSTORE POP JUMP JUMPDEST PUSH1 0x0 PUSH2 0x3E91 PUSH1 0x12 DUP4 PUSH2 0x3057 JUMP JUMPDEST SWAP2 POP PUSH2 0x3E9C DUP3 PUSH2 0x3E5B JUMP JUMPDEST PUSH1 0x20 DUP3 ADD SWAP1 POP SWAP2 SWAP1 POP JUMP JUMPDEST PUSH1 0x0 PUSH1 0x20 DUP3 ADD SWAP1 POP DUP2 DUP2 SUB PUSH1 0x0 DUP4 ADD MSTORE PUSH2 0x3EC0 DUP2 PUSH2 0x3E84 JUMP JUMPDEST SWAP1 POP SWAP2 SWAP1 POP JUMP JUMPDEST PUSH32 0x66616C7365000000000000000000000000000000000000000000000000000000 PUSH1 0x0 DUP3 ADD MSTORE POP JUMP JUMPDEST PUSH1 0x0 PUSH2 0x3EFD PUSH1 0x5 DUP4 PUSH2 0x3057 JUMP JUMPDEST SWAP2 POP PUSH2 0x3F08 DUP3 PUSH2 0x3EC7 JUMP JUMPDEST PUSH1 0x20 DUP3 ADD SWAP1 POP SWAP2 SWAP1 POP JUMP JUMPDEST PUSH1 0x0 PUSH1 0x20 DUP3 ADD SWAP1 POP DUP2 DUP2 SUB PUSH1 0x0 DUP4 ADD MSTORE PUSH2 0x3F2C DUP2 PUSH2 0x3EF0 JUMP JUMPDEST SWAP1 POP SWAP2 SWAP1 POP JUMP INVALID LOG2 PUSH5 0x6970667358 0x22 SLT KECCAK256 DUP12 PUSH9 0x1399CC6B46C9346C84 0xDB 0xDD PUSH15 0xEA319C851C82D6E57CA675BB33B80C CALLDATALOAD DUP1 PUSH6 0x64736F6C6343 STOP ADDMOD XOR STOP CALLER "},"gasEstimates":{"creation":{"codeDepositCost":"3246600","executionCost":"42911","totalCost":"3289511"},"external":{"addProduct(string,address)":"infinite","addProductTInfo(address,uint256,string,string,uint256)":"infinite","adminCount()":"2475","adminSt(uint256)":"infinite","adminsM(address)":"infinite","checkIfCompAdmin(address)":"infinite","checkIfOwner()":"infinite","checkIfSupplier(address)":"infinite","getAdminByindex(uint256)":"infinite","getAdminCount()":"2549","getAllProducts()":"infinite","getProductByindex(uint256)":"infinite","getProductCount()":"2527","getProductHist(uint256)":"infinite","getProductHistoryByIndex(uint256,uint256)":"infinite","getProductHistoryCount(uint256)":"infinite","getSupplierByindex(uint256)":"infinite","getSupplierCount()":"2527","owner()":"2556","productCount()":"2473","productIM(uint256,uint256)":"infinite","productSt(uint256)":"infinite","registerNewAdmin(string,string,address)":"infinite","registerNewSupplier(address,address,string)":"infinite","supplierCount()":"2497","supplierM(address,address)":"infinite","supplierSt(uint256)":"infinite","supplierToAdmin(address)":"infinite","viewAllAdmins()":"infinite","viewAllSuppliers()":"infinite","workerM(address,uint256)":"infinite","workerSt(uint256)":"infinite"}},"methodIdentifiers":{"addProduct(string,address)":"56229465","addProductTInfo(address,uint256,string,string,uint256)":"01fdfcff","adminCount()":"2b7832b3","adminSt(uint256)":"8b207dd8","adminsM(address)":"2af673a3","checkIfCompAdmin(address)":"cca5822f","checkIfOwner()":"898de773","checkIfSupplier(address)":"89ca5b68","getAdminByindex(uint256)":"c44b5c55","getAdminCount()":"8b7bf3eb","getAllProducts()":"02ee3a52","getProductByindex(uint256)":"618dbb20","getProductCount()":"4a348da9","getProductHist(uint256)":"0ea69718","getProductHistoryByIndex(uint256,uint256)":"f0b00bbb","getProductHistoryCount(uint256)":"78347712","getSupplierByindex(uint256)":"eb130f3d","getSupplierCount()":"23218e5f","owner()":"8da5cb5b","productCount()":"e0f6ef87","productIM(uint256,uint256)":"0e4e60d7","productSt(uint256)":"dde9c196","registerNewAdmin(string,string,address)":"330de0f9","registerNewSupplier(address,address,string)":"e9064fe9","supplierCount()":"140c6b91","supplierM(address,address)":"6f703bc8","supplierSt(uint256)":"9acc36b5","supplierToAdmin(address)":"0bdd2ec0","viewAllAdmins()":"5083f4b3","viewAllSuppliers()":"dfa8ba8a","workerM(address,uint256)":"a59ec470","workerSt(uint256)":"ae422599"}},"storageLayout":{"storage":[{"astId":3,"contract":"contracts/Supply.sol:Supply","label":"owner","offset":0,"slot":"0","type":"t_address"},{"astId":5,"contract":"contracts/Supply.sol:Supply","label":"adminCount","offset":0,"slot":"1","type":"t_uint256"},{"astId":7,"contract":"contracts/Supply.sol:Supply","label":"supplierCount","offset":0,"slot":"2","type":"t_uint256"},{"astId":9,"contract":"contracts/Supply.sol:Supply","label":"productCount","offset":0,"slot":"3","type":"t_uint256"},{"astId":63,"contract":"contracts/Supply.sol:Supply","label":"adminsM","offset":0,"slot":"4","type":"t_mapping(t_address,t_struct(AdminI)18_storage)"},{"astId":70,"contract":"contracts/Supply.sol:Supply","label":"supplierM","offset":0,"slot":"5","type":"t_mapping(t_address,t_mapping(t_address,t_struct(SupplierI)27_storage))"},{"astId":74,"contract":"contracts/Supply.sol:Supply","label":"supplierToAdmin","offset":0,"slot":"6","type":"t_mapping(t_address,t_address)"},{"astId":80,"contract":"contracts/Supply.sol:Supply","label":"workerM","offset":0,"slot":"7","type":"t_mapping(t_address,t_array(t_struct(WorkerI)36_storage)dyn_storage)"},{"astId":86,"contract":"contracts/Supply.sol:Supply","label":"productIM","offset":0,"slot":"8","type":"t_mapping(t_uint256,t_array(t_struct(ProductIT)54_storage)dyn_storage)"},{"astId":90,"contract":"contracts/Supply.sol:Supply","label":"adminSt","offset":0,"slot":"9","type":"t_array(t_struct(AdminI)18_storage)dyn_storage"},{"astId":94,"contract":"contracts/Supply.sol:Supply","label":"supplierSt","offset":0,"slot":"10","type":"t_array(t_struct(SupplierI)27_storage)dyn_storage"},{"astId":98,"contract":"contracts/Supply.sol:Supply","label":"workerSt","offset":0,"slot":"11","type":"t_array(t_struct(WorkerI)36_storage)dyn_storage"},{"astId":102,"contract":"contracts/Supply.sol:Supply","label":"productSt","offset":0,"slot":"12","type":"t_array(t_struct(ProductInfo)43_storage)dyn_storage"}],"types":{"t_address":{"encoding":"inplace","label":"address","numberOfBytes":"20"},"t_array(t_struct(AdminI)18_storage)dyn_storage":{"base":"t_struct(AdminI)18_storage","encoding":"dynamic_array","label":"struct Supply.AdminI[]","numberOfBytes":"32"},"t_array(t_struct(ProductIT)54_storage)dyn_storage":{"base":"t_struct(ProductIT)54_storage","encoding":"dynamic_array","label":"struct Supply.ProductIT[]","numberOfBytes":"32"},"t_array(t_struct(ProductInfo)43_storage)dyn_storage":{"base":"t_struct(ProductInfo)43_storage","encoding":"dynamic_array","label":"struct Supply.ProductInfo[]","numberOfBytes":"32"},"t_array(t_struct(SupplierI)27_storage)dyn_storage":{"base":"t_struct(SupplierI)27_storage","encoding":"dynamic_array","label":"struct Supply.SupplierI[]","numberOfBytes":"32"},"t_array(t_struct(WorkerI)36_storage)dyn_storage":{"base":"t_struct(WorkerI)36_storage","encoding":"dynamic_array","label":"struct Supply.WorkerI[]","numberOfBytes":"32"},"t_mapping(t_address,t_address)":{"encoding":"mapping","key":"t_address","label":"mapping(address => address)","numberOfBytes":"32","value":"t_address"},"t_mapping(t_address,t_array(t_struct(WorkerI)36_storage)dyn_storage)":{"encoding":"mapping","key":"t_address","label":"mapping(address => struct Supply.WorkerI[])","numberOfBytes":"32","value":"t_array(t_struct(WorkerI)36_storage)dyn_storage"},"t_mapping(t_address,t_mapping(t_address,t_struct(SupplierI)27_storage))":{"encoding":"mapping","key":"t_address","label":"mapping(address => mapping(address => struct Supply.SupplierI))","numberOfBytes":"32","value":"t_mapping(t_address,t_struct(SupplierI)27_storage)"},"t_mapping(t_address,t_struct(AdminI)18_storage)":{"encoding":"mapping","key":"t_address","label":"mapping(address => struct Supply.AdminI)","numberOfBytes":"32","value":"t_struct(AdminI)18_storage"},"t_mapping(t_address,t_struct(SupplierI)27_storage)":{"encoding":"mapping","key":"t_address","label":"mapping(address => struct Supply.SupplierI)","numberOfBytes":"32","value":"t_struct(SupplierI)27_storage"},"t_mapping(t_uint256,t_array(t_struct(ProductIT)54_storage)dyn_storage)":{"encoding":"mapping","key":"t_uint256","label":"mapping(uint256 => struct Supply.ProductIT[])","numberOfBytes":"32","value":"t_array(t_struct(ProductIT)54_storage)dyn_storage"},"t_string_storage":{"encoding":"bytes","label":"string","numberOfBytes":"32"},"t_struct(AdminI)18_storage":{"encoding":"inplace","label":"struct Supply.AdminI","members":[{"astId":11,"contract":"contracts/Supply.sol:Supply","label":"adminId","offset":0,"slot":"0","type":"t_uint256"},{"astId":13,"contract":"contracts/Supply.sol:Supply","label":"adminAdd","offset":0,"slot":"1","type":"t_address"},{"astId":15,"contract":"contracts/Supply.sol:Supply","label":"name","offset":0,"slot":"2","type":"t_string_storage"},{"astId":17,"contract":"contracts/Supply.sol:Supply","label":"company_name","offset":0,"slot":"3","type":"t_string_storage"}],"numberOfBytes":"128"},"t_struct(ProductIT)54_storage":{"encoding":"inplace","label":"struct Supply.ProductIT","members":[{"astId":45,"contract":"contracts/Supply.sol:Supply","label":"healthPerc","offset":0,"slot":"0","type":"t_uint256"},{"astId":47,"contract":"contracts/Supply.sol:Supply","label":"workerA","offset":0,"slot":"1","type":"t_address"},{"astId":49,"contract":"contracts/Supply.sol:Supply","label":"place","offset":0,"slot":"2","type":"t_string_storage"},{"astId":51,"contract":"contracts/Supply.sol:Supply","label":"time","offset":0,"slot":"3","type":"t_string_storage"},{"astId":53,"contract":"contracts/Supply.sol:Supply","label":"productId","offset":0,"slot":"4","type":"t_uint256"}],"numberOfBytes":"160"},"t_struct(ProductInfo)43_storage":{"encoding":"inplace","label":"struct Supply.ProductInfo","members":[{"astId":38,"contract":"contracts/Supply.sol:Supply","label":"productId","offset":0,"slot":"0","type":"t_uint256"},{"astId":40,"contract":"contracts/Supply.sol:Supply","label":"name","offset":0,"slot":"1","type":"t_string_storage"},{"astId":42,"contract":"contracts/Supply.sol:Supply","label":"supplierAddress","offset":0,"slot":"2","type":"t_address"}],"numberOfBytes":"96"},"t_struct(SupplierI)27_storage":{"encoding":"inplace","label":"struct Supply.SupplierI","members":[{"astId":20,"contract":"contracts/Supply.sol:Supply","label":"supplierId","offset":0,"slot":"0","type":"t_uint256"},{"astId":22,"contract":"contracts/Supply.sol:Supply","label":"supplierDD","offset":0,"slot":"1","type":"t_address"},{"astId":24,"contract":"contracts/Supply.sol:Supply","label":"name","offset":0,"slot":"2","type":"t_string_storage"},{"astId":26,"contract":"contracts/Supply.sol:Supply","label":"adminAdd","offset":0,"slot":"3","type":"t_address"}],"numberOfBytes":"128"},"t_struct(WorkerI)36_storage":{"encoding":"inplace","label":"struct Supply.WorkerI","members":[{"astId":29,"contract":"contracts/Supply.sol:Supply","label":"workerId","offset":0,"slot":"0","type":"t_uint256"},{"astId":31,"contract":"contracts/Supply.sol:Supply","label":"workerDD","offset":0,"slot":"1","type":"t_address"},{"astId":33,"contract":"contracts/Supply.sol:Supply","label":"name","offset":0,"slot":"2","type":"t_string_storage"},{"astId":35,"contract":"contracts/Supply.sol:Supply","label":"supplierAdd","offset":0,"slot":"3","type":"t_address"}],"numberOfBytes":"128"},"t_uint256":{"encoding":"inplace","label":"uint256","numberOfBytes":"32"}}},"userdoc":{"kind":"user","methods":{},"version":1}}}}