{"contracts/Supply.sol":{"Supply":{"abi":[{"inputs":[],"stateMutability":"nonpayable","type":"constructor"},{"anonymous":false,"inputs":[{"indexed":false,"internalType":"string","name":"msg","type":"string"}],"name":"success","type":"event"},{"inputs":[{"internalType":"string","name":"_name","type":"string"},{"internalType":"address","name":"_senderAddress","type":"address"}],"name":"addProduct","outputs":[],"stateMutability":"nonpayable","type":"function"},{"inputs":[{"internalType":"address","name":"_senderAddress","type":"address"},{"internalType":"uint256","name":"_healthPerc","type":"uint256"},{"internalType":"string","name":"_place","type":"string"},{"internalType":"string","name":"_time","type":"string"},{"internalType":"uint256","name":"_productId","type":"uint256"}],"name":"addProductTInfo","outputs":[],"stateMutability":"nonpayable","type":"function"},{"inputs":[],"name":"adminCount","outputs":[{"internalType":"uint256","name":"","type":"uint256"}],"stateMutability":"view","type":"function"},{"inputs":[{"internalType":"uint256","name":"","type":"uint256"}],"name":"adminSt","outputs":[{"internalType":"uint256","name":"adminId","type":"uint256"},{"internalType":"address","name":"adminAdd","type":"address"},{"internalType":"string","name":"name","type":"string"},{"internalType":"string","name":"company_name","type":"string"}],"stateMutability":"view","type":"function"},{"inputs":[{"internalType":"address","name":"","type":"address"}],"name":"adminsM","outputs":[{"internalType":"uint256","name":"adminId","type":"uint256"},{"internalType":"address","name":"adminAdd","type":"address"},{"internalType":"string","name":"name","type":"string"},{"internalType":"string","name":"company_name","type":"string"}],"stateMutability":"view","type":"function"},{"inputs":[{"internalType":"address","name":"senderAddress","type":"address"}],"name":"checkIfCompAdmin","outputs":[{"internalType":"string","name":"","type":"string"}],"stateMutability":"view","type":"function"},{"inputs":[],"name":"checkIfOwner","outputs":[{"internalType":"string","name":"","type":"string"}],"stateMutability":"view","type":"function"},{"inputs":[{"internalType":"address","name":"senderAddress","type":"address"}],"name":"checkIfSupplier","outputs":[{"internalType":"string","name":"","type":"string"}],"stateMutability":"view","type":"function"},{"inputs":[],"name":"getAllProducts","outputs":[{"components":[{"internalType":"uint256","name":"productId","type":"uint256"},{"internalType":"string","name":"name","type":"string"},{"internalType":"address","name":"supplierAddress","type":"address"}],"internalType":"struct Supply.ProductInfo[]","name":"","type":"tuple[]"}],"stateMutability":"view","type":"function"},{"inputs":[{"internalType":"uint256","name":"_productId","type":"uint256"}],"name":"getProductHist","outputs":[{"components":[{"internalType":"uint256","name":"healthPerc","type":"uint256"},{"internalType":"address","name":"workerA","type":"address"},{"internalType":"string","name":"place","type":"string"},{"internalType":"string","name":"time","type":"string"},{"internalType":"uint256","name":"productId","type":"uint256"}],"internalType":"struct Supply.ProductIT[]","name":"","type":"tuple[]"}],"stateMutability":"view","type":"function"},{"inputs":[],"name":"owner","outputs":[{"internalType":"address","name":"","type":"address"}],"stateMutability":"view","type":"function"},{"inputs":[{"internalType":"uint256","name":"","type":"uint256"},{"internalType":"uint256","name":"","type":"uint256"}],"name":"productIM","outputs":[{"internalType":"uint256","name":"healthPerc","type":"uint256"},{"internalType":"address","name":"workerA","type":"address"},{"internalType":"string","name":"place","type":"string"},{"internalType":"string","name":"time","type":"string"},{"internalType":"uint256","name":"productId","type":"uint256"}],"stateMutability":"view","type":"function"},{"inputs":[{"internalType":"uint256","name":"","type":"uint256"}],"name":"productSt","outputs":[{"internalType":"uint256","name":"productId","type":"uint256"},{"internalType":"string","name":"name","type":"string"},{"internalType":"address","name":"supplierAddress","type":"address"}],"stateMutability":"view","type":"function"},{"inputs":[{"internalType":"string","name":"_name","type":"string"},{"internalType":"string","name":"_company_name","type":"string"},{"internalType":"address","name":"_new_user","type":"address"}],"name":"registerNewAdmin","outputs":[],"stateMutability":"nonpayable","type":"function"},{"inputs":[{"internalType":"address","name":"senderAddress","type":"address"},{"internalType":"address","name":"_adminAddress","type":"address"},{"internalType":"string","name":"_name","type":"string"}],"name":"registerNewSupplier","outputs":[],"stateMutability":"nonpayable","type":"function"},{"inputs":[],"name":"supplierCount","outputs":[{"internalType":"uint256","name":"","type":"uint256"}],"stateMutability":"view","type":"function"},{"inputs":[{"internalType":"address","name":"","type":"address"},{"internalType":"address","name":"","type":"address"}],"name":"supplierM","outputs":[{"internalType":"uint256","name":"supplierId","type":"uint256"},{"internalType":"address","name":"supplierDD","type":"address"},{"internalType":"string","name":"name","type":"string"},{"internalType":"address","name":"adminAdd","type":"address"}],"stateMutability":"view","type":"function"},{"inputs":[{"internalType":"uint256","name":"","type":"uint256"}],"name":"supplierSt","outputs":[{"internalType":"uint256","name":"supplierId","type":"uint256"},{"internalType":"address","name":"supplierDD","type":"address"},{"internalType":"string","name":"name","type":"string"},{"internalType":"address","name":"adminAdd","type":"address"}],"stateMutability":"view","type":"function"},{"inputs":[{"internalType":"address","name":"","type":"address"}],"name":"supplierToAdmin","outputs":[{"internalType":"address","name":"","type":"address"}],"stateMutability":"view","type":"function"},{"inputs":[],"name":"viewAllAdmins","outputs":[{"components":[{"internalType":"uint256","name":"adminId","type":"uint256"},{"internalType":"address","name":"adminAdd","type":"address"},{"internalType":"string","name":"name","type":"string"},{"internalType":"string","name":"company_name","type":"string"}],"internalType":"struct Supply.AdminI[]","name":"","type":"tuple[]"}],"stateMutability":"view","type":"function"},{"inputs":[],"name":"viewAllSuppliers","outputs":[{"components":[{"internalType":"uint256","name":"supplierId","type":"uint256"},{"internalType":"address","name":"supplierDD","type":"address"},{"internalType":"string","name":"name","type":"string"},{"internalType":"address","name":"adminAdd","type":"address"}],"internalType":"struct Supply.SupplierI[]","name":"","type":"tuple[]"}],"stateMutability":"view","type":"function"},{"inputs":[{"internalType":"address","name":"","type":"address"},{"internalType":"uint256","name":"","type":"uint256"}],"name":"workerM","outputs":[{"internalType":"uint256","name":"workerId","type":"uint256"},{"internalType":"address","name":"workerDD","type":"address"},{"internalType":"string","name":"name","type":"string"},{"internalType":"address","name":"supplierAdd","type":"address"}],"stateMutability":"view","type":"function"},{"inputs":[{"internalType":"uint256","name":"","type":"uint256"}],"name":"workerSt","outputs":[{"internalType":"uint256","name":"workerId","type":"uint256"},{"internalType":"address","name":"workerDD","type":"address"},{"internalType":"string","name":"name","type":"string"},{"internalType":"address","name":"supplierAdd","type":"address"}],"stateMutability":"view","type":"function"}],"devdoc":{"kind":"dev","methods":{},"version":1},"evm":{"bytecode":{"linkReferences":{},"object":"608060405234801561001057600080fd5b50336000806101000a81548173ffffffffffffffffffffffffffffffffffffffff021916908373ffffffffffffffffffffffffffffffffffffffff16021790555060006001819055506000600281905550613192806100706000396000f3fe608060405234801561001057600080fd5b506004361061014d5760003560e01c80636f703bc8116100c3578063a59ec4701161007c578063a59ec470146103ea578063ae4225991461041d578063cca5822f14610450578063dde9c19614610480578063dfa8ba8a146104b2578063e9064fe9146104d05761014d565b80636f703bc8146102e5578063898de7731461031857806389ca5b68146103365780638b207dd8146103665780638da5cb5b146103995780639acc36b5146103b75761014d565b8063140c6b9111610115578063140c6b91146102205780632af673a31461023e5780632b7832b314610271578063330de0f91461028f5780635083f4b3146102ab57806356229465146102c95761014d565b806301fdfcff1461015257806302ee3a521461016e5780630bdd2ec01461018c5780630e4e60d7146101bc5780630ea69718146101f0575b600080fd5b61016c600480360381019061016791906121a7565b6104ec565b005b610176610605565b6040516101839190612409565b60405180910390f35b6101a660048036038101906101a1919061242b565b610756565b6040516101b39190612467565b60405180910390f35b6101d660048036038101906101d19190612482565b610789565b6040516101e795949392919061251b565b60405180910390f35b61020a6004803603810190610205919061257c565b61090c565b60405161021791906126e8565b60405180910390f35b610228610b0c565b604051610235919061270a565b60405180910390f35b6102586004803603810190610253919061242b565b610b12565b6040516102689493929190612725565b60405180910390f35b610279610c72565b604051610286919061270a565b60405180910390f35b6102a960048036038101906102a49190612778565b610c78565b005b6102b3610e87565b6040516102c0919061292f565b60405180910390f35b6102e360048036038101906102de9190612951565b61106a565b005b6102ff60048036038101906102fa91906129ad565b611148565b60405161030f94939291906129ed565b60405180910390f35b61032061124d565b60405161032d9190612a39565b60405180910390f35b610350600480360381019061034b919061242b565b611318565b60405161035d9190612a39565b60405180910390f35b610380600480360381019061037b919061257c565b61147e565b6040516103909493929190612725565b60405180910390f35b6103a16115ee565b6040516103ae9190612467565b60405180910390f35b6103d160048036038101906103cc919061257c565b611612565b6040516103e194939291906129ed565b60405180910390f35b61040460048036038101906103ff9190612a5b565b61171a565b60405161041494939291906129ed565b60405180910390f35b6104376004803603810190610432919061257c565b61182f565b60405161044794939291906129ed565b60405180910390f35b61046a6004803603810190610465919061242b565b611937565b6040516104779190612a39565b60405180910390f35b61049a6004803603810190610495919061257c565b6119fb565b6040516104a993929190612a9b565b60405180910390f35b6104ba611add565b6040516104c79190612bfe565b60405180910390f35b6104ea60048036038101906104e59190612c20565b611c84565b005b6104f585611318565b5060006040518060a001604052808681526020018773ffffffffffffffffffffffffffffffffffffffff168152602001858152602001848152602001838152509050600760008381526020019081526020016000208190806001815401808255809150506001900390600052602060002090600502016000909190919091506000820151816000015560208201518160010160006101000a81548173ffffffffffffffffffffffffffffffffffffffff021916908373ffffffffffffffffffffffffffffffffffffffff16021790555060408201518160020190816105da9190612e9b565b5060608201518160030190816105f09190612e9b565b50608082015181600401555050505050505050565b6060600b805480602002602001604051908101604052809291908181526020016000905b8282101561074d57838290600052602060002090600302016040518060600160405290816000820154815260200160018201805461066690612cbe565b80601f016020809104026020016040519081016040528092919081815260200182805461069290612cbe565b80156106df5780601f106106b4576101008083540402835291602001916106df565b820191906000526020600020905b8154815290600101906020018083116106c257829003601f168201915b505050505081526020016002820160009054906101000a900473ffffffffffffffffffffffffffffffffffffffff1673ffffffffffffffffffffffffffffffffffffffff1673ffffffffffffffffffffffffffffffffffffffff168152505081526020019060010190610629565b50505050905090565b60056020528060005260406000206000915054906101000a900473ffffffffffffffffffffffffffffffffffffffff1681565b600760205281600052604060002081815481106107a557600080fd5b9060005260206000209060050201600091509150508060000154908060010160009054906101000a900473ffffffffffffffffffffffffffffffffffffffff16908060020180546107f590612cbe565b80601f016020809104026020016040519081016040528092919081815260200182805461082190612cbe565b801561086e5780601f106108435761010080835404028352916020019161086e565b820191906000526020600020905b81548152906001019060200180831161085157829003601f168201915b50505050509080600301805461088390612cbe565b80601f01602080910402602001604051908101604052809291908181526020018280546108af90612cbe565b80156108fc5780601f106108d1576101008083540402835291602001916108fc565b820191906000526020600020905b8154815290600101906020018083116108df57829003601f168201915b5050505050908060040154905085565b606060076000838152602001908152602001600020805480602002602001604051908101604052809291908181526020016000905b82821015610b0157838290600052602060002090600502016040518060a0016040529081600082015481526020016001820160009054906101000a900473ffffffffffffffffffffffffffffffffffffffff1673ffffffffffffffffffffffffffffffffffffffff1673ffffffffffffffffffffffffffffffffffffffff1681526020016002820180546109d490612cbe565b80601f0160208091040260200160405190810160405280929190818152602001828054610a0090612cbe565b8015610a4d5780601f10610a2257610100808354040283529160200191610a4d565b820191906000526020600020905b815481529060010190602001808311610a3057829003601f168201915b50505050508152602001600382018054610a6690612cbe565b80601f0160208091040260200160405190810160405280929190818152602001828054610a9290612cbe565b8015610adf5780601f10610ab457610100808354040283529160200191610adf565b820191906000526020600020905b815481529060010190602001808311610ac257829003601f168201915b5050505050815260200160048201548152505081526020019060010190610941565b505050509050919050565b60025481565b60036020528060005260406000206000915090508060000154908060010160009054906101000a900473ffffffffffffffffffffffffffffffffffffffff1690806002018054610b6190612cbe565b80601f0160208091040260200160405190810160405280929190818152602001828054610b8d90612cbe565b8015610bda5780601f10610baf57610100808354040283529160200191610bda565b820191906000526020600020905b815481529060010190602001808311610bbd57829003601f168201915b505050505090806003018054610bef90612cbe565b80601f0160208091040260200160405190810160405280929190818152602001828054610c1b90612cbe565b8015610c685780601f10610c3d57610100808354040283529160200191610c68565b820191906000526020600020905b815481529060010190602001808311610c4b57829003601f168201915b5050505050905084565b60015481565b610c8061124d565b506000604051806080016040528060018054610c9c9190612f9c565b81526020018373ffffffffffffffffffffffffffffffffffffffff16815260200185815260200184815250905080600360008473ffffffffffffffffffffffffffffffffffffffff1673ffffffffffffffffffffffffffffffffffffffff1681526020019081526020016000206000820151816000015560208201518160010160006101000a81548173ffffffffffffffffffffffffffffffffffffffff021916908373ffffffffffffffffffffffffffffffffffffffff1602179055506040820151816002019081610d6f9190612e9b565b506060820151816003019081610d859190612e9b565b5090505060088190806001815401808255809150506001900390600052602060002090600402016000909190919091506000820151816000015560208201518160010160006101000a81548173ffffffffffffffffffffffffffffffffffffffff021916908373ffffffffffffffffffffffffffffffffffffffff1602179055506040820151816002019081610e1b9190612e9b565b506060820151816003019081610e319190612e9b565b50505060016000815480929190610e4790612fd0565b91905055507f68f068b2f0d02fca99bc8285b62fce8668fe16b7c6a810351ea25bff358c0dd8604051610e7990613064565b60405180910390a150505050565b60606008805480602002602001604051908101604052809291908181526020016000905b828210156110615783829060005260206000209060040201604051806080016040529081600082015481526020016001820160009054906101000a900473ffffffffffffffffffffffffffffffffffffffff1673ffffffffffffffffffffffffffffffffffffffff1673ffffffffffffffffffffffffffffffffffffffff168152602001600282018054610f3e90612cbe565b80601f0160208091040260200160405190810160405280929190818152602001828054610f6a90612cbe565b8015610fb75780601f10610f8c57610100808354040283529160200191610fb7565b820191906000526020600020905b815481529060010190602001808311610f9a57829003601f168201915b50505050508152602001600382018054610fd090612cbe565b80601f0160208091040260200160405190810160405280929190818152602001828054610ffc90612cbe565b80156110495780601f1061101e57610100808354040283529160200191611049565b820191906000526020600020905b81548152906001019060200180831161102c57829003601f168201915b50505050508152505081526020019060010190610eab565b50505050905090565b61107381611318565b5060006040518060600160405280600b8054905081526020018481526020018373ffffffffffffffffffffffffffffffffffffffff168152509050600b8190806001815401808255809150506001900390600052602060002090600302016000909190919091506000820151816000015560208201518160010190816110f99190612e9b565b5060408201518160020160006101000a81548173ffffffffffffffffffffffffffffffffffffffff021916908373ffffffffffffffffffffffffffffffffffffffff1602179055505050505050565b6004602052816000526040600020602052806000526040600020600091509150508060000154908060010160009054906101000a900473ffffffffffffffffffffffffffffffffffffffff16908060020180546111a490612cbe565b80601f01602080910402602001604051908101604052809291908181526020018280546111d090612cbe565b801561121d5780601f106111f25761010080835404028352916020019161121d565b820191906000526020600020905b81548152906001019060200180831161120057829003601f168201915b5050505050908060030160009054906101000a900473ffffffffffffffffffffffffffffffffffffffff16905084565b606060008054906101000a900473ffffffffffffffffffffffffffffffffffffffff1673ffffffffffffffffffffffffffffffffffffffff163373ffffffffffffffffffffffffffffffffffffffff16146112dd576040517f08c379a00000000000000000000000000000000000000000000000000000000081526004016112d4906130d0565b60405180910390fd5b6040518060400160405280600481526020017f7472756500000000000000000000000000000000000000000000000000000000815250905090565b60606000600560008473ffffffffffffffffffffffffffffffffffffffff1673ffffffffffffffffffffffffffffffffffffffff16815260200190815260200160002060009054906101000a900473ffffffffffffffffffffffffffffffffffffffff1690506000600460008373ffffffffffffffffffffffffffffffffffffffff1673ffffffffffffffffffffffffffffffffffffffff16815260200190815260200160002060008573ffffffffffffffffffffffffffffffffffffffff1673ffffffffffffffffffffffffffffffffffffffff1681526020019081526020016000206000015403611440576040517f08c379a0000000000000000000000000000000000000000000000000000000008152600401611437906130d0565b60405180910390fd5b6040518060400160405280600481526020017f7472756500000000000000000000000000000000000000000000000000000000815250915050919050565b6008818154811061148e57600080fd5b90600052602060002090600402016000915090508060000154908060010160009054906101000a900473ffffffffffffffffffffffffffffffffffffffff16908060020180546114dd90612cbe565b80601f016020809104026020016040519081016040528092919081815260200182805461150990612cbe565b80156115565780601f1061152b57610100808354040283529160200191611556565b820191906000526020600020905b81548152906001019060200180831161153957829003601f168201915b50505050509080600301805461156b90612cbe565b80601f016020809104026020016040519081016040528092919081815260200182805461159790612cbe565b80156115e45780601f106115b9576101008083540402835291602001916115e4565b820191906000526020600020905b8154815290600101906020018083116115c757829003601f168201915b5050505050905084565b60008054906101000a900473ffffffffffffffffffffffffffffffffffffffff1681565b6009818154811061162257600080fd5b90600052602060002090600402016000915090508060000154908060010160009054906101000a900473ffffffffffffffffffffffffffffffffffffffff169080600201805461167190612cbe565b80601f016020809104026020016040519081016040528092919081815260200182805461169d90612cbe565b80156116ea5780601f106116bf576101008083540402835291602001916116ea565b820191906000526020600020905b8154815290600101906020018083116116cd57829003601f168201915b5050505050908060030160009054906101000a900473ffffffffffffffffffffffffffffffffffffffff16905084565b6006602052816000526040600020818154811061173657600080fd5b9060005260206000209060040201600091509150508060000154908060010160009054906101000a900473ffffffffffffffffffffffffffffffffffffffff169080600201805461178690612cbe565b80601f01602080910402602001604051908101604052809291908181526020018280546117b290612cbe565b80156117ff5780601f106117d4576101008083540402835291602001916117ff565b820191906000526020600020905b8154815290600101906020018083116117e257829003601f168201915b5050505050908060030160009054906101000a900473ffffffffffffffffffffffffffffffffffffffff16905084565b600a818154811061183f57600080fd5b90600052602060002090600402016000915090508060000154908060010160009054906101000a900473ffffffffffffffffffffffffffffffffffffffff169080600201805461188e90612cbe565b80601f01602080910402602001604051908101604052809291908181526020018280546118ba90612cbe565b80156119075780601f106118dc57610100808354040283529160200191611907565b820191906000526020600020905b8154815290600101906020018083116118ea57829003601f168201915b5050505050908060030160009054906101000a900473ffffffffffffffffffffffffffffffffffffffff16905084565b60606000600360008473ffffffffffffffffffffffffffffffffffffffff1673ffffffffffffffffffffffffffffffffffffffff16815260200190815260200160002060000154036119be576040517f08c379a00000000000000000000000000000000000000000000000000000000081526004016119b5906130d0565b60405180910390fd5b6040518060400160405280600481526020017f74727565000000000000000000000000000000000000000000000000000000008152509050919050565b600b8181548110611a0b57600080fd5b9060005260206000209060030201600091509050806000015490806001018054611a3490612cbe565b80601f0160208091040260200160405190810160405280929190818152602001828054611a6090612cbe565b8015611aad5780601f10611a8257610100808354040283529160200191611aad565b820191906000526020600020905b815481529060010190602001808311611a9057829003601f168201915b5050505050908060020160009054906101000a900473ffffffffffffffffffffffffffffffffffffffff16905083565b60606009805480602002602001604051908101604052809291908181526020016000905b82821015611c7b5783829060005260206000209060040201604051806080016040529081600082015481526020016001820160009054906101000a900473ffffffffffffffffffffffffffffffffffffffff1673ffffffffffffffffffffffffffffffffffffffff1673ffffffffffffffffffffffffffffffffffffffff168152602001600282018054611b9490612cbe565b80601f0160208091040260200160405190810160405280929190818152602001828054611bc090612cbe565b8015611c0d5780601f10611be257610100808354040283529160200191611c0d565b820191906000526020600020905b815481529060010190602001808311611bf057829003601f168201915b505050505081526020016003820160009054906101000a900473ffffffffffffffffffffffffffffffffffffffff1673ffffffffffffffffffffffffffffffffffffffff1673ffffffffffffffffffffffffffffffffffffffff168152505081526020019060010190611b01565b50505050905090565b611c8d82611937565b5081600560008573ffffffffffffffffffffffffffffffffffffffff1673ffffffffffffffffffffffffffffffffffffffff16815260200190815260200160002060006101000a81548173ffffffffffffffffffffffffffffffffffffffff021916908373ffffffffffffffffffffffffffffffffffffffff1602179055506001600254611d1b9190612f9c565b6002819055506000604051806080016040528060025481526020018573ffffffffffffffffffffffffffffffffffffffff1681526020018381526020018473ffffffffffffffffffffffffffffffffffffffff16815250905080600460008573ffffffffffffffffffffffffffffffffffffffff1673ffffffffffffffffffffffffffffffffffffffff16815260200190815260200160002060008673ffffffffffffffffffffffffffffffffffffffff1673ffffffffffffffffffffffffffffffffffffffff1681526020019081526020016000206000820151816000015560208201518160010160006101000a81548173ffffffffffffffffffffffffffffffffffffffff021916908373ffffffffffffffffffffffffffffffffffffffff1602179055506040820151816002019081611e579190612e9b565b5060608201518160030160006101000a81548173ffffffffffffffffffffffffffffffffffffffff021916908373ffffffffffffffffffffffffffffffffffffffff16021790555090505060098190806001815401808255809150506001900390600052602060002090600402016000909190919091506000820151816000015560208201518160010160006101000a81548173ffffffffffffffffffffffffffffffffffffffff021916908373ffffffffffffffffffffffffffffffffffffffff1602179055506040820151816002019081611f349190612e9b565b5060608201518160030160006101000a81548173ffffffffffffffffffffffffffffffffffffffff021916908373ffffffffffffffffffffffffffffffffffffffff16021790555050507f68f068b2f0d02fca99bc8285b62fce8668fe16b7c6a810351ea25bff358c0dd8604051611fab9061313c565b60405180910390a150505050565b6000604051905090565b600080fd5b600080fd5b600073ffffffffffffffffffffffffffffffffffffffff82169050919050565b6000611ff882611fcd565b9050919050565b61200881611fed565b811461201357600080fd5b50565b60008135905061202581611fff565b92915050565b6000819050919050565b61203e8161202b565b811461204957600080fd5b50565b60008135905061205b81612035565b92915050565b600080fd5b600080fd5b6000601f19601f8301169050919050565b7f4e487b7100000000000000000000000000000000000000000000000000000000600052604160045260246000fd5b6120b48261206b565b810181811067ffffffffffffffff821117156120d3576120d261207c565b5b80604052505050565b60006120e6611fb9565b90506120f282826120ab565b919050565b600067ffffffffffffffff8211156121125761211161207c565b5b61211b8261206b565b9050602081019050919050565b82818337600083830152505050565b600061214a612145846120f7565b6120dc565b90508281526020810184848401111561216657612165612066565b5b612171848285612128565b509392505050565b600082601f83011261218e5761218d612061565b5b813561219e848260208601612137565b91505092915050565b600080600080600060a086880312156121c3576121c2611fc3565b5b60006121d188828901612016565b95505060206121e28882890161204c565b945050604086013567ffffffffffffffff81111561220357612202611fc8565b5b61220f88828901612179565b935050606086013567ffffffffffffffff8111156122305761222f611fc8565b5b61223c88828901612179565b925050608061224d8882890161204c565b9150509295509295909350565b600081519050919050565b600082825260208201905092915050565b6000819050602082019050919050565b61228f8161202b565b82525050565b600081519050919050565b600082825260208201905092915050565b60005b838110156122cf5780820151818401526020810190506122b4565b60008484015250505050565b60006122e682612295565b6122f081856122a0565b93506123008185602086016122b1565b6123098161206b565b840191505092915050565b61231d81611fed565b82525050565b600060608301600083015161233b6000860182612286565b506020830151848203602086015261235382826122db565b91505060408301516123686040860182612314565b508091505092915050565b600061237f8383612323565b905092915050565b6000602082019050919050565b600061239f8261225a565b6123a98185612265565b9350836020820285016123bb85612276565b8060005b858110156123f757848403895281516123d88582612373565b94506123e383612387565b925060208a019950506001810190506123bf565b50829750879550505050505092915050565b600060208201905081810360008301526124238184612394565b905092915050565b60006020828403121561244157612440611fc3565b5b600061244f84828501612016565b91505092915050565b61246181611fed565b82525050565b600060208201905061247c6000830184612458565b92915050565b6000806040838503121561249957612498611fc3565b5b60006124a78582860161204c565b92505060206124b88582860161204c565b9150509250929050565b6124cb8161202b565b82525050565b600082825260208201905092915050565b60006124ed82612295565b6124f781856124d1565b93506125078185602086016122b1565b6125108161206b565b840191505092915050565b600060a08201905061253060008301886124c2565b61253d6020830187612458565b818103604083015261254f81866124e2565b9050818103606083015261256381856124e2565b905061257260808301846124c2565b9695505050505050565b60006020828403121561259257612591611fc3565b5b60006125a08482850161204c565b91505092915050565b600081519050919050565b600082825260208201905092915050565b6000819050602082019050919050565b600060a0830160008301516125ed6000860182612286565b5060208301516126006020860182612314565b506040830151848203604086015261261882826122db565b9150506060830151848203606086015261263282826122db565b91505060808301516126476080860182612286565b508091505092915050565b600061265e83836125d5565b905092915050565b6000602082019050919050565b600061267e826125a9565b61268881856125b4565b93508360208202850161269a856125c5565b8060005b858110156126d657848403895281516126b78582612652565b94506126c283612666565b925060208a0199505060018101905061269e565b50829750879550505050505092915050565b600060208201905081810360008301526127028184612673565b905092915050565b600060208201905061271f60008301846124c2565b92915050565b600060808201905061273a60008301876124c2565b6127476020830186612458565b818103604083015261275981856124e2565b9050818103606083015261276d81846124e2565b905095945050505050565b60008060006060848603121561279157612790611fc3565b5b600084013567ffffffffffffffff8111156127af576127ae611fc8565b5b6127bb86828701612179565b935050602084013567ffffffffffffffff8111156127dc576127db611fc8565b5b6127e886828701612179565b92505060406127f986828701612016565b9150509250925092565b600081519050919050565b600082825260208201905092915050565b6000819050602082019050919050565b60006080830160008301516128476000860182612286565b50602083015161285a6020860182612314565b506040830151848203604086015261287282826122db565b9150506060830151848203606086015261288c82826122db565b9150508091505092915050565b60006128a5838361282f565b905092915050565b6000602082019050919050565b60006128c582612803565b6128cf818561280e565b9350836020820285016128e18561281f565b8060005b8581101561291d57848403895281516128fe8582612899565b9450612909836128ad565b925060208a019950506001810190506128e5565b50829750879550505050505092915050565b6000602082019050818103600083015261294981846128ba565b905092915050565b6000806040838503121561296857612967611fc3565b5b600083013567ffffffffffffffff81111561298657612985611fc8565b5b61299285828601612179565b92505060206129a385828601612016565b9150509250929050565b600080604083850312156129c4576129c3611fc3565b5b60006129d285828601612016565b92505060206129e385828601612016565b9150509250929050565b6000608082019050612a0260008301876124c2565b612a0f6020830186612458565b8181036040830152612a2181856124e2565b9050612a306060830184612458565b95945050505050565b60006020820190508181036000830152612a5381846124e2565b905092915050565b60008060408385031215612a7257612a71611fc3565b5b6000612a8085828601612016565b9250506020612a918582860161204c565b9150509250929050565b6000606082019050612ab060008301866124c2565b8181036020830152612ac281856124e2565b9050612ad16040830184612458565b949350505050565b600081519050919050565b600082825260208201905092915050565b6000819050602082019050919050565b6000608083016000830151612b1d6000860182612286565b506020830151612b306020860182612314565b5060408301518482036040860152612b4882826122db565b9150506060830151612b5d6060860182612314565b508091505092915050565b6000612b748383612b05565b905092915050565b6000602082019050919050565b6000612b9482612ad9565b612b9e8185612ae4565b935083602082028501612bb085612af5565b8060005b85811015612bec5784840389528151612bcd8582612b68565b9450612bd883612b7c565b925060208a01995050600181019050612bb4565b50829750879550505050505092915050565b60006020820190508181036000830152612c188184612b89565b905092915050565b600080600060608486031215612c3957612c38611fc3565b5b6000612c4786828701612016565b9350506020612c5886828701612016565b925050604084013567ffffffffffffffff811115612c7957612c78611fc8565b5b612c8586828701612179565b9150509250925092565b7f4e487b7100000000000000000000000000000000000000000000000000000000600052602260045260246000fd5b60006002820490506001821680612cd657607f821691505b602082108103612ce957612ce8612c8f565b5b50919050565b60008190508160005260206000209050919050565b60006020601f8301049050919050565b600082821b905092915050565b600060088302612d517fffffffffffffffffffffffffffffffffffffffffffffffffffffffffffffffff82612d14565b612d5b8683612d14565b95508019841693508086168417925050509392505050565b6000819050919050565b6000612d98612d93612d8e8461202b565b612d73565b61202b565b9050919050565b6000819050919050565b612db283612d7d565b612dc6612dbe82612d9f565b848454612d21565b825550505050565b600090565b612ddb612dce565b612de6818484612da9565b505050565b5b81811015612e0a57612dff600082612dd3565b600181019050612dec565b5050565b601f821115612e4f57612e2081612cef565b612e2984612d04565b81016020851015612e38578190505b612e4c612e4485612d04565b830182612deb565b50505b505050565b600082821c905092915050565b6000612e7260001984600802612e54565b1980831691505092915050565b6000612e8b8383612e61565b9150826002028217905092915050565b612ea482612295565b67ffffffffffffffff811115612ebd57612ebc61207c565b5b612ec78254612cbe565b612ed2828285612e0e565b600060209050601f831160018114612f055760008415612ef3578287015190505b612efd8582612e7f565b865550612f65565b601f198416612f1386612cef565b60005b82811015612f3b57848901518255600182019150602085019450602081019050612f16565b86831015612f585784890151612f54601f891682612e61565b8355505b6001600288020188555050505b505050505050565b7f4e487b7100000000000000000000000000000000000000000000000000000000600052601160045260246000fd5b6000612fa78261202b565b9150612fb28361202b565b9250828201905080821115612fca57612fc9612f6d565b5b92915050565b6000612fdb8261202b565b91507fffffffffffffffffffffffffffffffffffffffffffffffffffffffffffffffff820361300d5761300c612f6d565b5b600182019050919050565b7f41646d696e207265676973746572656421210000000000000000000000000000600082015250565b600061304e6012836124d1565b915061305982613018565b602082019050919050565b6000602082019050818103600083015261307d81613041565b9050919050565b7f66616c7365000000000000000000000000000000000000000000000000000000600082015250565b60006130ba6005836124d1565b91506130c582613084565b602082019050919050565b600060208201905081810360008301526130e9816130ad565b9050919050565b7f537570706c792072656769737465726564212100000000000000000000000000600082015250565b60006131266013836124d1565b9150613131826130f0565b602082019050919050565b6000602082019050818103600083015261315581613119565b905091905056fea26469706673582212209415b17de65d9f0efc8c750f54eb0078934ba9e5bad0564f623ed3060a49910f64736f6c63430008180033","opcodes":"PUSH1 0x80 PUSH1 0x40 MSTORE CALLVALUE DUP1 ISZERO PUSH2 0x10 JUMPI PUSH1 0x0 DUP1 REVERT JUMPDEST POP CALLER PUSH1 0x0 DUP1 PUSH2 0x100 EXP DUP2 SLOAD DUP2 PUSH20 0xFFFFFFFFFFFFFFFFFFFFFFFFFFFFFFFFFFFFFFFF MUL NOT AND SWAP1 DUP4 PUSH20 0xFFFFFFFFFFFFFFFFFFFFFFFFFFFFFFFFFFFFFFFF AND MUL OR SWAP1 SSTORE POP PUSH1 0x0 PUSH1 0x1 DUP2 SWAP1 SSTORE POP PUSH1 0x0 PUSH1 0x2 DUP2 SWAP1 SSTORE POP PUSH2 0x3192 DUP1 PUSH2 0x70 PUSH1 0x0 CODECOPY PUSH1 0x0 RETURN INVALID PUSH1 0x80 PUSH1 0x40 MSTORE CALLVALUE DUP1 ISZERO PUSH2 0x10 JUMPI PUSH1 0x0 DUP1 REVERT JUMPDEST POP PUSH1 0x4 CALLDATASIZE LT PUSH2 0x14D JUMPI PUSH1 0x0 CALLDATALOAD PUSH1 0xE0 SHR DUP1 PUSH4 0x6F703BC8 GT PUSH2 0xC3 JUMPI DUP1 PUSH4 0xA59EC470 GT PUSH2 0x7C JUMPI DUP1 PUSH4 0xA59EC470 EQ PUSH2 0x3EA JUMPI DUP1 PUSH4 0xAE422599 EQ PUSH2 0x41D JUMPI DUP1 PUSH4 0xCCA5822F EQ PUSH2 0x450 JUMPI DUP1 PUSH4 0xDDE9C196 EQ PUSH2 0x480 JUMPI DUP1 PUSH4 0xDFA8BA8A EQ PUSH2 0x4B2 JUMPI DUP1 PUSH4 0xE9064FE9 EQ PUSH2 0x4D0 JUMPI PUSH2 0x14D JUMP JUMPDEST DUP1 PUSH4 0x6F703BC8 EQ PUSH2 0x2E5 JUMPI DUP1 PUSH4 0x898DE773 EQ PUSH2 0x318 JUMPI DUP1 PUSH4 0x89CA5B68 EQ PUSH2 0x336 JUMPI DUP1 PUSH4 0x8B207DD8 EQ PUSH2 0x366 JUMPI DUP1 PUSH4 0x8DA5CB5B EQ PUSH2 0x399 JUMPI DUP1 PUSH4 0x9ACC36B5 EQ PUSH2 0x3B7 JUMPI PUSH2 0x14D JUMP JUMPDEST DUP1 PUSH4 0x140C6B91 GT PUSH2 0x115 JUMPI DUP1 PUSH4 0x140C6B91 EQ PUSH2 0x220 JUMPI DUP1 PUSH4 0x2AF673A3 EQ PUSH2 0x23E JUMPI DUP1 PUSH4 0x2B7832B3 EQ PUSH2 0x271 JUMPI DUP1 PUSH4 0x330DE0F9 EQ PUSH2 0x28F JUMPI DUP1 PUSH4 0x5083F4B3 EQ PUSH2 0x2AB JUMPI DUP1 PUSH4 0x56229465 EQ PUSH2 0x2C9 JUMPI PUSH2 0x14D JUMP JUMPDEST DUP1 PUSH4 0x1FDFCFF EQ PUSH2 0x152 JUMPI DUP1 PUSH4 0x2EE3A52 EQ PUSH2 0x16E JUMPI DUP1 PUSH4 0xBDD2EC0 EQ PUSH2 0x18C JUMPI DUP1 PUSH4 0xE4E60D7 EQ PUSH2 0x1BC JUMPI DUP1 PUSH4 0xEA69718 EQ PUSH2 0x1F0 JUMPI JUMPDEST PUSH1 0x0 DUP1 REVERT JUMPDEST PUSH2 0x16C PUSH1 0x4 DUP1 CALLDATASIZE SUB DUP2 ADD SWAP1 PUSH2 0x167 SWAP2 SWAP1 PUSH2 0x21A7 JUMP JUMPDEST PUSH2 0x4EC JUMP JUMPDEST STOP JUMPDEST PUSH2 0x176 PUSH2 0x605 JUMP JUMPDEST PUSH1 0x40 MLOAD PUSH2 0x183 SWAP2 SWAP1 PUSH2 0x2409 JUMP JUMPDEST PUSH1 0x40 MLOAD DUP1 SWAP2 SUB SWAP1 RETURN JUMPDEST PUSH2 0x1A6 PUSH1 0x4 DUP1 CALLDATASIZE SUB DUP2 ADD SWAP1 PUSH2 0x1A1 SWAP2 SWAP1 PUSH2 0x242B JUMP JUMPDEST PUSH2 0x756 JUMP JUMPDEST PUSH1 0x40 MLOAD PUSH2 0x1B3 SWAP2 SWAP1 PUSH2 0x2467 JUMP JUMPDEST PUSH1 0x40 MLOAD DUP1 SWAP2 SUB SWAP1 RETURN JUMPDEST PUSH2 0x1D6 PUSH1 0x4 DUP1 CALLDATASIZE SUB DUP2 ADD SWAP1 PUSH2 0x1D1 SWAP2 SWAP1 PUSH2 0x2482 JUMP JUMPDEST PUSH2 0x789 JUMP JUMPDEST PUSH1 0x40 MLOAD PUSH2 0x1E7 SWAP6 SWAP5 SWAP4 SWAP3 SWAP2 SWAP1 PUSH2 0x251B JUMP JUMPDEST PUSH1 0x40 MLOAD DUP1 SWAP2 SUB SWAP1 RETURN JUMPDEST PUSH2 0x20A PUSH1 0x4 DUP1 CALLDATASIZE SUB DUP2 ADD SWAP1 PUSH2 0x205 SWAP2 SWAP1 PUSH2 0x257C JUMP JUMPDEST PUSH2 0x90C JUMP JUMPDEST PUSH1 0x40 MLOAD PUSH2 0x217 SWAP2 SWAP1 PUSH2 0x26E8 JUMP JUMPDEST PUSH1 0x40 MLOAD DUP1 SWAP2 SUB SWAP1 RETURN JUMPDEST PUSH2 0x228 PUSH2 0xB0C JUMP JUMPDEST PUSH1 0x40 MLOAD PUSH2 0x235 SWAP2 SWAP1 PUSH2 0x270A JUMP JUMPDEST PUSH1 0x40 MLOAD DUP1 SWAP2 SUB SWAP1 RETURN JUMPDEST PUSH2 0x258 PUSH1 0x4 DUP1 CALLDATASIZE SUB DUP2 ADD SWAP1 PUSH2 0x253 SWAP2 SWAP1 PUSH2 0x242B JUMP JUMPDEST PUSH2 0xB12 JUMP JUMPDEST PUSH1 0x40 MLOAD PUSH2 0x268 SWAP5 SWAP4 SWAP3 SWAP2 SWAP1 PUSH2 0x2725 JUMP JUMPDEST PUSH1 0x40 MLOAD DUP1 SWAP2 SUB SWAP1 RETURN JUMPDEST PUSH2 0x279 PUSH2 0xC72 JUMP JUMPDEST PUSH1 0x40 MLOAD PUSH2 0x286 SWAP2 SWAP1 PUSH2 0x270A JUMP JUMPDEST PUSH1 0x40 MLOAD DUP1 SWAP2 SUB SWAP1 RETURN JUMPDEST PUSH2 0x2A9 PUSH1 0x4 DUP1 CALLDATASIZE SUB DUP2 ADD SWAP1 PUSH2 0x2A4 SWAP2 SWAP1 PUSH2 0x2778 JUMP JUMPDEST PUSH2 0xC78 JUMP JUMPDEST STOP JUMPDEST PUSH2 0x2B3 PUSH2 0xE87 JUMP JUMPDEST PUSH1 0x40 MLOAD PUSH2 0x2C0 SWAP2 SWAP1 PUSH2 0x292F JUMP JUMPDEST PUSH1 0x40 MLOAD DUP1 SWAP2 SUB SWAP1 RETURN JUMPDEST PUSH2 0x2E3 PUSH1 0x4 DUP1 CALLDATASIZE SUB DUP2 ADD SWAP1 PUSH2 0x2DE SWAP2 SWAP1 PUSH2 0x2951 JUMP JUMPDEST PUSH2 0x106A JUMP JUMPDEST STOP JUMPDEST PUSH2 0x2FF PUSH1 0x4 DUP1 CALLDATASIZE SUB DUP2 ADD SWAP1 PUSH2 0x2FA SWAP2 SWAP1 PUSH2 0x29AD JUMP JUMPDEST PUSH2 0x1148 JUMP JUMPDEST PUSH1 0x40 MLOAD PUSH2 0x30F SWAP5 SWAP4 SWAP3 SWAP2 SWAP1 PUSH2 0x29ED JUMP JUMPDEST PUSH1 0x40 MLOAD DUP1 SWAP2 SUB SWAP1 RETURN JUMPDEST PUSH2 0x320 PUSH2 0x124D JUMP JUMPDEST PUSH1 0x40 MLOAD PUSH2 0x32D SWAP2 SWAP1 PUSH2 0x2A39 JUMP JUMPDEST PUSH1 0x40 MLOAD DUP1 SWAP2 SUB SWAP1 RETURN JUMPDEST PUSH2 0x350 PUSH1 0x4 DUP1 CALLDATASIZE SUB DUP2 ADD SWAP1 PUSH2 0x34B SWAP2 SWAP1 PUSH2 0x242B JUMP JUMPDEST PUSH2 0x1318 JUMP JUMPDEST PUSH1 0x40 MLOAD PUSH2 0x35D SWAP2 SWAP1 PUSH2 0x2A39 JUMP JUMPDEST PUSH1 0x40 MLOAD DUP1 SWAP2 SUB SWAP1 RETURN JUMPDEST PUSH2 0x380 PUSH1 0x4 DUP1 CALLDATASIZE SUB DUP2 ADD SWAP1 PUSH2 0x37B SWAP2 SWAP1 PUSH2 0x257C JUMP JUMPDEST PUSH2 0x147E JUMP JUMPDEST PUSH1 0x40 MLOAD PUSH2 0x390 SWAP5 SWAP4 SWAP3 SWAP2 SWAP1 PUSH2 0x2725 JUMP JUMPDEST PUSH1 0x40 MLOAD DUP1 SWAP2 SUB SWAP1 RETURN JUMPDEST PUSH2 0x3A1 PUSH2 0x15EE JUMP JUMPDEST PUSH1 0x40 MLOAD PUSH2 0x3AE SWAP2 SWAP1 PUSH2 0x2467 JUMP JUMPDEST PUSH1 0x40 MLOAD DUP1 SWAP2 SUB SWAP1 RETURN JUMPDEST PUSH2 0x3D1 PUSH1 0x4 DUP1 CALLDATASIZE SUB DUP2 ADD SWAP1 PUSH2 0x3CC SWAP2 SWAP1 PUSH2 0x257C JUMP JUMPDEST PUSH2 0x1612 JUMP JUMPDEST PUSH1 0x40 MLOAD PUSH2 0x3E1 SWAP5 SWAP4 SWAP3 SWAP2 SWAP1 PUSH2 0x29ED JUMP JUMPDEST PUSH1 0x40 MLOAD DUP1 SWAP2 SUB SWAP1 RETURN JUMPDEST PUSH2 0x404 PUSH1 0x4 DUP1 CALLDATASIZE SUB DUP2 ADD SWAP1 PUSH2 0x3FF SWAP2 SWAP1 PUSH2 0x2A5B JUMP JUMPDEST PUSH2 0x171A JUMP JUMPDEST PUSH1 0x40 MLOAD PUSH2 0x414 SWAP5 SWAP4 SWAP3 SWAP2 SWAP1 PUSH2 0x29ED JUMP JUMPDEST PUSH1 0x40 MLOAD DUP1 SWAP2 SUB SWAP1 RETURN JUMPDEST PUSH2 0x437 PUSH1 0x4 DUP1 CALLDATASIZE SUB DUP2 ADD SWAP1 PUSH2 0x432 SWAP2 SWAP1 PUSH2 0x257C JUMP JUMPDEST PUSH2 0x182F JUMP JUMPDEST PUSH1 0x40 MLOAD PUSH2 0x447 SWAP5 SWAP4 SWAP3 SWAP2 SWAP1 PUSH2 0x29ED JUMP JUMPDEST PUSH1 0x40 MLOAD DUP1 SWAP2 SUB SWAP1 RETURN JUMPDEST PUSH2 0x46A PUSH1 0x4 DUP1 CALLDATASIZE SUB DUP2 ADD SWAP1 PUSH2 0x465 SWAP2 SWAP1 PUSH2 0x242B JUMP JUMPDEST PUSH2 0x1937 JUMP JUMPDEST PUSH1 0x40 MLOAD PUSH2 0x477 SWAP2 SWAP1 PUSH2 0x2A39 JUMP JUMPDEST PUSH1 0x40 MLOAD DUP1 SWAP2 SUB SWAP1 RETURN JUMPDEST PUSH2 0x49A PUSH1 0x4 DUP1 CALLDATASIZE SUB DUP2 ADD SWAP1 PUSH2 0x495 SWAP2 SWAP1 PUSH2 0x257C JUMP JUMPDEST PUSH2 0x19FB JUMP JUMPDEST PUSH1 0x40 MLOAD PUSH2 0x4A9 SWAP4 SWAP3 SWAP2 SWAP1 PUSH2 0x2A9B JUMP JUMPDEST PUSH1 0x40 MLOAD DUP1 SWAP2 SUB SWAP1 RETURN JUMPDEST PUSH2 0x4BA PUSH2 0x1ADD JUMP JUMPDEST PUSH1 0x40 MLOAD PUSH2 0x4C7 SWAP2 SWAP1 PUSH2 0x2BFE JUMP JUMPDEST PUSH1 0x40 MLOAD DUP1 SWAP2 SUB SWAP1 RETURN JUMPDEST PUSH2 0x4EA PUSH1 0x4 DUP1 CALLDATASIZE SUB DUP2 ADD SWAP1 PUSH2 0x4E5 SWAP2 SWAP1 PUSH2 0x2C20 JUMP JUMPDEST PUSH2 0x1C84 JUMP JUMPDEST STOP JUMPDEST PUSH2 0x4F5 DUP6 PUSH2 0x1318 JUMP JUMPDEST POP PUSH1 0x0 PUSH1 0x40 MLOAD DUP1 PUSH1 0xA0 ADD PUSH1 0x40 MSTORE DUP1 DUP7 DUP2 MSTORE PUSH1 0x20 ADD DUP8 PUSH20 0xFFFFFFFFFFFFFFFFFFFFFFFFFFFFFFFFFFFFFFFF AND DUP2 MSTORE PUSH1 0x20 ADD DUP6 DUP2 MSTORE PUSH1 0x20 ADD DUP5 DUP2 MSTORE PUSH1 0x20 ADD DUP4 DUP2 MSTORE POP SWAP1 POP PUSH1 0x7 PUSH1 0x0 DUP4 DUP2 MSTORE PUSH1 0x20 ADD SWAP1 DUP2 MSTORE PUSH1 0x20 ADD PUSH1 0x0 KECCAK256 DUP2 SWAP1 DUP1 PUSH1 0x1 DUP2 SLOAD ADD DUP1 DUP3 SSTORE DUP1 SWAP2 POP POP PUSH1 0x1 SWAP1 SUB SWAP1 PUSH1 0x0 MSTORE PUSH1 0x20 PUSH1 0x0 KECCAK256 SWAP1 PUSH1 0x5 MUL ADD PUSH1 0x0 SWAP1 SWAP2 SWAP1 SWAP2 SWAP1 SWAP2 POP PUSH1 0x0 DUP3 ADD MLOAD DUP2 PUSH1 0x0 ADD SSTORE PUSH1 0x20 DUP3 ADD MLOAD DUP2 PUSH1 0x1 ADD PUSH1 0x0 PUSH2 0x100 EXP DUP2 SLOAD DUP2 PUSH20 0xFFFFFFFFFFFFFFFFFFFFFFFFFFFFFFFFFFFFFFFF MUL NOT AND SWAP1 DUP4 PUSH20 0xFFFFFFFFFFFFFFFFFFFFFFFFFFFFFFFFFFFFFFFF AND MUL OR SWAP1 SSTORE POP PUSH1 0x40 DUP3 ADD MLOAD DUP2 PUSH1 0x2 ADD SWAP1 DUP2 PUSH2 0x5DA SWAP2 SWAP1 PUSH2 0x2E9B JUMP JUMPDEST POP PUSH1 0x60 DUP3 ADD MLOAD DUP2 PUSH1 0x3 ADD SWAP1 DUP2 PUSH2 0x5F0 SWAP2 SWAP1 PUSH2 0x2E9B JUMP JUMPDEST POP PUSH1 0x80 DUP3 ADD MLOAD DUP2 PUSH1 0x4 ADD SSTORE POP POP POP POP POP POP POP POP JUMP JUMPDEST PUSH1 0x60 PUSH1 0xB DUP1 SLOAD DUP1 PUSH1 0x20 MUL PUSH1 0x20 ADD PUSH1 0x40 MLOAD SWAP1 DUP2 ADD PUSH1 0x40 MSTORE DUP1 SWAP3 SWAP2 SWAP1 DUP2 DUP2 MSTORE PUSH1 0x20 ADD PUSH1 0x0 SWAP1 JUMPDEST DUP3 DUP3 LT ISZERO PUSH2 0x74D JUMPI DUP4 DUP3 SWAP1 PUSH1 0x0 MSTORE PUSH1 0x20 PUSH1 0x0 KECCAK256 SWAP1 PUSH1 0x3 MUL ADD PUSH1 0x40 MLOAD DUP1 PUSH1 0x60 ADD PUSH1 0x40 MSTORE SWAP1 DUP2 PUSH1 0x0 DUP3 ADD SLOAD DUP2 MSTORE PUSH1 0x20 ADD PUSH1 0x1 DUP3 ADD DUP1 SLOAD PUSH2 0x666 SWAP1 PUSH2 0x2CBE JUMP JUMPDEST DUP1 PUSH1 0x1F ADD PUSH1 0x20 DUP1 SWAP2 DIV MUL PUSH1 0x20 ADD PUSH1 0x40 MLOAD SWAP1 DUP2 ADD PUSH1 0x40 MSTORE DUP1 SWAP3 SWAP2 SWAP1 DUP2 DUP2 MSTORE PUSH1 0x20 ADD DUP3 DUP1 SLOAD PUSH2 0x692 SWAP1 PUSH2 0x2CBE JUMP JUMPDEST DUP1 ISZERO PUSH2 0x6DF JUMPI DUP1 PUSH1 0x1F LT PUSH2 0x6B4 JUMPI PUSH2 0x100 DUP1 DUP4 SLOAD DIV MUL DUP4 MSTORE SWAP2 PUSH1 0x20 ADD SWAP2 PUSH2 0x6DF JUMP JUMPDEST DUP3 ADD SWAP2 SWAP1 PUSH1 0x0 MSTORE PUSH1 0x20 PUSH1 0x0 KECCAK256 SWAP1 JUMPDEST DUP2 SLOAD DUP2 MSTORE SWAP1 PUSH1 0x1 ADD SWAP1 PUSH1 0x20 ADD DUP1 DUP4 GT PUSH2 0x6C2 JUMPI DUP3 SWAP1 SUB PUSH1 0x1F AND DUP3 ADD SWAP2 JUMPDEST POP POP POP POP POP DUP2 MSTORE PUSH1 0x20 ADD PUSH1 0x2 DUP3 ADD PUSH1 0x0 SWAP1 SLOAD SWAP1 PUSH2 0x100 EXP SWAP1 DIV PUSH20 0xFFFFFFFFFFFFFFFFFFFFFFFFFFFFFFFFFFFFFFFF AND PUSH20 0xFFFFFFFFFFFFFFFFFFFFFFFFFFFFFFFFFFFFFFFF AND PUSH20 0xFFFFFFFFFFFFFFFFFFFFFFFFFFFFFFFFFFFFFFFF AND DUP2 MSTORE POP POP DUP2 MSTORE PUSH1 0x20 ADD SWAP1 PUSH1 0x1 ADD SWAP1 PUSH2 0x629 JUMP JUMPDEST POP POP POP POP SWAP1 POP SWAP1 JUMP JUMPDEST PUSH1 0x5 PUSH1 0x20 MSTORE DUP1 PUSH1 0x0 MSTORE PUSH1 0x40 PUSH1 0x0 KECCAK256 PUSH1 0x0 SWAP2 POP SLOAD SWAP1 PUSH2 0x100 EXP SWAP1 DIV PUSH20 0xFFFFFFFFFFFFFFFFFFFFFFFFFFFFFFFFFFFFFFFF AND DUP2 JUMP JUMPDEST PUSH1 0x7 PUSH1 0x20 MSTORE DUP2 PUSH1 0x0 MSTORE PUSH1 0x40 PUSH1 0x0 KECCAK256 DUP2 DUP2 SLOAD DUP2 LT PUSH2 0x7A5 JUMPI PUSH1 0x0 DUP1 REVERT JUMPDEST SWAP1 PUSH1 0x0 MSTORE PUSH1 0x20 PUSH1 0x0 KECCAK256 SWAP1 PUSH1 0x5 MUL ADD PUSH1 0x0 SWAP2 POP SWAP2 POP POP DUP1 PUSH1 0x0 ADD SLOAD SWAP1 DUP1 PUSH1 0x1 ADD PUSH1 0x0 SWAP1 SLOAD SWAP1 PUSH2 0x100 EXP SWAP1 DIV PUSH20 0xFFFFFFFFFFFFFFFFFFFFFFFFFFFFFFFFFFFFFFFF AND SWAP1 DUP1 PUSH1 0x2 ADD DUP1 SLOAD PUSH2 0x7F5 SWAP1 PUSH2 0x2CBE JUMP JUMPDEST DUP1 PUSH1 0x1F ADD PUSH1 0x20 DUP1 SWAP2 DIV MUL PUSH1 0x20 ADD PUSH1 0x40 MLOAD SWAP1 DUP2 ADD PUSH1 0x40 MSTORE DUP1 SWAP3 SWAP2 SWAP1 DUP2 DUP2 MSTORE PUSH1 0x20 ADD DUP3 DUP1 SLOAD PUSH2 0x821 SWAP1 PUSH2 0x2CBE JUMP JUMPDEST DUP1 ISZERO PUSH2 0x86E JUMPI DUP1 PUSH1 0x1F LT PUSH2 0x843 JUMPI PUSH2 0x100 DUP1 DUP4 SLOAD DIV MUL DUP4 MSTORE SWAP2 PUSH1 0x20 ADD SWAP2 PUSH2 0x86E JUMP JUMPDEST DUP3 ADD SWAP2 SWAP1 PUSH1 0x0 MSTORE PUSH1 0x20 PUSH1 0x0 KECCAK256 SWAP1 JUMPDEST DUP2 SLOAD DUP2 MSTORE SWAP1 PUSH1 0x1 ADD SWAP1 PUSH1 0x20 ADD DUP1 DUP4 GT PUSH2 0x851 JUMPI DUP3 SWAP1 SUB PUSH1 0x1F AND DUP3 ADD SWAP2 JUMPDEST POP POP POP POP POP SWAP1 DUP1 PUSH1 0x3 ADD DUP1 SLOAD PUSH2 0x883 SWAP1 PUSH2 0x2CBE JUMP JUMPDEST DUP1 PUSH1 0x1F ADD PUSH1 0x20 DUP1 SWAP2 DIV MUL PUSH1 0x20 ADD PUSH1 0x40 MLOAD SWAP1 DUP2 ADD PUSH1 0x40 MSTORE DUP1 SWAP3 SWAP2 SWAP1 DUP2 DUP2 MSTORE PUSH1 0x20 ADD DUP3 DUP1 SLOAD PUSH2 0x8AF SWAP1 PUSH2 0x2CBE JUMP JUMPDEST DUP1 ISZERO PUSH2 0x8FC JUMPI DUP1 PUSH1 0x1F LT PUSH2 0x8D1 JUMPI PUSH2 0x100 DUP1 DUP4 SLOAD DIV MUL DUP4 MSTORE SWAP2 PUSH1 0x20 ADD SWAP2 PUSH2 0x8FC JUMP JUMPDEST DUP3 ADD SWAP2 SWAP1 PUSH1 0x0 MSTORE PUSH1 0x20 PUSH1 0x0 KECCAK256 SWAP1 JUMPDEST DUP2 SLOAD DUP2 MSTORE SWAP1 PUSH1 0x1 ADD SWAP1 PUSH1 0x20 ADD DUP1 DUP4 GT PUSH2 0x8DF JUMPI DUP3 SWAP1 SUB PUSH1 0x1F AND DUP3 ADD SWAP2 JUMPDEST POP POP POP POP POP SWAP1 DUP1 PUSH1 0x4 ADD SLOAD SWAP1 POP DUP6 JUMP JUMPDEST PUSH1 0x60 PUSH1 0x7 PUSH1 0x0 DUP4 DUP2 MSTORE PUSH1 0x20 ADD SWAP1 DUP2 MSTORE PUSH1 0x20 ADD PUSH1 0x0 KECCAK256 DUP1 SLOAD DUP1 PUSH1 0x20 MUL PUSH1 0x20 ADD PUSH1 0x40 MLOAD SWAP1 DUP2 ADD PUSH1 0x40 MSTORE DUP1 SWAP3 SWAP2 SWAP1 DUP2 DUP2 MSTORE PUSH1 0x20 ADD PUSH1 0x0 SWAP1 JUMPDEST DUP3 DUP3 LT ISZERO PUSH2 0xB01 JUMPI DUP4 DUP3 SWAP1 PUSH1 0x0 MSTORE PUSH1 0x20 PUSH1 0x0 KECCAK256 SWAP1 PUSH1 0x5 MUL ADD PUSH1 0x40 MLOAD DUP1 PUSH1 0xA0 ADD PUSH1 0x40 MSTORE SWAP1 DUP2 PUSH1 0x0 DUP3 ADD SLOAD DUP2 MSTORE PUSH1 0x20 ADD PUSH1 0x1 DUP3 ADD PUSH1 0x0 SWAP1 SLOAD SWAP1 PUSH2 0x100 EXP SWAP1 DIV PUSH20 0xFFFFFFFFFFFFFFFFFFFFFFFFFFFFFFFFFFFFFFFF AND PUSH20 0xFFFFFFFFFFFFFFFFFFFFFFFFFFFFFFFFFFFFFFFF AND PUSH20 0xFFFFFFFFFFFFFFFFFFFFFFFFFFFFFFFFFFFFFFFF AND DUP2 MSTORE PUSH1 0x20 ADD PUSH1 0x2 DUP3 ADD DUP1 SLOAD PUSH2 0x9D4 SWAP1 PUSH2 0x2CBE JUMP JUMPDEST DUP1 PUSH1 0x1F ADD PUSH1 0x20 DUP1 SWAP2 DIV MUL PUSH1 0x20 ADD PUSH1 0x40 MLOAD SWAP1 DUP2 ADD PUSH1 0x40 MSTORE DUP1 SWAP3 SWAP2 SWAP1 DUP2 DUP2 MSTORE PUSH1 0x20 ADD DUP3 DUP1 SLOAD PUSH2 0xA00 SWAP1 PUSH2 0x2CBE JUMP JUMPDEST DUP1 ISZERO PUSH2 0xA4D JUMPI DUP1 PUSH1 0x1F LT PUSH2 0xA22 JUMPI PUSH2 0x100 DUP1 DUP4 SLOAD DIV MUL DUP4 MSTORE SWAP2 PUSH1 0x20 ADD SWAP2 PUSH2 0xA4D JUMP JUMPDEST DUP3 ADD SWAP2 SWAP1 PUSH1 0x0 MSTORE PUSH1 0x20 PUSH1 0x0 KECCAK256 SWAP1 JUMPDEST DUP2 SLOAD DUP2 MSTORE SWAP1 PUSH1 0x1 ADD SWAP1 PUSH1 0x20 ADD DUP1 DUP4 GT PUSH2 0xA30 JUMPI DUP3 SWAP1 SUB PUSH1 0x1F AND DUP3 ADD SWAP2 JUMPDEST POP POP POP POP POP DUP2 MSTORE PUSH1 0x20 ADD PUSH1 0x3 DUP3 ADD DUP1 SLOAD PUSH2 0xA66 SWAP1 PUSH2 0x2CBE JUMP JUMPDEST DUP1 PUSH1 0x1F ADD PUSH1 0x20 DUP1 SWAP2 DIV MUL PUSH1 0x20 ADD PUSH1 0x40 MLOAD SWAP1 DUP2 ADD PUSH1 0x40 MSTORE DUP1 SWAP3 SWAP2 SWAP1 DUP2 DUP2 MSTORE PUSH1 0x20 ADD DUP3 DUP1 SLOAD PUSH2 0xA92 SWAP1 PUSH2 0x2CBE JUMP JUMPDEST DUP1 ISZERO PUSH2 0xADF JUMPI DUP1 PUSH1 0x1F LT PUSH2 0xAB4 JUMPI PUSH2 0x100 DUP1 DUP4 SLOAD DIV MUL DUP4 MSTORE SWAP2 PUSH1 0x20 ADD SWAP2 PUSH2 0xADF JUMP JUMPDEST DUP3 ADD SWAP2 SWAP1 PUSH1 0x0 MSTORE PUSH1 0x20 PUSH1 0x0 KECCAK256 SWAP1 JUMPDEST DUP2 SLOAD DUP2 MSTORE SWAP1 PUSH1 0x1 ADD SWAP1 PUSH1 0x20 ADD DUP1 DUP4 GT PUSH2 0xAC2 JUMPI DUP3 SWAP1 SUB PUSH1 0x1F AND DUP3 ADD SWAP2 JUMPDEST POP POP POP POP POP DUP2 MSTORE PUSH1 0x20 ADD PUSH1 0x4 DUP3 ADD SLOAD DUP2 MSTORE POP POP DUP2 MSTORE PUSH1 0x20 ADD SWAP1 PUSH1 0x1 ADD SWAP1 PUSH2 0x941 JUMP JUMPDEST POP POP POP POP SWAP1 POP SWAP2 SWAP1 POP JUMP JUMPDEST PUSH1 0x2 SLOAD DUP2 JUMP JUMPDEST PUSH1 0x3 PUSH1 0x20 MSTORE DUP1 PUSH1 0x0 MSTORE PUSH1 0x40 PUSH1 0x0 KECCAK256 PUSH1 0x0 SWAP2 POP SWAP1 POP DUP1 PUSH1 0x0 ADD SLOAD SWAP1 DUP1 PUSH1 0x1 ADD PUSH1 0x0 SWAP1 SLOAD SWAP1 PUSH2 0x100 EXP SWAP1 DIV PUSH20 0xFFFFFFFFFFFFFFFFFFFFFFFFFFFFFFFFFFFFFFFF AND SWAP1 DUP1 PUSH1 0x2 ADD DUP1 SLOAD PUSH2 0xB61 SWAP1 PUSH2 0x2CBE JUMP JUMPDEST DUP1 PUSH1 0x1F ADD PUSH1 0x20 DUP1 SWAP2 DIV MUL PUSH1 0x20 ADD PUSH1 0x40 MLOAD SWAP1 DUP2 ADD PUSH1 0x40 MSTORE DUP1 SWAP3 SWAP2 SWAP1 DUP2 DUP2 MSTORE PUSH1 0x20 ADD DUP3 DUP1 SLOAD PUSH2 0xB8D SWAP1 PUSH2 0x2CBE JUMP JUMPDEST DUP1 ISZERO PUSH2 0xBDA JUMPI DUP1 PUSH1 0x1F LT PUSH2 0xBAF JUMPI PUSH2 0x100 DUP1 DUP4 SLOAD DIV MUL DUP4 MSTORE SWAP2 PUSH1 0x20 ADD SWAP2 PUSH2 0xBDA JUMP JUMPDEST DUP3 ADD SWAP2 SWAP1 PUSH1 0x0 MSTORE PUSH1 0x20 PUSH1 0x0 KECCAK256 SWAP1 JUMPDEST DUP2 SLOAD DUP2 MSTORE SWAP1 PUSH1 0x1 ADD SWAP1 PUSH1 0x20 ADD DUP1 DUP4 GT PUSH2 0xBBD JUMPI DUP3 SWAP1 SUB PUSH1 0x1F AND DUP3 ADD SWAP2 JUMPDEST POP POP POP POP POP SWAP1 DUP1 PUSH1 0x3 ADD DUP1 SLOAD PUSH2 0xBEF SWAP1 PUSH2 0x2CBE JUMP JUMPDEST DUP1 PUSH1 0x1F ADD PUSH1 0x20 DUP1 SWAP2 DIV MUL PUSH1 0x20 ADD PUSH1 0x40 MLOAD SWAP1 DUP2 ADD PUSH1 0x40 MSTORE DUP1 SWAP3 SWAP2 SWAP1 DUP2 DUP2 MSTORE PUSH1 0x20 ADD DUP3 DUP1 SLOAD PUSH2 0xC1B SWAP1 PUSH2 0x2CBE JUMP JUMPDEST DUP1 ISZERO PUSH2 0xC68 JUMPI DUP1 PUSH1 0x1F LT PUSH2 0xC3D JUMPI PUSH2 0x100 DUP1 DUP4 SLOAD DIV MUL DUP4 MSTORE SWAP2 PUSH1 0x20 ADD SWAP2 PUSH2 0xC68 JUMP JUMPDEST DUP3 ADD SWAP2 SWAP1 PUSH1 0x0 MSTORE PUSH1 0x20 PUSH1 0x0 KECCAK256 SWAP1 JUMPDEST DUP2 SLOAD DUP2 MSTORE SWAP1 PUSH1 0x1 ADD SWAP1 PUSH1 0x20 ADD DUP1 DUP4 GT PUSH2 0xC4B JUMPI DUP3 SWAP1 SUB PUSH1 0x1F AND DUP3 ADD SWAP2 JUMPDEST POP POP POP POP POP SWAP1 POP DUP5 JUMP JUMPDEST PUSH1 0x1 SLOAD DUP2 JUMP JUMPDEST PUSH2 0xC80 PUSH2 0x124D JUMP JUMPDEST POP PUSH1 0x0 PUSH1 0x40 MLOAD DUP1 PUSH1 0x80 ADD PUSH1 0x40 MSTORE DUP1 PUSH1 0x1 DUP1 SLOAD PUSH2 0xC9C SWAP2 SWAP1 PUSH2 0x2F9C JUMP JUMPDEST DUP2 MSTORE PUSH1 0x20 ADD DUP4 PUSH20 0xFFFFFFFFFFFFFFFFFFFFFFFFFFFFFFFFFFFFFFFF AND DUP2 MSTORE PUSH1 0x20 ADD DUP6 DUP2 MSTORE PUSH1 0x20 ADD DUP5 DUP2 MSTORE POP SWAP1 POP DUP1 PUSH1 0x3 PUSH1 0x0 DUP5 PUSH20 0xFFFFFFFFFFFFFFFFFFFFFFFFFFFFFFFFFFFFFFFF AND PUSH20 0xFFFFFFFFFFFFFFFFFFFFFFFFFFFFFFFFFFFFFFFF AND DUP2 MSTORE PUSH1 0x20 ADD SWAP1 DUP2 MSTORE PUSH1 0x20 ADD PUSH1 0x0 KECCAK256 PUSH1 0x0 DUP3 ADD MLOAD DUP2 PUSH1 0x0 ADD SSTORE PUSH1 0x20 DUP3 ADD MLOAD DUP2 PUSH1 0x1 ADD PUSH1 0x0 PUSH2 0x100 EXP DUP2 SLOAD DUP2 PUSH20 0xFFFFFFFFFFFFFFFFFFFFFFFFFFFFFFFFFFFFFFFF MUL NOT AND SWAP1 DUP4 PUSH20 0xFFFFFFFFFFFFFFFFFFFFFFFFFFFFFFFFFFFFFFFF AND MUL OR SWAP1 SSTORE POP PUSH1 0x40 DUP3 ADD MLOAD DUP2 PUSH1 0x2 ADD SWAP1 DUP2 PUSH2 0xD6F SWAP2 SWAP1 PUSH2 0x2E9B JUMP JUMPDEST POP PUSH1 0x60 DUP3 ADD MLOAD DUP2 PUSH1 0x3 ADD SWAP1 DUP2 PUSH2 0xD85 SWAP2 SWAP1 PUSH2 0x2E9B JUMP JUMPDEST POP SWAP1 POP POP PUSH1 0x8 DUP2 SWAP1 DUP1 PUSH1 0x1 DUP2 SLOAD ADD DUP1 DUP3 SSTORE DUP1 SWAP2 POP POP PUSH1 0x1 SWAP1 SUB SWAP1 PUSH1 0x0 MSTORE PUSH1 0x20 PUSH1 0x0 KECCAK256 SWAP1 PUSH1 0x4 MUL ADD PUSH1 0x0 SWAP1 SWAP2 SWAP1 SWAP2 SWAP1 SWAP2 POP PUSH1 0x0 DUP3 ADD MLOAD DUP2 PUSH1 0x0 ADD SSTORE PUSH1 0x20 DUP3 ADD MLOAD DUP2 PUSH1 0x1 ADD PUSH1 0x0 PUSH2 0x100 EXP DUP2 SLOAD DUP2 PUSH20 0xFFFFFFFFFFFFFFFFFFFFFFFFFFFFFFFFFFFFFFFF MUL NOT AND SWAP1 DUP4 PUSH20 0xFFFFFFFFFFFFFFFFFFFFFFFFFFFFFFFFFFFFFFFF AND MUL OR SWAP1 SSTORE POP PUSH1 0x40 DUP3 ADD MLOAD DUP2 PUSH1 0x2 ADD SWAP1 DUP2 PUSH2 0xE1B SWAP2 SWAP1 PUSH2 0x2E9B JUMP JUMPDEST POP PUSH1 0x60 DUP3 ADD MLOAD DUP2 PUSH1 0x3 ADD SWAP1 DUP2 PUSH2 0xE31 SWAP2 SWAP1 PUSH2 0x2E9B JUMP JUMPDEST POP POP POP PUSH1 0x1 PUSH1 0x0 DUP2 SLOAD DUP1 SWAP3 SWAP2 SWAP1 PUSH2 0xE47 SWAP1 PUSH2 0x2FD0 JUMP JUMPDEST SWAP2 SWAP1 POP SSTORE POP PUSH32 0x68F068B2F0D02FCA99BC8285B62FCE8668FE16B7C6A810351EA25BFF358C0DD8 PUSH1 0x40 MLOAD PUSH2 0xE79 SWAP1 PUSH2 0x3064 JUMP JUMPDEST PUSH1 0x40 MLOAD DUP1 SWAP2 SUB SWAP1 LOG1 POP POP POP POP JUMP JUMPDEST PUSH1 0x60 PUSH1 0x8 DUP1 SLOAD DUP1 PUSH1 0x20 MUL PUSH1 0x20 ADD PUSH1 0x40 MLOAD SWAP1 DUP2 ADD PUSH1 0x40 MSTORE DUP1 SWAP3 SWAP2 SWAP1 DUP2 DUP2 MSTORE PUSH1 0x20 ADD PUSH1 0x0 SWAP1 JUMPDEST DUP3 DUP3 LT ISZERO PUSH2 0x1061 JUMPI DUP4 DUP3 SWAP1 PUSH1 0x0 MSTORE PUSH1 0x20 PUSH1 0x0 KECCAK256 SWAP1 PUSH1 0x4 MUL ADD PUSH1 0x40 MLOAD DUP1 PUSH1 0x80 ADD PUSH1 0x40 MSTORE SWAP1 DUP2 PUSH1 0x0 DUP3 ADD SLOAD DUP2 MSTORE PUSH1 0x20 ADD PUSH1 0x1 DUP3 ADD PUSH1 0x0 SWAP1 SLOAD SWAP1 PUSH2 0x100 EXP SWAP1 DIV PUSH20 0xFFFFFFFFFFFFFFFFFFFFFFFFFFFFFFFFFFFFFFFF AND PUSH20 0xFFFFFFFFFFFFFFFFFFFFFFFFFFFFFFFFFFFFFFFF AND PUSH20 0xFFFFFFFFFFFFFFFFFFFFFFFFFFFFFFFFFFFFFFFF AND DUP2 MSTORE PUSH1 0x20 ADD PUSH1 0x2 DUP3 ADD DUP1 SLOAD PUSH2 0xF3E SWAP1 PUSH2 0x2CBE JUMP JUMPDEST DUP1 PUSH1 0x1F ADD PUSH1 0x20 DUP1 SWAP2 DIV MUL PUSH1 0x20 ADD PUSH1 0x40 MLOAD SWAP1 DUP2 ADD PUSH1 0x40 MSTORE DUP1 SWAP3 SWAP2 SWAP1 DUP2 DUP2 MSTORE PUSH1 0x20 ADD DUP3 DUP1 SLOAD PUSH2 0xF6A SWAP1 PUSH2 0x2CBE JUMP JUMPDEST DUP1 ISZERO PUSH2 0xFB7 JUMPI DUP1 PUSH1 0x1F LT PUSH2 0xF8C JUMPI PUSH2 0x100 DUP1 DUP4 SLOAD DIV MUL DUP4 MSTORE SWAP2 PUSH1 0x20 ADD SWAP2 PUSH2 0xFB7 JUMP JUMPDEST DUP3 ADD SWAP2 SWAP1 PUSH1 0x0 MSTORE PUSH1 0x20 PUSH1 0x0 KECCAK256 SWAP1 JUMPDEST DUP2 SLOAD DUP2 MSTORE SWAP1 PUSH1 0x1 ADD SWAP1 PUSH1 0x20 ADD DUP1 DUP4 GT PUSH2 0xF9A JUMPI DUP3 SWAP1 SUB PUSH1 0x1F AND DUP3 ADD SWAP2 JUMPDEST POP POP POP POP POP DUP2 MSTORE PUSH1 0x20 ADD PUSH1 0x3 DUP3 ADD DUP1 SLOAD PUSH2 0xFD0 SWAP1 PUSH2 0x2CBE JUMP JUMPDEST DUP1 PUSH1 0x1F ADD PUSH1 0x20 DUP1 SWAP2 DIV MUL PUSH1 0x20 ADD PUSH1 0x40 MLOAD SWAP1 DUP2 ADD PUSH1 0x40 MSTORE DUP1 SWAP3 SWAP2 SWAP1 DUP2 DUP2 MSTORE PUSH1 0x20 ADD DUP3 DUP1 SLOAD PUSH2 0xFFC SWAP1 PUSH2 0x2CBE JUMP JUMPDEST DUP1 ISZERO PUSH2 0x1049 JUMPI DUP1 PUSH1 0x1F LT PUSH2 0x101E JUMPI PUSH2 0x100 DUP1 DUP4 SLOAD DIV MUL DUP4 MSTORE SWAP2 PUSH1 0x20 ADD SWAP2 PUSH2 0x1049 JUMP JUMPDEST DUP3 ADD SWAP2 SWAP1 PUSH1 0x0 MSTORE PUSH1 0x20 PUSH1 0x0 KECCAK256 SWAP1 JUMPDEST DUP2 SLOAD DUP2 MSTORE SWAP1 PUSH1 0x1 ADD SWAP1 PUSH1 0x20 ADD DUP1 DUP4 GT PUSH2 0x102C JUMPI DUP3 SWAP1 SUB PUSH1 0x1F AND DUP3 ADD SWAP2 JUMPDEST POP POP POP POP POP DUP2 MSTORE POP POP DUP2 MSTORE PUSH1 0x20 ADD SWAP1 PUSH1 0x1 ADD SWAP1 PUSH2 0xEAB JUMP JUMPDEST POP POP POP POP SWAP1 POP SWAP1 JUMP JUMPDEST PUSH2 0x1073 DUP2 PUSH2 0x1318 JUMP JUMPDEST POP PUSH1 0x0 PUSH1 0x40 MLOAD DUP1 PUSH1 0x60 ADD PUSH1 0x40 MSTORE DUP1 PUSH1 0xB DUP1 SLOAD SWAP1 POP DUP2 MSTORE PUSH1 0x20 ADD DUP5 DUP2 MSTORE PUSH1 0x20 ADD DUP4 PUSH20 0xFFFFFFFFFFFFFFFFFFFFFFFFFFFFFFFFFFFFFFFF AND DUP2 MSTORE POP SWAP1 POP PUSH1 0xB DUP2 SWAP1 DUP1 PUSH1 0x1 DUP2 SLOAD ADD DUP1 DUP3 SSTORE DUP1 SWAP2 POP POP PUSH1 0x1 SWAP1 SUB SWAP1 PUSH1 0x0 MSTORE PUSH1 0x20 PUSH1 0x0 KECCAK256 SWAP1 PUSH1 0x3 MUL ADD PUSH1 0x0 SWAP1 SWAP2 SWAP1 SWAP2 SWAP1 SWAP2 POP PUSH1 0x0 DUP3 ADD MLOAD DUP2 PUSH1 0x0 ADD SSTORE PUSH1 0x20 DUP3 ADD MLOAD DUP2 PUSH1 0x1 ADD SWAP1 DUP2 PUSH2 0x10F9 SWAP2 SWAP1 PUSH2 0x2E9B JUMP JUMPDEST POP PUSH1 0x40 DUP3 ADD MLOAD DUP2 PUSH1 0x2 ADD PUSH1 0x0 PUSH2 0x100 EXP DUP2 SLOAD DUP2 PUSH20 0xFFFFFFFFFFFFFFFFFFFFFFFFFFFFFFFFFFFFFFFF MUL NOT AND SWAP1 DUP4 PUSH20 0xFFFFFFFFFFFFFFFFFFFFFFFFFFFFFFFFFFFFFFFF AND MUL OR SWAP1 SSTORE POP POP POP POP POP POP JUMP JUMPDEST PUSH1 0x4 PUSH1 0x20 MSTORE DUP2 PUSH1 0x0 MSTORE PUSH1 0x40 PUSH1 0x0 KECCAK256 PUSH1 0x20 MSTORE DUP1 PUSH1 0x0 MSTORE PUSH1 0x40 PUSH1 0x0 KECCAK256 PUSH1 0x0 SWAP2 POP SWAP2 POP POP DUP1 PUSH1 0x0 ADD SLOAD SWAP1 DUP1 PUSH1 0x1 ADD PUSH1 0x0 SWAP1 SLOAD SWAP1 PUSH2 0x100 EXP SWAP1 DIV PUSH20 0xFFFFFFFFFFFFFFFFFFFFFFFFFFFFFFFFFFFFFFFF AND SWAP1 DUP1 PUSH1 0x2 ADD DUP1 SLOAD PUSH2 0x11A4 SWAP1 PUSH2 0x2CBE JUMP JUMPDEST DUP1 PUSH1 0x1F ADD PUSH1 0x20 DUP1 SWAP2 DIV MUL PUSH1 0x20 ADD PUSH1 0x40 MLOAD SWAP1 DUP2 ADD PUSH1 0x40 MSTORE DUP1 SWAP3 SWAP2 SWAP1 DUP2 DUP2 MSTORE PUSH1 0x20 ADD DUP3 DUP1 SLOAD PUSH2 0x11D0 SWAP1 PUSH2 0x2CBE JUMP JUMPDEST DUP1 ISZERO PUSH2 0x121D JUMPI DUP1 PUSH1 0x1F LT PUSH2 0x11F2 JUMPI PUSH2 0x100 DUP1 DUP4 SLOAD DIV MUL DUP4 MSTORE SWAP2 PUSH1 0x20 ADD SWAP2 PUSH2 0x121D JUMP JUMPDEST DUP3 ADD SWAP2 SWAP1 PUSH1 0x0 MSTORE PUSH1 0x20 PUSH1 0x0 KECCAK256 SWAP1 JUMPDEST DUP2 SLOAD DUP2 MSTORE SWAP1 PUSH1 0x1 ADD SWAP1 PUSH1 0x20 ADD DUP1 DUP4 GT PUSH2 0x1200 JUMPI DUP3 SWAP1 SUB PUSH1 0x1F AND DUP3 ADD SWAP2 JUMPDEST POP POP POP POP POP SWAP1 DUP1 PUSH1 0x3 ADD PUSH1 0x0 SWAP1 SLOAD SWAP1 PUSH2 0x100 EXP SWAP1 DIV PUSH20 0xFFFFFFFFFFFFFFFFFFFFFFFFFFFFFFFFFFFFFFFF AND SWAP1 POP DUP5 JUMP JUMPDEST PUSH1 0x60 PUSH1 0x0 DUP1 SLOAD SWAP1 PUSH2 0x100 EXP SWAP1 DIV PUSH20 0xFFFFFFFFFFFFFFFFFFFFFFFFFFFFFFFFFFFFFFFF AND PUSH20 0xFFFFFFFFFFFFFFFFFFFFFFFFFFFFFFFFFFFFFFFF AND CALLER PUSH20 0xFFFFFFFFFFFFFFFFFFFFFFFFFFFFFFFFFFFFFFFF AND EQ PUSH2 0x12DD JUMPI PUSH1 0x40 MLOAD PUSH32 0x8C379A000000000000000000000000000000000000000000000000000000000 DUP2 MSTORE PUSH1 0x4 ADD PUSH2 0x12D4 SWAP1 PUSH2 0x30D0 JUMP JUMPDEST PUSH1 0x40 MLOAD DUP1 SWAP2 SUB SWAP1 REVERT JUMPDEST PUSH1 0x40 MLOAD DUP1 PUSH1 0x40 ADD PUSH1 0x40 MSTORE DUP1 PUSH1 0x4 DUP2 MSTORE PUSH1 0x20 ADD PUSH32 0x7472756500000000000000000000000000000000000000000000000000000000 DUP2 MSTORE POP SWAP1 POP SWAP1 JUMP JUMPDEST PUSH1 0x60 PUSH1 0x0 PUSH1 0x5 PUSH1 0x0 DUP5 PUSH20 0xFFFFFFFFFFFFFFFFFFFFFFFFFFFFFFFFFFFFFFFF AND PUSH20 0xFFFFFFFFFFFFFFFFFFFFFFFFFFFFFFFFFFFFFFFF AND DUP2 MSTORE PUSH1 0x20 ADD SWAP1 DUP2 MSTORE PUSH1 0x20 ADD PUSH1 0x0 KECCAK256 PUSH1 0x0 SWAP1 SLOAD SWAP1 PUSH2 0x100 EXP SWAP1 DIV PUSH20 0xFFFFFFFFFFFFFFFFFFFFFFFFFFFFFFFFFFFFFFFF AND SWAP1 POP PUSH1 0x0 PUSH1 0x4 PUSH1 0x0 DUP4 PUSH20 0xFFFFFFFFFFFFFFFFFFFFFFFFFFFFFFFFFFFFFFFF AND PUSH20 0xFFFFFFFFFFFFFFFFFFFFFFFFFFFFFFFFFFFFFFFF AND DUP2 MSTORE PUSH1 0x20 ADD SWAP1 DUP2 MSTORE PUSH1 0x20 ADD PUSH1 0x0 KECCAK256 PUSH1 0x0 DUP6 PUSH20 0xFFFFFFFFFFFFFFFFFFFFFFFFFFFFFFFFFFFFFFFF AND PUSH20 0xFFFFFFFFFFFFFFFFFFFFFFFFFFFFFFFFFFFFFFFF AND DUP2 MSTORE PUSH1 0x20 ADD SWAP1 DUP2 MSTORE PUSH1 0x20 ADD PUSH1 0x0 KECCAK256 PUSH1 0x0 ADD SLOAD SUB PUSH2 0x1440 JUMPI PUSH1 0x40 MLOAD PUSH32 0x8C379A000000000000000000000000000000000000000000000000000000000 DUP2 MSTORE PUSH1 0x4 ADD PUSH2 0x1437 SWAP1 PUSH2 0x30D0 JUMP JUMPDEST PUSH1 0x40 MLOAD DUP1 SWAP2 SUB SWAP1 REVERT JUMPDEST PUSH1 0x40 MLOAD DUP1 PUSH1 0x40 ADD PUSH1 0x40 MSTORE DUP1 PUSH1 0x4 DUP2 MSTORE PUSH1 0x20 ADD PUSH32 0x7472756500000000000000000000000000000000000000000000000000000000 DUP2 MSTORE POP SWAP2 POP POP SWAP2 SWAP1 POP JUMP JUMPDEST PUSH1 0x8 DUP2 DUP2 SLOAD DUP2 LT PUSH2 0x148E JUMPI PUSH1 0x0 DUP1 REVERT JUMPDEST SWAP1 PUSH1 0x0 MSTORE PUSH1 0x20 PUSH1 0x0 KECCAK256 SWAP1 PUSH1 0x4 MUL ADD PUSH1 0x0 SWAP2 POP SWAP1 POP DUP1 PUSH1 0x0 ADD SLOAD SWAP1 DUP1 PUSH1 0x1 ADD PUSH1 0x0 SWAP1 SLOAD SWAP1 PUSH2 0x100 EXP SWAP1 DIV PUSH20 0xFFFFFFFFFFFFFFFFFFFFFFFFFFFFFFFFFFFFFFFF AND SWAP1 DUP1 PUSH1 0x2 ADD DUP1 SLOAD PUSH2 0x14DD SWAP1 PUSH2 0x2CBE JUMP JUMPDEST DUP1 PUSH1 0x1F ADD PUSH1 0x20 DUP1 SWAP2 DIV MUL PUSH1 0x20 ADD PUSH1 0x40 MLOAD SWAP1 DUP2 ADD PUSH1 0x40 MSTORE DUP1 SWAP3 SWAP2 SWAP1 DUP2 DUP2 MSTORE PUSH1 0x20 ADD DUP3 DUP1 SLOAD PUSH2 0x1509 SWAP1 PUSH2 0x2CBE JUMP JUMPDEST DUP1 ISZERO PUSH2 0x1556 JUMPI DUP1 PUSH1 0x1F LT PUSH2 0x152B JUMPI PUSH2 0x100 DUP1 DUP4 SLOAD DIV MUL DUP4 MSTORE SWAP2 PUSH1 0x20 ADD SWAP2 PUSH2 0x1556 JUMP JUMPDEST DUP3 ADD SWAP2 SWAP1 PUSH1 0x0 MSTORE PUSH1 0x20 PUSH1 0x0 KECCAK256 SWAP1 JUMPDEST DUP2 SLOAD DUP2 MSTORE SWAP1 PUSH1 0x1 ADD SWAP1 PUSH1 0x20 ADD DUP1 DUP4 GT PUSH2 0x1539 JUMPI DUP3 SWAP1 SUB PUSH1 0x1F AND DUP3 ADD SWAP2 JUMPDEST POP POP POP POP POP SWAP1 DUP1 PUSH1 0x3 ADD DUP1 SLOAD PUSH2 0x156B SWAP1 PUSH2 0x2CBE JUMP JUMPDEST DUP1 PUSH1 0x1F ADD PUSH1 0x20 DUP1 SWAP2 DIV MUL PUSH1 0x20 ADD PUSH1 0x40 MLOAD SWAP1 DUP2 ADD PUSH1 0x40 MSTORE DUP1 SWAP3 SWAP2 SWAP1 DUP2 DUP2 MSTORE PUSH1 0x20 ADD DUP3 DUP1 SLOAD PUSH2 0x1597 SWAP1 PUSH2 0x2CBE JUMP JUMPDEST DUP1 ISZERO PUSH2 0x15E4 JUMPI DUP1 PUSH1 0x1F LT PUSH2 0x15B9 JUMPI PUSH2 0x100 DUP1 DUP4 SLOAD DIV MUL DUP4 MSTORE SWAP2 PUSH1 0x20 ADD SWAP2 PUSH2 0x15E4 JUMP JUMPDEST DUP3 ADD SWAP2 SWAP1 PUSH1 0x0 MSTORE PUSH1 0x20 PUSH1 0x0 KECCAK256 SWAP1 JUMPDEST DUP2 SLOAD DUP2 MSTORE SWAP1 PUSH1 0x1 ADD SWAP1 PUSH1 0x20 ADD DUP1 DUP4 GT PUSH2 0x15C7 JUMPI DUP3 SWAP1 SUB PUSH1 0x1F AND DUP3 ADD SWAP2 JUMPDEST POP POP POP POP POP SWAP1 POP DUP5 JUMP JUMPDEST PUSH1 0x0 DUP1 SLOAD SWAP1 PUSH2 0x100 EXP SWAP1 DIV PUSH20 0xFFFFFFFFFFFFFFFFFFFFFFFFFFFFFFFFFFFFFFFF AND DUP2 JUMP JUMPDEST PUSH1 0x9 DUP2 DUP2 SLOAD DUP2 LT PUSH2 0x1622 JUMPI PUSH1 0x0 DUP1 REVERT JUMPDEST SWAP1 PUSH1 0x0 MSTORE PUSH1 0x20 PUSH1 0x0 KECCAK256 SWAP1 PUSH1 0x4 MUL ADD PUSH1 0x0 SWAP2 POP SWAP1 POP DUP1 PUSH1 0x0 ADD SLOAD SWAP1 DUP1 PUSH1 0x1 ADD PUSH1 0x0 SWAP1 SLOAD SWAP1 PUSH2 0x100 EXP SWAP1 DIV PUSH20 0xFFFFFFFFFFFFFFFFFFFFFFFFFFFFFFFFFFFFFFFF AND SWAP1 DUP1 PUSH1 0x2 ADD DUP1 SLOAD PUSH2 0x1671 SWAP1 PUSH2 0x2CBE JUMP JUMPDEST DUP1 PUSH1 0x1F ADD PUSH1 0x20 DUP1 SWAP2 DIV MUL PUSH1 0x20 ADD PUSH1 0x40 MLOAD SWAP1 DUP2 ADD PUSH1 0x40 MSTORE DUP1 SWAP3 SWAP2 SWAP1 DUP2 DUP2 MSTORE PUSH1 0x20 ADD DUP3 DUP1 SLOAD PUSH2 0x169D SWAP1 PUSH2 0x2CBE JUMP JUMPDEST DUP1 ISZERO PUSH2 0x16EA JUMPI DUP1 PUSH1 0x1F LT PUSH2 0x16BF JUMPI PUSH2 0x100 DUP1 DUP4 SLOAD DIV MUL DUP4 MSTORE SWAP2 PUSH1 0x20 ADD SWAP2 PUSH2 0x16EA JUMP JUMPDEST DUP3 ADD SWAP2 SWAP1 PUSH1 0x0 MSTORE PUSH1 0x20 PUSH1 0x0 KECCAK256 SWAP1 JUMPDEST DUP2 SLOAD DUP2 MSTORE SWAP1 PUSH1 0x1 ADD SWAP1 PUSH1 0x20 ADD DUP1 DUP4 GT PUSH2 0x16CD JUMPI DUP3 SWAP1 SUB PUSH1 0x1F AND DUP3 ADD SWAP2 JUMPDEST POP POP POP POP POP SWAP1 DUP1 PUSH1 0x3 ADD PUSH1 0x0 SWAP1 SLOAD SWAP1 PUSH2 0x100 EXP SWAP1 DIV PUSH20 0xFFFFFFFFFFFFFFFFFFFFFFFFFFFFFFFFFFFFFFFF AND SWAP1 POP DUP5 JUMP JUMPDEST PUSH1 0x6 PUSH1 0x20 MSTORE DUP2 PUSH1 0x0 MSTORE PUSH1 0x40 PUSH1 0x0 KECCAK256 DUP2 DUP2 SLOAD DUP2 LT PUSH2 0x1736 JUMPI PUSH1 0x0 DUP1 REVERT JUMPDEST SWAP1 PUSH1 0x0 MSTORE PUSH1 0x20 PUSH1 0x0 KECCAK256 SWAP1 PUSH1 0x4 MUL ADD PUSH1 0x0 SWAP2 POP SWAP2 POP POP DUP1 PUSH1 0x0 ADD SLOAD SWAP1 DUP1 PUSH1 0x1 ADD PUSH1 0x0 SWAP1 SLOAD SWAP1 PUSH2 0x100 EXP SWAP1 DIV PUSH20 0xFFFFFFFFFFFFFFFFFFFFFFFFFFFFFFFFFFFFFFFF AND SWAP1 DUP1 PUSH1 0x2 ADD DUP1 SLOAD PUSH2 0x1786 SWAP1 PUSH2 0x2CBE JUMP JUMPDEST DUP1 PUSH1 0x1F ADD PUSH1 0x20 DUP1 SWAP2 DIV MUL PUSH1 0x20 ADD PUSH1 0x40 MLOAD SWAP1 DUP2 ADD PUSH1 0x40 MSTORE DUP1 SWAP3 SWAP2 SWAP1 DUP2 DUP2 MSTORE PUSH1 0x20 ADD DUP3 DUP1 SLOAD PUSH2 0x17B2 SWAP1 PUSH2 0x2CBE JUMP JUMPDEST DUP1 ISZERO PUSH2 0x17FF JUMPI DUP1 PUSH1 0x1F LT PUSH2 0x17D4 JUMPI PUSH2 0x100 DUP1 DUP4 SLOAD DIV MUL DUP4 MSTORE SWAP2 PUSH1 0x20 ADD SWAP2 PUSH2 0x17FF JUMP JUMPDEST DUP3 ADD SWAP2 SWAP1 PUSH1 0x0 MSTORE PUSH1 0x20 PUSH1 0x0 KECCAK256 SWAP1 JUMPDEST DUP2 SLOAD DUP2 MSTORE SWAP1 PUSH1 0x1 ADD SWAP1 PUSH1 0x20 ADD DUP1 DUP4 GT PUSH2 0x17E2 JUMPI DUP3 SWAP1 SUB PUSH1 0x1F AND DUP3 ADD SWAP2 JUMPDEST POP POP POP POP POP SWAP1 DUP1 PUSH1 0x3 ADD PUSH1 0x0 SWAP1 SLOAD SWAP1 PUSH2 0x100 EXP SWAP1 DIV PUSH20 0xFFFFFFFFFFFFFFFFFFFFFFFFFFFFFFFFFFFFFFFF AND SWAP1 POP DUP5 JUMP JUMPDEST PUSH1 0xA DUP2 DUP2 SLOAD DUP2 LT PUSH2 0x183F JUMPI PUSH1 0x0 DUP1 REVERT JUMPDEST SWAP1 PUSH1 0x0 MSTORE PUSH1 0x20 PUSH1 0x0 KECCAK256 SWAP1 PUSH1 0x4 MUL ADD PUSH1 0x0 SWAP2 POP SWAP1 POP DUP1 PUSH1 0x0 ADD SLOAD SWAP1 DUP1 PUSH1 0x1 ADD PUSH1 0x0 SWAP1 SLOAD SWAP1 PUSH2 0x100 EXP SWAP1 DIV PUSH20 0xFFFFFFFFFFFFFFFFFFFFFFFFFFFFFFFFFFFFFFFF AND SWAP1 DUP1 PUSH1 0x2 ADD DUP1 SLOAD PUSH2 0x188E SWAP1 PUSH2 0x2CBE JUMP JUMPDEST DUP1 PUSH1 0x1F ADD PUSH1 0x20 DUP1 SWAP2 DIV MUL PUSH1 0x20 ADD PUSH1 0x40 MLOAD SWAP1 DUP2 ADD PUSH1 0x40 MSTORE DUP1 SWAP3 SWAP2 SWAP1 DUP2 DUP2 MSTORE PUSH1 0x20 ADD DUP3 DUP1 SLOAD PUSH2 0x18BA SWAP1 PUSH2 0x2CBE JUMP JUMPDEST DUP1 ISZERO PUSH2 0x1907 JUMPI DUP1 PUSH1 0x1F LT PUSH2 0x18DC JUMPI PUSH2 0x100 DUP1 DUP4 SLOAD DIV MUL DUP4 MSTORE SWAP2 PUSH1 0x20 ADD SWAP2 PUSH2 0x1907 JUMP JUMPDEST DUP3 ADD SWAP2 SWAP1 PUSH1 0x0 MSTORE PUSH1 0x20 PUSH1 0x0 KECCAK256 SWAP1 JUMPDEST DUP2 SLOAD DUP2 MSTORE SWAP1 PUSH1 0x1 ADD SWAP1 PUSH1 0x20 ADD DUP1 DUP4 GT PUSH2 0x18EA JUMPI DUP3 SWAP1 SUB PUSH1 0x1F AND DUP3 ADD SWAP2 JUMPDEST POP POP POP POP POP SWAP1 DUP1 PUSH1 0x3 ADD PUSH1 0x0 SWAP1 SLOAD SWAP1 PUSH2 0x100 EXP SWAP1 DIV PUSH20 0xFFFFFFFFFFFFFFFFFFFFFFFFFFFFFFFFFFFFFFFF AND SWAP1 POP DUP5 JUMP JUMPDEST PUSH1 0x60 PUSH1 0x0 PUSH1 0x3 PUSH1 0x0 DUP5 PUSH20 0xFFFFFFFFFFFFFFFFFFFFFFFFFFFFFFFFFFFFFFFF AND PUSH20 0xFFFFFFFFFFFFFFFFFFFFFFFFFFFFFFFFFFFFFFFF AND DUP2 MSTORE PUSH1 0x20 ADD SWAP1 DUP2 MSTORE PUSH1 0x20 ADD PUSH1 0x0 KECCAK256 PUSH1 0x0 ADD SLOAD SUB PUSH2 0x19BE JUMPI PUSH1 0x40 MLOAD PUSH32 0x8C379A000000000000000000000000000000000000000000000000000000000 DUP2 MSTORE PUSH1 0x4 ADD PUSH2 0x19B5 SWAP1 PUSH2 0x30D0 JUMP JUMPDEST PUSH1 0x40 MLOAD DUP1 SWAP2 SUB SWAP1 REVERT JUMPDEST PUSH1 0x40 MLOAD DUP1 PUSH1 0x40 ADD PUSH1 0x40 MSTORE DUP1 PUSH1 0x4 DUP2 MSTORE PUSH1 0x20 ADD PUSH32 0x7472756500000000000000000000000000000000000000000000000000000000 DUP2 MSTORE POP SWAP1 POP SWAP2 SWAP1 POP JUMP JUMPDEST PUSH1 0xB DUP2 DUP2 SLOAD DUP2 LT PUSH2 0x1A0B JUMPI PUSH1 0x0 DUP1 REVERT JUMPDEST SWAP1 PUSH1 0x0 MSTORE PUSH1 0x20 PUSH1 0x0 KECCAK256 SWAP1 PUSH1 0x3 MUL ADD PUSH1 0x0 SWAP2 POP SWAP1 POP DUP1 PUSH1 0x0 ADD SLOAD SWAP1 DUP1 PUSH1 0x1 ADD DUP1 SLOAD PUSH2 0x1A34 SWAP1 PUSH2 0x2CBE JUMP JUMPDEST DUP1 PUSH1 0x1F ADD PUSH1 0x20 DUP1 SWAP2 DIV MUL PUSH1 0x20 ADD PUSH1 0x40 MLOAD SWAP1 DUP2 ADD PUSH1 0x40 MSTORE DUP1 SWAP3 SWAP2 SWAP1 DUP2 DUP2 MSTORE PUSH1 0x20 ADD DUP3 DUP1 SLOAD PUSH2 0x1A60 SWAP1 PUSH2 0x2CBE JUMP JUMPDEST DUP1 ISZERO PUSH2 0x1AAD JUMPI DUP1 PUSH1 0x1F LT PUSH2 0x1A82 JUMPI PUSH2 0x100 DUP1 DUP4 SLOAD DIV MUL DUP4 MSTORE SWAP2 PUSH1 0x20 ADD SWAP2 PUSH2 0x1AAD JUMP JUMPDEST DUP3 ADD SWAP2 SWAP1 PUSH1 0x0 MSTORE PUSH1 0x20 PUSH1 0x0 KECCAK256 SWAP1 JUMPDEST DUP2 SLOAD DUP2 MSTORE SWAP1 PUSH1 0x1 ADD SWAP1 PUSH1 0x20 ADD DUP1 DUP4 GT PUSH2 0x1A90 JUMPI DUP3 SWAP1 SUB PUSH1 0x1F AND DUP3 ADD SWAP2 JUMPDEST POP POP POP POP POP SWAP1 DUP1 PUSH1 0x2 ADD PUSH1 0x0 SWAP1 SLOAD SWAP1 PUSH2 0x100 EXP SWAP1 DIV PUSH20 0xFFFFFFFFFFFFFFFFFFFFFFFFFFFFFFFFFFFFFFFF AND SWAP1 POP DUP4 JUMP JUMPDEST PUSH1 0x60 PUSH1 0x9 DUP1 SLOAD DUP1 PUSH1 0x20 MUL PUSH1 0x20 ADD PUSH1 0x40 MLOAD SWAP1 DUP2 ADD PUSH1 0x40 MSTORE DUP1 SWAP3 SWAP2 SWAP1 DUP2 DUP2 MSTORE PUSH1 0x20 ADD PUSH1 0x0 SWAP1 JUMPDEST DUP3 DUP3 LT ISZERO PUSH2 0x1C7B JUMPI DUP4 DUP3 SWAP1 PUSH1 0x0 MSTORE PUSH1 0x20 PUSH1 0x0 KECCAK256 SWAP1 PUSH1 0x4 MUL ADD PUSH1 0x40 MLOAD DUP1 PUSH1 0x80 ADD PUSH1 0x40 MSTORE SWAP1 DUP2 PUSH1 0x0 DUP3 ADD SLOAD DUP2 MSTORE PUSH1 0x20 ADD PUSH1 0x1 DUP3 ADD PUSH1 0x0 SWAP1 SLOAD SWAP1 PUSH2 0x100 EXP SWAP1 DIV PUSH20 0xFFFFFFFFFFFFFFFFFFFFFFFFFFFFFFFFFFFFFFFF AND PUSH20 0xFFFFFFFFFFFFFFFFFFFFFFFFFFFFFFFFFFFFFFFF AND PUSH20 0xFFFFFFFFFFFFFFFFFFFFFFFFFFFFFFFFFFFFFFFF AND DUP2 MSTORE PUSH1 0x20 ADD PUSH1 0x2 DUP3 ADD DUP1 SLOAD PUSH2 0x1B94 SWAP1 PUSH2 0x2CBE JUMP JUMPDEST DUP1 PUSH1 0x1F ADD PUSH1 0x20 DUP1 SWAP2 DIV MUL PUSH1 0x20 ADD PUSH1 0x40 MLOAD SWAP1 DUP2 ADD PUSH1 0x40 MSTORE DUP1 SWAP3 SWAP2 SWAP1 DUP2 DUP2 MSTORE PUSH1 0x20 ADD DUP3 DUP1 SLOAD PUSH2 0x1BC0 SWAP1 PUSH2 0x2CBE JUMP JUMPDEST DUP1 ISZERO PUSH2 0x1C0D JUMPI DUP1 PUSH1 0x1F LT PUSH2 0x1BE2 JUMPI PUSH2 0x100 DUP1 DUP4 SLOAD DIV MUL DUP4 MSTORE SWAP2 PUSH1 0x20 ADD SWAP2 PUSH2 0x1C0D JUMP JUMPDEST DUP3 ADD SWAP2 SWAP1 PUSH1 0x0 MSTORE PUSH1 0x20 PUSH1 0x0 KECCAK256 SWAP1 JUMPDEST DUP2 SLOAD DUP2 MSTORE SWAP1 PUSH1 0x1 ADD SWAP1 PUSH1 0x20 ADD DUP1 DUP4 GT PUSH2 0x1BF0 JUMPI DUP3 SWAP1 SUB PUSH1 0x1F AND DUP3 ADD SWAP2 JUMPDEST POP POP POP POP POP DUP2 MSTORE PUSH1 0x20 ADD PUSH1 0x3 DUP3 ADD PUSH1 0x0 SWAP1 SLOAD SWAP1 PUSH2 0x100 EXP SWAP1 DIV PUSH20 0xFFFFFFFFFFFFFFFFFFFFFFFFFFFFFFFFFFFFFFFF AND PUSH20 0xFFFFFFFFFFFFFFFFFFFFFFFFFFFFFFFFFFFFFFFF AND PUSH20 0xFFFFFFFFFFFFFFFFFFFFFFFFFFFFFFFFFFFFFFFF AND DUP2 MSTORE POP POP DUP2 MSTORE PUSH1 0x20 ADD SWAP1 PUSH1 0x1 ADD SWAP1 PUSH2 0x1B01 JUMP JUMPDEST POP POP POP POP SWAP1 POP SWAP1 JUMP JUMPDEST PUSH2 0x1C8D DUP3 PUSH2 0x1937 JUMP JUMPDEST POP DUP2 PUSH1 0x5 PUSH1 0x0 DUP6 PUSH20 0xFFFFFFFFFFFFFFFFFFFFFFFFFFFFFFFFFFFFFFFF AND PUSH20 0xFFFFFFFFFFFFFFFFFFFFFFFFFFFFFFFFFFFFFFFF AND DUP2 MSTORE PUSH1 0x20 ADD SWAP1 DUP2 MSTORE PUSH1 0x20 ADD PUSH1 0x0 KECCAK256 PUSH1 0x0 PUSH2 0x100 EXP DUP2 SLOAD DUP2 PUSH20 0xFFFFFFFFFFFFFFFFFFFFFFFFFFFFFFFFFFFFFFFF MUL NOT AND SWAP1 DUP4 PUSH20 0xFFFFFFFFFFFFFFFFFFFFFFFFFFFFFFFFFFFFFFFF AND MUL OR SWAP1 SSTORE POP PUSH1 0x1 PUSH1 0x2 SLOAD PUSH2 0x1D1B SWAP2 SWAP1 PUSH2 0x2F9C JUMP JUMPDEST PUSH1 0x2 DUP2 SWAP1 SSTORE POP PUSH1 0x0 PUSH1 0x40 MLOAD DUP1 PUSH1 0x80 ADD PUSH1 0x40 MSTORE DUP1 PUSH1 0x2 SLOAD DUP2 MSTORE PUSH1 0x20 ADD DUP6 PUSH20 0xFFFFFFFFFFFFFFFFFFFFFFFFFFFFFFFFFFFFFFFF AND DUP2 MSTORE PUSH1 0x20 ADD DUP4 DUP2 MSTORE PUSH1 0x20 ADD DUP5 PUSH20 0xFFFFFFFFFFFFFFFFFFFFFFFFFFFFFFFFFFFFFFFF AND DUP2 MSTORE POP SWAP1 POP DUP1 PUSH1 0x4 PUSH1 0x0 DUP6 PUSH20 0xFFFFFFFFFFFFFFFFFFFFFFFFFFFFFFFFFFFFFFFF AND PUSH20 0xFFFFFFFFFFFFFFFFFFFFFFFFFFFFFFFFFFFFFFFF AND DUP2 MSTORE PUSH1 0x20 ADD SWAP1 DUP2 MSTORE PUSH1 0x20 ADD PUSH1 0x0 KECCAK256 PUSH1 0x0 DUP7 PUSH20 0xFFFFFFFFFFFFFFFFFFFFFFFFFFFFFFFFFFFFFFFF AND PUSH20 0xFFFFFFFFFFFFFFFFFFFFFFFFFFFFFFFFFFFFFFFF AND DUP2 MSTORE PUSH1 0x20 ADD SWAP1 DUP2 MSTORE PUSH1 0x20 ADD PUSH1 0x0 KECCAK256 PUSH1 0x0 DUP3 ADD MLOAD DUP2 PUSH1 0x0 ADD SSTORE PUSH1 0x20 DUP3 ADD MLOAD DUP2 PUSH1 0x1 ADD PUSH1 0x0 PUSH2 0x100 EXP DUP2 SLOAD DUP2 PUSH20 0xFFFFFFFFFFFFFFFFFFFFFFFFFFFFFFFFFFFFFFFF MUL NOT AND SWAP1 DUP4 PUSH20 0xFFFFFFFFFFFFFFFFFFFFFFFFFFFFFFFFFFFFFFFF AND MUL OR SWAP1 SSTORE POP PUSH1 0x40 DUP3 ADD MLOAD DUP2 PUSH1 0x2 ADD SWAP1 DUP2 PUSH2 0x1E57 SWAP2 SWAP1 PUSH2 0x2E9B JUMP JUMPDEST POP PUSH1 0x60 DUP3 ADD MLOAD DUP2 PUSH1 0x3 ADD PUSH1 0x0 PUSH2 0x100 EXP DUP2 SLOAD DUP2 PUSH20 0xFFFFFFFFFFFFFFFFFFFFFFFFFFFFFFFFFFFFFFFF MUL NOT AND SWAP1 DUP4 PUSH20 0xFFFFFFFFFFFFFFFFFFFFFFFFFFFFFFFFFFFFFFFF AND MUL OR SWAP1 SSTORE POP SWAP1 POP POP PUSH1 0x9 DUP2 SWAP1 DUP1 PUSH1 0x1 DUP2 SLOAD ADD DUP1 DUP3 SSTORE DUP1 SWAP2 POP POP PUSH1 0x1 SWAP1 SUB SWAP1 PUSH1 0x0 MSTORE PUSH1 0x20 PUSH1 0x0 KECCAK256 SWAP1 PUSH1 0x4 MUL ADD PUSH1 0x0 SWAP1 SWAP2 SWAP1 SWAP2 SWAP1 SWAP2 POP PUSH1 0x0 DUP3 ADD MLOAD DUP2 PUSH1 0x0 ADD SSTORE PUSH1 0x20 DUP3 ADD MLOAD DUP2 PUSH1 0x1 ADD PUSH1 0x0 PUSH2 0x100 EXP DUP2 SLOAD DUP2 PUSH20 0xFFFFFFFFFFFFFFFFFFFFFFFFFFFFFFFFFFFFFFFF MUL NOT AND SWAP1 DUP4 PUSH20 0xFFFFFFFFFFFFFFFFFFFFFFFFFFFFFFFFFFFFFFFF AND MUL OR SWAP1 SSTORE POP PUSH1 0x40 DUP3 ADD MLOAD DUP2 PUSH1 0x2 ADD SWAP1 DUP2 PUSH2 0x1F34 SWAP2 SWAP1 PUSH2 0x2E9B JUMP JUMPDEST POP PUSH1 0x60 DUP3 ADD MLOAD DUP2 PUSH1 0x3 ADD PUSH1 0x0 PUSH2 0x100 EXP DUP2 SLOAD DUP2 PUSH20 0xFFFFFFFFFFFFFFFFFFFFFFFFFFFFFFFFFFFFFFFF MUL NOT AND SWAP1 DUP4 PUSH20 0xFFFFFFFFFFFFFFFFFFFFFFFFFFFFFFFFFFFFFFFF AND MUL OR SWAP1 SSTORE POP POP POP PUSH32 0x68F068B2F0D02FCA99BC8285B62FCE8668FE16B7C6A810351EA25BFF358C0DD8 PUSH1 0x40 MLOAD PUSH2 0x1FAB SWAP1 PUSH2 0x313C JUMP JUMPDEST PUSH1 0x40 MLOAD DUP1 SWAP2 SUB SWAP1 LOG1 POP POP POP POP JUMP JUMPDEST PUSH1 0x0 PUSH1 0x40 MLOAD SWAP1 POP SWAP1 JUMP JUMPDEST PUSH1 0x0 DUP1 REVERT JUMPDEST PUSH1 0x0 DUP1 REVERT JUMPDEST PUSH1 0x0 PUSH20 0xFFFFFFFFFFFFFFFFFFFFFFFFFFFFFFFFFFFFFFFF DUP3 AND SWAP1 POP SWAP2 SWAP1 POP JUMP JUMPDEST PUSH1 0x0 PUSH2 0x1FF8 DUP3 PUSH2 0x1FCD JUMP JUMPDEST SWAP1 POP SWAP2 SWAP1 POP JUMP JUMPDEST PUSH2 0x2008 DUP2 PUSH2 0x1FED JUMP JUMPDEST DUP2 EQ PUSH2 0x2013 JUMPI PUSH1 0x0 DUP1 REVERT JUMPDEST POP JUMP JUMPDEST PUSH1 0x0 DUP2 CALLDATALOAD SWAP1 POP PUSH2 0x2025 DUP2 PUSH2 0x1FFF JUMP JUMPDEST SWAP3 SWAP2 POP POP JUMP JUMPDEST PUSH1 0x0 DUP2 SWAP1 POP SWAP2 SWAP1 POP JUMP JUMPDEST PUSH2 0x203E DUP2 PUSH2 0x202B JUMP JUMPDEST DUP2 EQ PUSH2 0x2049 JUMPI PUSH1 0x0 DUP1 REVERT JUMPDEST POP JUMP JUMPDEST PUSH1 0x0 DUP2 CALLDATALOAD SWAP1 POP PUSH2 0x205B DUP2 PUSH2 0x2035 JUMP JUMPDEST SWAP3 SWAP2 POP POP JUMP JUMPDEST PUSH1 0x0 DUP1 REVERT JUMPDEST PUSH1 0x0 DUP1 REVERT JUMPDEST PUSH1 0x0 PUSH1 0x1F NOT PUSH1 0x1F DUP4 ADD AND SWAP1 POP SWAP2 SWAP1 POP JUMP JUMPDEST PUSH32 0x4E487B7100000000000000000000000000000000000000000000000000000000 PUSH1 0x0 MSTORE PUSH1 0x41 PUSH1 0x4 MSTORE PUSH1 0x24 PUSH1 0x0 REVERT JUMPDEST PUSH2 0x20B4 DUP3 PUSH2 0x206B JUMP JUMPDEST DUP2 ADD DUP2 DUP2 LT PUSH8 0xFFFFFFFFFFFFFFFF DUP3 GT OR ISZERO PUSH2 0x20D3 JUMPI PUSH2 0x20D2 PUSH2 0x207C JUMP JUMPDEST JUMPDEST DUP1 PUSH1 0x40 MSTORE POP POP POP JUMP JUMPDEST PUSH1 0x0 PUSH2 0x20E6 PUSH2 0x1FB9 JUMP JUMPDEST SWAP1 POP PUSH2 0x20F2 DUP3 DUP3 PUSH2 0x20AB JUMP JUMPDEST SWAP2 SWAP1 POP JUMP JUMPDEST PUSH1 0x0 PUSH8 0xFFFFFFFFFFFFFFFF DUP3 GT ISZERO PUSH2 0x2112 JUMPI PUSH2 0x2111 PUSH2 0x207C JUMP JUMPDEST JUMPDEST PUSH2 0x211B DUP3 PUSH2 0x206B JUMP JUMPDEST SWAP1 POP PUSH1 0x20 DUP2 ADD SWAP1 POP SWAP2 SWAP1 POP JUMP JUMPDEST DUP3 DUP2 DUP4 CALLDATACOPY PUSH1 0x0 DUP4 DUP4 ADD MSTORE POP POP POP JUMP JUMPDEST PUSH1 0x0 PUSH2 0x214A PUSH2 0x2145 DUP5 PUSH2 0x20F7 JUMP JUMPDEST PUSH2 0x20DC JUMP JUMPDEST SWAP1 POP DUP3 DUP2 MSTORE PUSH1 0x20 DUP2 ADD DUP5 DUP5 DUP5 ADD GT ISZERO PUSH2 0x2166 JUMPI PUSH2 0x2165 PUSH2 0x2066 JUMP JUMPDEST JUMPDEST PUSH2 0x2171 DUP5 DUP3 DUP6 PUSH2 0x2128 JUMP JUMPDEST POP SWAP4 SWAP3 POP POP POP JUMP JUMPDEST PUSH1 0x0 DUP3 PUSH1 0x1F DUP4 ADD SLT PUSH2 0x218E JUMPI PUSH2 0x218D PUSH2 0x2061 JUMP JUMPDEST JUMPDEST DUP2 CALLDATALOAD PUSH2 0x219E DUP5 DUP3 PUSH1 0x20 DUP7 ADD PUSH2 0x2137 JUMP JUMPDEST SWAP2 POP POP SWAP3 SWAP2 POP POP JUMP JUMPDEST PUSH1 0x0 DUP1 PUSH1 0x0 DUP1 PUSH1 0x0 PUSH1 0xA0 DUP7 DUP9 SUB SLT ISZERO PUSH2 0x21C3 JUMPI PUSH2 0x21C2 PUSH2 0x1FC3 JUMP JUMPDEST JUMPDEST PUSH1 0x0 PUSH2 0x21D1 DUP9 DUP3 DUP10 ADD PUSH2 0x2016 JUMP JUMPDEST SWAP6 POP POP PUSH1 0x20 PUSH2 0x21E2 DUP9 DUP3 DUP10 ADD PUSH2 0x204C JUMP JUMPDEST SWAP5 POP POP PUSH1 0x40 DUP7 ADD CALLDATALOAD PUSH8 0xFFFFFFFFFFFFFFFF DUP2 GT ISZERO PUSH2 0x2203 JUMPI PUSH2 0x2202 PUSH2 0x1FC8 JUMP JUMPDEST JUMPDEST PUSH2 0x220F DUP9 DUP3 DUP10 ADD PUSH2 0x2179 JUMP JUMPDEST SWAP4 POP POP PUSH1 0x60 DUP7 ADD CALLDATALOAD PUSH8 0xFFFFFFFFFFFFFFFF DUP2 GT ISZERO PUSH2 0x2230 JUMPI PUSH2 0x222F PUSH2 0x1FC8 JUMP JUMPDEST JUMPDEST PUSH2 0x223C DUP9 DUP3 DUP10 ADD PUSH2 0x2179 JUMP JUMPDEST SWAP3 POP POP PUSH1 0x80 PUSH2 0x224D DUP9 DUP3 DUP10 ADD PUSH2 0x204C JUMP JUMPDEST SWAP2 POP POP SWAP3 SWAP6 POP SWAP3 SWAP6 SWAP1 SWAP4 POP JUMP JUMPDEST PUSH1 0x0 DUP2 MLOAD SWAP1 POP SWAP2 SWAP1 POP JUMP JUMPDEST PUSH1 0x0 DUP3 DUP3 MSTORE PUSH1 0x20 DUP3 ADD SWAP1 POP SWAP3 SWAP2 POP POP JUMP JUMPDEST PUSH1 0x0 DUP2 SWAP1 POP PUSH1 0x20 DUP3 ADD SWAP1 POP SWAP2 SWAP1 POP JUMP JUMPDEST PUSH2 0x228F DUP2 PUSH2 0x202B JUMP JUMPDEST DUP3 MSTORE POP POP JUMP JUMPDEST PUSH1 0x0 DUP2 MLOAD SWAP1 POP SWAP2 SWAP1 POP JUMP JUMPDEST PUSH1 0x0 DUP3 DUP3 MSTORE PUSH1 0x20 DUP3 ADD SWAP1 POP SWAP3 SWAP2 POP POP JUMP JUMPDEST PUSH1 0x0 JUMPDEST DUP4 DUP2 LT ISZERO PUSH2 0x22CF JUMPI DUP1 DUP3 ADD MLOAD DUP2 DUP5 ADD MSTORE PUSH1 0x20 DUP2 ADD SWAP1 POP PUSH2 0x22B4 JUMP JUMPDEST PUSH1 0x0 DUP5 DUP5 ADD MSTORE POP POP POP POP JUMP JUMPDEST PUSH1 0x0 PUSH2 0x22E6 DUP3 PUSH2 0x2295 JUMP JUMPDEST PUSH2 0x22F0 DUP2 DUP6 PUSH2 0x22A0 JUMP JUMPDEST SWAP4 POP PUSH2 0x2300 DUP2 DUP6 PUSH1 0x20 DUP7 ADD PUSH2 0x22B1 JUMP JUMPDEST PUSH2 0x2309 DUP2 PUSH2 0x206B JUMP JUMPDEST DUP5 ADD SWAP2 POP POP SWAP3 SWAP2 POP POP JUMP JUMPDEST PUSH2 0x231D DUP2 PUSH2 0x1FED JUMP JUMPDEST DUP3 MSTORE POP POP JUMP JUMPDEST PUSH1 0x0 PUSH1 0x60 DUP4 ADD PUSH1 0x0 DUP4 ADD MLOAD PUSH2 0x233B PUSH1 0x0 DUP7 ADD DUP3 PUSH2 0x2286 JUMP JUMPDEST POP PUSH1 0x20 DUP4 ADD MLOAD DUP5 DUP3 SUB PUSH1 0x20 DUP7 ADD MSTORE PUSH2 0x2353 DUP3 DUP3 PUSH2 0x22DB JUMP JUMPDEST SWAP2 POP POP PUSH1 0x40 DUP4 ADD MLOAD PUSH2 0x2368 PUSH1 0x40 DUP7 ADD DUP3 PUSH2 0x2314 JUMP JUMPDEST POP DUP1 SWAP2 POP POP SWAP3 SWAP2 POP POP JUMP JUMPDEST PUSH1 0x0 PUSH2 0x237F DUP4 DUP4 PUSH2 0x2323 JUMP JUMPDEST SWAP1 POP SWAP3 SWAP2 POP POP JUMP JUMPDEST PUSH1 0x0 PUSH1 0x20 DUP3 ADD SWAP1 POP SWAP2 SWAP1 POP JUMP JUMPDEST PUSH1 0x0 PUSH2 0x239F DUP3 PUSH2 0x225A JUMP JUMPDEST PUSH2 0x23A9 DUP2 DUP6 PUSH2 0x2265 JUMP JUMPDEST SWAP4 POP DUP4 PUSH1 0x20 DUP3 MUL DUP6 ADD PUSH2 0x23BB DUP6 PUSH2 0x2276 JUMP JUMPDEST DUP1 PUSH1 0x0 JUMPDEST DUP6 DUP2 LT ISZERO PUSH2 0x23F7 JUMPI DUP5 DUP5 SUB DUP10 MSTORE DUP2 MLOAD PUSH2 0x23D8 DUP6 DUP3 PUSH2 0x2373 JUMP JUMPDEST SWAP5 POP PUSH2 0x23E3 DUP4 PUSH2 0x2387 JUMP JUMPDEST SWAP3 POP PUSH1 0x20 DUP11 ADD SWAP10 POP POP PUSH1 0x1 DUP2 ADD SWAP1 POP PUSH2 0x23BF JUMP JUMPDEST POP DUP3 SWAP8 POP DUP8 SWAP6 POP POP POP POP POP POP SWAP3 SWAP2 POP POP JUMP JUMPDEST PUSH1 0x0 PUSH1 0x20 DUP3 ADD SWAP1 POP DUP2 DUP2 SUB PUSH1 0x0 DUP4 ADD MSTORE PUSH2 0x2423 DUP2 DUP5 PUSH2 0x2394 JUMP JUMPDEST SWAP1 POP SWAP3 SWAP2 POP POP JUMP JUMPDEST PUSH1 0x0 PUSH1 0x20 DUP3 DUP5 SUB SLT ISZERO PUSH2 0x2441 JUMPI PUSH2 0x2440 PUSH2 0x1FC3 JUMP JUMPDEST JUMPDEST PUSH1 0x0 PUSH2 0x244F DUP5 DUP3 DUP6 ADD PUSH2 0x2016 JUMP JUMPDEST SWAP2 POP POP SWAP3 SWAP2 POP POP JUMP JUMPDEST PUSH2 0x2461 DUP2 PUSH2 0x1FED JUMP JUMPDEST DUP3 MSTORE POP POP JUMP JUMPDEST PUSH1 0x0 PUSH1 0x20 DUP3 ADD SWAP1 POP PUSH2 0x247C PUSH1 0x0 DUP4 ADD DUP5 PUSH2 0x2458 JUMP JUMPDEST SWAP3 SWAP2 POP POP JUMP JUMPDEST PUSH1 0x0 DUP1 PUSH1 0x40 DUP4 DUP6 SUB SLT ISZERO PUSH2 0x2499 JUMPI PUSH2 0x2498 PUSH2 0x1FC3 JUMP JUMPDEST JUMPDEST PUSH1 0x0 PUSH2 0x24A7 DUP6 DUP3 DUP7 ADD PUSH2 0x204C JUMP JUMPDEST SWAP3 POP POP PUSH1 0x20 PUSH2 0x24B8 DUP6 DUP3 DUP7 ADD PUSH2 0x204C JUMP JUMPDEST SWAP2 POP POP SWAP3 POP SWAP3 SWAP1 POP JUMP JUMPDEST PUSH2 0x24CB DUP2 PUSH2 0x202B JUMP JUMPDEST DUP3 MSTORE POP POP JUMP JUMPDEST PUSH1 0x0 DUP3 DUP3 MSTORE PUSH1 0x20 DUP3 ADD SWAP1 POP SWAP3 SWAP2 POP POP JUMP JUMPDEST PUSH1 0x0 PUSH2 0x24ED DUP3 PUSH2 0x2295 JUMP JUMPDEST PUSH2 0x24F7 DUP2 DUP6 PUSH2 0x24D1 JUMP JUMPDEST SWAP4 POP PUSH2 0x2507 DUP2 DUP6 PUSH1 0x20 DUP7 ADD PUSH2 0x22B1 JUMP JUMPDEST PUSH2 0x2510 DUP2 PUSH2 0x206B JUMP JUMPDEST DUP5 ADD SWAP2 POP POP SWAP3 SWAP2 POP POP JUMP JUMPDEST PUSH1 0x0 PUSH1 0xA0 DUP3 ADD SWAP1 POP PUSH2 0x2530 PUSH1 0x0 DUP4 ADD DUP9 PUSH2 0x24C2 JUMP JUMPDEST PUSH2 0x253D PUSH1 0x20 DUP4 ADD DUP8 PUSH2 0x2458 JUMP JUMPDEST DUP2 DUP2 SUB PUSH1 0x40 DUP4 ADD MSTORE PUSH2 0x254F DUP2 DUP7 PUSH2 0x24E2 JUMP JUMPDEST SWAP1 POP DUP2 DUP2 SUB PUSH1 0x60 DUP4 ADD MSTORE PUSH2 0x2563 DUP2 DUP6 PUSH2 0x24E2 JUMP JUMPDEST SWAP1 POP PUSH2 0x2572 PUSH1 0x80 DUP4 ADD DUP5 PUSH2 0x24C2 JUMP JUMPDEST SWAP7 SWAP6 POP POP POP POP POP POP JUMP JUMPDEST PUSH1 0x0 PUSH1 0x20 DUP3 DUP5 SUB SLT ISZERO PUSH2 0x2592 JUMPI PUSH2 0x2591 PUSH2 0x1FC3 JUMP JUMPDEST JUMPDEST PUSH1 0x0 PUSH2 0x25A0 DUP5 DUP3 DUP6 ADD PUSH2 0x204C JUMP JUMPDEST SWAP2 POP POP SWAP3 SWAP2 POP POP JUMP JUMPDEST PUSH1 0x0 DUP2 MLOAD SWAP1 POP SWAP2 SWAP1 POP JUMP JUMPDEST PUSH1 0x0 DUP3 DUP3 MSTORE PUSH1 0x20 DUP3 ADD SWAP1 POP SWAP3 SWAP2 POP POP JUMP JUMPDEST PUSH1 0x0 DUP2 SWAP1 POP PUSH1 0x20 DUP3 ADD SWAP1 POP SWAP2 SWAP1 POP JUMP JUMPDEST PUSH1 0x0 PUSH1 0xA0 DUP4 ADD PUSH1 0x0 DUP4 ADD MLOAD PUSH2 0x25ED PUSH1 0x0 DUP7 ADD DUP3 PUSH2 0x2286 JUMP JUMPDEST POP PUSH1 0x20 DUP4 ADD MLOAD PUSH2 0x2600 PUSH1 0x20 DUP7 ADD DUP3 PUSH2 0x2314 JUMP JUMPDEST POP PUSH1 0x40 DUP4 ADD MLOAD DUP5 DUP3 SUB PUSH1 0x40 DUP7 ADD MSTORE PUSH2 0x2618 DUP3 DUP3 PUSH2 0x22DB JUMP JUMPDEST SWAP2 POP POP PUSH1 0x60 DUP4 ADD MLOAD DUP5 DUP3 SUB PUSH1 0x60 DUP7 ADD MSTORE PUSH2 0x2632 DUP3 DUP3 PUSH2 0x22DB JUMP JUMPDEST SWAP2 POP POP PUSH1 0x80 DUP4 ADD MLOAD PUSH2 0x2647 PUSH1 0x80 DUP7 ADD DUP3 PUSH2 0x2286 JUMP JUMPDEST POP DUP1 SWAP2 POP POP SWAP3 SWAP2 POP POP JUMP JUMPDEST PUSH1 0x0 PUSH2 0x265E DUP4 DUP4 PUSH2 0x25D5 JUMP JUMPDEST SWAP1 POP SWAP3 SWAP2 POP POP JUMP JUMPDEST PUSH1 0x0 PUSH1 0x20 DUP3 ADD SWAP1 POP SWAP2 SWAP1 POP JUMP JUMPDEST PUSH1 0x0 PUSH2 0x267E DUP3 PUSH2 0x25A9 JUMP JUMPDEST PUSH2 0x2688 DUP2 DUP6 PUSH2 0x25B4 JUMP JUMPDEST SWAP4 POP DUP4 PUSH1 0x20 DUP3 MUL DUP6 ADD PUSH2 0x269A DUP6 PUSH2 0x25C5 JUMP JUMPDEST DUP1 PUSH1 0x0 JUMPDEST DUP6 DUP2 LT ISZERO PUSH2 0x26D6 JUMPI DUP5 DUP5 SUB DUP10 MSTORE DUP2 MLOAD PUSH2 0x26B7 DUP6 DUP3 PUSH2 0x2652 JUMP JUMPDEST SWAP5 POP PUSH2 0x26C2 DUP4 PUSH2 0x2666 JUMP JUMPDEST SWAP3 POP PUSH1 0x20 DUP11 ADD SWAP10 POP POP PUSH1 0x1 DUP2 ADD SWAP1 POP PUSH2 0x269E JUMP JUMPDEST POP DUP3 SWAP8 POP DUP8 SWAP6 POP POP POP POP POP POP SWAP3 SWAP2 POP POP JUMP JUMPDEST PUSH1 0x0 PUSH1 0x20 DUP3 ADD SWAP1 POP DUP2 DUP2 SUB PUSH1 0x0 DUP4 ADD MSTORE PUSH2 0x2702 DUP2 DUP5 PUSH2 0x2673 JUMP JUMPDEST SWAP1 POP SWAP3 SWAP2 POP POP JUMP JUMPDEST PUSH1 0x0 PUSH1 0x20 DUP3 ADD SWAP1 POP PUSH2 0x271F PUSH1 0x0 DUP4 ADD DUP5 PUSH2 0x24C2 JUMP JUMPDEST SWAP3 SWAP2 POP POP JUMP JUMPDEST PUSH1 0x0 PUSH1 0x80 DUP3 ADD SWAP1 POP PUSH2 0x273A PUSH1 0x0 DUP4 ADD DUP8 PUSH2 0x24C2 JUMP JUMPDEST PUSH2 0x2747 PUSH1 0x20 DUP4 ADD DUP7 PUSH2 0x2458 JUMP JUMPDEST DUP2 DUP2 SUB PUSH1 0x40 DUP4 ADD MSTORE PUSH2 0x2759 DUP2 DUP6 PUSH2 0x24E2 JUMP JUMPDEST SWAP1 POP DUP2 DUP2 SUB PUSH1 0x60 DUP4 ADD MSTORE PUSH2 0x276D DUP2 DUP5 PUSH2 0x24E2 JUMP JUMPDEST SWAP1 POP SWAP6 SWAP5 POP POP POP POP POP JUMP JUMPDEST PUSH1 0x0 DUP1 PUSH1 0x0 PUSH1 0x60 DUP5 DUP7 SUB SLT ISZERO PUSH2 0x2791 JUMPI PUSH2 0x2790 PUSH2 0x1FC3 JUMP JUMPDEST JUMPDEST PUSH1 0x0 DUP5 ADD CALLDATALOAD PUSH8 0xFFFFFFFFFFFFFFFF DUP2 GT ISZERO PUSH2 0x27AF JUMPI PUSH2 0x27AE PUSH2 0x1FC8 JUMP JUMPDEST JUMPDEST PUSH2 0x27BB DUP7 DUP3 DUP8 ADD PUSH2 0x2179 JUMP JUMPDEST SWAP4 POP POP PUSH1 0x20 DUP5 ADD CALLDATALOAD PUSH8 0xFFFFFFFFFFFFFFFF DUP2 GT ISZERO PUSH2 0x27DC JUMPI PUSH2 0x27DB PUSH2 0x1FC8 JUMP JUMPDEST JUMPDEST PUSH2 0x27E8 DUP7 DUP3 DUP8 ADD PUSH2 0x2179 JUMP JUMPDEST SWAP3 POP POP PUSH1 0x40 PUSH2 0x27F9 DUP7 DUP3 DUP8 ADD PUSH2 0x2016 JUMP JUMPDEST SWAP2 POP POP SWAP3 POP SWAP3 POP SWAP3 JUMP JUMPDEST PUSH1 0x0 DUP2 MLOAD SWAP1 POP SWAP2 SWAP1 POP JUMP JUMPDEST PUSH1 0x0 DUP3 DUP3 MSTORE PUSH1 0x20 DUP3 ADD SWAP1 POP SWAP3 SWAP2 POP POP JUMP JUMPDEST PUSH1 0x0 DUP2 SWAP1 POP PUSH1 0x20 DUP3 ADD SWAP1 POP SWAP2 SWAP1 POP JUMP JUMPDEST PUSH1 0x0 PUSH1 0x80 DUP4 ADD PUSH1 0x0 DUP4 ADD MLOAD PUSH2 0x2847 PUSH1 0x0 DUP7 ADD DUP3 PUSH2 0x2286 JUMP JUMPDEST POP PUSH1 0x20 DUP4 ADD MLOAD PUSH2 0x285A PUSH1 0x20 DUP7 ADD DUP3 PUSH2 0x2314 JUMP JUMPDEST POP PUSH1 0x40 DUP4 ADD MLOAD DUP5 DUP3 SUB PUSH1 0x40 DUP7 ADD MSTORE PUSH2 0x2872 DUP3 DUP3 PUSH2 0x22DB JUMP JUMPDEST SWAP2 POP POP PUSH1 0x60 DUP4 ADD MLOAD DUP5 DUP3 SUB PUSH1 0x60 DUP7 ADD MSTORE PUSH2 0x288C DUP3 DUP3 PUSH2 0x22DB JUMP JUMPDEST SWAP2 POP POP DUP1 SWAP2 POP POP SWAP3 SWAP2 POP POP JUMP JUMPDEST PUSH1 0x0 PUSH2 0x28A5 DUP4 DUP4 PUSH2 0x282F JUMP JUMPDEST SWAP1 POP SWAP3 SWAP2 POP POP JUMP JUMPDEST PUSH1 0x0 PUSH1 0x20 DUP3 ADD SWAP1 POP SWAP2 SWAP1 POP JUMP JUMPDEST PUSH1 0x0 PUSH2 0x28C5 DUP3 PUSH2 0x2803 JUMP JUMPDEST PUSH2 0x28CF DUP2 DUP6 PUSH2 0x280E JUMP JUMPDEST SWAP4 POP DUP4 PUSH1 0x20 DUP3 MUL DUP6 ADD PUSH2 0x28E1 DUP6 PUSH2 0x281F JUMP JUMPDEST DUP1 PUSH1 0x0 JUMPDEST DUP6 DUP2 LT ISZERO PUSH2 0x291D JUMPI DUP5 DUP5 SUB DUP10 MSTORE DUP2 MLOAD PUSH2 0x28FE DUP6 DUP3 PUSH2 0x2899 JUMP JUMPDEST SWAP5 POP PUSH2 0x2909 DUP4 PUSH2 0x28AD JUMP JUMPDEST SWAP3 POP PUSH1 0x20 DUP11 ADD SWAP10 POP POP PUSH1 0x1 DUP2 ADD SWAP1 POP PUSH2 0x28E5 JUMP JUMPDEST POP DUP3 SWAP8 POP DUP8 SWAP6 POP POP POP POP POP POP SWAP3 SWAP2 POP POP JUMP JUMPDEST PUSH1 0x0 PUSH1 0x20 DUP3 ADD SWAP1 POP DUP2 DUP2 SUB PUSH1 0x0 DUP4 ADD MSTORE PUSH2 0x2949 DUP2 DUP5 PUSH2 0x28BA JUMP JUMPDEST SWAP1 POP SWAP3 SWAP2 POP POP JUMP JUMPDEST PUSH1 0x0 DUP1 PUSH1 0x40 DUP4 DUP6 SUB SLT ISZERO PUSH2 0x2968 JUMPI PUSH2 0x2967 PUSH2 0x1FC3 JUMP JUMPDEST JUMPDEST PUSH1 0x0 DUP4 ADD CALLDATALOAD PUSH8 0xFFFFFFFFFFFFFFFF DUP2 GT ISZERO PUSH2 0x2986 JUMPI PUSH2 0x2985 PUSH2 0x1FC8 JUMP JUMPDEST JUMPDEST PUSH2 0x2992 DUP6 DUP3 DUP7 ADD PUSH2 0x2179 JUMP JUMPDEST SWAP3 POP POP PUSH1 0x20 PUSH2 0x29A3 DUP6 DUP3 DUP7 ADD PUSH2 0x2016 JUMP JUMPDEST SWAP2 POP POP SWAP3 POP SWAP3 SWAP1 POP JUMP JUMPDEST PUSH1 0x0 DUP1 PUSH1 0x40 DUP4 DUP6 SUB SLT ISZERO PUSH2 0x29C4 JUMPI PUSH2 0x29C3 PUSH2 0x1FC3 JUMP JUMPDEST JUMPDEST PUSH1 0x0 PUSH2 0x29D2 DUP6 DUP3 DUP7 ADD PUSH2 0x2016 JUMP JUMPDEST SWAP3 POP POP PUSH1 0x20 PUSH2 0x29E3 DUP6 DUP3 DUP7 ADD PUSH2 0x2016 JUMP JUMPDEST SWAP2 POP POP SWAP3 POP SWAP3 SWAP1 POP JUMP JUMPDEST PUSH1 0x0 PUSH1 0x80 DUP3 ADD SWAP1 POP PUSH2 0x2A02 PUSH1 0x0 DUP4 ADD DUP8 PUSH2 0x24C2 JUMP JUMPDEST PUSH2 0x2A0F PUSH1 0x20 DUP4 ADD DUP7 PUSH2 0x2458 JUMP JUMPDEST DUP2 DUP2 SUB PUSH1 0x40 DUP4 ADD MSTORE PUSH2 0x2A21 DUP2 DUP6 PUSH2 0x24E2 JUMP JUMPDEST SWAP1 POP PUSH2 0x2A30 PUSH1 0x60 DUP4 ADD DUP5 PUSH2 0x2458 JUMP JUMPDEST SWAP6 SWAP5 POP POP POP POP POP JUMP JUMPDEST PUSH1 0x0 PUSH1 0x20 DUP3 ADD SWAP1 POP DUP2 DUP2 SUB PUSH1 0x0 DUP4 ADD MSTORE PUSH2 0x2A53 DUP2 DUP5 PUSH2 0x24E2 JUMP JUMPDEST SWAP1 POP SWAP3 SWAP2 POP POP JUMP JUMPDEST PUSH1 0x0 DUP1 PUSH1 0x40 DUP4 DUP6 SUB SLT ISZERO PUSH2 0x2A72 JUMPI PUSH2 0x2A71 PUSH2 0x1FC3 JUMP JUMPDEST JUMPDEST PUSH1 0x0 PUSH2 0x2A80 DUP6 DUP3 DUP7 ADD PUSH2 0x2016 JUMP JUMPDEST SWAP3 POP POP PUSH1 0x20 PUSH2 0x2A91 DUP6 DUP3 DUP7 ADD PUSH2 0x204C JUMP JUMPDEST SWAP2 POP POP SWAP3 POP SWAP3 SWAP1 POP JUMP JUMPDEST PUSH1 0x0 PUSH1 0x60 DUP3 ADD SWAP1 POP PUSH2 0x2AB0 PUSH1 0x0 DUP4 ADD DUP7 PUSH2 0x24C2 JUMP JUMPDEST DUP2 DUP2 SUB PUSH1 0x20 DUP4 ADD MSTORE PUSH2 0x2AC2 DUP2 DUP6 PUSH2 0x24E2 JUMP JUMPDEST SWAP1 POP PUSH2 0x2AD1 PUSH1 0x40 DUP4 ADD DUP5 PUSH2 0x2458 JUMP JUMPDEST SWAP5 SWAP4 POP POP POP POP JUMP JUMPDEST PUSH1 0x0 DUP2 MLOAD SWAP1 POP SWAP2 SWAP1 POP JUMP JUMPDEST PUSH1 0x0 DUP3 DUP3 MSTORE PUSH1 0x20 DUP3 ADD SWAP1 POP SWAP3 SWAP2 POP POP JUMP JUMPDEST PUSH1 0x0 DUP2 SWAP1 POP PUSH1 0x20 DUP3 ADD SWAP1 POP SWAP2 SWAP1 POP JUMP JUMPDEST PUSH1 0x0 PUSH1 0x80 DUP4 ADD PUSH1 0x0 DUP4 ADD MLOAD PUSH2 0x2B1D PUSH1 0x0 DUP7 ADD DUP3 PUSH2 0x2286 JUMP JUMPDEST POP PUSH1 0x20 DUP4 ADD MLOAD PUSH2 0x2B30 PUSH1 0x20 DUP7 ADD DUP3 PUSH2 0x2314 JUMP JUMPDEST POP PUSH1 0x40 DUP4 ADD MLOAD DUP5 DUP3 SUB PUSH1 0x40 DUP7 ADD MSTORE PUSH2 0x2B48 DUP3 DUP3 PUSH2 0x22DB JUMP JUMPDEST SWAP2 POP POP PUSH1 0x60 DUP4 ADD MLOAD PUSH2 0x2B5D PUSH1 0x60 DUP7 ADD DUP3 PUSH2 0x2314 JUMP JUMPDEST POP DUP1 SWAP2 POP POP SWAP3 SWAP2 POP POP JUMP JUMPDEST PUSH1 0x0 PUSH2 0x2B74 DUP4 DUP4 PUSH2 0x2B05 JUMP JUMPDEST SWAP1 POP SWAP3 SWAP2 POP POP JUMP JUMPDEST PUSH1 0x0 PUSH1 0x20 DUP3 ADD SWAP1 POP SWAP2 SWAP1 POP JUMP JUMPDEST PUSH1 0x0 PUSH2 0x2B94 DUP3 PUSH2 0x2AD9 JUMP JUMPDEST PUSH2 0x2B9E DUP2 DUP6 PUSH2 0x2AE4 JUMP JUMPDEST SWAP4 POP DUP4 PUSH1 0x20 DUP3 MUL DUP6 ADD PUSH2 0x2BB0 DUP6 PUSH2 0x2AF5 JUMP JUMPDEST DUP1 PUSH1 0x0 JUMPDEST DUP6 DUP2 LT ISZERO PUSH2 0x2BEC JUMPI DUP5 DUP5 SUB DUP10 MSTORE DUP2 MLOAD PUSH2 0x2BCD DUP6 DUP3 PUSH2 0x2B68 JUMP JUMPDEST SWAP5 POP PUSH2 0x2BD8 DUP4 PUSH2 0x2B7C JUMP JUMPDEST SWAP3 POP PUSH1 0x20 DUP11 ADD SWAP10 POP POP PUSH1 0x1 DUP2 ADD SWAP1 POP PUSH2 0x2BB4 JUMP JUMPDEST POP DUP3 SWAP8 POP DUP8 SWAP6 POP POP POP POP POP POP SWAP3 SWAP2 POP POP JUMP JUMPDEST PUSH1 0x0 PUSH1 0x20 DUP3 ADD SWAP1 POP DUP2 DUP2 SUB PUSH1 0x0 DUP4 ADD MSTORE PUSH2 0x2C18 DUP2 DUP5 PUSH2 0x2B89 JUMP JUMPDEST SWAP1 POP SWAP3 SWAP2 POP POP JUMP JUMPDEST PUSH1 0x0 DUP1 PUSH1 0x0 PUSH1 0x60 DUP5 DUP7 SUB SLT ISZERO PUSH2 0x2C39 JUMPI PUSH2 0x2C38 PUSH2 0x1FC3 JUMP JUMPDEST JUMPDEST PUSH1 0x0 PUSH2 0x2C47 DUP7 DUP3 DUP8 ADD PUSH2 0x2016 JUMP JUMPDEST SWAP4 POP POP PUSH1 0x20 PUSH2 0x2C58 DUP7 DUP3 DUP8 ADD PUSH2 0x2016 JUMP JUMPDEST SWAP3 POP POP PUSH1 0x40 DUP5 ADD CALLDATALOAD PUSH8 0xFFFFFFFFFFFFFFFF DUP2 GT ISZERO PUSH2 0x2C79 JUMPI PUSH2 0x2C78 PUSH2 0x1FC8 JUMP JUMPDEST JUMPDEST PUSH2 0x2C85 DUP7 DUP3 DUP8 ADD PUSH2 0x2179 JUMP JUMPDEST SWAP2 POP POP SWAP3 POP SWAP3 POP SWAP3 JUMP JUMPDEST PUSH32 0x4E487B7100000000000000000000000000000000000000000000000000000000 PUSH1 0x0 MSTORE PUSH1 0x22 PUSH1 0x4 MSTORE PUSH1 0x24 PUSH1 0x0 REVERT JUMPDEST PUSH1 0x0 PUSH1 0x2 DUP3 DIV SWAP1 POP PUSH1 0x1 DUP3 AND DUP1 PUSH2 0x2CD6 JUMPI PUSH1 0x7F DUP3 AND SWAP2 POP JUMPDEST PUSH1 0x20 DUP3 LT DUP2 SUB PUSH2 0x2CE9 JUMPI PUSH2 0x2CE8 PUSH2 0x2C8F JUMP JUMPDEST JUMPDEST POP SWAP2 SWAP1 POP JUMP JUMPDEST PUSH1 0x0 DUP2 SWAP1 POP DUP2 PUSH1 0x0 MSTORE PUSH1 0x20 PUSH1 0x0 KECCAK256 SWAP1 POP SWAP2 SWAP1 POP JUMP JUMPDEST PUSH1 0x0 PUSH1 0x20 PUSH1 0x1F DUP4 ADD DIV SWAP1 POP SWAP2 SWAP1 POP JUMP JUMPDEST PUSH1 0x0 DUP3 DUP3 SHL SWAP1 POP SWAP3 SWAP2 POP POP JUMP JUMPDEST PUSH1 0x0 PUSH1 0x8 DUP4 MUL PUSH2 0x2D51 PUSH32 0xFFFFFFFFFFFFFFFFFFFFFFFFFFFFFFFFFFFFFFFFFFFFFFFFFFFFFFFFFFFFFFFF DUP3 PUSH2 0x2D14 JUMP JUMPDEST PUSH2 0x2D5B DUP7 DUP4 PUSH2 0x2D14 JUMP JUMPDEST SWAP6 POP DUP1 NOT DUP5 AND SWAP4 POP DUP1 DUP7 AND DUP5 OR SWAP3 POP POP POP SWAP4 SWAP3 POP POP POP JUMP JUMPDEST PUSH1 0x0 DUP2 SWAP1 POP SWAP2 SWAP1 POP JUMP JUMPDEST PUSH1 0x0 PUSH2 0x2D98 PUSH2 0x2D93 PUSH2 0x2D8E DUP5 PUSH2 0x202B JUMP JUMPDEST PUSH2 0x2D73 JUMP JUMPDEST PUSH2 0x202B JUMP JUMPDEST SWAP1 POP SWAP2 SWAP1 POP JUMP JUMPDEST PUSH1 0x0 DUP2 SWAP1 POP SWAP2 SWAP1 POP JUMP JUMPDEST PUSH2 0x2DB2 DUP4 PUSH2 0x2D7D JUMP JUMPDEST PUSH2 0x2DC6 PUSH2 0x2DBE DUP3 PUSH2 0x2D9F JUMP JUMPDEST DUP5 DUP5 SLOAD PUSH2 0x2D21 JUMP JUMPDEST DUP3 SSTORE POP POP POP POP JUMP JUMPDEST PUSH1 0x0 SWAP1 JUMP JUMPDEST PUSH2 0x2DDB PUSH2 0x2DCE JUMP JUMPDEST PUSH2 0x2DE6 DUP2 DUP5 DUP5 PUSH2 0x2DA9 JUMP JUMPDEST POP POP POP JUMP JUMPDEST JUMPDEST DUP2 DUP2 LT ISZERO PUSH2 0x2E0A JUMPI PUSH2 0x2DFF PUSH1 0x0 DUP3 PUSH2 0x2DD3 JUMP JUMPDEST PUSH1 0x1 DUP2 ADD SWAP1 POP PUSH2 0x2DEC JUMP JUMPDEST POP POP JUMP JUMPDEST PUSH1 0x1F DUP3 GT ISZERO PUSH2 0x2E4F JUMPI PUSH2 0x2E20 DUP2 PUSH2 0x2CEF JUMP JUMPDEST PUSH2 0x2E29 DUP5 PUSH2 0x2D04 JUMP JUMPDEST DUP2 ADD PUSH1 0x20 DUP6 LT ISZERO PUSH2 0x2E38 JUMPI DUP2 SWAP1 POP JUMPDEST PUSH2 0x2E4C PUSH2 0x2E44 DUP6 PUSH2 0x2D04 JUMP JUMPDEST DUP4 ADD DUP3 PUSH2 0x2DEB JUMP JUMPDEST POP POP JUMPDEST POP POP POP JUMP JUMPDEST PUSH1 0x0 DUP3 DUP3 SHR SWAP1 POP SWAP3 SWAP2 POP POP JUMP JUMPDEST PUSH1 0x0 PUSH2 0x2E72 PUSH1 0x0 NOT DUP5 PUSH1 0x8 MUL PUSH2 0x2E54 JUMP JUMPDEST NOT DUP1 DUP4 AND SWAP2 POP POP SWAP3 SWAP2 POP POP JUMP JUMPDEST PUSH1 0x0 PUSH2 0x2E8B DUP4 DUP4 PUSH2 0x2E61 JUMP JUMPDEST SWAP2 POP DUP3 PUSH1 0x2 MUL DUP3 OR SWAP1 POP SWAP3 SWAP2 POP POP JUMP JUMPDEST PUSH2 0x2EA4 DUP3 PUSH2 0x2295 JUMP JUMPDEST PUSH8 0xFFFFFFFFFFFFFFFF DUP2 GT ISZERO PUSH2 0x2EBD JUMPI PUSH2 0x2EBC PUSH2 0x207C JUMP JUMPDEST JUMPDEST PUSH2 0x2EC7 DUP3 SLOAD PUSH2 0x2CBE JUMP JUMPDEST PUSH2 0x2ED2 DUP3 DUP3 DUP6 PUSH2 0x2E0E JUMP JUMPDEST PUSH1 0x0 PUSH1 0x20 SWAP1 POP PUSH1 0x1F DUP4 GT PUSH1 0x1 DUP2 EQ PUSH2 0x2F05 JUMPI PUSH1 0x0 DUP5 ISZERO PUSH2 0x2EF3 JUMPI DUP3 DUP8 ADD MLOAD SWAP1 POP JUMPDEST PUSH2 0x2EFD DUP6 DUP3 PUSH2 0x2E7F JUMP JUMPDEST DUP7 SSTORE POP PUSH2 0x2F65 JUMP JUMPDEST PUSH1 0x1F NOT DUP5 AND PUSH2 0x2F13 DUP7 PUSH2 0x2CEF JUMP JUMPDEST PUSH1 0x0 JUMPDEST DUP3 DUP2 LT ISZERO PUSH2 0x2F3B JUMPI DUP5 DUP10 ADD MLOAD DUP3 SSTORE PUSH1 0x1 DUP3 ADD SWAP2 POP PUSH1 0x20 DUP6 ADD SWAP5 POP PUSH1 0x20 DUP2 ADD SWAP1 POP PUSH2 0x2F16 JUMP JUMPDEST DUP7 DUP4 LT ISZERO PUSH2 0x2F58 JUMPI DUP5 DUP10 ADD MLOAD PUSH2 0x2F54 PUSH1 0x1F DUP10 AND DUP3 PUSH2 0x2E61 JUMP JUMPDEST DUP4 SSTORE POP JUMPDEST PUSH1 0x1 PUSH1 0x2 DUP9 MUL ADD DUP9 SSTORE POP POP POP JUMPDEST POP POP POP POP POP POP JUMP JUMPDEST PUSH32 0x4E487B7100000000000000000000000000000000000000000000000000000000 PUSH1 0x0 MSTORE PUSH1 0x11 PUSH1 0x4 MSTORE PUSH1 0x24 PUSH1 0x0 REVERT JUMPDEST PUSH1 0x0 PUSH2 0x2FA7 DUP3 PUSH2 0x202B JUMP JUMPDEST SWAP2 POP PUSH2 0x2FB2 DUP4 PUSH2 0x202B JUMP JUMPDEST SWAP3 POP DUP3 DUP3 ADD SWAP1 POP DUP1 DUP3 GT ISZERO PUSH2 0x2FCA JUMPI PUSH2 0x2FC9 PUSH2 0x2F6D JUMP JUMPDEST JUMPDEST SWAP3 SWAP2 POP POP JUMP JUMPDEST PUSH1 0x0 PUSH2 0x2FDB DUP3 PUSH2 0x202B JUMP JUMPDEST SWAP2 POP PUSH32 0xFFFFFFFFFFFFFFFFFFFFFFFFFFFFFFFFFFFFFFFFFFFFFFFFFFFFFFFFFFFFFFFF DUP3 SUB PUSH2 0x300D JUMPI PUSH2 0x300C PUSH2 0x2F6D JUMP JUMPDEST JUMPDEST PUSH1 0x1 DUP3 ADD SWAP1 POP SWAP2 SWAP1 POP JUMP JUMPDEST PUSH32 0x41646D696E207265676973746572656421210000000000000000000000000000 PUSH1 0x0 DUP3 ADD MSTORE POP JUMP JUMPDEST PUSH1 0x0 PUSH2 0x304E PUSH1 0x12 DUP4 PUSH2 0x24D1 JUMP JUMPDEST SWAP2 POP PUSH2 0x3059 DUP3 PUSH2 0x3018 JUMP JUMPDEST PUSH1 0x20 DUP3 ADD SWAP1 POP SWAP2 SWAP1 POP JUMP JUMPDEST PUSH1 0x0 PUSH1 0x20 DUP3 ADD SWAP1 POP DUP2 DUP2 SUB PUSH1 0x0 DUP4 ADD MSTORE PUSH2 0x307D DUP2 PUSH2 0x3041 JUMP JUMPDEST SWAP1 POP SWAP2 SWAP1 POP JUMP JUMPDEST PUSH32 0x66616C7365000000000000000000000000000000000000000000000000000000 PUSH1 0x0 DUP3 ADD MSTORE POP JUMP JUMPDEST PUSH1 0x0 PUSH2 0x30BA PUSH1 0x5 DUP4 PUSH2 0x24D1 JUMP JUMPDEST SWAP2 POP PUSH2 0x30C5 DUP3 PUSH2 0x3084 JUMP JUMPDEST PUSH1 0x20 DUP3 ADD SWAP1 POP SWAP2 SWAP1 POP JUMP JUMPDEST PUSH1 0x0 PUSH1 0x20 DUP3 ADD SWAP1 POP DUP2 DUP2 SUB PUSH1 0x0 DUP4 ADD MSTORE PUSH2 0x30E9 DUP2 PUSH2 0x30AD JUMP JUMPDEST SWAP1 POP SWAP2 SWAP1 POP JUMP JUMPDEST PUSH32 0x537570706C792072656769737465726564212100000000000000000000000000 PUSH1 0x0 DUP3 ADD MSTORE POP JUMP JUMPDEST PUSH1 0x0 PUSH2 0x3126 PUSH1 0x13 DUP4 PUSH2 0x24D1 JUMP JUMPDEST SWAP2 POP PUSH2 0x3131 DUP3 PUSH2 0x30F0 JUMP JUMPDEST PUSH1 0x20 DUP3 ADD SWAP1 POP SWAP2 SWAP1 POP JUMP JUMPDEST PUSH1 0x0 PUSH1 0x20 DUP3 ADD SWAP1 POP DUP2 DUP2 SUB PUSH1 0x0 DUP4 ADD MSTORE PUSH2 0x3155 DUP2 PUSH2 0x3119 JUMP JUMPDEST SWAP1 POP SWAP2 SWAP1 POP JUMP INVALID LOG2 PUSH5 0x6970667358 0x22 SLT KECCAK256 SWAP5 ISZERO 0xB1 PUSH30 0xE65D9F0EFC8C750F54EB0078934BA9E5BAD0564F623ED3060A49910F6473 PUSH16 0x6C634300081800330000000000000000 "},"gasEstimates":{"creation":{"codeDepositCost":"2538000","executionCost":"37034","totalCost":"2575034"},"external":{"addProduct(string,address)":"infinite","addProductTInfo(address,uint256,string,string,uint256)":"infinite","adminCount()":"2496","adminSt(uint256)":"infinite","adminsM(address)":"infinite","checkIfCompAdmin(address)":"infinite","checkIfOwner()":"infinite","checkIfSupplier(address)":"infinite","getAllProducts()":"infinite","getProductHist(uint256)":"infinite","owner()":"2622","productIM(uint256,uint256)":"infinite","productSt(uint256)":"infinite","registerNewAdmin(string,string,address)":"infinite","registerNewSupplier(address,address,string)":"infinite","supplierCount()":"2452","supplierM(address,address)":"infinite","supplierSt(uint256)":"infinite","supplierToAdmin(address)":"infinite","viewAllAdmins()":"infinite","viewAllSuppliers()":"infinite","workerM(address,uint256)":"infinite","workerSt(uint256)":"infinite"}},"methodIdentifiers":{"addProduct(string,address)":"56229465","addProductTInfo(address,uint256,string,string,uint256)":"01fdfcff","adminCount()":"2b7832b3","adminSt(uint256)":"8b207dd8","adminsM(address)":"2af673a3","checkIfCompAdmin(address)":"cca5822f","checkIfOwner()":"898de773","checkIfSupplier(address)":"89ca5b68","getAllProducts()":"02ee3a52","getProductHist(uint256)":"0ea69718","owner()":"8da5cb5b","productIM(uint256,uint256)":"0e4e60d7","productSt(uint256)":"dde9c196","registerNewAdmin(string,string,address)":"330de0f9","registerNewSupplier(address,address,string)":"e9064fe9","supplierCount()":"140c6b91","supplierM(address,address)":"6f703bc8","supplierSt(uint256)":"9acc36b5","supplierToAdmin(address)":"0bdd2ec0","viewAllAdmins()":"5083f4b3","viewAllSuppliers()":"dfa8ba8a","workerM(address,uint256)":"a59ec470","workerSt(uint256)":"ae422599"}},"storageLayout":{"storage":[{"astId":3,"contract":"contracts/Supply.sol:Supply","label":"owner","offset":0,"slot":"0","type":"t_address"},{"astId":5,"contract":"contracts/Supply.sol:Supply","label":"adminCount","offset":0,"slot":"1","type":"t_uint256"},{"astId":7,"contract":"contracts/Supply.sol:Supply","label":"supplierCount","offset":0,"slot":"2","type":"t_uint256"},{"astId":61,"contract":"contracts/Supply.sol:Supply","label":"adminsM","offset":0,"slot":"3","type":"t_mapping(t_address,t_struct(AdminI)16_storage)"},{"astId":68,"contract":"contracts/Supply.sol:Supply","label":"supplierM","offset":0,"slot":"4","type":"t_mapping(t_address,t_mapping(t_address,t_struct(SupplierI)25_storage))"},{"astId":72,"contract":"contracts/Supply.sol:Supply","label":"supplierToAdmin","offset":0,"slot":"5","type":"t_mapping(t_address,t_address)"},{"astId":78,"contract":"contracts/Supply.sol:Supply","label":"workerM","offset":0,"slot":"6","type":"t_mapping(t_address,t_array(t_struct(WorkerI)34_storage)dyn_storage)"},{"astId":84,"contract":"contracts/Supply.sol:Supply","label":"productIM","offset":0,"slot":"7","type":"t_mapping(t_uint256,t_array(t_struct(ProductIT)52_storage)dyn_storage)"},{"astId":88,"contract":"contracts/Supply.sol:Supply","label":"adminSt","offset":0,"slot":"8","type":"t_array(t_struct(AdminI)16_storage)dyn_storage"},{"astId":92,"contract":"contracts/Supply.sol:Supply","label":"supplierSt","offset":0,"slot":"9","type":"t_array(t_struct(SupplierI)25_storage)dyn_storage"},{"astId":96,"contract":"contracts/Supply.sol:Supply","label":"workerSt","offset":0,"slot":"10","type":"t_array(t_struct(WorkerI)34_storage)dyn_storage"},{"astId":100,"contract":"contracts/Supply.sol:Supply","label":"productSt","offset":0,"slot":"11","type":"t_array(t_struct(ProductInfo)41_storage)dyn_storage"}],"types":{"t_address":{"encoding":"inplace","label":"address","numberOfBytes":"20"},"t_array(t_struct(AdminI)16_storage)dyn_storage":{"base":"t_struct(AdminI)16_storage","encoding":"dynamic_array","label":"struct Supply.AdminI[]","numberOfBytes":"32"},"t_array(t_struct(ProductIT)52_storage)dyn_storage":{"base":"t_struct(ProductIT)52_storage","encoding":"dynamic_array","label":"struct Supply.ProductIT[]","numberOfBytes":"32"},"t_array(t_struct(ProductInfo)41_storage)dyn_storage":{"base":"t_struct(ProductInfo)41_storage","encoding":"dynamic_array","label":"struct Supply.ProductInfo[]","numberOfBytes":"32"},"t_array(t_struct(SupplierI)25_storage)dyn_storage":{"base":"t_struct(SupplierI)25_storage","encoding":"dynamic_array","label":"struct Supply.SupplierI[]","numberOfBytes":"32"},"t_array(t_struct(WorkerI)34_storage)dyn_storage":{"base":"t_struct(WorkerI)34_storage","encoding":"dynamic_array","label":"struct Supply.WorkerI[]","numberOfBytes":"32"},"t_mapping(t_address,t_address)":{"encoding":"mapping","key":"t_address","label":"mapping(address => address)","numberOfBytes":"32","value":"t_address"},"t_mapping(t_address,t_array(t_struct(WorkerI)34_storage)dyn_storage)":{"encoding":"mapping","key":"t_address","label":"mapping(address => struct Supply.WorkerI[])","numberOfBytes":"32","value":"t_array(t_struct(WorkerI)34_storage)dyn_storage"},"t_mapping(t_address,t_mapping(t_address,t_struct(SupplierI)25_storage))":{"encoding":"mapping","key":"t_address","label":"mapping(address => mapping(address => struct Supply.SupplierI))","numberOfBytes":"32","value":"t_mapping(t_address,t_struct(SupplierI)25_storage)"},"t_mapping(t_address,t_struct(AdminI)16_storage)":{"encoding":"mapping","key":"t_address","label":"mapping(address => struct Supply.AdminI)","numberOfBytes":"32","value":"t_struct(AdminI)16_storage"},"t_mapping(t_address,t_struct(SupplierI)25_storage)":{"encoding":"mapping","key":"t_address","label":"mapping(address => struct Supply.SupplierI)","numberOfBytes":"32","value":"t_struct(SupplierI)25_storage"},"t_mapping(t_uint256,t_array(t_struct(ProductIT)52_storage)dyn_storage)":{"encoding":"mapping","key":"t_uint256","label":"mapping(uint256 => struct Supply.ProductIT[])","numberOfBytes":"32","value":"t_array(t_struct(ProductIT)52_storage)dyn_storage"},"t_string_storage":{"encoding":"bytes","label":"string","numberOfBytes":"32"},"t_struct(AdminI)16_storage":{"encoding":"inplace","label":"struct Supply.AdminI","members":[{"astId":9,"contract":"contracts/Supply.sol:Supply","label":"adminId","offset":0,"slot":"0","type":"t_uint256"},{"astId":11,"contract":"contracts/Supply.sol:Supply","label":"adminAdd","offset":0,"slot":"1","type":"t_address"},{"astId":13,"contract":"contracts/Supply.sol:Supply","label":"name","offset":0,"slot":"2","type":"t_string_storage"},{"astId":15,"contract":"contracts/Supply.sol:Supply","label":"company_name","offset":0,"slot":"3","type":"t_string_storage"}],"numberOfBytes":"128"},"t_struct(ProductIT)52_storage":{"encoding":"inplace","label":"struct Supply.ProductIT","members":[{"astId":43,"contract":"contracts/Supply.sol:Supply","label":"healthPerc","offset":0,"slot":"0","type":"t_uint256"},{"astId":45,"contract":"contracts/Supply.sol:Supply","label":"workerA","offset":0,"slot":"1","type":"t_address"},{"astId":47,"contract":"contracts/Supply.sol:Supply","label":"place","offset":0,"slot":"2","type":"t_string_storage"},{"astId":49,"contract":"contracts/Supply.sol:Supply","label":"time","offset":0,"slot":"3","type":"t_string_storage"},{"astId":51,"contract":"contracts/Supply.sol:Supply","label":"productId","offset":0,"slot":"4","type":"t_uint256"}],"numberOfBytes":"160"},"t_struct(ProductInfo)41_storage":{"encoding":"inplace","label":"struct Supply.ProductInfo","members":[{"astId":36,"contract":"contracts/Supply.sol:Supply","label":"productId","offset":0,"slot":"0","type":"t_uint256"},{"astId":38,"contract":"contracts/Supply.sol:Supply","label":"name","offset":0,"slot":"1","type":"t_string_storage"},{"astId":40,"contract":"contracts/Supply.sol:Supply","label":"supplierAddress","offset":0,"slot":"2","type":"t_address"}],"numberOfBytes":"96"},"t_struct(SupplierI)25_storage":{"encoding":"inplace","label":"struct Supply.SupplierI","members":[{"astId":18,"contract":"contracts/Supply.sol:Supply","label":"supplierId","offset":0,"slot":"0","type":"t_uint256"},{"astId":20,"contract":"contracts/Supply.sol:Supply","label":"supplierDD","offset":0,"slot":"1","type":"t_address"},{"astId":22,"contract":"contracts/Supply.sol:Supply","label":"name","offset":0,"slot":"2","type":"t_string_storage"},{"astId":24,"contract":"contracts/Supply.sol:Supply","label":"adminAdd","offset":0,"slot":"3","type":"t_address"}],"numberOfBytes":"128"},"t_struct(WorkerI)34_storage":{"encoding":"inplace","label":"struct Supply.WorkerI","members":[{"astId":27,"contract":"contracts/Supply.sol:Supply","label":"workerId","offset":0,"slot":"0","type":"t_uint256"},{"astId":29,"contract":"contracts/Supply.sol:Supply","label":"workerDD","offset":0,"slot":"1","type":"t_address"},{"astId":31,"contract":"contracts/Supply.sol:Supply","label":"name","offset":0,"slot":"2","type":"t_string_storage"},{"astId":33,"contract":"contracts/Supply.sol:Supply","label":"supplierAdd","offset":0,"slot":"3","type":"t_address"}],"numberOfBytes":"128"},"t_uint256":{"encoding":"inplace","label":"uint256","numberOfBytes":"32"}}},"userdoc":{"kind":"user","methods":{},"version":1}}}}