{
  "address": "0x5FbDB2315678afecb367f032d93F642f64180aa3",
  "abi": [
    {
      "inputs": [],
      "stateMutability": "nonpayable",
      "type": "constructor"
    },
    {
      "anonymous": false,
      "inputs": [
        {
          "indexed": false,
          "internalType": "string",
          "name": "msg",
          "type": "string"
        }
      ],
      "name": "success",
      "type": "event"
    },
    {
      "inputs": [
        {
          "internalType": "string",
          "name": "_name",
          "type": "string"
        },
        {
          "internalType": "uint256",
          "name": "_adminId",
          "type": "uint256"
        }
      ],
      "name": "addProduct",
      "outputs": [],
      "stateMutability": "nonpayable",
      "type": "function"
    },
    {
      "inputs": [
        {
          "internalType": "uint256",
          "name": "_healthPerc",
          "type": "uint256"
        },
        {
          "internalType": "string",
          "name": "_place",
          "type": "string"
        },
        {
          "internalType": "string",
          "name": "_time",
          "type": "string"
        },
        {
          "internalType": "uint256",
          "name": "_productId",
          "type": "uint256"
        },
        {
          "internalType": "address",
          "name": "_adminAdd",
          "type": "address"
        }
      ],
      "name": "addProductTInfo",
      "outputs": [],
      "stateMutability": "nonpayable",
      "type": "function"
    },
    {
      "inputs": [],
      "name": "adminCount",
      "outputs": [
        {
          "internalType": "uint256",
          "name": "",
          "type": "uint256"
        }
      ],
      "stateMutability": "view",
      "type": "function"
    },
    {
      "inputs": [
        {
          "internalType": "uint256",
          "name": "",
          "type": "uint256"
        }
      ],
      "name": "adminSt",
      "outputs": [
        {
          "internalType": "uint256",
          "name": "adminId",
          "type": "uint256"
        },
        {
          "internalType": "address",
          "name": "adminAdd",
          "type": "address"
        },
        {
          "internalType": "string",
          "name": "name",
          "type": "string"
        },
        {
          "internalType": "string",
          "name": "company_name",
          "type": "string"
        }
      ],
      "stateMutability": "view",
      "type": "function"
    },
    {
      "inputs": [
        {
          "internalType": "address",
          "name": "",
          "type": "address"
        }
      ],
      "name": "adminsM",
      "outputs": [
        {
          "internalType": "uint256",
          "name": "adminId",
          "type": "uint256"
        },
        {
          "internalType": "address",
          "name": "adminAdd",
          "type": "address"
        },
        {
          "internalType": "string",
          "name": "name",
          "type": "string"
        },
        {
          "internalType": "string",
          "name": "company_name",
          "type": "string"
        }
      ],
      "stateMutability": "view",
      "type": "function"
    },
    {
      "inputs": [],
      "name": "checkIfCompAdmin",
      "outputs": [
        {
          "internalType": "uint256",
          "name": "",
          "type": "uint256"
        }
      ],
      "stateMutability": "view",
      "type": "function"
    },
    {
      "inputs": [],
      "name": "checkIfOwner",
      "outputs": [
        {
          "internalType": "uint256",
          "name": "",
          "type": "uint256"
        }
      ],
      "stateMutability": "view",
      "type": "function"
    },
    {
      "inputs": [
        {
          "internalType": "address",
          "name": "_adminAdd",
          "type": "address"
        }
      ],
      "name": "checkIfSupplier",
      "outputs": [
        {
          "internalType": "uint256",
          "name": "",
          "type": "uint256"
        }
      ],
      "stateMutability": "view",
      "type": "function"
    },
    {
      "inputs": [],
      "name": "getAllProducts",
      "outputs": [
        {
          "components": [
            {
              "internalType": "uint256",
              "name": "productId",
              "type": "uint256"
            },
            {
              "internalType": "string",
              "name": "name",
              "type": "string"
            },
            {
              "internalType": "uint256",
              "name": "adminId",
              "type": "uint256"
            }
          ],
          "internalType": "struct Supply.ProductInfo[]",
          "name": "",
          "type": "tuple[]"
        }
      ],
      "stateMutability": "view",
      "type": "function"
    },
    {
      "inputs": [
        {
          "internalType": "uint256",
          "name": "_productId",
          "type": "uint256"
        }
      ],
      "name": "getProductHist",
      "outputs": [
        {
          "components": [
            {
              "internalType": "uint256",
              "name": "healthPerc",
              "type": "uint256"
            },
            {
              "internalType": "address",
              "name": "workerA",
              "type": "address"
            },
            {
              "internalType": "string",
              "name": "place",
              "type": "string"
            },
            {
              "internalType": "string",
              "name": "time",
              "type": "string"
            },
            {
              "internalType": "uint256",
              "name": "productId",
              "type": "uint256"
            }
          ],
          "internalType": "struct Supply.ProductIT[]",
          "name": "",
          "type": "tuple[]"
        }
      ],
      "stateMutability": "view",
      "type": "function"
    },
    {
      "inputs": [],
      "name": "owner",
      "outputs": [
        {
          "internalType": "address",
          "name": "",
          "type": "address"
        }
      ],
      "stateMutability": "view",
      "type": "function"
    },
    {
      "inputs": [
        {
          "internalType": "uint256",
          "name": "",
          "type": "uint256"
        },
        {
          "internalType": "uint256",
          "name": "",
          "type": "uint256"
        }
      ],
      "name": "productIM",
      "outputs": [
        {
          "internalType": "uint256",
          "name": "healthPerc",
          "type": "uint256"
        },
        {
          "internalType": "address",
          "name": "workerA",
          "type": "address"
        },
        {
          "internalType": "string",
          "name": "place",
          "type": "string"
        },
        {
          "internalType": "string",
          "name": "time",
          "type": "string"
        },
        {
          "internalType": "uint256",
          "name": "productId",
          "type": "uint256"
        }
      ],
      "stateMutability": "view",
      "type": "function"
    },
    {
      "inputs": [
        {
          "internalType": "uint256",
          "name": "",
          "type": "uint256"
        }
      ],
      "name": "productSt",
      "outputs": [
        {
          "internalType": "uint256",
          "name": "productId",
          "type": "uint256"
        },
        {
          "internalType": "string",
          "name": "name",
          "type": "string"
        },
        {
          "internalType": "uint256",
          "name": "adminId",
          "type": "uint256"
        }
      ],
      "stateMutability": "view",
      "type": "function"
    },
    {
      "inputs": [
        {
          "internalType": "string",
          "name": "_name",
          "type": "string"
        },
        {
          "internalType": "string",
          "name": "_company_name",
          "type": "string"
        }
      ],
      "name": "registerNewAdmin",
      "outputs": [],
      "stateMutability": "nonpayable",
      "type": "function"
    },
    {
      "inputs": [
        {
          "internalType": "string",
          "name": "_name",
          "type": "string"
        },
        {
          "internalType": "address",
          "name": "_adminAdd",
          "type": "address"
        }
      ],
      "name": "registerNewSupplier",
      "outputs": [],
      "stateMutability": "nonpayable",
      "type": "function"
    },
    {
      "inputs": [
        {
          "internalType": "string",
          "name": "_name",
          "type": "string"
        },
        {
          "internalType": "address",
          "name": "_suppAdd",
          "type": "address"
        },
        {
          "internalType": "address",
          "name": "_adminAdd",
          "type": "address"
        }
      ],
      "name": "registerNewWorker",
      "outputs": [],
      "stateMutability": "nonpayable",
      "type": "function"
    },
    {
      "inputs": [
        {
          "internalType": "address",
          "name": "",
          "type": "address"
        },
        {
          "internalType": "uint256",
          "name": "",
          "type": "uint256"
        }
      ],
      "name": "supplierM",
      "outputs": [
        {
          "internalType": "uint256",
          "name": "supplierId",
          "type": "uint256"
        },
        {
          "internalType": "address",
          "name": "supplierDD",
          "type": "address"
        },
        {
          "internalType": "string",
          "name": "name",
          "type": "string"
        },
        {
          "internalType": "address",
          "name": "adminAdd",
          "type": "address"
        }
      ],
      "stateMutability": "view",
      "type": "function"
    },
    {
      "inputs": [
        {
          "internalType": "uint256",
          "name": "",
          "type": "uint256"
        }
      ],
      "name": "supplierSt",
      "outputs": [
        {
          "internalType": "uint256",
          "name": "supplierId",
          "type": "uint256"
        },
        {
          "internalType": "address",
          "name": "supplierDD",
          "type": "address"
        },
        {
          "internalType": "string",
          "name": "name",
          "type": "string"
        },
        {
          "internalType": "address",
          "name": "adminAdd",
          "type": "address"
        }
      ],
      "stateMutability": "view",
      "type": "function"
    },
    {
      "inputs": [],
      "name": "viewAllAdmins",
      "outputs": [
        {
          "components": [
            {
              "internalType": "uint256",
              "name": "adminId",
              "type": "uint256"
            },
            {
              "internalType": "address",
              "name": "adminAdd",
              "type": "address"
            },
            {
              "internalType": "string",
              "name": "name",
              "type": "string"
            },
            {
              "internalType": "string",
              "name": "company_name",
              "type": "string"
            }
          ],
          "internalType": "struct Supply.AdminI[]",
          "name": "",
          "type": "tuple[]"
        }
      ],
      "stateMutability": "view",
      "type": "function"
    },
    {
      "inputs": [
        {
          "internalType": "address",
          "name": "_adminAdd",
          "type": "address"
        }
      ],
      "name": "viewAllSuppliers",
      "outputs": [
        {
          "components": [
            {
              "internalType": "uint256",
              "name": "supplierId",
              "type": "uint256"
            },
            {
              "internalType": "address",
              "name": "supplierDD",
              "type": "address"
            },
            {
              "internalType": "string",
              "name": "name",
              "type": "string"
            },
            {
              "internalType": "address",
              "name": "adminAdd",
              "type": "address"
            }
          ],
          "internalType": "struct Supply.SupplierI[]",
          "name": "",
          "type": "tuple[]"
        }
      ],
      "stateMutability": "view",
      "type": "function"
    },
    {
      "inputs": [
        {
          "internalType": "address",
          "name": "_adminAdd",
          "type": "address"
        }
      ],
      "name": "viewAllWorkers",
      "outputs": [
        {
          "components": [
            {
              "internalType": "uint256",
              "name": "workerId",
              "type": "uint256"
            },
            {
              "internalType": "address",
              "name": "workerDD",
              "type": "address"
            },
            {
              "internalType": "string",
              "name": "name",
              "type": "string"
            },
            {
              "internalType": "address",
              "name": "supplierAdd",
              "type": "address"
            }
          ],
          "internalType": "struct Supply.WorkerI[]",
          "name": "",
          "type": "tuple[]"
        }
      ],
      "stateMutability": "view",
      "type": "function"
    },
    {
      "inputs": [
        {
          "internalType": "address",
          "name": "",
          "type": "address"
        },
        {
          "internalType": "uint256",
          "name": "",
          "type": "uint256"
        }
      ],
      "name": "workerM",
      "outputs": [
        {
          "internalType": "uint256",
          "name": "workerId",
          "type": "uint256"
        },
        {
          "internalType": "address",
          "name": "workerDD",
          "type": "address"
        },
        {
          "internalType": "string",
          "name": "name",
          "type": "string"
        },
        {
          "internalType": "address",
          "name": "supplierAdd",
          "type": "address"
        }
      ],
      "stateMutability": "view",
      "type": "function"
    },
    {
      "inputs": [
        {
          "internalType": "uint256",
          "name": "",
          "type": "uint256"
        }
      ],
      "name": "workerSt",
      "outputs": [
        {
          "internalType": "uint256",
          "name": "workerId",
          "type": "uint256"
        },
        {
          "internalType": "address",
          "name": "workerDD",
          "type": "address"
        },
        {
          "internalType": "string",
          "name": "name",
          "type": "string"
        },
        {
          "internalType": "address",
          "name": "supplierAdd",
          "type": "address"
        }
      ],
      "stateMutability": "view",
      "type": "function"
    }
  ],
  "transactionHash": "0x571595261bbde2b7e6680bb36323b47e577453088659f3a533f87db1842102c0",
  "args": [],
  "numDeployments": 1,
  "solcInputHash": "37deef5fd7ef4b26d13e22456bce4613",
  "bytecode": "0x608060405234801561001057600080fd5b50336000806101000a81548173ffffffffffffffffffffffffffffffffffffffff021916908373ffffffffffffffffffffffffffffffffffffffff1602179055506000600181905550613533806100686000396000f3fe608060405234801561001057600080fd5b506004361061014d5760003560e01c806362f080b0116100c3578063a59ec4701161007c578063a59ec470146103ea578063ac3aeac91461041d578063ae4225991461044d578063b15247d914610480578063c36f88161461049c578063dde9c196146104b85761014d565b806362f080b0146102fc578063898de7731461031857806389ca5b68146103365780638b207dd8146103665780638da5cb5b146103995780639acc36b5146103b75761014d565b80632af673a3116101155780632af673a3146102235780632b7832b314610256578063375f2913146102745780635083f4b314610292578063538875e1146102b057806357e899e3146102e05761014d565b806302ee3a52146101525780630e4e60d7146101705780630ea69718146101a4578063149d7e7f146101d45780632a133f8b14610207575b600080fd5b61015a6104ea565b604051610167919061234c565b60405180910390f35b61018a600480360381019061018591906123ae565b6105ef565b60405161019b959493929190612488565b60405180910390f35b6101be60048036038101906101b991906124e9565b610772565b6040516101cb9190612664565b60405180910390f35b6101ee60048036038101906101e991906126b2565b610972565b6040516101fe94939291906126f2565b60405180910390f35b610221600480360381019061021c9190612873565b610a87565b005b61023d600480360381019061023891906128cf565b610c76565b60405161024d94939291906128fc565b60405180910390f35b61025e610dd6565b60405161026b919061294f565b60405180910390f35b61027c610ddc565b604051610289919061294f565b60405180910390f35b61029a610eb9565b6040516102a79190612a96565b60405180910390f35b6102ca60048036038101906102c591906128cf565b61109c565b6040516102d79190612bdd565b60405180910390f35b6102fa60048036038101906102f59190612bff565b611282565b005b61031660048036038101906103119190612cb2565b6113ad565b005b61032061159e565b60405161032d919061294f565b60405180910390f35b610350600480360381019061034b91906128cf565b611636565b60405161035d919061294f565b60405180910390f35b610380600480360381019061037b91906124e9565b61178f565b60405161039094939291906128fc565b60405180910390f35b6103a16118ff565b6040516103ae9190612d21565b60405180910390f35b6103d160048036038101906103cc91906124e9565b611923565b6040516103e194939291906126f2565b60405180910390f35b61040460048036038101906103ff91906126b2565b611a2b565b60405161041494939291906126f2565b60405180910390f35b610437600480360381019061043291906128cf565b611b40565b6040516104449190612e61565b60405180910390f35b610467600480360381019061046291906124e9565b611d26565b60405161047794939291906126f2565b60405180910390f35b61049a60048036038101906104959190612e83565b611e2e565b005b6104b660048036038101906104b19190612edf565b611ec1565b005b6104d260048036038101906104cd91906124e9565b6120cf565b6040516104e193929190612f57565b60405180910390f35b60606009805480602002602001604051908101604052809291908181526020016000905b828210156105e657838290600052602060002090600302016040518060600160405290816000820154815260200160018201805461054b90612fc4565b80601f016020809104026020016040519081016040528092919081815260200182805461057790612fc4565b80156105c45780601f10610599576101008083540402835291602001916105c4565b820191906000526020600020905b8154815290600101906020018083116105a757829003601f168201915b505050505081526020016002820154815250508152602001906001019061050e565b50505050905090565b6005602052816000526040600020818154811061060b57600080fd5b9060005260206000209060050201600091509150508060000154908060010160009054906101000a900473ffffffffffffffffffffffffffffffffffffffff169080600201805461065b90612fc4565b80601f016020809104026020016040519081016040528092919081815260200182805461068790612fc4565b80156106d45780601f106106a9576101008083540402835291602001916106d4565b820191906000526020600020905b8154815290600101906020018083116106b757829003601f168201915b5050505050908060030180546106e990612fc4565b80601f016020809104026020016040519081016040528092919081815260200182805461071590612fc4565b80156107625780601f1061073757610100808354040283529160200191610762565b820191906000526020600020905b81548152906001019060200180831161074557829003601f168201915b5050505050908060040154905085565b606060056000838152602001908152602001600020805480602002602001604051908101604052809291908181526020016000905b8282101561096757838290600052602060002090600502016040518060a0016040529081600082015481526020016001820160009054906101000a900473ffffffffffffffffffffffffffffffffffffffff1673ffffffffffffffffffffffffffffffffffffffff1673ffffffffffffffffffffffffffffffffffffffff16815260200160028201805461083a90612fc4565b80601f016020809104026020016040519081016040528092919081815260200182805461086690612fc4565b80156108b35780601f10610888576101008083540402835291602001916108b3565b820191906000526020600020905b81548152906001019060200180831161089657829003601f168201915b505050505081526020016003820180546108cc90612fc4565b80601f01602080910402602001604051908101604052809291908181526020018280546108f890612fc4565b80156109455780601f1061091a57610100808354040283529160200191610945565b820191906000526020600020905b81548152906001019060200180831161092857829003601f168201915b50505050508152602001600482015481525050815260200190600101906107a7565b505050509050919050565b6003602052816000526040600020818154811061098e57600080fd5b9060005260206000209060040201600091509150508060000154908060010160009054906101000a900473ffffffffffffffffffffffffffffffffffffffff16908060020180546109de90612fc4565b80601f0160208091040260200160405190810160405280929190818152602001828054610a0a90612fc4565b8015610a575780601f10610a2c57610100808354040283529160200191610a57565b820191906000526020600020905b815481529060010190602001808311610a3a57829003601f168201915b5050505050908060030160009054906101000a900473ffffffffffffffffffffffffffffffffffffffff16905084565b610a8f610ddc565b5060006040518060800160405280600360008573ffffffffffffffffffffffffffffffffffffffff1673ffffffffffffffffffffffffffffffffffffffff1681526020019081526020016000208054905081526020013373ffffffffffffffffffffffffffffffffffffffff1681526020018481526020018373ffffffffffffffffffffffffffffffffffffffff168152509050600360008373ffffffffffffffffffffffffffffffffffffffff1673ffffffffffffffffffffffffffffffffffffffff1681526020019081526020016000208190806001815401808255809150506001900390600052602060002090600402016000909190919091506000820151816000015560208201518160010160006101000a81548173ffffffffffffffffffffffffffffffffffffffff021916908373ffffffffffffffffffffffffffffffffffffffff1602179055506040820151816002019081610bf291906131a1565b5060608201518160030160006101000a81548173ffffffffffffffffffffffffffffffffffffffff021916908373ffffffffffffffffffffffffffffffffffffffff16021790555050507f68f068b2f0d02fca99bc8285b62fce8668fe16b7c6a810351ea25bff358c0dd8604051610c69906132bf565b60405180910390a1505050565b60026020528060005260406000206000915090508060000154908060010160009054906101000a900473ffffffffffffffffffffffffffffffffffffffff1690806002018054610cc590612fc4565b80601f0160208091040260200160405190810160405280929190818152602001828054610cf190612fc4565b8015610d3e5780601f10610d1357610100808354040283529160200191610d3e565b820191906000526020600020905b815481529060010190602001808311610d2157829003601f168201915b505050505090806003018054610d5390612fc4565b80601f0160208091040260200160405190810160405280929190818152602001828054610d7f90612fc4565b8015610dcc5780601f10610da157610100808354040283529160200191610dcc565b820191906000526020600020905b815481529060010190602001808311610daf57829003601f168201915b5050505050905084565b60015481565b600080600090505b600680549050811015610eb15760068181548110610e0557610e046132df565b5b906000526020600020906004020160010160009054906101000a900473ffffffffffffffffffffffffffffffffffffffff1673ffffffffffffffffffffffffffffffffffffffff163373ffffffffffffffffffffffffffffffffffffffff1614610ea4576040517f08c379a0000000000000000000000000000000000000000000000000000000008152600401610e9b9061335a565b60405180910390fd5b8080600101915050610de4565b506001905090565b60606006805480602002602001604051908101604052809291908181526020016000905b828210156110935783829060005260206000209060040201604051806080016040529081600082015481526020016001820160009054906101000a900473ffffffffffffffffffffffffffffffffffffffff1673ffffffffffffffffffffffffffffffffffffffff1673ffffffffffffffffffffffffffffffffffffffff168152602001600282018054610f7090612fc4565b80601f0160208091040260200160405190810160405280929190818152602001828054610f9c90612fc4565b8015610fe95780601f10610fbe57610100808354040283529160200191610fe9565b820191906000526020600020905b815481529060010190602001808311610fcc57829003601f168201915b5050505050815260200160038201805461100290612fc4565b80601f016020809104026020016040519081016040528092919081815260200182805461102e90612fc4565b801561107b5780601f106110505761010080835404028352916020019161107b565b820191906000526020600020905b81548152906001019060200180831161105e57829003601f168201915b50505050508152505081526020019060010190610edd565b50505050905090565b6060600360008373ffffffffffffffffffffffffffffffffffffffff1673ffffffffffffffffffffffffffffffffffffffff168152602001908152602001600020805480602002602001604051908101604052809291908181526020016000905b828210156112775783829060005260206000209060040201604051806080016040529081600082015481526020016001820160009054906101000a900473ffffffffffffffffffffffffffffffffffffffff1673ffffffffffffffffffffffffffffffffffffffff1673ffffffffffffffffffffffffffffffffffffffff16815260200160028201805461119090612fc4565b80601f01602080910402602001604051908101604052809291908181526020018280546111bc90612fc4565b80156112095780601f106111de57610100808354040283529160200191611209565b820191906000526020600020905b8154815290600101906020018083116111ec57829003601f168201915b505050505081526020016003820160009054906101000a900473ffffffffffffffffffffffffffffffffffffffff1673ffffffffffffffffffffffffffffffffffffffff1673ffffffffffffffffffffffffffffffffffffffff1681525050815260200190600101906110fd565b505050509050919050565b61128a61159e565b50611293610ddc565b5061129d81611636565b5060006040518060a001604052808781526020013373ffffffffffffffffffffffffffffffffffffffff168152602001868152602001858152602001848152509050600560008481526020019081526020016000208190806001815401808255809150506001900390600052602060002090600502016000909190919091506000820151816000015560208201518160010160006101000a81548173ffffffffffffffffffffffffffffffffffffffff021916908373ffffffffffffffffffffffffffffffffffffffff160217905550604082015181600201908161138291906131a1565b50606082015181600301908161139891906131a1565b50608082015181600401555050505050505050565b6113b681611636565b5060006040518060800160405280600460008673ffffffffffffffffffffffffffffffffffffffff1673ffffffffffffffffffffffffffffffffffffffff1681526020019081526020016000208054905081526020013373ffffffffffffffffffffffffffffffffffffffff1681526020018581526020018473ffffffffffffffffffffffffffffffffffffffff168152509050600460008473ffffffffffffffffffffffffffffffffffffffff1673ffffffffffffffffffffffffffffffffffffffff1681526020019081526020016000208190806001815401808255809150506001900390600052602060002090600402016000909190919091506000820151816000015560208201518160010160006101000a81548173ffffffffffffffffffffffffffffffffffffffff021916908373ffffffffffffffffffffffffffffffffffffffff160217905550604082015181600201908161151991906131a1565b5060608201518160030160006101000a81548173ffffffffffffffffffffffffffffffffffffffff021916908373ffffffffffffffffffffffffffffffffffffffff16021790555050507f68f068b2f0d02fca99bc8285b62fce8668fe16b7c6a810351ea25bff358c0dd8604051611590906133c6565b60405180910390a150505050565b60008060009054906101000a900473ffffffffffffffffffffffffffffffffffffffff1673ffffffffffffffffffffffffffffffffffffffff163373ffffffffffffffffffffffffffffffffffffffff161461162f576040517f08c379a00000000000000000000000000000000000000000000000000000000081526004016116269061335a565b60405180910390fd5b6001905090565b600080600090505b600360008473ffffffffffffffffffffffffffffffffffffffff1673ffffffffffffffffffffffffffffffffffffffff1681526020019081526020016000208054905081101561178557600360008473ffffffffffffffffffffffffffffffffffffffff1673ffffffffffffffffffffffffffffffffffffffff16815260200190815260200160002081815481106116d9576116d86132df565b5b906000526020600020906004020160010160009054906101000a900473ffffffffffffffffffffffffffffffffffffffff1673ffffffffffffffffffffffffffffffffffffffff163373ffffffffffffffffffffffffffffffffffffffff1614611778576040517f08c379a000000000000000000000000000000000000000000000000000000000815260040161176f9061335a565b60405180910390fd5b808060010191505061163e565b5060019050919050565b6006818154811061179f57600080fd5b90600052602060002090600402016000915090508060000154908060010160009054906101000a900473ffffffffffffffffffffffffffffffffffffffff16908060020180546117ee90612fc4565b80601f016020809104026020016040519081016040528092919081815260200182805461181a90612fc4565b80156118675780601f1061183c57610100808354040283529160200191611867565b820191906000526020600020905b81548152906001019060200180831161184a57829003601f168201915b50505050509080600301805461187c90612fc4565b80601f01602080910402602001604051908101604052809291908181526020018280546118a890612fc4565b80156118f55780601f106118ca576101008083540402835291602001916118f5565b820191906000526020600020905b8154815290600101906020018083116118d857829003601f168201915b5050505050905084565b60008054906101000a900473ffffffffffffffffffffffffffffffffffffffff1681565b6007818154811061193357600080fd5b90600052602060002090600402016000915090508060000154908060010160009054906101000a900473ffffffffffffffffffffffffffffffffffffffff169080600201805461198290612fc4565b80601f01602080910402602001604051908101604052809291908181526020018280546119ae90612fc4565b80156119fb5780601f106119d0576101008083540402835291602001916119fb565b820191906000526020600020905b8154815290600101906020018083116119de57829003601f168201915b5050505050908060030160009054906101000a900473ffffffffffffffffffffffffffffffffffffffff16905084565b60046020528160005260406000208181548110611a4757600080fd5b9060005260206000209060040201600091509150508060000154908060010160009054906101000a900473ffffffffffffffffffffffffffffffffffffffff1690806002018054611a9790612fc4565b80601f0160208091040260200160405190810160405280929190818152602001828054611ac390612fc4565b8015611b105780601f10611ae557610100808354040283529160200191611b10565b820191906000526020600020905b815481529060010190602001808311611af357829003601f168201915b5050505050908060030160009054906101000a900473ffffffffffffffffffffffffffffffffffffffff16905084565b6060600460008373ffffffffffffffffffffffffffffffffffffffff1673ffffffffffffffffffffffffffffffffffffffff168152602001908152602001600020805480602002602001604051908101604052809291908181526020016000905b82821015611d1b5783829060005260206000209060040201604051806080016040529081600082015481526020016001820160009054906101000a900473ffffffffffffffffffffffffffffffffffffffff1673ffffffffffffffffffffffffffffffffffffffff1673ffffffffffffffffffffffffffffffffffffffff168152602001600282018054611c3490612fc4565b80601f0160208091040260200160405190810160405280929190818152602001828054611c6090612fc4565b8015611cad5780601f10611c8257610100808354040283529160200191611cad565b820191906000526020600020905b815481529060010190602001808311611c9057829003601f168201915b505050505081526020016003820160009054906101000a900473ffffffffffffffffffffffffffffffffffffffff1673ffffffffffffffffffffffffffffffffffffffff1673ffffffffffffffffffffffffffffffffffffffff168152505081526020019060010190611ba1565b505050509050919050565b60088181548110611d3657600080fd5b90600052602060002090600402016000915090508060000154908060010160009054906101000a900473ffffffffffffffffffffffffffffffffffffffff1690806002018054611d8590612fc4565b80601f0160208091040260200160405190810160405280929190818152602001828054611db190612fc4565b8015611dfe5780601f10611dd357610100808354040283529160200191611dfe565b820191906000526020600020905b815481529060010190602001808311611de157829003601f168201915b5050505050908060030160009054906101000a900473ffffffffffffffffffffffffffffffffffffffff16905084565b611e3661159e565b50611e3f610ddc565b506000604051806060016040528060098054905081526020018481526020018381525090506009819080600181540180825580915050600190039060005260206000209060030201600090919091909150600082015181600001556020820151816001019081611eaf91906131a1565b50604082015181600201555050505050565b611ec961159e565b506000604051806080016040528060018054611ee59190613415565b81526020013373ffffffffffffffffffffffffffffffffffffffff16815260200184815260200183815250905080600260003373ffffffffffffffffffffffffffffffffffffffff1673ffffffffffffffffffffffffffffffffffffffff1681526020019081526020016000206000820151816000015560208201518160010160006101000a81548173ffffffffffffffffffffffffffffffffffffffff021916908373ffffffffffffffffffffffffffffffffffffffff1602179055506040820151816002019081611fb891906131a1565b506060820151816003019081611fce91906131a1565b5090505060068190806001815401808255809150506001900390600052602060002090600402016000909190919091506000820151816000015560208201518160010160006101000a81548173ffffffffffffffffffffffffffffffffffffffff021916908373ffffffffffffffffffffffffffffffffffffffff160217905550604082015181600201908161206491906131a1565b50606082015181600301908161207a91906131a1565b5050506001600081548092919061209090613449565b91905055507f68f068b2f0d02fca99bc8285b62fce8668fe16b7c6a810351ea25bff358c0dd86040516120c2906134dd565b60405180910390a1505050565b600981815481106120df57600080fd5b906000526020600020906003020160009150905080600001549080600101805461210890612fc4565b80601f016020809104026020016040519081016040528092919081815260200182805461213490612fc4565b80156121815780601f1061215657610100808354040283529160200191612181565b820191906000526020600020905b81548152906001019060200180831161216457829003601f168201915b5050505050908060020154905083565b600081519050919050565b600082825260208201905092915050565b6000819050602082019050919050565b6000819050919050565b6121d0816121bd565b82525050565b600081519050919050565b600082825260208201905092915050565b60005b838110156122105780820151818401526020810190506121f5565b60008484015250505050565b6000601f19601f8301169050919050565b6000612238826121d6565b61224281856121e1565b93506122528185602086016121f2565b61225b8161221c565b840191505092915050565b600060608301600083015161227e60008601826121c7565b5060208301518482036020860152612296828261222d565b91505060408301516122ab60408601826121c7565b508091505092915050565b60006122c28383612266565b905092915050565b6000602082019050919050565b60006122e282612191565b6122ec818561219c565b9350836020820285016122fe856121ad565b8060005b8581101561233a578484038952815161231b85826122b6565b9450612326836122ca565b925060208a01995050600181019050612302565b50829750879550505050505092915050565b6000602082019050818103600083015261236681846122d7565b905092915050565b6000604051905090565b600080fd5b600080fd5b61238b816121bd565b811461239657600080fd5b50565b6000813590506123a881612382565b92915050565b600080604083850312156123c5576123c4612378565b5b60006123d385828601612399565b92505060206123e485828601612399565b9150509250929050565b6123f7816121bd565b82525050565b600073ffffffffffffffffffffffffffffffffffffffff82169050919050565b6000612428826123fd565b9050919050565b6124388161241d565b82525050565b600082825260208201905092915050565b600061245a826121d6565b612464818561243e565b93506124748185602086016121f2565b61247d8161221c565b840191505092915050565b600060a08201905061249d60008301886123ee565b6124aa602083018761242f565b81810360408301526124bc818661244f565b905081810360608301526124d0818561244f565b90506124df60808301846123ee565b9695505050505050565b6000602082840312156124ff576124fe612378565b5b600061250d84828501612399565b91505092915050565b600081519050919050565b600082825260208201905092915050565b6000819050602082019050919050565b61254b8161241d565b82525050565b600060a08301600083015161256960008601826121c7565b50602083015161257c6020860182612542565b5060408301518482036040860152612594828261222d565b915050606083015184820360608601526125ae828261222d565b91505060808301516125c360808601826121c7565b508091505092915050565b60006125da8383612551565b905092915050565b6000602082019050919050565b60006125fa82612516565b6126048185612521565b93508360208202850161261685612532565b8060005b85811015612652578484038952815161263385826125ce565b945061263e836125e2565b925060208a0199505060018101905061261a565b50829750879550505050505092915050565b6000602082019050818103600083015261267e81846125ef565b905092915050565b61268f8161241d565b811461269a57600080fd5b50565b6000813590506126ac81612686565b92915050565b600080604083850312156126c9576126c8612378565b5b60006126d78582860161269d565b92505060206126e885828601612399565b9150509250929050565b600060808201905061270760008301876123ee565b612714602083018661242f565b8181036040830152612726818561244f565b9050612735606083018461242f565b95945050505050565b600080fd5b600080fd5b7f4e487b7100000000000000000000000000000000000000000000000000000000600052604160045260246000fd5b6127808261221c565b810181811067ffffffffffffffff8211171561279f5761279e612748565b5b80604052505050565b60006127b261236e565b90506127be8282612777565b919050565b600067ffffffffffffffff8211156127de576127dd612748565b5b6127e78261221c565b9050602081019050919050565b82818337600083830152505050565b6000612816612811846127c3565b6127a8565b90508281526020810184848401111561283257612831612743565b5b61283d8482856127f4565b509392505050565b600082601f83011261285a5761285961273e565b5b813561286a848260208601612803565b91505092915050565b6000806040838503121561288a57612889612378565b5b600083013567ffffffffffffffff8111156128a8576128a761237d565b5b6128b485828601612845565b92505060206128c58582860161269d565b9150509250929050565b6000602082840312156128e5576128e4612378565b5b60006128f38482850161269d565b91505092915050565b600060808201905061291160008301876123ee565b61291e602083018661242f565b8181036040830152612930818561244f565b90508181036060830152612944818461244f565b905095945050505050565b600060208201905061296460008301846123ee565b92915050565b600081519050919050565b600082825260208201905092915050565b6000819050602082019050919050565b60006080830160008301516129ae60008601826121c7565b5060208301516129c16020860182612542565b50604083015184820360408601526129d9828261222d565b915050606083015184820360608601526129f3828261222d565b9150508091505092915050565b6000612a0c8383612996565b905092915050565b6000602082019050919050565b6000612a2c8261296a565b612a368185612975565b935083602082028501612a4885612986565b8060005b85811015612a845784840389528151612a658582612a00565b9450612a7083612a14565b925060208a01995050600181019050612a4c565b50829750879550505050505092915050565b60006020820190508181036000830152612ab08184612a21565b905092915050565b600081519050919050565b600082825260208201905092915050565b6000819050602082019050919050565b6000608083016000830151612afc60008601826121c7565b506020830151612b0f6020860182612542565b5060408301518482036040860152612b27828261222d565b9150506060830151612b3c6060860182612542565b508091505092915050565b6000612b538383612ae4565b905092915050565b6000602082019050919050565b6000612b7382612ab8565b612b7d8185612ac3565b935083602082028501612b8f85612ad4565b8060005b85811015612bcb5784840389528151612bac8582612b47565b9450612bb783612b5b565b925060208a01995050600181019050612b93565b50829750879550505050505092915050565b60006020820190508181036000830152612bf78184612b68565b905092915050565b600080600080600060a08688031215612c1b57612c1a612378565b5b6000612c2988828901612399565b955050602086013567ffffffffffffffff811115612c4a57612c4961237d565b5b612c5688828901612845565b945050604086013567ffffffffffffffff811115612c7757612c7661237d565b5b612c8388828901612845565b9350506060612c9488828901612399565b9250506080612ca58882890161269d565b9150509295509295909350565b600080600060608486031215612ccb57612cca612378565b5b600084013567ffffffffffffffff811115612ce957612ce861237d565b5b612cf586828701612845565b9350506020612d068682870161269d565b9250506040612d178682870161269d565b9150509250925092565b6000602082019050612d36600083018461242f565b92915050565b600081519050919050565b600082825260208201905092915050565b6000819050602082019050919050565b6000608083016000830151612d8060008601826121c7565b506020830151612d936020860182612542565b5060408301518482036040860152612dab828261222d565b9150506060830151612dc06060860182612542565b508091505092915050565b6000612dd78383612d68565b905092915050565b6000602082019050919050565b6000612df782612d3c565b612e018185612d47565b935083602082028501612e1385612d58565b8060005b85811015612e4f5784840389528151612e308582612dcb565b9450612e3b83612ddf565b925060208a01995050600181019050612e17565b50829750879550505050505092915050565b60006020820190508181036000830152612e7b8184612dec565b905092915050565b60008060408385031215612e9a57612e99612378565b5b600083013567ffffffffffffffff811115612eb857612eb761237d565b5b612ec485828601612845565b9250506020612ed585828601612399565b9150509250929050565b60008060408385031215612ef657612ef5612378565b5b600083013567ffffffffffffffff811115612f1457612f1361237d565b5b612f2085828601612845565b925050602083013567ffffffffffffffff811115612f4157612f4061237d565b5b612f4d85828601612845565b9150509250929050565b6000606082019050612f6c60008301866123ee565b8181036020830152612f7e818561244f565b9050612f8d60408301846123ee565b949350505050565b7f4e487b7100000000000000000000000000000000000000000000000000000000600052602260045260246000fd5b60006002820490506001821680612fdc57607f821691505b602082108103612fef57612fee612f95565b5b50919050565b60008190508160005260206000209050919050565b60006020601f8301049050919050565b600082821b905092915050565b6000600883026130577fffffffffffffffffffffffffffffffffffffffffffffffffffffffffffffffff8261301a565b613061868361301a565b95508019841693508086168417925050509392505050565b6000819050919050565b600061309e613099613094846121bd565b613079565b6121bd565b9050919050565b6000819050919050565b6130b883613083565b6130cc6130c4826130a5565b848454613027565b825550505050565b600090565b6130e16130d4565b6130ec8184846130af565b505050565b5b81811015613110576131056000826130d9565b6001810190506130f2565b5050565b601f8211156131555761312681612ff5565b61312f8461300a565b8101602085101561313e578190505b61315261314a8561300a565b8301826130f1565b50505b505050565b600082821c905092915050565b60006131786000198460080261315a565b1980831691505092915050565b60006131918383613167565b9150826002028217905092915050565b6131aa826121d6565b67ffffffffffffffff8111156131c3576131c2612748565b5b6131cd8254612fc4565b6131d8828285613114565b600060209050601f83116001811461320b57600084156131f9578287015190505b6132038582613185565b86555061326b565b601f19841661321986612ff5565b60005b828110156132415784890151825560018201915060208501945060208101905061321c565b8683101561325e578489015161325a601f891682613167565b8355505b6001600288020188555050505b505050505050565b7f537570706c792072656769737465726564212100000000000000000000000000600082015250565b60006132a960138361243e565b91506132b482613273565b602082019050919050565b600060208201905081810360008301526132d88161329c565b9050919050565b7f4e487b7100000000000000000000000000000000000000000000000000000000600052603260045260246000fd5b7f6e00000000000000000000000000000000000000000000000000000000000000600082015250565b600061334460018361243e565b915061334f8261330e565b602082019050919050565b6000602082019050818103600083015261337381613337565b9050919050565b7f576f726b65722072656769737465726564212100000000000000000000000000600082015250565b60006133b060138361243e565b91506133bb8261337a565b602082019050919050565b600060208201905081810360008301526133df816133a3565b9050919050565b7f4e487b7100000000000000000000000000000000000000000000000000000000600052601160045260246000fd5b6000613420826121bd565b915061342b836121bd565b9250828201905080821115613443576134426133e6565b5b92915050565b6000613454826121bd565b91507fffffffffffffffffffffffffffffffffffffffffffffffffffffffffffffffff8203613486576134856133e6565b5b600182019050919050565b7f41646d696e207265676973746572656421210000000000000000000000000000600082015250565b60006134c760128361243e565b91506134d282613491565b602082019050919050565b600060208201905081810360008301526134f6816134ba565b905091905056fea2646970667358221220be70237b0298c5a4b3b7de37fa4eefab44f503aea4abc85ae6a9c9d407cba38564736f6c63430008180033",
  "devdoc": {
    "kind": "dev",
    "methods": {},
    "version": 1
  },
  "userdoc": {
    "kind": "user",
    "methods": {},
    "version": 1
  },
  "storageLayout": {
    "storage": [
      {
        "astId": 3,
        "contract": "contracts/Supply.sol:Supply",
        "label": "owner",
        "offset": 0,
        "slot": "0",
        "type": "t_address"
      },
      {
        "astId": 5,
        "contract": "contracts/Supply.sol:Supply",
        "label": "adminCount",
        "offset": 0,
        "slot": "1",
        "type": "t_uint256"
      },
      {
        "astId": 59,
        "contract": "contracts/Supply.sol:Supply",
        "label": "adminsM",
        "offset": 0,
        "slot": "2",
        "type": "t_mapping(t_address,t_struct(AdminI)14_storage)"
      },
      {
        "astId": 65,
        "contract": "contracts/Supply.sol:Supply",
        "label": "supplierM",
        "offset": 0,
        "slot": "3",
        "type": "t_mapping(t_address,t_array(t_struct(SupplierI)23_storage)dyn_storage)"
      },
      {
        "astId": 71,
        "contract": "contracts/Supply.sol:Supply",
        "label": "workerM",
        "offset": 0,
        "slot": "4",
        "type": "t_mapping(t_address,t_array(t_struct(WorkerI)32_storage)dyn_storage)"
      },
      {
        "astId": 77,
        "contract": "contracts/Supply.sol:Supply",
        "label": "productIM",
        "offset": 0,
        "slot": "5",
        "type": "t_mapping(t_uint256,t_array(t_struct(ProductIT)50_storage)dyn_storage)"
      },
      {
        "astId": 81,
        "contract": "contracts/Supply.sol:Supply",
        "label": "adminSt",
        "offset": 0,
        "slot": "6",
        "type": "t_array(t_struct(AdminI)14_storage)dyn_storage"
      },
      {
        "astId": 85,
        "contract": "contracts/Supply.sol:Supply",
        "label": "supplierSt",
        "offset": 0,
        "slot": "7",
        "type": "t_array(t_struct(SupplierI)23_storage)dyn_storage"
      },
      {
        "astId": 89,
        "contract": "contracts/Supply.sol:Supply",
        "label": "workerSt",
        "offset": 0,
        "slot": "8",
        "type": "t_array(t_struct(WorkerI)32_storage)dyn_storage"
      },
      {
        "astId": 93,
        "contract": "contracts/Supply.sol:Supply",
        "label": "productSt",
        "offset": 0,
        "slot": "9",
        "type": "t_array(t_struct(ProductInfo)39_storage)dyn_storage"
      }
    ],
    "types": {
      "t_address": {
        "encoding": "inplace",
        "label": "address",
        "numberOfBytes": "20"
      },
      "t_array(t_struct(AdminI)14_storage)dyn_storage": {
        "base": "t_struct(AdminI)14_storage",
        "encoding": "dynamic_array",
        "label": "struct Supply.AdminI[]",
        "numberOfBytes": "32"
      },
      "t_array(t_struct(ProductIT)50_storage)dyn_storage": {
        "base": "t_struct(ProductIT)50_storage",
        "encoding": "dynamic_array",
        "label": "struct Supply.ProductIT[]",
        "numberOfBytes": "32"
      },
      "t_array(t_struct(ProductInfo)39_storage)dyn_storage": {
        "base": "t_struct(ProductInfo)39_storage",
        "encoding": "dynamic_array",
        "label": "struct Supply.ProductInfo[]",
        "numberOfBytes": "32"
      },
      "t_array(t_struct(SupplierI)23_storage)dyn_storage": {
        "base": "t_struct(SupplierI)23_storage",
        "encoding": "dynamic_array",
        "label": "struct Supply.SupplierI[]",
        "numberOfBytes": "32"
      },
      "t_array(t_struct(WorkerI)32_storage)dyn_storage": {
        "base": "t_struct(WorkerI)32_storage",
        "encoding": "dynamic_array",
        "label": "struct Supply.WorkerI[]",
        "numberOfBytes": "32"
      },
      "t_mapping(t_address,t_array(t_struct(SupplierI)23_storage)dyn_storage)": {
        "encoding": "mapping",
        "key": "t_address",
        "label": "mapping(address => struct Supply.SupplierI[])",
        "numberOfBytes": "32",
        "value": "t_array(t_struct(SupplierI)23_storage)dyn_storage"
      },
      "t_mapping(t_address,t_array(t_struct(WorkerI)32_storage)dyn_storage)": {
        "encoding": "mapping",
        "key": "t_address",
        "label": "mapping(address => struct Supply.WorkerI[])",
        "numberOfBytes": "32",
        "value": "t_array(t_struct(WorkerI)32_storage)dyn_storage"
      },
      "t_mapping(t_address,t_struct(AdminI)14_storage)": {
        "encoding": "mapping",
        "key": "t_address",
        "label": "mapping(address => struct Supply.AdminI)",
        "numberOfBytes": "32",
        "value": "t_struct(AdminI)14_storage"
      },
      "t_mapping(t_uint256,t_array(t_struct(ProductIT)50_storage)dyn_storage)": {
        "encoding": "mapping",
        "key": "t_uint256",
        "label": "mapping(uint256 => struct Supply.ProductIT[])",
        "numberOfBytes": "32",
        "value": "t_array(t_struct(ProductIT)50_storage)dyn_storage"
      },
      "t_string_storage": {
        "encoding": "bytes",
        "label": "string",
        "numberOfBytes": "32"
      },
      "t_struct(AdminI)14_storage": {
        "encoding": "inplace",
        "label": "struct Supply.AdminI",
        "members": [
          {
            "astId": 7,
            "contract": "contracts/Supply.sol:Supply",
            "label": "adminId",
            "offset": 0,
            "slot": "0",
            "type": "t_uint256"
          },
          {
            "astId": 9,
            "contract": "contracts/Supply.sol:Supply",
            "label": "adminAdd",
            "offset": 0,
            "slot": "1",
            "type": "t_address"
          },
          {
            "astId": 11,
            "contract": "contracts/Supply.sol:Supply",
            "label": "name",
            "offset": 0,
            "slot": "2",
            "type": "t_string_storage"
          },
          {
            "astId": 13,
            "contract": "contracts/Supply.sol:Supply",
            "label": "company_name",
            "offset": 0,
            "slot": "3",
            "type": "t_string_storage"
          }
        ],
        "numberOfBytes": "128"
      },
      "t_struct(ProductIT)50_storage": {
        "encoding": "inplace",
        "label": "struct Supply.ProductIT",
        "members": [
          {
            "astId": 41,
            "contract": "contracts/Supply.sol:Supply",
            "label": "healthPerc",
            "offset": 0,
            "slot": "0",
            "type": "t_uint256"
          },
          {
            "astId": 43,
            "contract": "contracts/Supply.sol:Supply",
            "label": "workerA",
            "offset": 0,
            "slot": "1",
            "type": "t_address"
          },
          {
            "astId": 45,
            "contract": "contracts/Supply.sol:Supply",
            "label": "place",
            "offset": 0,
            "slot": "2",
            "type": "t_string_storage"
          },
          {
            "astId": 47,
            "contract": "contracts/Supply.sol:Supply",
            "label": "time",
            "offset": 0,
            "slot": "3",
            "type": "t_string_storage"
          },
          {
            "astId": 49,
            "contract": "contracts/Supply.sol:Supply",
            "label": "productId",
            "offset": 0,
            "slot": "4",
            "type": "t_uint256"
          }
        ],
        "numberOfBytes": "160"
      },
      "t_struct(ProductInfo)39_storage": {
        "encoding": "inplace",
        "label": "struct Supply.ProductInfo",
        "members": [
          {
            "astId": 34,
            "contract": "contracts/Supply.sol:Supply",
            "label": "productId",
            "offset": 0,
            "slot": "0",
            "type": "t_uint256"
          },
          {
            "astId": 36,
            "contract": "contracts/Supply.sol:Supply",
            "label": "name",
            "offset": 0,
            "slot": "1",
            "type": "t_string_storage"
          },
          {
            "astId": 38,
            "contract": "contracts/Supply.sol:Supply",
            "label": "adminId",
            "offset": 0,
            "slot": "2",
            "type": "t_uint256"
          }
        ],
        "numberOfBytes": "96"
      },
      "t_struct(SupplierI)23_storage": {
        "encoding": "inplace",
        "label": "struct Supply.SupplierI",
        "members": [
          {
            "astId": 16,
            "contract": "contracts/Supply.sol:Supply",
            "label": "supplierId",
            "offset": 0,
            "slot": "0",
            "type": "t_uint256"
          },
          {
            "astId": 18,
            "contract": "contracts/Supply.sol:Supply",
            "label": "supplierDD",
            "offset": 0,
            "slot": "1",
            "type": "t_address"
          },
          {
            "astId": 20,
            "contract": "contracts/Supply.sol:Supply",
            "label": "name",
            "offset": 0,
            "slot": "2",
            "type": "t_string_storage"
          },
          {
            "astId": 22,
            "contract": "contracts/Supply.sol:Supply",
            "label": "adminAdd",
            "offset": 0,
            "slot": "3",
            "type": "t_address"
          }
        ],
        "numberOfBytes": "128"
      },
      "t_struct(WorkerI)32_storage": {
        "encoding": "inplace",
        "label": "struct Supply.WorkerI",
        "members": [
          {
            "astId": 25,
            "contract": "contracts/Supply.sol:Supply",
            "label": "workerId",
            "offset": 0,
            "slot": "0",
            "type": "t_uint256"
          },
          {
            "astId": 27,
            "contract": "contracts/Supply.sol:Supply",
            "label": "workerDD",
            "offset": 0,
            "slot": "1",
            "type": "t_address"
          },
          {
            "astId": 29,
            "contract": "contracts/Supply.sol:Supply",
            "label": "name",
            "offset": 0,
            "slot": "2",
            "type": "t_string_storage"
          },
          {
            "astId": 31,
            "contract": "contracts/Supply.sol:Supply",
            "label": "supplierAdd",
            "offset": 0,
            "slot": "3",
            "type": "t_address"
          }
        ],
        "numberOfBytes": "128"
      },
      "t_uint256": {
        "encoding": "inplace",
        "label": "uint256",
        "numberOfBytes": "32"
      }
    }
  }
}