{
  "_format": "hh-sol-artifact-1",
  "contractName": "Supply",
  "sourceName": "contracts/Supply.sol",
  "abi": [
    {
      "inputs": [],
      "stateMutability": "nonpayable",
      "type": "constructor"
    },
    {
      "anonymous": false,
      "inputs": [
        {
          "indexed": false,
          "internalType": "string",
          "name": "msg",
          "type": "string"
        }
      ],
      "name": "success",
      "type": "event"
    },
    {
      "inputs": [
        {
          "internalType": "string",
          "name": "_name",
          "type": "string"
        },
        {
          "internalType": "address",
          "name": "_senderAddress",
          "type": "address"
        },
        {
          "internalType": "string",
          "name": "_description",
          "type": "string"
        },
        {
          "internalType": "string",
          "name": "_image_url",
          "type": "string"
        }
      ],
      "name": "addProduct",
      "outputs": [],
      "stateMutability": "nonpayable",
      "type": "function"
    },
    {
      "inputs": [
        {
          "internalType": "address",
          "name": "_senderAddress",
          "type": "address"
        },
        {
          "internalType": "uint256",
          "name": "_healthPerc",
          "type": "uint256"
        },
        {
          "internalType": "string",
          "name": "_place",
          "type": "string"
        },
        {
          "internalType": "string",
          "name": "_time",
          "type": "string"
        },
        {
          "internalType": "uint256",
          "name": "_productId",
          "type": "uint256"
        }
      ],
      "name": "addProductTInfo",
      "outputs": [],
      "stateMutability": "nonpayable",
      "type": "function"
    },
    {
      "inputs": [],
      "name": "adminCount",
      "outputs": [
        {
          "internalType": "uint256",
          "name": "",
          "type": "uint256"
        }
      ],
      "stateMutability": "view",
      "type": "function"
    },
    {
      "inputs": [
        {
          "internalType": "address",
          "name": "_senderAddress",
          "type": "address"
        }
      ],
      "name": "adminExists",
      "outputs": [
        {
          "internalType": "bool",
          "name": "",
          "type": "bool"
        }
      ],
      "stateMutability": "view",
      "type": "function"
    },
    {
      "inputs": [
        {
          "internalType": "uint256",
          "name": "",
          "type": "uint256"
        }
      ],
      "name": "adminSt",
      "outputs": [
        {
          "internalType": "uint256",
          "name": "adminId",
          "type": "uint256"
        },
        {
          "internalType": "address",
          "name": "adminAdd",
          "type": "address"
        },
        {
          "internalType": "string",
          "name": "name",
          "type": "string"
        },
        {
          "internalType": "string",
          "name": "company_name",
          "type": "string"
        },
        {
          "internalType": "bool",
          "name": "approved",
          "type": "bool"
        }
      ],
      "stateMutability": "view",
      "type": "function"
    },
    {
      "inputs": [
        {
          "internalType": "address",
          "name": "",
          "type": "address"
        }
      ],
      "name": "adminsM",
      "outputs": [
        {
          "internalType": "uint256",
          "name": "adminId",
          "type": "uint256"
        },
        {
          "internalType": "address",
          "name": "adminAdd",
          "type": "address"
        },
        {
          "internalType": "string",
          "name": "name",
          "type": "string"
        },
        {
          "internalType": "string",
          "name": "company_name",
          "type": "string"
        },
        {
          "internalType": "bool",
          "name": "approved",
          "type": "bool"
        }
      ],
      "stateMutability": "view",
      "type": "function"
    },
    {
      "inputs": [
        {
          "internalType": "address",
          "name": "senderAddress",
          "type": "address"
        }
      ],
      "name": "checkIfCompAdmin",
      "outputs": [
        {
          "internalType": "string",
          "name": "",
          "type": "string"
        }
      ],
      "stateMutability": "view",
      "type": "function"
    },
    {
      "inputs": [],
      "name": "checkIfOwner",
      "outputs": [
        {
          "internalType": "string",
          "name": "",
          "type": "string"
        }
      ],
      "stateMutability": "view",
      "type": "function"
    },
    {
      "inputs": [
        {
          "internalType": "address",
          "name": "senderAddress",
          "type": "address"
        }
      ],
      "name": "checkIfSupplier",
      "outputs": [
        {
          "internalType": "string",
          "name": "",
          "type": "string"
        }
      ],
      "stateMutability": "view",
      "type": "function"
    },
    {
      "inputs": [
        {
          "internalType": "uint256",
          "name": "_index",
          "type": "uint256"
        }
      ],
      "name": "getAdminByindex",
      "outputs": [
        {
          "components": [
            {
              "internalType": "uint256",
              "name": "adminId",
              "type": "uint256"
            },
            {
              "internalType": "address",
              "name": "adminAdd",
              "type": "address"
            },
            {
              "internalType": "string",
              "name": "name",
              "type": "string"
            },
            {
              "internalType": "string",
              "name": "company_name",
              "type": "string"
            },
            {
              "internalType": "bool",
              "name": "approved",
              "type": "bool"
            }
          ],
          "internalType": "struct Supply.AdminI",
          "name": "",
          "type": "tuple"
        }
      ],
      "stateMutability": "view",
      "type": "function"
    },
    {
      "inputs": [],
      "name": "getAdminCount",
      "outputs": [
        {
          "internalType": "uint256",
          "name": "",
          "type": "uint256"
        }
      ],
      "stateMutability": "view",
      "type": "function"
    },
    {
      "inputs": [],
      "name": "getAllProducts",
      "outputs": [
        {
          "components": [
            {
              "internalType": "uint256",
              "name": "productId",
              "type": "uint256"
            },
            {
              "internalType": "string",
              "name": "name",
              "type": "string"
            },
            {
              "internalType": "address",
              "name": "supplierAddress",
              "type": "address"
            },
            {
              "internalType": "string",
              "name": "image_url",
              "type": "string"
            },
            {
              "internalType": "string",
              "name": "description",
              "type": "string"
            }
          ],
          "internalType": "struct Supply.ProductInfo[]",
          "name": "",
          "type": "tuple[]"
        }
      ],
      "stateMutability": "view",
      "type": "function"
    },
    {
      "inputs": [
        {
          "internalType": "uint256",
          "name": "_index",
          "type": "uint256"
        }
      ],
      "name": "getProductByindex",
      "outputs": [
        {
          "components": [
            {
              "internalType": "uint256",
              "name": "productId",
              "type": "uint256"
            },
            {
              "internalType": "string",
              "name": "name",
              "type": "string"
            },
            {
              "internalType": "address",
              "name": "supplierAddress",
              "type": "address"
            },
            {
              "internalType": "string",
              "name": "image_url",
              "type": "string"
            },
            {
              "internalType": "string",
              "name": "description",
              "type": "string"
            }
          ],
          "internalType": "struct Supply.ProductInfo",
          "name": "",
          "type": "tuple"
        }
      ],
      "stateMutability": "view",
      "type": "function"
    },
    {
      "inputs": [],
      "name": "getProductCount",
      "outputs": [
        {
          "internalType": "uint256",
          "name": "",
          "type": "uint256"
        }
      ],
      "stateMutability": "view",
      "type": "function"
    },
    {
      "inputs": [
        {
          "internalType": "uint256",
          "name": "_productId",
          "type": "uint256"
        }
      ],
      "name": "getProductHist",
      "outputs": [
        {
          "components": [
            {
              "internalType": "uint256",
              "name": "healthPerc",
              "type": "uint256"
            },
            {
              "internalType": "address",
              "name": "workerA",
              "type": "address"
            },
            {
              "internalType": "string",
              "name": "place",
              "type": "string"
            },
            {
              "internalType": "string",
              "name": "time",
              "type": "string"
            },
            {
              "internalType": "uint256",
              "name": "productId",
              "type": "uint256"
            }
          ],
          "internalType": "struct Supply.ProductIT[]",
          "name": "",
          "type": "tuple[]"
        }
      ],
      "stateMutability": "view",
      "type": "function"
    },
    {
      "inputs": [
        {
          "internalType": "uint256",
          "name": "_productId",
          "type": "uint256"
        },
        {
          "internalType": "uint256",
          "name": "_index",
          "type": "uint256"
        }
      ],
      "name": "getProductHistoryByIndex",
      "outputs": [
        {
          "components": [
            {
              "internalType": "uint256",
              "name": "healthPerc",
              "type": "uint256"
            },
            {
              "internalType": "address",
              "name": "workerA",
              "type": "address"
            },
            {
              "internalType": "string",
              "name": "place",
              "type": "string"
            },
            {
              "internalType": "string",
              "name": "time",
              "type": "string"
            },
            {
              "internalType": "uint256",
              "name": "productId",
              "type": "uint256"
            }
          ],
          "internalType": "struct Supply.ProductIT",
          "name": "",
          "type": "tuple"
        }
      ],
      "stateMutability": "view",
      "type": "function"
    },
    {
      "inputs": [
        {
          "internalType": "uint256",
          "name": "_productId",
          "type": "uint256"
        }
      ],
      "name": "getProductHistoryCount",
      "outputs": [
        {
          "internalType": "uint256",
          "name": "",
          "type": "uint256"
        }
      ],
      "stateMutability": "view",
      "type": "function"
    },
    {
      "inputs": [
        {
          "internalType": "uint256",
          "name": "_index",
          "type": "uint256"
        }
      ],
      "name": "getSupplierByindex",
      "outputs": [
        {
          "components": [
            {
              "internalType": "uint256",
              "name": "supplierId",
              "type": "uint256"
            },
            {
              "internalType": "address",
              "name": "supplierDD",
              "type": "address"
            },
            {
              "internalType": "string",
              "name": "name",
              "type": "string"
            },
            {
              "internalType": "address",
              "name": "adminAdd",
              "type": "address"
            }
          ],
          "internalType": "struct Supply.SupplierI",
          "name": "",
          "type": "tuple"
        }
      ],
      "stateMutability": "view",
      "type": "function"
    },
    {
      "inputs": [],
      "name": "getSupplierCount",
      "outputs": [
        {
          "internalType": "uint256",
          "name": "",
          "type": "uint256"
        }
      ],
      "stateMutability": "view",
      "type": "function"
    },
    {
      "inputs": [],
      "name": "owner",
      "outputs": [
        {
          "internalType": "address",
          "name": "",
          "type": "address"
        }
      ],
      "stateMutability": "view",
      "type": "function"
    },
    {
      "inputs": [],
      "name": "productCount",
      "outputs": [
        {
          "internalType": "uint256",
          "name": "",
          "type": "uint256"
        }
      ],
      "stateMutability": "view",
      "type": "function"
    },
    {
      "inputs": [
        {
          "internalType": "uint256",
          "name": "",
          "type": "uint256"
        },
        {
          "internalType": "uint256",
          "name": "",
          "type": "uint256"
        }
      ],
      "name": "productIM",
      "outputs": [
        {
          "internalType": "uint256",
          "name": "healthPerc",
          "type": "uint256"
        },
        {
          "internalType": "address",
          "name": "workerA",
          "type": "address"
        },
        {
          "internalType": "string",
          "name": "place",
          "type": "string"
        },
        {
          "internalType": "string",
          "name": "time",
          "type": "string"
        },
        {
          "internalType": "uint256",
          "name": "productId",
          "type": "uint256"
        }
      ],
      "stateMutability": "view",
      "type": "function"
    },
    {
      "inputs": [
        {
          "internalType": "uint256",
          "name": "",
          "type": "uint256"
        }
      ],
      "name": "productSt",
      "outputs": [
        {
          "internalType": "uint256",
          "name": "productId",
          "type": "uint256"
        },
        {
          "internalType": "string",
          "name": "name",
          "type": "string"
        },
        {
          "internalType": "address",
          "name": "supplierAddress",
          "type": "address"
        },
        {
          "internalType": "string",
          "name": "image_url",
          "type": "string"
        },
        {
          "internalType": "string",
          "name": "description",
          "type": "string"
        }
      ],
      "stateMutability": "view",
      "type": "function"
    },
    {
      "inputs": [
        {
          "internalType": "string",
          "name": "_name",
          "type": "string"
        },
        {
          "internalType": "string",
          "name": "_company_name",
          "type": "string"
        },
        {
          "internalType": "address",
          "name": "_new_user",
          "type": "address"
        },
        {
          "internalType": "uint256",
          "name": "_user_id",
          "type": "uint256"
        },
        {
          "internalType": "uint256",
          "name": "_index",
          "type": "uint256"
        }
      ],
      "name": "registerNewAdmin",
      "outputs": [],
      "stateMutability": "nonpayable",
      "type": "function"
    },
    {
      "inputs": [
        {
          "internalType": "address",
          "name": "senderAddress",
          "type": "address"
        },
        {
          "internalType": "address",
          "name": "_adminAddress",
          "type": "address"
        },
        {
          "internalType": "string",
          "name": "_name",
          "type": "string"
        }
      ],
      "name": "registerNewSupplier",
      "outputs": [],
      "stateMutability": "nonpayable",
      "type": "function"
    },
    {
      "inputs": [
        {
          "internalType": "string",
          "name": "_name",
          "type": "string"
        },
        {
          "internalType": "string",
          "name": "_company_name",
          "type": "string"
        },
        {
          "internalType": "address",
          "name": "_new_user",
          "type": "address"
        }
      ],
      "name": "registerTempNewAdmin",
      "outputs": [],
      "stateMutability": "nonpayable",
      "type": "function"
    },
    {
      "inputs": [],
      "name": "supplierCount",
      "outputs": [
        {
          "internalType": "uint256",
          "name": "",
          "type": "uint256"
        }
      ],
      "stateMutability": "view",
      "type": "function"
    },
    {
      "inputs": [
        {
          "internalType": "address",
          "name": "",
          "type": "address"
        },
        {
          "internalType": "address",
          "name": "",
          "type": "address"
        }
      ],
      "name": "supplierM",
      "outputs": [
        {
          "internalType": "uint256",
          "name": "supplierId",
          "type": "uint256"
        },
        {
          "internalType": "address",
          "name": "supplierDD",
          "type": "address"
        },
        {
          "internalType": "string",
          "name": "name",
          "type": "string"
        },
        {
          "internalType": "address",
          "name": "adminAdd",
          "type": "address"
        }
      ],
      "stateMutability": "view",
      "type": "function"
    },
    {
      "inputs": [
        {
          "internalType": "uint256",
          "name": "",
          "type": "uint256"
        }
      ],
      "name": "supplierSt",
      "outputs": [
        {
          "internalType": "uint256",
          "name": "supplierId",
          "type": "uint256"
        },
        {
          "internalType": "address",
          "name": "supplierDD",
          "type": "address"
        },
        {
          "internalType": "string",
          "name": "name",
          "type": "string"
        },
        {
          "internalType": "address",
          "name": "adminAdd",
          "type": "address"
        }
      ],
      "stateMutability": "view",
      "type": "function"
    },
    {
      "inputs": [
        {
          "internalType": "address",
          "name": "",
          "type": "address"
        }
      ],
      "name": "supplierToAdmin",
      "outputs": [
        {
          "internalType": "address",
          "name": "",
          "type": "address"
        }
      ],
      "stateMutability": "view",
      "type": "function"
    },
    {
      "inputs": [],
      "name": "viewAllAdmins",
      "outputs": [
        {
          "components": [
            {
              "internalType": "uint256",
              "name": "adminId",
              "type": "uint256"
            },
            {
              "internalType": "address",
              "name": "adminAdd",
              "type": "address"
            },
            {
              "internalType": "string",
              "name": "name",
              "type": "string"
            },
            {
              "internalType": "string",
              "name": "company_name",
              "type": "string"
            },
            {
              "internalType": "bool",
              "name": "approved",
              "type": "bool"
            }
          ],
          "internalType": "struct Supply.AdminI[]",
          "name": "",
          "type": "tuple[]"
        }
      ],
      "stateMutability": "view",
      "type": "function"
    },
    {
      "inputs": [],
      "name": "viewAllSuppliers",
      "outputs": [
        {
          "components": [
            {
              "internalType": "uint256",
              "name": "supplierId",
              "type": "uint256"
            },
            {
              "internalType": "address",
              "name": "supplierDD",
              "type": "address"
            },
            {
              "internalType": "string",
              "name": "name",
              "type": "string"
            },
            {
              "internalType": "address",
              "name": "adminAdd",
              "type": "address"
            }
          ],
          "internalType": "struct Supply.SupplierI[]",
          "name": "",
          "type": "tuple[]"
        }
      ],
      "stateMutability": "view",
      "type": "function"
    },
    {
      "inputs": [
        {
          "internalType": "address",
          "name": "",
          "type": "address"
        },
        {
          "internalType": "uint256",
          "name": "",
          "type": "uint256"
        }
      ],
      "name": "workerM",
      "outputs": [
        {
          "internalType": "uint256",
          "name": "workerId",
          "type": "uint256"
        },
        {
          "internalType": "address",
          "name": "workerDD",
          "type": "address"
        },
        {
          "internalType": "string",
          "name": "name",
          "type": "string"
        },
        {
          "internalType": "address",
          "name": "supplierAdd",
          "type": "address"
        }
      ],
      "stateMutability": "view",
      "type": "function"
    },
    {
      "inputs": [
        {
          "internalType": "uint256",
          "name": "",
          "type": "uint256"
        }
      ],
      "name": "workerSt",
      "outputs": [
        {
          "internalType": "uint256",
          "name": "workerId",
          "type": "uint256"
        },
        {
          "internalType": "address",
          "name": "workerDD",
          "type": "address"
        },
        {
          "internalType": "string",
          "name": "name",
          "type": "string"
        },
        {
          "internalType": "address",
          "name": "supplierAdd",
          "type": "address"
        }
      ],
      "stateMutability": "view",
      "type": "function"
    }
  ],
  "bytecode": "0x608060405234801561001057600080fd5b50336000806101000a81548173ffffffffffffffffffffffffffffffffffffffff021916908373ffffffffffffffffffffffffffffffffffffffff160217905550600060018190555060006002819055506000600381905550614971806100786000396000f3fe608060405234801561001057600080fd5b50600436106102065760003560e01c8063898de7731161011a578063ae422599116100ad578063dfa8ba8a1161007c578063dfa8ba8a146106a5578063e0f6ef87146106c3578063e9064fe9146106e1578063eb130f3d146106fd578063f0b00bbb1461072d57610206565b8063ae422599146105de578063c44b5c5514610611578063cca5822f14610641578063dde9c1961461067157610206565b80638da5cb5b116100e95780638da5cb5b1461052a5780639acc36b5146105485780639be2d0951461057b578063a59ec470146105ab57610206565b8063898de7731461048a57806389ca5b68146104a85780638b207dd8146104d85780638b7bf3eb1461050c57610206565b806323218e5f1161019d5780635083f4b31161016c5780635083f4b3146103bd578063618dbb20146103db5780636f703bc81461040b578063783477121461043e5780638983f4e81461046e57610206565b806323218e5f1461032f5780632af673a31461034d5780632b7832b3146103815780634a348da91461039f57610206565b80630e4e60d7116101d95780630e4e60d7146102915780630ea69718146102c5578063125455b3146102f5578063140c6b911461031157610206565b806301fdfcff1461020b57806302ee3a52146102275780630710c32d146102455780630bdd2ec014610261575b600080fd5b610225600480360381019061022091906134ac565b61075d565b005b61022f6108c6565b60405161023c9190613742565b60405180910390f35b61025f600480360381019061025a9190613764565b610bab565b005b61027b600480360381019061027691906137ef565b610dfa565b604051610288919061382b565b60405180910390f35b6102ab60048036038101906102a69190613846565b610e2d565b6040516102bc9594939291906138df565b60405180910390f35b6102df60048036038101906102da9190613940565b610fb0565b6040516102ec9190613aac565b60405180910390f35b61030f600480360381019061030a9190613ace565b6111b0565b005b610319611339565b6040516103269190613b89565b60405180910390f35b61033761133f565b6040516103449190613b89565b60405180910390f35b610367600480360381019061036291906137ef565b611349565b604051610378959493929190613bbf565b60405180910390f35b6103896114bc565b6040516103969190613b89565b60405180910390f35b6103a76114c2565b6040516103b49190613b89565b60405180910390f35b6103c56114cc565b6040516103d29190613d6e565b60405180910390f35b6103f560048036038101906103f09190613940565b611746565b6040516104029190613e14565b60405180910390f35b61042560048036038101906104209190613e36565b611998565b6040516104359493929190613e76565b60405180910390f35b61045860048036038101906104539190613940565b611a9d565b6040516104659190613b89565b60405180910390f35b61048860048036038101906104839190613ec2565b611abd565b005b610492611cea565b60405161049f9190613f75565b60405180910390f35b6104c260048036038101906104bd91906137ef565b611db5565b6040516104cf9190613f75565b60405180910390f35b6104f260048036038101906104ed9190613940565b611f1b565b604051610503959493929190613bbf565b60405180910390f35b61051461209e565b6040516105219190613b89565b60405180910390f35b6105326120a8565b60405161053f919061382b565b60405180910390f35b610562600480360381019061055d9190613940565b6120cc565b6040516105729493929190613e76565b60405180910390f35b610595600480360381019061059091906137ef565b6121d4565b6040516105a29190613f97565b60405180910390f35b6105c560048036038101906105c09190613fb2565b61222d565b6040516105d59493929190613e76565b60405180910390f35b6105f860048036038101906105f39190613940565b612342565b6040516106089493929190613e76565b60405180910390f35b61062b60048036038101906106269190613940565b61244a565b604051610638919061406f565b60405180910390f35b61065b600480360381019061065691906137ef565b612625565b6040516106689190613f75565b60405180910390f35b61068b60048036038101906106869190613940565b6126e9565b60405161069c959493929190614091565b60405180910390f35b6106ad6128e7565b6040516106ba919061421e565b60405180910390f35b6106cb612afe565b6040516106d89190613b89565b60405180910390f35b6106fb60048036038101906106f69190614240565b612b04565b005b61071760048036038101906107129190613940565b612e39565b6040516107249190614312565b60405180910390f35b61074760048036038101906107429190613846565b612fbd565b60405161075491906143b1565b60405180910390f35b6000610768866121d4565b905060001515811515036107815761077f86611db5565b505b60006040518060a001604052808781526020018873ffffffffffffffffffffffffffffffffffffffff168152602001868152602001858152602001848152509050600860008481526020019081526020016000208190806001815401808255809150506001900390600052602060002090600502016000909190919091506000820151816000015560208201518160010160006101000a81548173ffffffffffffffffffffffffffffffffffffffff021916908373ffffffffffffffffffffffffffffffffffffffff160217905550604082015181600201908161086591906145df565b50606082015181600301908161087b91906145df565b506080820151816004015550507f68f068b2f0d02fca99bc8285b62fce8668fe16b7c6a810351ea25bff358c0dd86040516108b5906146fd565b60405180910390a150505050505050565b60606000600c8054905067ffffffffffffffff8111156108e9576108e8613381565b5b60405190808252806020026020018201604052801561092257816020015b61090f613199565b8152602001906001900390816109075790505b50905060005b600c80549050811015610ba357600c81815481106109495761094861471d565b5b90600052602060002090600502016040518060a00160405290816000820154815260200160018201805461097c90614402565b80601f01602080910402602001604051908101604052809291908181526020018280546109a890614402565b80156109f55780601f106109ca576101008083540402835291602001916109f5565b820191906000526020600020905b8154815290600101906020018083116109d857829003601f168201915b505050505081526020016002820160009054906101000a900473ffffffffffffffffffffffffffffffffffffffff1673ffffffffffffffffffffffffffffffffffffffff1673ffffffffffffffffffffffffffffffffffffffff168152602001600382018054610a6490614402565b80601f0160208091040260200160405190810160405280929190818152602001828054610a9090614402565b8015610add5780601f10610ab257610100808354040283529160200191610add565b820191906000526020600020905b815481529060010190602001808311610ac057829003601f168201915b50505050508152602001600482018054610af690614402565b80601f0160208091040260200160405190810160405280929190818152602001828054610b2290614402565b8015610b6f5780601f10610b4457610100808354040283529160200191610b6f565b820191906000526020600020905b815481529060010190602001808311610b5257829003601f168201915b505050505081525050828281518110610b8b57610b8a61471d565b5b60200260200101819052508080600101915050610928565b508091505090565b60006040518060a0016040528060018054610bc6919061477b565b81526020018373ffffffffffffffffffffffffffffffffffffffff16815260200185815260200184815260200160001515815250905080600460008473ffffffffffffffffffffffffffffffffffffffff1673ffffffffffffffffffffffffffffffffffffffff1681526020019081526020016000206000820151816000015560208201518160010160006101000a81548173ffffffffffffffffffffffffffffffffffffffff021916908373ffffffffffffffffffffffffffffffffffffffff1602179055506040820151816002019081610ca291906145df565b506060820151816003019081610cb891906145df565b5060808201518160040160006101000a81548160ff02191690831515021790555090505060098190806001815401808255809150506001900390600052602060002090600502016000909190919091506000820151816000015560208201518160010160006101000a81548173ffffffffffffffffffffffffffffffffffffffff021916908373ffffffffffffffffffffffffffffffffffffffff1602179055506040820151816002019081610d6e91906145df565b506060820151816003019081610d8491906145df565b5060808201518160040160006101000a81548160ff021916908315150217905550505060016000815480929190610dba906147af565b91905055507f68f068b2f0d02fca99bc8285b62fce8668fe16b7c6a810351ea25bff358c0dd8604051610dec90614843565b60405180910390a150505050565b60066020528060005260406000206000915054906101000a900473ffffffffffffffffffffffffffffffffffffffff1681565b60086020528160005260406000208181548110610e4957600080fd5b9060005260206000209060050201600091509150508060000154908060010160009054906101000a900473ffffffffffffffffffffffffffffffffffffffff1690806002018054610e9990614402565b80601f0160208091040260200160405190810160405280929190818152602001828054610ec590614402565b8015610f125780601f10610ee757610100808354040283529160200191610f12565b820191906000526020600020905b815481529060010190602001808311610ef557829003601f168201915b505050505090806003018054610f2790614402565b80601f0160208091040260200160405190810160405280929190818152602001828054610f5390614402565b8015610fa05780601f10610f7557610100808354040283529160200191610fa0565b820191906000526020600020905b815481529060010190602001808311610f8357829003601f168201915b5050505050908060040154905085565b606060086000838152602001908152602001600020805480602002602001604051908101604052809291908181526020016000905b828210156111a557838290600052602060002090600502016040518060a0016040529081600082015481526020016001820160009054906101000a900473ffffffffffffffffffffffffffffffffffffffff1673ffffffffffffffffffffffffffffffffffffffff1673ffffffffffffffffffffffffffffffffffffffff16815260200160028201805461107890614402565b80601f01602080910402602001604051908101604052809291908181526020018280546110a490614402565b80156110f15780601f106110c6576101008083540402835291602001916110f1565b820191906000526020600020905b8154815290600101906020018083116110d457829003601f168201915b5050505050815260200160038201805461110a90614402565b80601f016020809104026020016040519081016040528092919081815260200182805461113690614402565b80156111835780601f1061115857610100808354040283529160200191611183565b820191906000526020600020905b81548152906001019060200180831161116657829003601f168201915b5050505050815260200160048201548152505081526020019060010190610fe5565b505050509050919050565b60006111bb846121d4565b905060001515811515036111d4576111d284611db5565b505b60006040518060a001604052806001600c805490506111f3919061477b565b81526020018781526020018673ffffffffffffffffffffffffffffffffffffffff168152602001848152602001858152509050600c81908060018154018082558091505060019003906000526020600020906005020160009091909190915060008201518160000155602082015181600101908161127191906145df565b5060408201518160020160006101000a81548173ffffffffffffffffffffffffffffffffffffffff021916908373ffffffffffffffffffffffffffffffffffffffff16021790555060608201518160030190816112ce91906145df565b5060808201518160040190816112e491906145df565b50505060016003546112f6919061477b565b6003819055507f68f068b2f0d02fca99bc8285b62fce8668fe16b7c6a810351ea25bff358c0dd8604051611329906146fd565b60405180910390a1505050505050565b60025481565b6000600254905090565b60046020528060005260406000206000915090508060000154908060010160009054906101000a900473ffffffffffffffffffffffffffffffffffffffff169080600201805461139890614402565b80601f01602080910402602001604051908101604052809291908181526020018280546113c490614402565b80156114115780601f106113e657610100808354040283529160200191611411565b820191906000526020600020905b8154815290600101906020018083116113f457829003601f168201915b50505050509080600301805461142690614402565b80601f016020809104026020016040519081016040528092919081815260200182805461145290614402565b801561149f5780601f106114745761010080835404028352916020019161149f565b820191906000526020600020905b81548152906001019060200180831161148257829003601f168201915b5050505050908060040160009054906101000a900460ff16905085565b60015481565b6000600354905090565b6060600060098054905067ffffffffffffffff8111156114ef576114ee613381565b5b60405190808252806020026020018201604052801561152857816020015b6115156131de565b81526020019060019003908161150d5790505b50905060005b60098054905081101561173e576009818154811061154f5761154e61471d565b5b90600052602060002090600502016040518060a0016040529081600082015481526020016001820160009054906101000a900473ffffffffffffffffffffffffffffffffffffffff1673ffffffffffffffffffffffffffffffffffffffff1673ffffffffffffffffffffffffffffffffffffffff1681526020016002820180546115d890614402565b80601f016020809104026020016040519081016040528092919081815260200182805461160490614402565b80156116515780601f1061162657610100808354040283529160200191611651565b820191906000526020600020905b81548152906001019060200180831161163457829003601f168201915b5050505050815260200160038201805461166a90614402565b80601f016020809104026020016040519081016040528092919081815260200182805461169690614402565b80156116e35780601f106116b8576101008083540402835291602001916116e3565b820191906000526020600020905b8154815290600101906020018083116116c657829003601f168201915b505050505081526020016004820160009054906101000a900460ff16151515158152505082600183611715919061477b565b815181106117265761172561471d565b5b6020026020010181905250808060010191505061152e565b508091505090565b61174e613199565b600c82815481106117625761176161471d565b5b90600052602060002090600502016040518060a00160405290816000820154815260200160018201805461179590614402565b80601f01602080910402602001604051908101604052809291908181526020018280546117c190614402565b801561180e5780601f106117e35761010080835404028352916020019161180e565b820191906000526020600020905b8154815290600101906020018083116117f157829003601f168201915b505050505081526020016002820160009054906101000a900473ffffffffffffffffffffffffffffffffffffffff1673ffffffffffffffffffffffffffffffffffffffff1673ffffffffffffffffffffffffffffffffffffffff16815260200160038201805461187d90614402565b80601f01602080910402602001604051908101604052809291908181526020018280546118a990614402565b80156118f65780601f106118cb576101008083540402835291602001916118f6565b820191906000526020600020905b8154815290600101906020018083116118d957829003601f168201915b5050505050815260200160048201805461190f90614402565b80601f016020809104026020016040519081016040528092919081815260200182805461193b90614402565b80156119885780601f1061195d57610100808354040283529160200191611988565b820191906000526020600020905b81548152906001019060200180831161196b57829003601f168201915b5050505050815250509050919050565b6005602052816000526040600020602052806000526040600020600091509150508060000154908060010160009054906101000a900473ffffffffffffffffffffffffffffffffffffffff16908060020180546119f490614402565b80601f0160208091040260200160405190810160405280929190818152602001828054611a2090614402565b8015611a6d5780601f10611a4257610100808354040283529160200191611a6d565b820191906000526020600020905b815481529060010190602001808311611a5057829003601f168201915b5050505050908060030160009054906101000a900473ffffffffffffffffffffffffffffffffffffffff16905084565b600060086000838152602001908152602001600020805490509050919050565b611ac5611cea565b5060006040518060a001604052808481526020018573ffffffffffffffffffffffffffffffffffffffff16815260200187815260200186815260200160011515815250905080600460008673ffffffffffffffffffffffffffffffffffffffff1673ffffffffffffffffffffffffffffffffffffffff1681526020019081526020016000206000820151816000015560208201518160010160006101000a81548173ffffffffffffffffffffffffffffffffffffffff021916908373ffffffffffffffffffffffffffffffffffffffff1602179055506040820151816002019081611bb091906145df565b506060820151816003019081611bc691906145df565b5060808201518160040160006101000a81548160ff0219169083151502179055509050508060098381548110611bff57611bfe61471d565b5b90600052602060002090600502016000820151816000015560208201518160010160006101000a81548173ffffffffffffffffffffffffffffffffffffffff021916908373ffffffffffffffffffffffffffffffffffffffff1602179055506040820151816002019081611c7391906145df565b506060820151816003019081611c8991906145df565b5060808201518160040160006101000a81548160ff0219169083151502179055509050507f68f068b2f0d02fca99bc8285b62fce8668fe16b7c6a810351ea25bff358c0dd8604051611cda906148af565b60405180910390a1505050505050565b606060008054906101000a900473ffffffffffffffffffffffffffffffffffffffff1673ffffffffffffffffffffffffffffffffffffffff163373ffffffffffffffffffffffffffffffffffffffff1614611d7a576040517f08c379a0000000000000000000000000000000000000000000000000000000008152600401611d719061491b565b60405180910390fd5b6040518060400160405280600481526020017f7472756500000000000000000000000000000000000000000000000000000000815250905090565b60606000600660008473ffffffffffffffffffffffffffffffffffffffff1673ffffffffffffffffffffffffffffffffffffffff16815260200190815260200160002060009054906101000a900473ffffffffffffffffffffffffffffffffffffffff1690506000600560008373ffffffffffffffffffffffffffffffffffffffff1673ffffffffffffffffffffffffffffffffffffffff16815260200190815260200160002060008573ffffffffffffffffffffffffffffffffffffffff1673ffffffffffffffffffffffffffffffffffffffff1681526020019081526020016000206000015403611edd576040517f08c379a0000000000000000000000000000000000000000000000000000000008152600401611ed49061491b565b60405180910390fd5b6040518060400160405280600481526020017f7472756500000000000000000000000000000000000000000000000000000000815250915050919050565b60098181548110611f2b57600080fd5b90600052602060002090600502016000915090508060000154908060010160009054906101000a900473ffffffffffffffffffffffffffffffffffffffff1690806002018054611f7a90614402565b80601f0160208091040260200160405190810160405280929190818152602001828054611fa690614402565b8015611ff35780601f10611fc857610100808354040283529160200191611ff3565b820191906000526020600020905b815481529060010190602001808311611fd657829003601f168201915b50505050509080600301805461200890614402565b80601f016020809104026020016040519081016040528092919081815260200182805461203490614402565b80156120815780601f1061205657610100808354040283529160200191612081565b820191906000526020600020905b81548152906001019060200180831161206457829003601f168201915b5050505050908060040160009054906101000a900460ff16905085565b6000600154905090565b60008054906101000a900473ffffffffffffffffffffffffffffffffffffffff1681565b600a81815481106120dc57600080fd5b90600052602060002090600402016000915090508060000154908060010160009054906101000a900473ffffffffffffffffffffffffffffffffffffffff169080600201805461212b90614402565b80601f016020809104026020016040519081016040528092919081815260200182805461215790614402565b80156121a45780601f10612179576101008083540402835291602001916121a4565b820191906000526020600020905b81548152906001019060200180831161218757829003601f168201915b5050505050908060030160009054906101000a900473ffffffffffffffffffffffffffffffffffffffff16905084565b6000600460008373ffffffffffffffffffffffffffffffffffffffff1673ffffffffffffffffffffffffffffffffffffffff16815260200190815260200160002060040160009054906101000a900460ff169050919050565b6007602052816000526040600020818154811061224957600080fd5b9060005260206000209060040201600091509150508060000154908060010160009054906101000a900473ffffffffffffffffffffffffffffffffffffffff169080600201805461229990614402565b80601f01602080910402602001604051908101604052809291908181526020018280546122c590614402565b80156123125780601f106122e757610100808354040283529160200191612312565b820191906000526020600020905b8154815290600101906020018083116122f557829003601f168201915b5050505050908060030160009054906101000a900473ffffffffffffffffffffffffffffffffffffffff16905084565b600b818154811061235257600080fd5b90600052602060002090600402016000915090508060000154908060010160009054906101000a900473ffffffffffffffffffffffffffffffffffffffff16908060020180546123a190614402565b80601f01602080910402602001604051908101604052809291908181526020018280546123cd90614402565b801561241a5780601f106123ef5761010080835404028352916020019161241a565b820191906000526020600020905b8154815290600101906020018083116123fd57829003601f168201915b5050505050908060030160009054906101000a900473ffffffffffffffffffffffffffffffffffffffff16905084565b6124526131de565b600982815481106124665761246561471d565b5b90600052602060002090600502016040518060a0016040529081600082015481526020016001820160009054906101000a900473ffffffffffffffffffffffffffffffffffffffff1673ffffffffffffffffffffffffffffffffffffffff1673ffffffffffffffffffffffffffffffffffffffff1681526020016002820180546124ef90614402565b80601f016020809104026020016040519081016040528092919081815260200182805461251b90614402565b80156125685780601f1061253d57610100808354040283529160200191612568565b820191906000526020600020905b81548152906001019060200180831161254b57829003601f168201915b5050505050815260200160038201805461258190614402565b80601f01602080910402602001604051908101604052809291908181526020018280546125ad90614402565b80156125fa5780601f106125cf576101008083540402835291602001916125fa565b820191906000526020600020905b8154815290600101906020018083116125dd57829003601f168201915b505050505081526020016004820160009054906101000a900460ff1615151515815250509050919050565b60606000600460008473ffffffffffffffffffffffffffffffffffffffff1673ffffffffffffffffffffffffffffffffffffffff16815260200190815260200160002060000154036126ac576040517f08c379a00000000000000000000000000000000000000000000000000000000081526004016126a39061491b565b60405180910390fd5b6040518060400160405280600481526020017f74727565000000000000000000000000000000000000000000000000000000008152509050919050565b600c81815481106126f957600080fd5b906000526020600020906005020160009150905080600001549080600101805461272290614402565b80601f016020809104026020016040519081016040528092919081815260200182805461274e90614402565b801561279b5780601f106127705761010080835404028352916020019161279b565b820191906000526020600020905b81548152906001019060200180831161277e57829003601f168201915b5050505050908060020160009054906101000a900473ffffffffffffffffffffffffffffffffffffffff16908060030180546127d690614402565b80601f016020809104026020016040519081016040528092919081815260200182805461280290614402565b801561284f5780601f106128245761010080835404028352916020019161284f565b820191906000526020600020905b81548152906001019060200180831161283257829003601f168201915b50505050509080600401805461286490614402565b80601f016020809104026020016040519081016040528092919081815260200182805461289090614402565b80156128dd5780601f106128b2576101008083540402835291602001916128dd565b820191906000526020600020905b8154815290600101906020018083116128c057829003601f168201915b5050505050905085565b60606000600a8054905067ffffffffffffffff81111561290a57612909613381565b5b60405190808252806020026020018201604052801561294357816020015b612930613225565b8152602001906001900390816129285790505b50905060005b600a80549050811015612af657600a818154811061296a5761296961471d565b5b9060005260206000209060040201604051806080016040529081600082015481526020016001820160009054906101000a900473ffffffffffffffffffffffffffffffffffffffff1673ffffffffffffffffffffffffffffffffffffffff1673ffffffffffffffffffffffffffffffffffffffff1681526020016002820180546129f390614402565b80601f0160208091040260200160405190810160405280929190818152602001828054612a1f90614402565b8015612a6c5780601f10612a4157610100808354040283529160200191612a6c565b820191906000526020600020905b815481529060010190602001808311612a4f57829003601f168201915b505050505081526020016003820160009054906101000a900473ffffffffffffffffffffffffffffffffffffffff1673ffffffffffffffffffffffffffffffffffffffff1673ffffffffffffffffffffffffffffffffffffffff1681525050828281518110612ade57612add61471d565b5b60200260200101819052508080600101915050612949565b508091505090565b60035481565b612b0d82612625565b5081600660008573ffffffffffffffffffffffffffffffffffffffff1673ffffffffffffffffffffffffffffffffffffffff16815260200190815260200160002060006101000a81548173ffffffffffffffffffffffffffffffffffffffff021916908373ffffffffffffffffffffffffffffffffffffffff1602179055506001600254612b9b919061477b565b6002819055506000604051806080016040528060025481526020018573ffffffffffffffffffffffffffffffffffffffff1681526020018381526020018473ffffffffffffffffffffffffffffffffffffffff16815250905080600560008573ffffffffffffffffffffffffffffffffffffffff1673ffffffffffffffffffffffffffffffffffffffff16815260200190815260200160002060008673ffffffffffffffffffffffffffffffffffffffff1673ffffffffffffffffffffffffffffffffffffffff1681526020019081526020016000206000820151816000015560208201518160010160006101000a81548173ffffffffffffffffffffffffffffffffffffffff021916908373ffffffffffffffffffffffffffffffffffffffff1602179055506040820151816002019081612cd791906145df565b5060608201518160030160006101000a81548173ffffffffffffffffffffffffffffffffffffffff021916908373ffffffffffffffffffffffffffffffffffffffff160217905550905050600a8190806001815401808255809150506001900390600052602060002090600402016000909190919091506000820151816000015560208201518160010160006101000a81548173ffffffffffffffffffffffffffffffffffffffff021916908373ffffffffffffffffffffffffffffffffffffffff1602179055506040820151816002019081612db491906145df565b5060608201518160030160006101000a81548173ffffffffffffffffffffffffffffffffffffffff021916908373ffffffffffffffffffffffffffffffffffffffff16021790555050507f68f068b2f0d02fca99bc8285b62fce8668fe16b7c6a810351ea25bff358c0dd8604051612e2b906146fd565b60405180910390a150505050565b612e41613225565b600a8281548110612e5557612e5461471d565b5b9060005260206000209060040201604051806080016040529081600082015481526020016001820160009054906101000a900473ffffffffffffffffffffffffffffffffffffffff1673ffffffffffffffffffffffffffffffffffffffff1673ffffffffffffffffffffffffffffffffffffffff168152602001600282018054612ede90614402565b80601f0160208091040260200160405190810160405280929190818152602001828054612f0a90614402565b8015612f575780601f10612f2c57610100808354040283529160200191612f57565b820191906000526020600020905b815481529060010190602001808311612f3a57829003601f168201915b505050505081526020016003820160009054906101000a900473ffffffffffffffffffffffffffffffffffffffff1673ffffffffffffffffffffffffffffffffffffffff1673ffffffffffffffffffffffffffffffffffffffff16815250509050919050565b612fc5613279565b600860008481526020019081526020016000208281548110612fea57612fe961471d565b5b90600052602060002090600502016040518060a0016040529081600082015481526020016001820160009054906101000a900473ffffffffffffffffffffffffffffffffffffffff1673ffffffffffffffffffffffffffffffffffffffff1673ffffffffffffffffffffffffffffffffffffffff16815260200160028201805461307390614402565b80601f016020809104026020016040519081016040528092919081815260200182805461309f90614402565b80156130ec5780601f106130c1576101008083540402835291602001916130ec565b820191906000526020600020905b8154815290600101906020018083116130cf57829003601f168201915b5050505050815260200160038201805461310590614402565b80601f016020809104026020016040519081016040528092919081815260200182805461313190614402565b801561317e5780601f106131535761010080835404028352916020019161317e565b820191906000526020600020905b81548152906001019060200180831161316157829003601f168201915b50505050508152602001600482015481525050905092915050565b6040518060a001604052806000815260200160608152602001600073ffffffffffffffffffffffffffffffffffffffff16815260200160608152602001606081525090565b6040518060a0016040528060008152602001600073ffffffffffffffffffffffffffffffffffffffff16815260200160608152602001606081526020016000151581525090565b604051806080016040528060008152602001600073ffffffffffffffffffffffffffffffffffffffff16815260200160608152602001600073ffffffffffffffffffffffffffffffffffffffff1681525090565b6040518060a0016040528060008152602001600073ffffffffffffffffffffffffffffffffffffffff1681526020016060815260200160608152602001600081525090565b6000604051905090565b600080fd5b600080fd5b600073ffffffffffffffffffffffffffffffffffffffff82169050919050565b60006132fd826132d2565b9050919050565b61330d816132f2565b811461331857600080fd5b50565b60008135905061332a81613304565b92915050565b6000819050919050565b61334381613330565b811461334e57600080fd5b50565b6000813590506133608161333a565b92915050565b600080fd5b600080fd5b6000601f19601f8301169050919050565b7f4e487b7100000000000000000000000000000000000000000000000000000000600052604160045260246000fd5b6133b982613370565b810181811067ffffffffffffffff821117156133d8576133d7613381565b5b80604052505050565b60006133eb6132be565b90506133f782826133b0565b919050565b600067ffffffffffffffff82111561341757613416613381565b5b61342082613370565b9050602081019050919050565b82818337600083830152505050565b600061344f61344a846133fc565b6133e1565b90508281526020810184848401111561346b5761346a61336b565b5b61347684828561342d565b509392505050565b600082601f83011261349357613492613366565b5b81356134a384826020860161343c565b91505092915050565b600080600080600060a086880312156134c8576134c76132c8565b5b60006134d68882890161331b565b95505060206134e788828901613351565b945050604086013567ffffffffffffffff811115613508576135076132cd565b5b6135148882890161347e565b935050606086013567ffffffffffffffff811115613535576135346132cd565b5b6135418882890161347e565b925050608061355288828901613351565b9150509295509295909350565b600081519050919050565b600082825260208201905092915050565b6000819050602082019050919050565b61359481613330565b82525050565b600081519050919050565b600082825260208201905092915050565b60005b838110156135d45780820151818401526020810190506135b9565b60008484015250505050565b60006135eb8261359a565b6135f581856135a5565b93506136058185602086016135b6565b61360e81613370565b840191505092915050565b613622816132f2565b82525050565b600060a083016000830151613640600086018261358b565b506020830151848203602086015261365882826135e0565b915050604083015161366d6040860182613619565b506060830151848203606086015261368582826135e0565b9150506080830151848203608086015261369f82826135e0565b9150508091505092915050565b60006136b88383613628565b905092915050565b6000602082019050919050565b60006136d88261355f565b6136e2818561356a565b9350836020820285016136f48561357b565b8060005b85811015613730578484038952815161371185826136ac565b945061371c836136c0565b925060208a019950506001810190506136f8565b50829750879550505050505092915050565b6000602082019050818103600083015261375c81846136cd565b905092915050565b60008060006060848603121561377d5761377c6132c8565b5b600084013567ffffffffffffffff81111561379b5761379a6132cd565b5b6137a78682870161347e565b935050602084013567ffffffffffffffff8111156137c8576137c76132cd565b5b6137d48682870161347e565b92505060406137e58682870161331b565b9150509250925092565b600060208284031215613805576138046132c8565b5b60006138138482850161331b565b91505092915050565b613825816132f2565b82525050565b6000602082019050613840600083018461381c565b92915050565b6000806040838503121561385d5761385c6132c8565b5b600061386b85828601613351565b925050602061387c85828601613351565b9150509250929050565b61388f81613330565b82525050565b600082825260208201905092915050565b60006138b18261359a565b6138bb8185613895565b93506138cb8185602086016135b6565b6138d481613370565b840191505092915050565b600060a0820190506138f46000830188613886565b613901602083018761381c565b818103604083015261391381866138a6565b9050818103606083015261392781856138a6565b90506139366080830184613886565b9695505050505050565b600060208284031215613956576139556132c8565b5b600061396484828501613351565b91505092915050565b600081519050919050565b600082825260208201905092915050565b6000819050602082019050919050565b600060a0830160008301516139b1600086018261358b565b5060208301516139c46020860182613619565b50604083015184820360408601526139dc82826135e0565b915050606083015184820360608601526139f682826135e0565b9150506080830151613a0b608086018261358b565b508091505092915050565b6000613a228383613999565b905092915050565b6000602082019050919050565b6000613a428261396d565b613a4c8185613978565b935083602082028501613a5e85613989565b8060005b85811015613a9a5784840389528151613a7b8582613a16565b9450613a8683613a2a565b925060208a01995050600181019050613a62565b50829750879550505050505092915050565b60006020820190508181036000830152613ac68184613a37565b905092915050565b60008060008060808587031215613ae857613ae76132c8565b5b600085013567ffffffffffffffff811115613b0657613b056132cd565b5b613b128782880161347e565b9450506020613b238782880161331b565b935050604085013567ffffffffffffffff811115613b4457613b436132cd565b5b613b508782880161347e565b925050606085013567ffffffffffffffff811115613b7157613b706132cd565b5b613b7d8782880161347e565b91505092959194509250565b6000602082019050613b9e6000830184613886565b92915050565b60008115159050919050565b613bb981613ba4565b82525050565b600060a082019050613bd46000830188613886565b613be1602083018761381c565b8181036040830152613bf381866138a6565b90508181036060830152613c0781856138a6565b9050613c166080830184613bb0565b9695505050505050565b600081519050919050565b600082825260208201905092915050565b6000819050602082019050919050565b613c5581613ba4565b82525050565b600060a083016000830151613c73600086018261358b565b506020830151613c866020860182613619565b5060408301518482036040860152613c9e82826135e0565b91505060608301518482036060860152613cb882826135e0565b9150506080830151613ccd6080860182613c4c565b508091505092915050565b6000613ce48383613c5b565b905092915050565b6000602082019050919050565b6000613d0482613c20565b613d0e8185613c2b565b935083602082028501613d2085613c3c565b8060005b85811015613d5c5784840389528151613d3d8582613cd8565b9450613d4883613cec565b925060208a01995050600181019050613d24565b50829750879550505050505092915050565b60006020820190508181036000830152613d888184613cf9565b905092915050565b600060a083016000830151613da8600086018261358b565b5060208301518482036020860152613dc082826135e0565b9150506040830151613dd56040860182613619565b5060608301518482036060860152613ded82826135e0565b91505060808301518482036080860152613e0782826135e0565b9150508091505092915050565b60006020820190508181036000830152613e2e8184613d90565b905092915050565b60008060408385031215613e4d57613e4c6132c8565b5b6000613e5b8582860161331b565b9250506020613e6c8582860161331b565b9150509250929050565b6000608082019050613e8b6000830187613886565b613e98602083018661381c565b8181036040830152613eaa81856138a6565b9050613eb9606083018461381c565b95945050505050565b600080600080600060a08688031215613ede57613edd6132c8565b5b600086013567ffffffffffffffff811115613efc57613efb6132cd565b5b613f088882890161347e565b955050602086013567ffffffffffffffff811115613f2957613f286132cd565b5b613f358882890161347e565b9450506040613f468882890161331b565b9350506060613f5788828901613351565b9250506080613f6888828901613351565b9150509295509295909350565b60006020820190508181036000830152613f8f81846138a6565b905092915050565b6000602082019050613fac6000830184613bb0565b92915050565b60008060408385031215613fc957613fc86132c8565b5b6000613fd78582860161331b565b9250506020613fe885828601613351565b9150509250929050565b600060a08301600083015161400a600086018261358b565b50602083015161401d6020860182613619565b506040830151848203604086015261403582826135e0565b9150506060830151848203606086015261404f82826135e0565b91505060808301516140646080860182613c4c565b508091505092915050565b600060208201905081810360008301526140898184613ff2565b905092915050565b600060a0820190506140a66000830188613886565b81810360208301526140b881876138a6565b90506140c7604083018661381c565b81810360608301526140d981856138a6565b905081810360808301526140ed81846138a6565b90509695505050505050565b600081519050919050565b600082825260208201905092915050565b6000819050602082019050919050565b600060808301600083015161413d600086018261358b565b5060208301516141506020860182613619565b506040830151848203604086015261416882826135e0565b915050606083015161417d6060860182613619565b508091505092915050565b60006141948383614125565b905092915050565b6000602082019050919050565b60006141b4826140f9565b6141be8185614104565b9350836020820285016141d085614115565b8060005b8581101561420c57848403895281516141ed8582614188565b94506141f88361419c565b925060208a019950506001810190506141d4565b50829750879550505050505092915050565b6000602082019050818103600083015261423881846141a9565b905092915050565b600080600060608486031215614259576142586132c8565b5b60006142678682870161331b565b93505060206142788682870161331b565b925050604084013567ffffffffffffffff811115614299576142986132cd565b5b6142a58682870161347e565b9150509250925092565b60006080830160008301516142c7600086018261358b565b5060208301516142da6020860182613619565b50604083015184820360408601526142f282826135e0565b91505060608301516143076060860182613619565b508091505092915050565b6000602082019050818103600083015261432c81846142af565b905092915050565b600060a08301600083015161434c600086018261358b565b50602083015161435f6020860182613619565b506040830151848203604086015261437782826135e0565b9150506060830151848203606086015261439182826135e0565b91505060808301516143a6608086018261358b565b508091505092915050565b600060208201905081810360008301526143cb8184614334565b905092915050565b7f4e487b7100000000000000000000000000000000000000000000000000000000600052602260045260246000fd5b6000600282049050600182168061441a57607f821691505b60208210810361442d5761442c6143d3565b5b50919050565b60008190508160005260206000209050919050565b60006020601f8301049050919050565b600082821b905092915050565b6000600883026144957fffffffffffffffffffffffffffffffffffffffffffffffffffffffffffffffff82614458565b61449f8683614458565b95508019841693508086168417925050509392505050565b6000819050919050565b60006144dc6144d76144d284613330565b6144b7565b613330565b9050919050565b6000819050919050565b6144f6836144c1565b61450a614502826144e3565b848454614465565b825550505050565b600090565b61451f614512565b61452a8184846144ed565b505050565b5b8181101561454e57614543600082614517565b600181019050614530565b5050565b601f8211156145935761456481614433565b61456d84614448565b8101602085101561457c578190505b61459061458885614448565b83018261452f565b50505b505050565b600082821c905092915050565b60006145b660001984600802614598565b1980831691505092915050565b60006145cf83836145a5565b9150826002028217905092915050565b6145e88261359a565b67ffffffffffffffff81111561460157614600613381565b5b61460b8254614402565b614616828285614552565b600060209050601f8311600181146146495760008415614637578287015190505b61464185826145c3565b8655506146a9565b601f19841661465786614433565b60005b8281101561467f5784890151825560018201915060208501945060208101905061465a565b8683101561469c5784890151614698601f8916826145a5565b8355505b6001600288020188555050505b505050505050565b7f537570706c792072656769737465726564212100000000000000000000000000600082015250565b60006146e7601383613895565b91506146f2826146b1565b602082019050919050565b60006020820190508181036000830152614716816146da565b9050919050565b7f4e487b7100000000000000000000000000000000000000000000000000000000600052603260045260246000fd5b7f4e487b7100000000000000000000000000000000000000000000000000000000600052601160045260246000fd5b600061478682613330565b915061479183613330565b92508282019050808211156147a9576147a861474c565b5b92915050565b60006147ba82613330565b91507fffffffffffffffffffffffffffffffffffffffffffffffffffffffffffffffff82036147ec576147eb61474c565b5b600182019050919050565b7f54656d702041646d696e20726567697374657265642121000000000000000000600082015250565b600061482d601783613895565b9150614838826147f7565b602082019050919050565b6000602082019050818103600083015261485c81614820565b9050919050565b7f41646d696e207265676973746572656421210000000000000000000000000000600082015250565b6000614899601283613895565b91506148a482614863565b602082019050919050565b600060208201905081810360008301526148c88161488c565b9050919050565b7f66616c7365000000000000000000000000000000000000000000000000000000600082015250565b6000614905600583613895565b9150614910826148cf565b602082019050919050565b60006020820190508181036000830152614934816148f8565b905091905056fea2646970667358221220ef91fe6932f2b7dcd6001edf400b05823edee248c925264d59f9c9ada85bc0bc64736f6c63430008180033",
  "linkReferences": {},
  "deployedLinkReferences": {}
}