{
  "_format": "hh-sol-artifact-1",
  "contractName": "Supply",
  "sourceName": "contracts/Supply.sol",
  "abi": [
    {
      "inputs": [],
      "stateMutability": "nonpayable",
      "type": "constructor"
    },
    {
      "anonymous": false,
      "inputs": [
        {
          "indexed": false,
          "internalType": "string",
          "name": "msg",
          "type": "string"
        }
      ],
      "name": "success",
      "type": "event"
    },
    {
      "inputs": [
        {
          "internalType": "string",
          "name": "_name",
          "type": "string"
        },
        {
          "internalType": "address",
          "name": "_senderAddress",
          "type": "address"
        }
      ],
      "name": "addProduct",
      "outputs": [],
      "stateMutability": "nonpayable",
      "type": "function"
    },
    {
      "inputs": [
        {
          "internalType": "address",
          "name": "_senderAddress",
          "type": "address"
        },
        {
          "internalType": "uint256",
          "name": "_healthPerc",
          "type": "uint256"
        },
        {
          "internalType": "string",
          "name": "_place",
          "type": "string"
        },
        {
          "internalType": "string",
          "name": "_time",
          "type": "string"
        },
        {
          "internalType": "uint256",
          "name": "_productId",
          "type": "uint256"
        }
      ],
      "name": "addProductTInfo",
      "outputs": [],
      "stateMutability": "nonpayable",
      "type": "function"
    },
    {
      "inputs": [],
      "name": "adminCount",
      "outputs": [
        {
          "internalType": "uint256",
          "name": "",
          "type": "uint256"
        }
      ],
      "stateMutability": "view",
      "type": "function"
    },
    {
      "inputs": [
        {
          "internalType": "uint256",
          "name": "",
          "type": "uint256"
        }
      ],
      "name": "adminSt",
      "outputs": [
        {
          "internalType": "uint256",
          "name": "adminId",
          "type": "uint256"
        },
        {
          "internalType": "address",
          "name": "adminAdd",
          "type": "address"
        },
        {
          "internalType": "string",
          "name": "name",
          "type": "string"
        },
        {
          "internalType": "string",
          "name": "company_name",
          "type": "string"
        }
      ],
      "stateMutability": "view",
      "type": "function"
    },
    {
      "inputs": [
        {
          "internalType": "address",
          "name": "",
          "type": "address"
        }
      ],
      "name": "adminsM",
      "outputs": [
        {
          "internalType": "uint256",
          "name": "adminId",
          "type": "uint256"
        },
        {
          "internalType": "address",
          "name": "adminAdd",
          "type": "address"
        },
        {
          "internalType": "string",
          "name": "name",
          "type": "string"
        },
        {
          "internalType": "string",
          "name": "company_name",
          "type": "string"
        }
      ],
      "stateMutability": "view",
      "type": "function"
    },
    {
      "inputs": [
        {
          "internalType": "address",
          "name": "senderAddress",
          "type": "address"
        }
      ],
      "name": "checkIfCompAdmin",
      "outputs": [
        {
          "internalType": "string",
          "name": "",
          "type": "string"
        }
      ],
      "stateMutability": "view",
      "type": "function"
    },
    {
      "inputs": [],
      "name": "checkIfOwner",
      "outputs": [
        {
          "internalType": "string",
          "name": "",
          "type": "string"
        }
      ],
      "stateMutability": "view",
      "type": "function"
    },
    {
      "inputs": [
        {
          "internalType": "address",
          "name": "senderAddress",
          "type": "address"
        }
      ],
      "name": "checkIfSupplier",
      "outputs": [
        {
          "internalType": "string",
          "name": "",
          "type": "string"
        }
      ],
      "stateMutability": "view",
      "type": "function"
    },
    {
      "inputs": [],
      "name": "getAllProducts",
      "outputs": [
        {
          "components": [
            {
              "internalType": "uint256",
              "name": "productId",
              "type": "uint256"
            },
            {
              "internalType": "string",
              "name": "name",
              "type": "string"
            },
            {
              "internalType": "address",
              "name": "supplierAddress",
              "type": "address"
            }
          ],
          "internalType": "struct Supply.ProductInfo[]",
          "name": "",
          "type": "tuple[]"
        }
      ],
      "stateMutability": "view",
      "type": "function"
    },
    {
      "inputs": [
        {
          "internalType": "uint256",
          "name": "_productId",
          "type": "uint256"
        }
      ],
      "name": "getProductHist",
      "outputs": [
        {
          "components": [
            {
              "internalType": "uint256",
              "name": "healthPerc",
              "type": "uint256"
            },
            {
              "internalType": "address",
              "name": "workerA",
              "type": "address"
            },
            {
              "internalType": "string",
              "name": "place",
              "type": "string"
            },
            {
              "internalType": "string",
              "name": "time",
              "type": "string"
            },
            {
              "internalType": "uint256",
              "name": "productId",
              "type": "uint256"
            }
          ],
          "internalType": "struct Supply.ProductIT[]",
          "name": "",
          "type": "tuple[]"
        }
      ],
      "stateMutability": "view",
      "type": "function"
    },
    {
      "inputs": [],
      "name": "owner",
      "outputs": [
        {
          "internalType": "address",
          "name": "",
          "type": "address"
        }
      ],
      "stateMutability": "view",
      "type": "function"
    },
    {
      "inputs": [
        {
          "internalType": "uint256",
          "name": "",
          "type": "uint256"
        },
        {
          "internalType": "uint256",
          "name": "",
          "type": "uint256"
        }
      ],
      "name": "productIM",
      "outputs": [
        {
          "internalType": "uint256",
          "name": "healthPerc",
          "type": "uint256"
        },
        {
          "internalType": "address",
          "name": "workerA",
          "type": "address"
        },
        {
          "internalType": "string",
          "name": "place",
          "type": "string"
        },
        {
          "internalType": "string",
          "name": "time",
          "type": "string"
        },
        {
          "internalType": "uint256",
          "name": "productId",
          "type": "uint256"
        }
      ],
      "stateMutability": "view",
      "type": "function"
    },
    {
      "inputs": [
        {
          "internalType": "uint256",
          "name": "",
          "type": "uint256"
        }
      ],
      "name": "productSt",
      "outputs": [
        {
          "internalType": "uint256",
          "name": "productId",
          "type": "uint256"
        },
        {
          "internalType": "string",
          "name": "name",
          "type": "string"
        },
        {
          "internalType": "address",
          "name": "supplierAddress",
          "type": "address"
        }
      ],
      "stateMutability": "view",
      "type": "function"
    },
    {
      "inputs": [
        {
          "internalType": "string",
          "name": "_name",
          "type": "string"
        },
        {
          "internalType": "string",
          "name": "_company_name",
          "type": "string"
        },
        {
          "internalType": "address",
          "name": "_new_user",
          "type": "address"
        }
      ],
      "name": "registerNewAdmin",
      "outputs": [],
      "stateMutability": "nonpayable",
      "type": "function"
    },
    {
      "inputs": [
        {
          "internalType": "address",
          "name": "senderAddress",
          "type": "address"
        },
        {
          "internalType": "address",
          "name": "_adminAddress",
          "type": "address"
        },
        {
          "internalType": "string",
          "name": "_name",
          "type": "string"
        }
      ],
      "name": "registerNewSupplier",
      "outputs": [],
      "stateMutability": "nonpayable",
      "type": "function"
    },
    {
      "inputs": [],
      "name": "supplierCount",
      "outputs": [
        {
          "internalType": "uint256",
          "name": "",
          "type": "uint256"
        }
      ],
      "stateMutability": "view",
      "type": "function"
    },
    {
      "inputs": [
        {
          "internalType": "address",
          "name": "",
          "type": "address"
        },
        {
          "internalType": "address",
          "name": "",
          "type": "address"
        }
      ],
      "name": "supplierM",
      "outputs": [
        {
          "internalType": "uint256",
          "name": "supplierId",
          "type": "uint256"
        },
        {
          "internalType": "address",
          "name": "supplierDD",
          "type": "address"
        },
        {
          "internalType": "string",
          "name": "name",
          "type": "string"
        },
        {
          "internalType": "address",
          "name": "adminAdd",
          "type": "address"
        }
      ],
      "stateMutability": "view",
      "type": "function"
    },
    {
      "inputs": [
        {
          "internalType": "uint256",
          "name": "",
          "type": "uint256"
        }
      ],
      "name": "supplierSt",
      "outputs": [
        {
          "internalType": "uint256",
          "name": "supplierId",
          "type": "uint256"
        },
        {
          "internalType": "address",
          "name": "supplierDD",
          "type": "address"
        },
        {
          "internalType": "string",
          "name": "name",
          "type": "string"
        },
        {
          "internalType": "address",
          "name": "adminAdd",
          "type": "address"
        }
      ],
      "stateMutability": "view",
      "type": "function"
    },
    {
      "inputs": [
        {
          "internalType": "address",
          "name": "",
          "type": "address"
        }
      ],
      "name": "supplierToAdmin",
      "outputs": [
        {
          "internalType": "address",
          "name": "",
          "type": "address"
        }
      ],
      "stateMutability": "view",
      "type": "function"
    },
    {
      "inputs": [],
      "name": "viewAllAdmins",
      "outputs": [
        {
          "components": [
            {
              "internalType": "uint256",
              "name": "adminId",
              "type": "uint256"
            },
            {
              "internalType": "address",
              "name": "adminAdd",
              "type": "address"
            },
            {
              "internalType": "string",
              "name": "name",
              "type": "string"
            },
            {
              "internalType": "string",
              "name": "company_name",
              "type": "string"
            }
          ],
          "internalType": "struct Supply.AdminI[]",
          "name": "",
          "type": "tuple[]"
        }
      ],
      "stateMutability": "view",
      "type": "function"
    },
    {
      "inputs": [],
      "name": "viewAllSuppliers",
      "outputs": [
        {
          "components": [
            {
              "internalType": "uint256",
              "name": "supplierId",
              "type": "uint256"
            },
            {
              "internalType": "address",
              "name": "supplierDD",
              "type": "address"
            },
            {
              "internalType": "string",
              "name": "name",
              "type": "string"
            },
            {
              "internalType": "address",
              "name": "adminAdd",
              "type": "address"
            }
          ],
          "internalType": "struct Supply.SupplierI[]",
          "name": "",
          "type": "tuple[]"
        }
      ],
      "stateMutability": "view",
      "type": "function"
    },
    {
      "inputs": [
        {
          "internalType": "address",
          "name": "",
          "type": "address"
        },
        {
          "internalType": "uint256",
          "name": "",
          "type": "uint256"
        }
      ],
      "name": "workerM",
      "outputs": [
        {
          "internalType": "uint256",
          "name": "workerId",
          "type": "uint256"
        },
        {
          "internalType": "address",
          "name": "workerDD",
          "type": "address"
        },
        {
          "internalType": "string",
          "name": "name",
          "type": "string"
        },
        {
          "internalType": "address",
          "name": "supplierAdd",
          "type": "address"
        }
      ],
      "stateMutability": "view",
      "type": "function"
    },
    {
      "inputs": [
        {
          "internalType": "uint256",
          "name": "",
          "type": "uint256"
        }
      ],
      "name": "workerSt",
      "outputs": [
        {
          "internalType": "uint256",
          "name": "workerId",
          "type": "uint256"
        },
        {
          "internalType": "address",
          "name": "workerDD",
          "type": "address"
        },
        {
          "internalType": "string",
          "name": "name",
          "type": "string"
        },
        {
          "internalType": "address",
          "name": "supplierAdd",
          "type": "address"
        }
      ],
      "stateMutability": "view",
      "type": "function"
    }
  ],
  "bytecode": "0x608060405234801561001057600080fd5b50336000806101000a81548173ffffffffffffffffffffffffffffffffffffffff021916908373ffffffffffffffffffffffffffffffffffffffff16021790555060006001819055506000600281905550613192806100706000396000f3fe608060405234801561001057600080fd5b506004361061014d5760003560e01c80636f703bc8116100c3578063a59ec4701161007c578063a59ec470146103ea578063ae4225991461041d578063cca5822f14610450578063dde9c19614610480578063dfa8ba8a146104b2578063e9064fe9146104d05761014d565b80636f703bc8146102e5578063898de7731461031857806389ca5b68146103365780638b207dd8146103665780638da5cb5b146103995780639acc36b5146103b75761014d565b8063140c6b9111610115578063140c6b91146102205780632af673a31461023e5780632b7832b314610271578063330de0f91461028f5780635083f4b3146102ab57806356229465146102c95761014d565b806301fdfcff1461015257806302ee3a521461016e5780630bdd2ec01461018c5780630e4e60d7146101bc5780630ea69718146101f0575b600080fd5b61016c600480360381019061016791906121a7565b6104ec565b005b610176610605565b6040516101839190612409565b60405180910390f35b6101a660048036038101906101a1919061242b565b610756565b6040516101b39190612467565b60405180910390f35b6101d660048036038101906101d19190612482565b610789565b6040516101e795949392919061251b565b60405180910390f35b61020a6004803603810190610205919061257c565b61090c565b60405161021791906126e8565b60405180910390f35b610228610b0c565b604051610235919061270a565b60405180910390f35b6102586004803603810190610253919061242b565b610b12565b6040516102689493929190612725565b60405180910390f35b610279610c72565b604051610286919061270a565b60405180910390f35b6102a960048036038101906102a49190612778565b610c78565b005b6102b3610e87565b6040516102c0919061292f565b60405180910390f35b6102e360048036038101906102de9190612951565b61106a565b005b6102ff60048036038101906102fa91906129ad565b611148565b60405161030f94939291906129ed565b60405180910390f35b61032061124d565b60405161032d9190612a39565b60405180910390f35b610350600480360381019061034b919061242b565b611318565b60405161035d9190612a39565b60405180910390f35b610380600480360381019061037b919061257c565b61147e565b6040516103909493929190612725565b60405180910390f35b6103a16115ee565b6040516103ae9190612467565b60405180910390f35b6103d160048036038101906103cc919061257c565b611612565b6040516103e194939291906129ed565b60405180910390f35b61040460048036038101906103ff9190612a5b565b61171a565b60405161041494939291906129ed565b60405180910390f35b6104376004803603810190610432919061257c565b61182f565b60405161044794939291906129ed565b60405180910390f35b61046a6004803603810190610465919061242b565b611937565b6040516104779190612a39565b60405180910390f35b61049a6004803603810190610495919061257c565b6119fb565b6040516104a993929190612a9b565b60405180910390f35b6104ba611add565b6040516104c79190612bfe565b60405180910390f35b6104ea60048036038101906104e59190612c20565b611c84565b005b6104f585611318565b5060006040518060a001604052808681526020018773ffffffffffffffffffffffffffffffffffffffff168152602001858152602001848152602001838152509050600760008381526020019081526020016000208190806001815401808255809150506001900390600052602060002090600502016000909190919091506000820151816000015560208201518160010160006101000a81548173ffffffffffffffffffffffffffffffffffffffff021916908373ffffffffffffffffffffffffffffffffffffffff16021790555060408201518160020190816105da9190612e9b565b5060608201518160030190816105f09190612e9b565b50608082015181600401555050505050505050565b6060600b805480602002602001604051908101604052809291908181526020016000905b8282101561074d57838290600052602060002090600302016040518060600160405290816000820154815260200160018201805461066690612cbe565b80601f016020809104026020016040519081016040528092919081815260200182805461069290612cbe565b80156106df5780601f106106b4576101008083540402835291602001916106df565b820191906000526020600020905b8154815290600101906020018083116106c257829003601f168201915b505050505081526020016002820160009054906101000a900473ffffffffffffffffffffffffffffffffffffffff1673ffffffffffffffffffffffffffffffffffffffff1673ffffffffffffffffffffffffffffffffffffffff168152505081526020019060010190610629565b50505050905090565b60056020528060005260406000206000915054906101000a900473ffffffffffffffffffffffffffffffffffffffff1681565b600760205281600052604060002081815481106107a557600080fd5b9060005260206000209060050201600091509150508060000154908060010160009054906101000a900473ffffffffffffffffffffffffffffffffffffffff16908060020180546107f590612cbe565b80601f016020809104026020016040519081016040528092919081815260200182805461082190612cbe565b801561086e5780601f106108435761010080835404028352916020019161086e565b820191906000526020600020905b81548152906001019060200180831161085157829003601f168201915b50505050509080600301805461088390612cbe565b80601f01602080910402602001604051908101604052809291908181526020018280546108af90612cbe565b80156108fc5780601f106108d1576101008083540402835291602001916108fc565b820191906000526020600020905b8154815290600101906020018083116108df57829003601f168201915b5050505050908060040154905085565b606060076000838152602001908152602001600020805480602002602001604051908101604052809291908181526020016000905b82821015610b0157838290600052602060002090600502016040518060a0016040529081600082015481526020016001820160009054906101000a900473ffffffffffffffffffffffffffffffffffffffff1673ffffffffffffffffffffffffffffffffffffffff1673ffffffffffffffffffffffffffffffffffffffff1681526020016002820180546109d490612cbe565b80601f0160208091040260200160405190810160405280929190818152602001828054610a0090612cbe565b8015610a4d5780601f10610a2257610100808354040283529160200191610a4d565b820191906000526020600020905b815481529060010190602001808311610a3057829003601f168201915b50505050508152602001600382018054610a6690612cbe565b80601f0160208091040260200160405190810160405280929190818152602001828054610a9290612cbe565b8015610adf5780601f10610ab457610100808354040283529160200191610adf565b820191906000526020600020905b815481529060010190602001808311610ac257829003601f168201915b5050505050815260200160048201548152505081526020019060010190610941565b505050509050919050565b60025481565b60036020528060005260406000206000915090508060000154908060010160009054906101000a900473ffffffffffffffffffffffffffffffffffffffff1690806002018054610b6190612cbe565b80601f0160208091040260200160405190810160405280929190818152602001828054610b8d90612cbe565b8015610bda5780601f10610baf57610100808354040283529160200191610bda565b820191906000526020600020905b815481529060010190602001808311610bbd57829003601f168201915b505050505090806003018054610bef90612cbe565b80601f0160208091040260200160405190810160405280929190818152602001828054610c1b90612cbe565b8015610c685780601f10610c3d57610100808354040283529160200191610c68565b820191906000526020600020905b815481529060010190602001808311610c4b57829003601f168201915b5050505050905084565b60015481565b610c8061124d565b506000604051806080016040528060018054610c9c9190612f9c565b81526020018373ffffffffffffffffffffffffffffffffffffffff16815260200185815260200184815250905080600360008473ffffffffffffffffffffffffffffffffffffffff1673ffffffffffffffffffffffffffffffffffffffff1681526020019081526020016000206000820151816000015560208201518160010160006101000a81548173ffffffffffffffffffffffffffffffffffffffff021916908373ffffffffffffffffffffffffffffffffffffffff1602179055506040820151816002019081610d6f9190612e9b565b506060820151816003019081610d859190612e9b565b5090505060088190806001815401808255809150506001900390600052602060002090600402016000909190919091506000820151816000015560208201518160010160006101000a81548173ffffffffffffffffffffffffffffffffffffffff021916908373ffffffffffffffffffffffffffffffffffffffff1602179055506040820151816002019081610e1b9190612e9b565b506060820151816003019081610e319190612e9b565b50505060016000815480929190610e4790612fd0565b91905055507f68f068b2f0d02fca99bc8285b62fce8668fe16b7c6a810351ea25bff358c0dd8604051610e7990613064565b60405180910390a150505050565b60606008805480602002602001604051908101604052809291908181526020016000905b828210156110615783829060005260206000209060040201604051806080016040529081600082015481526020016001820160009054906101000a900473ffffffffffffffffffffffffffffffffffffffff1673ffffffffffffffffffffffffffffffffffffffff1673ffffffffffffffffffffffffffffffffffffffff168152602001600282018054610f3e90612cbe565b80601f0160208091040260200160405190810160405280929190818152602001828054610f6a90612cbe565b8015610fb75780601f10610f8c57610100808354040283529160200191610fb7565b820191906000526020600020905b815481529060010190602001808311610f9a57829003601f168201915b50505050508152602001600382018054610fd090612cbe565b80601f0160208091040260200160405190810160405280929190818152602001828054610ffc90612cbe565b80156110495780601f1061101e57610100808354040283529160200191611049565b820191906000526020600020905b81548152906001019060200180831161102c57829003601f168201915b50505050508152505081526020019060010190610eab565b50505050905090565b61107381611318565b5060006040518060600160405280600b8054905081526020018481526020018373ffffffffffffffffffffffffffffffffffffffff168152509050600b8190806001815401808255809150506001900390600052602060002090600302016000909190919091506000820151816000015560208201518160010190816110f99190612e9b565b5060408201518160020160006101000a81548173ffffffffffffffffffffffffffffffffffffffff021916908373ffffffffffffffffffffffffffffffffffffffff1602179055505050505050565b6004602052816000526040600020602052806000526040600020600091509150508060000154908060010160009054906101000a900473ffffffffffffffffffffffffffffffffffffffff16908060020180546111a490612cbe565b80601f01602080910402602001604051908101604052809291908181526020018280546111d090612cbe565b801561121d5780601f106111f25761010080835404028352916020019161121d565b820191906000526020600020905b81548152906001019060200180831161120057829003601f168201915b5050505050908060030160009054906101000a900473ffffffffffffffffffffffffffffffffffffffff16905084565b606060008054906101000a900473ffffffffffffffffffffffffffffffffffffffff1673ffffffffffffffffffffffffffffffffffffffff163373ffffffffffffffffffffffffffffffffffffffff16146112dd576040517f08c379a00000000000000000000000000000000000000000000000000000000081526004016112d4906130d0565b60405180910390fd5b6040518060400160405280600481526020017f7472756500000000000000000000000000000000000000000000000000000000815250905090565b60606000600560008473ffffffffffffffffffffffffffffffffffffffff1673ffffffffffffffffffffffffffffffffffffffff16815260200190815260200160002060009054906101000a900473ffffffffffffffffffffffffffffffffffffffff1690506000600460008373ffffffffffffffffffffffffffffffffffffffff1673ffffffffffffffffffffffffffffffffffffffff16815260200190815260200160002060008573ffffffffffffffffffffffffffffffffffffffff1673ffffffffffffffffffffffffffffffffffffffff1681526020019081526020016000206000015403611440576040517f08c379a0000000000000000000000000000000000000000000000000000000008152600401611437906130d0565b60405180910390fd5b6040518060400160405280600481526020017f7472756500000000000000000000000000000000000000000000000000000000815250915050919050565b6008818154811061148e57600080fd5b90600052602060002090600402016000915090508060000154908060010160009054906101000a900473ffffffffffffffffffffffffffffffffffffffff16908060020180546114dd90612cbe565b80601f016020809104026020016040519081016040528092919081815260200182805461150990612cbe565b80156115565780601f1061152b57610100808354040283529160200191611556565b820191906000526020600020905b81548152906001019060200180831161153957829003601f168201915b50505050509080600301805461156b90612cbe565b80601f016020809104026020016040519081016040528092919081815260200182805461159790612cbe565b80156115e45780601f106115b9576101008083540402835291602001916115e4565b820191906000526020600020905b8154815290600101906020018083116115c757829003601f168201915b5050505050905084565b60008054906101000a900473ffffffffffffffffffffffffffffffffffffffff1681565b6009818154811061162257600080fd5b90600052602060002090600402016000915090508060000154908060010160009054906101000a900473ffffffffffffffffffffffffffffffffffffffff169080600201805461167190612cbe565b80601f016020809104026020016040519081016040528092919081815260200182805461169d90612cbe565b80156116ea5780601f106116bf576101008083540402835291602001916116ea565b820191906000526020600020905b8154815290600101906020018083116116cd57829003601f168201915b5050505050908060030160009054906101000a900473ffffffffffffffffffffffffffffffffffffffff16905084565b6006602052816000526040600020818154811061173657600080fd5b9060005260206000209060040201600091509150508060000154908060010160009054906101000a900473ffffffffffffffffffffffffffffffffffffffff169080600201805461178690612cbe565b80601f01602080910402602001604051908101604052809291908181526020018280546117b290612cbe565b80156117ff5780601f106117d4576101008083540402835291602001916117ff565b820191906000526020600020905b8154815290600101906020018083116117e257829003601f168201915b5050505050908060030160009054906101000a900473ffffffffffffffffffffffffffffffffffffffff16905084565b600a818154811061183f57600080fd5b90600052602060002090600402016000915090508060000154908060010160009054906101000a900473ffffffffffffffffffffffffffffffffffffffff169080600201805461188e90612cbe565b80601f01602080910402602001604051908101604052809291908181526020018280546118ba90612cbe565b80156119075780601f106118dc57610100808354040283529160200191611907565b820191906000526020600020905b8154815290600101906020018083116118ea57829003601f168201915b5050505050908060030160009054906101000a900473ffffffffffffffffffffffffffffffffffffffff16905084565b60606000600360008473ffffffffffffffffffffffffffffffffffffffff1673ffffffffffffffffffffffffffffffffffffffff16815260200190815260200160002060000154036119be576040517f08c379a00000000000000000000000000000000000000000000000000000000081526004016119b5906130d0565b60405180910390fd5b6040518060400160405280600481526020017f74727565000000000000000000000000000000000000000000000000000000008152509050919050565b600b8181548110611a0b57600080fd5b9060005260206000209060030201600091509050806000015490806001018054611a3490612cbe565b80601f0160208091040260200160405190810160405280929190818152602001828054611a6090612cbe565b8015611aad5780601f10611a8257610100808354040283529160200191611aad565b820191906000526020600020905b815481529060010190602001808311611a9057829003601f168201915b5050505050908060020160009054906101000a900473ffffffffffffffffffffffffffffffffffffffff16905083565b60606009805480602002602001604051908101604052809291908181526020016000905b82821015611c7b5783829060005260206000209060040201604051806080016040529081600082015481526020016001820160009054906101000a900473ffffffffffffffffffffffffffffffffffffffff1673ffffffffffffffffffffffffffffffffffffffff1673ffffffffffffffffffffffffffffffffffffffff168152602001600282018054611b9490612cbe565b80601f0160208091040260200160405190810160405280929190818152602001828054611bc090612cbe565b8015611c0d5780601f10611be257610100808354040283529160200191611c0d565b820191906000526020600020905b815481529060010190602001808311611bf057829003601f168201915b505050505081526020016003820160009054906101000a900473ffffffffffffffffffffffffffffffffffffffff1673ffffffffffffffffffffffffffffffffffffffff1673ffffffffffffffffffffffffffffffffffffffff168152505081526020019060010190611b01565b50505050905090565b611c8d82611937565b5081600560008573ffffffffffffffffffffffffffffffffffffffff1673ffffffffffffffffffffffffffffffffffffffff16815260200190815260200160002060006101000a81548173ffffffffffffffffffffffffffffffffffffffff021916908373ffffffffffffffffffffffffffffffffffffffff1602179055506001600254611d1b9190612f9c565b6002819055506000604051806080016040528060025481526020018573ffffffffffffffffffffffffffffffffffffffff1681526020018381526020018473ffffffffffffffffffffffffffffffffffffffff16815250905080600460008573ffffffffffffffffffffffffffffffffffffffff1673ffffffffffffffffffffffffffffffffffffffff16815260200190815260200160002060008673ffffffffffffffffffffffffffffffffffffffff1673ffffffffffffffffffffffffffffffffffffffff1681526020019081526020016000206000820151816000015560208201518160010160006101000a81548173ffffffffffffffffffffffffffffffffffffffff021916908373ffffffffffffffffffffffffffffffffffffffff1602179055506040820151816002019081611e579190612e9b565b5060608201518160030160006101000a81548173ffffffffffffffffffffffffffffffffffffffff021916908373ffffffffffffffffffffffffffffffffffffffff16021790555090505060098190806001815401808255809150506001900390600052602060002090600402016000909190919091506000820151816000015560208201518160010160006101000a81548173ffffffffffffffffffffffffffffffffffffffff021916908373ffffffffffffffffffffffffffffffffffffffff1602179055506040820151816002019081611f349190612e9b565b5060608201518160030160006101000a81548173ffffffffffffffffffffffffffffffffffffffff021916908373ffffffffffffffffffffffffffffffffffffffff16021790555050507f68f068b2f0d02fca99bc8285b62fce8668fe16b7c6a810351ea25bff358c0dd8604051611fab9061313c565b60405180910390a150505050565b6000604051905090565b600080fd5b600080fd5b600073ffffffffffffffffffffffffffffffffffffffff82169050919050565b6000611ff882611fcd565b9050919050565b61200881611fed565b811461201357600080fd5b50565b60008135905061202581611fff565b92915050565b6000819050919050565b61203e8161202b565b811461204957600080fd5b50565b60008135905061205b81612035565b92915050565b600080fd5b600080fd5b6000601f19601f8301169050919050565b7f4e487b7100000000000000000000000000000000000000000000000000000000600052604160045260246000fd5b6120b48261206b565b810181811067ffffffffffffffff821117156120d3576120d261207c565b5b80604052505050565b60006120e6611fb9565b90506120f282826120ab565b919050565b600067ffffffffffffffff8211156121125761211161207c565b5b61211b8261206b565b9050602081019050919050565b82818337600083830152505050565b600061214a612145846120f7565b6120dc565b90508281526020810184848401111561216657612165612066565b5b612171848285612128565b509392505050565b600082601f83011261218e5761218d612061565b5b813561219e848260208601612137565b91505092915050565b600080600080600060a086880312156121c3576121c2611fc3565b5b60006121d188828901612016565b95505060206121e28882890161204c565b945050604086013567ffffffffffffffff81111561220357612202611fc8565b5b61220f88828901612179565b935050606086013567ffffffffffffffff8111156122305761222f611fc8565b5b61223c88828901612179565b925050608061224d8882890161204c565b9150509295509295909350565b600081519050919050565b600082825260208201905092915050565b6000819050602082019050919050565b61228f8161202b565b82525050565b600081519050919050565b600082825260208201905092915050565b60005b838110156122cf5780820151818401526020810190506122b4565b60008484015250505050565b60006122e682612295565b6122f081856122a0565b93506123008185602086016122b1565b6123098161206b565b840191505092915050565b61231d81611fed565b82525050565b600060608301600083015161233b6000860182612286565b506020830151848203602086015261235382826122db565b91505060408301516123686040860182612314565b508091505092915050565b600061237f8383612323565b905092915050565b6000602082019050919050565b600061239f8261225a565b6123a98185612265565b9350836020820285016123bb85612276565b8060005b858110156123f757848403895281516123d88582612373565b94506123e383612387565b925060208a019950506001810190506123bf565b50829750879550505050505092915050565b600060208201905081810360008301526124238184612394565b905092915050565b60006020828403121561244157612440611fc3565b5b600061244f84828501612016565b91505092915050565b61246181611fed565b82525050565b600060208201905061247c6000830184612458565b92915050565b6000806040838503121561249957612498611fc3565b5b60006124a78582860161204c565b92505060206124b88582860161204c565b9150509250929050565b6124cb8161202b565b82525050565b600082825260208201905092915050565b60006124ed82612295565b6124f781856124d1565b93506125078185602086016122b1565b6125108161206b565b840191505092915050565b600060a08201905061253060008301886124c2565b61253d6020830187612458565b818103604083015261254f81866124e2565b9050818103606083015261256381856124e2565b905061257260808301846124c2565b9695505050505050565b60006020828403121561259257612591611fc3565b5b60006125a08482850161204c565b91505092915050565b600081519050919050565b600082825260208201905092915050565b6000819050602082019050919050565b600060a0830160008301516125ed6000860182612286565b5060208301516126006020860182612314565b506040830151848203604086015261261882826122db565b9150506060830151848203606086015261263282826122db565b91505060808301516126476080860182612286565b508091505092915050565b600061265e83836125d5565b905092915050565b6000602082019050919050565b600061267e826125a9565b61268881856125b4565b93508360208202850161269a856125c5565b8060005b858110156126d657848403895281516126b78582612652565b94506126c283612666565b925060208a0199505060018101905061269e565b50829750879550505050505092915050565b600060208201905081810360008301526127028184612673565b905092915050565b600060208201905061271f60008301846124c2565b92915050565b600060808201905061273a60008301876124c2565b6127476020830186612458565b818103604083015261275981856124e2565b9050818103606083015261276d81846124e2565b905095945050505050565b60008060006060848603121561279157612790611fc3565b5b600084013567ffffffffffffffff8111156127af576127ae611fc8565b5b6127bb86828701612179565b935050602084013567ffffffffffffffff8111156127dc576127db611fc8565b5b6127e886828701612179565b92505060406127f986828701612016565b9150509250925092565b600081519050919050565b600082825260208201905092915050565b6000819050602082019050919050565b60006080830160008301516128476000860182612286565b50602083015161285a6020860182612314565b506040830151848203604086015261287282826122db565b9150506060830151848203606086015261288c82826122db565b9150508091505092915050565b60006128a5838361282f565b905092915050565b6000602082019050919050565b60006128c582612803565b6128cf818561280e565b9350836020820285016128e18561281f565b8060005b8581101561291d57848403895281516128fe8582612899565b9450612909836128ad565b925060208a019950506001810190506128e5565b50829750879550505050505092915050565b6000602082019050818103600083015261294981846128ba565b905092915050565b6000806040838503121561296857612967611fc3565b5b600083013567ffffffffffffffff81111561298657612985611fc8565b5b61299285828601612179565b92505060206129a385828601612016565b9150509250929050565b600080604083850312156129c4576129c3611fc3565b5b60006129d285828601612016565b92505060206129e385828601612016565b9150509250929050565b6000608082019050612a0260008301876124c2565b612a0f6020830186612458565b8181036040830152612a2181856124e2565b9050612a306060830184612458565b95945050505050565b60006020820190508181036000830152612a5381846124e2565b905092915050565b60008060408385031215612a7257612a71611fc3565b5b6000612a8085828601612016565b9250506020612a918582860161204c565b9150509250929050565b6000606082019050612ab060008301866124c2565b8181036020830152612ac281856124e2565b9050612ad16040830184612458565b949350505050565b600081519050919050565b600082825260208201905092915050565b6000819050602082019050919050565b6000608083016000830151612b1d6000860182612286565b506020830151612b306020860182612314565b5060408301518482036040860152612b4882826122db565b9150506060830151612b5d6060860182612314565b508091505092915050565b6000612b748383612b05565b905092915050565b6000602082019050919050565b6000612b9482612ad9565b612b9e8185612ae4565b935083602082028501612bb085612af5565b8060005b85811015612bec5784840389528151612bcd8582612b68565b9450612bd883612b7c565b925060208a01995050600181019050612bb4565b50829750879550505050505092915050565b60006020820190508181036000830152612c188184612b89565b905092915050565b600080600060608486031215612c3957612c38611fc3565b5b6000612c4786828701612016565b9350506020612c5886828701612016565b925050604084013567ffffffffffffffff811115612c7957612c78611fc8565b5b612c8586828701612179565b9150509250925092565b7f4e487b7100000000000000000000000000000000000000000000000000000000600052602260045260246000fd5b60006002820490506001821680612cd657607f821691505b602082108103612ce957612ce8612c8f565b5b50919050565b60008190508160005260206000209050919050565b60006020601f8301049050919050565b600082821b905092915050565b600060088302612d517fffffffffffffffffffffffffffffffffffffffffffffffffffffffffffffffff82612d14565b612d5b8683612d14565b95508019841693508086168417925050509392505050565b6000819050919050565b6000612d98612d93612d8e8461202b565b612d73565b61202b565b9050919050565b6000819050919050565b612db283612d7d565b612dc6612dbe82612d9f565b848454612d21565b825550505050565b600090565b612ddb612dce565b612de6818484612da9565b505050565b5b81811015612e0a57612dff600082612dd3565b600181019050612dec565b5050565b601f821115612e4f57612e2081612cef565b612e2984612d04565b81016020851015612e38578190505b612e4c612e4485612d04565b830182612deb565b50505b505050565b600082821c905092915050565b6000612e7260001984600802612e54565b1980831691505092915050565b6000612e8b8383612e61565b9150826002028217905092915050565b612ea482612295565b67ffffffffffffffff811115612ebd57612ebc61207c565b5b612ec78254612cbe565b612ed2828285612e0e565b600060209050601f831160018114612f055760008415612ef3578287015190505b612efd8582612e7f565b865550612f65565b601f198416612f1386612cef565b60005b82811015612f3b57848901518255600182019150602085019450602081019050612f16565b86831015612f585784890151612f54601f891682612e61565b8355505b6001600288020188555050505b505050505050565b7f4e487b7100000000000000000000000000000000000000000000000000000000600052601160045260246000fd5b6000612fa78261202b565b9150612fb28361202b565b9250828201905080821115612fca57612fc9612f6d565b5b92915050565b6000612fdb8261202b565b91507fffffffffffffffffffffffffffffffffffffffffffffffffffffffffffffffff820361300d5761300c612f6d565b5b600182019050919050565b7f41646d696e207265676973746572656421210000000000000000000000000000600082015250565b600061304e6012836124d1565b915061305982613018565b602082019050919050565b6000602082019050818103600083015261307d81613041565b9050919050565b7f66616c7365000000000000000000000000000000000000000000000000000000600082015250565b60006130ba6005836124d1565b91506130c582613084565b602082019050919050565b600060208201905081810360008301526130e9816130ad565b9050919050565b7f537570706c792072656769737465726564212100000000000000000000000000600082015250565b60006131266013836124d1565b9150613131826130f0565b602082019050919050565b6000602082019050818103600083015261315581613119565b905091905056fea26469706673582212209415b17de65d9f0efc8c750f54eb0078934ba9e5bad0564f623ed3060a49910f64736f6c63430008180033",
  "linkReferences": {},
  "deployedLinkReferences": {}
}